{
	"PoT.sol": {
		"PoTFactory": {
			"abi": [
				{
					"anonymous": false,
					"inputs": [
						{
							"indexed": false,
							"internalType": "string",
							"name": "message",
							"type": "string"
						}
					],
					"name": "Echo",
					"type": "event"
				},
				{
					"inputs": [
						{
							"internalType": "string",
							"name": "message",
							"type": "string"
						}
					],
					"name": "echo",
					"outputs": [],
					"stateMutability": "nonpayable",
					"type": "function"
				},
				{
					"inputs": [
						{
							"internalType": "string",
							"name": "",
							"type": "string"
						}
					],
					"name": "flowAddr",
					"outputs": [
						{
							"internalType": "address",
							"name": "",
							"type": "address"
						}
					],
					"stateMutability": "view",
					"type": "function"
				},
				{
					"inputs": [
						{
							"internalType": "string",
							"name": "flowId",
							"type": "string"
						}
					],
					"name": "getFlowCompliance",
					"outputs": [
						{
							"internalType": "uint256",
							"name": "success",
							"type": "uint256"
						},
						{
							"internalType": "uint256",
							"name": "fail",
							"type": "uint256"
						},
						{
							"internalType": "uint256",
							"name": "nil",
							"type": "uint256"
						},
						{
							"internalType": "string",
							"name": "routeId",
							"type": "string"
						}
					],
					"stateMutability": "view",
					"type": "function"
				},
				{
					"inputs": [
						{
							"internalType": "string",
							"name": "flowId",
							"type": "string"
						},
						{
							"internalType": "string",
							"name": "id_x",
							"type": "string"
						},
						{
							"internalType": "string",
							"name": "hash",
							"type": "string"
						}
					],
					"name": "logFlowProbeHash",
					"outputs": [],
					"stateMutability": "nonpayable",
					"type": "function"
				},
				{
					"inputs": [
						{
							"internalType": "string",
							"name": "flowId",
							"type": "string"
						},
						{
							"internalType": "address",
							"name": "egress_edgeAddr",
							"type": "address"
						},
						{
							"internalType": "string",
							"name": "routeId",
							"type": "string"
						}
					],
					"name": "newFlow",
					"outputs": [],
					"stateMutability": "nonpayable",
					"type": "function"
				},
				{
					"inputs": [
						{
							"internalType": "string",
							"name": "flowId",
							"type": "string"
						},
						{
							"internalType": "string",
							"name": "id_x",
							"type": "string"
						},
						{
							"internalType": "string",
							"name": "hash",
							"type": "string"
						}
					],
					"name": "setFlowProbeHash",
					"outputs": [],
					"stateMutability": "nonpayable",
					"type": "function"
				},
				{
					"inputs": [
						{
							"internalType": "string",
							"name": "flowId",
							"type": "string"
						},
						{
							"internalType": "string",
							"name": "newRouteID",
							"type": "string"
						},
						{
							"internalType": "address",
							"name": "newEgressEdge",
							"type": "address"
						}
					],
					"name": "setRouteId",
					"outputs": [],
					"stateMutability": "nonpayable",
					"type": "function"
				}
			],
			"devdoc": {
				"kind": "dev",
				"methods": {},
				"version": 1
			},
			"evm": {
				"assembly": "    /* \"PoT.sol\":3437:5251  contract PoTFactory{... */\n  mstore(0x40, 0x80)\n  callvalue\n  dup1\n  iszero\n  tag_1\n  jumpi\n  0x00\n  dup1\n  revert\ntag_1:\n  pop\n  dataSize(sub_0)\n  dup1\n  dataOffset(sub_0)\n  0x00\n  codecopy\n  0x00\n  return\nstop\n\nsub_0: assembly {\n        /* \"PoT.sol\":3437:5251  contract PoTFactory{... */\n      mstore(0x40, 0x80)\n      callvalue\n      dup1\n      iszero\n      tag_1\n      jumpi\n      0x00\n      dup1\n      revert\n    tag_1:\n      pop\n      jumpi(tag_2, lt(calldatasize, 0x04))\n      shr(0xe0, calldataload(0x00))\n      dup1\n      0xb288366b\n      gt\n      tag_10\n      jumpi\n      dup1\n      0xb288366b\n      eq\n      tag_6\n      jumpi\n      dup1\n      0xe6a594bc\n      eq\n      tag_7\n      jumpi\n      dup1\n      0xf15da729\n      eq\n      tag_8\n      jumpi\n      dup1\n      0xf3a01fd2\n      eq\n      tag_9\n      jumpi\n      jump(tag_2)\n    tag_10:\n      dup1\n      0x058187aa\n      eq\n      tag_3\n      jumpi\n      dup1\n      0x3dc1779e\n      eq\n      tag_4\n      jumpi\n      dup1\n      0x5ca94b73\n      eq\n      tag_5\n      jumpi\n    tag_2:\n      0x00\n      dup1\n      revert\n        /* \"PoT.sol\":4918:5248  function getFlowCompliance(string memory flowId) public view isFlowRegistered(flowId) returns (uint success, uint fail, uint nil, string memory routeId){... */\n    tag_3:\n      tag_11\n      0x04\n      dup1\n      calldatasize\n      sub\n      dup2\n      add\n      swap1\n      tag_12\n      swap2\n      swap1\n      tag_13\n      jump\t// in\n    tag_12:\n      tag_14\n      jump\t// in\n    tag_11:\n      mload(0x40)\n      tag_15\n      swap5\n      swap4\n      swap3\n      swap2\n      swap1\n      tag_16\n      jump\t// in\n    tag_15:\n      mload(0x40)\n      dup1\n      swap2\n      sub\n      swap1\n      return\n        /* \"PoT.sol\":4386:4627  function logFlowProbeHash(string memory flowId, string memory id_x, string memory hash) public isFlowRegistered(flowId){... */\n    tag_4:\n      tag_17\n      0x04\n      dup1\n      calldatasize\n      sub\n      dup2\n      add\n      swap1\n      tag_18\n      swap2\n      swap1\n      tag_19\n      jump\t// in\n    tag_18:\n      tag_20\n      jump\t// in\n    tag_17:\n      stop\n        /* \"PoT.sol\":4135:4380  function setFlowProbeHash(string memory flowId, string memory id_x, string memory hash) public isFlowRegistered(flowId){... */\n    tag_5:\n      tag_21\n      0x04\n      dup1\n      calldatasize\n      sub\n      dup2\n      add\n      swap1\n      tag_22\n      swap2\n      swap1\n      tag_19\n      jump\t// in\n    tag_22:\n      tag_23\n      jump\t// in\n    tag_21:\n      stop\n        /* \"PoT.sol\":3517:3559  mapping(string => address) public flowAddr */\n    tag_6:\n      tag_24\n      0x04\n      dup1\n      calldatasize\n      sub\n      dup2\n      add\n      swap1\n      tag_25\n      swap2\n      swap1\n      tag_13\n      jump\t// in\n    tag_25:\n      tag_26\n      jump\t// in\n    tag_24:\n      mload(0x40)\n      tag_27\n      swap2\n      swap1\n      tag_28\n      jump\t// in\n    tag_27:\n      mload(0x40)\n      dup1\n      swap2\n      sub\n      swap1\n      return\n        /* \"PoT.sol\":4633:4912  function setRouteId(string memory flowId, string memory newRouteID, address newEgressEdge) public isFlowRegistered(flowId){... */\n    tag_7:\n      tag_29\n      0x04\n      dup1\n      calldatasize\n      sub\n      dup2\n      add\n      swap1\n      tag_30\n      swap2\n      swap1\n      tag_31\n      jump\t// in\n    tag_30:\n      tag_32\n      jump\t// in\n    tag_29:\n      stop\n        /* \"PoT.sol\":3770:3853  function echo(string calldata message) external {... */\n    tag_8:\n      tag_33\n      0x04\n      dup1\n      calldatasize\n      sub\n      dup2\n      add\n      swap1\n      tag_34\n      swap2\n      swap1\n      tag_35\n      jump\t// in\n    tag_34:\n      tag_36\n      jump\t// in\n    tag_33:\n      stop\n        /* \"PoT.sol\":3859:4129  function newFlow(string memory flowId, address egress_edgeAddr, string memory routeId) public{... */\n    tag_9:\n      tag_37\n      0x04\n      dup1\n      calldatasize\n      sub\n      dup2\n      add\n      swap1\n      tag_38\n      swap2\n      swap1\n      tag_39\n      jump\t// in\n    tag_38:\n      tag_40\n      jump\t// in\n    tag_37:\n      stop\n        /* \"PoT.sol\":4918:5248  function getFlowCompliance(string memory flowId) public view isFlowRegistered(flowId) returns (uint success, uint fail, uint nil, string memory routeId){... */\n    tag_14:\n        /* \"PoT.sol\":5013:5025  uint success */\n      0x00\n        /* \"PoT.sol\":5027:5036  uint fail */\n      dup1\n        /* \"PoT.sol\":5038:5046  uint nil */\n      0x00\n        /* \"PoT.sol\":5048:5069  string memory routeId */\n      0x60\n        /* \"PoT.sol\":4996:5002  flowId */\n      dup5\n        /* \"PoT.sol\":3692:3693  0 */\n      0x00\n        /* \"PoT.sol\":3664:3694  flowAddr[flowId] != address(0) */\n      0xffffffffffffffffffffffffffffffffffffffff\n      and\n        /* \"PoT.sol\":3664:3672  flowAddr */\n      0x01\n        /* \"PoT.sol\":3673:3679  flowId */\n      dup3\n        /* \"PoT.sol\":3664:3680  flowAddr[flowId] */\n      mload(0x40)\n      tag_42\n      swap2\n      swap1\n      tag_43\n      jump\t// in\n    tag_42:\n      swap1\n      dup2\n      mstore\n      0x20\n      add\n      mload(0x40)\n      dup1\n      swap2\n      sub\n      swap1\n      keccak256\n      0x00\n      swap1\n      sload\n      swap1\n      0x0100\n      exp\n      swap1\n      div\n      0xffffffffffffffffffffffffffffffffffffffff\n      and\n        /* \"PoT.sol\":3664:3694  flowAddr[flowId] != address(0) */\n      0xffffffffffffffffffffffffffffffffffffffff\n      and\n      sub\n        /* \"PoT.sol\":3656:3746  require(flowAddr[flowId] != address(0), \"No flow is registered with the provided flow ID\") */\n      tag_44\n      jumpi\n      mload(0x40)\n      0x08c379a000000000000000000000000000000000000000000000000000000000\n      dup2\n      mstore\n      0x04\n      add\n      tag_45\n      swap1\n      tag_46\n      jump\t// in\n    tag_45:\n      mload(0x40)\n      dup1\n      swap2\n      sub\n      swap1\n      revert\n    tag_44:\n        /* \"PoT.sol\":5080:5098  ProofOfTransit pot */\n      0x00\n        /* \"PoT.sol\":5116:5123  flowPOT */\n      dup1\n        /* \"PoT.sol\":5124:5130  flowId */\n      dup8\n        /* \"PoT.sol\":5116:5131  flowPOT[flowId] */\n      mload(0x40)\n      tag_48\n      swap2\n      swap1\n      tag_43\n      jump\t// in\n    tag_48:\n      swap1\n      dup2\n      mstore\n      0x20\n      add\n      mload(0x40)\n      dup1\n      swap2\n      sub\n      swap1\n      keccak256\n      0x00\n      swap1\n      sload\n      swap1\n      0x0100\n      exp\n      swap1\n      div\n      0xffffffffffffffffffffffffffffffffffffffff\n      and\n        /* \"PoT.sol\":5080:5132  ProofOfTransit pot = ProofOfTransit(flowPOT[flowId]) */\n      swap1\n      pop\n        /* \"PoT.sol\":5175:5178  pot */\n      dup1\n        /* \"PoT.sol\":5175:5192  pot.getCompliance */\n      0xffffffffffffffffffffffffffffffffffffffff\n      and\n      0xef040bb1\n        /* \"PoT.sol\":5175:5194  pot.getCompliance() */\n      mload(0x40)\n      dup2\n      0xffffffff\n      and\n      0xe0\n      shl\n      dup2\n      mstore\n      0x04\n      add\n      0x00\n      mload(0x40)\n      dup1\n      dup4\n      sub\n      dup2\n      dup7\n      gas\n      staticcall\n      iszero\n      dup1\n      iszero\n      tag_50\n      jumpi\n      returndatasize\n      0x00\n      dup1\n      returndatacopy\n      revert(0x00, returndatasize)\n    tag_50:\n      pop\n      pop\n      pop\n      pop\n      mload(0x40)\n      returndatasize\n      0x00\n      dup3\n      returndatacopy\n      returndatasize\n      not(0x1f)\n      0x1f\n      dup3\n      add\n      and\n      dup3\n      add\n      dup1\n      0x40\n      mstore\n      pop\n      dup2\n      add\n      swap1\n      tag_51\n      swap2\n      swap1\n      tag_52\n      jump\t// in\n    tag_51:\n        /* \"PoT.sol\":5143:5194  (success, fail, nil, routeId) = pot.getCompliance() */\n      dup1\n      swap7\n      pop\n      dup2\n      swap8\n      pop\n      dup3\n      swap9\n      pop\n      dup4\n      swap10\n      pop\n      pop\n      pop\n      pop\n      pop\n        /* \"PoT.sol\":5205:5241  return (success, fail, nil, routeId) */\n      pop\n        /* \"PoT.sol\":4918:5248  function getFlowCompliance(string memory flowId) public view isFlowRegistered(flowId) returns (uint success, uint fail, uint nil, string memory routeId){... */\n      pop\n      swap2\n      swap4\n      pop\n      swap2\n      swap4\n      jump\t// out\n        /* \"PoT.sol\":4386:4627  function logFlowProbeHash(string memory flowId, string memory id_x, string memory hash) public isFlowRegistered(flowId){... */\n    tag_20:\n        /* \"PoT.sol\":4498:4504  flowId */\n      dup3\n        /* \"PoT.sol\":3692:3693  0 */\n      0x00\n        /* \"PoT.sol\":3664:3694  flowAddr[flowId] != address(0) */\n      0xffffffffffffffffffffffffffffffffffffffff\n      and\n        /* \"PoT.sol\":3664:3672  flowAddr */\n      0x01\n        /* \"PoT.sol\":3673:3679  flowId */\n      dup3\n        /* \"PoT.sol\":3664:3680  flowAddr[flowId] */\n      mload(0x40)\n      tag_54\n      swap2\n      swap1\n      tag_43\n      jump\t// in\n    tag_54:\n      swap1\n      dup2\n      mstore\n      0x20\n      add\n      mload(0x40)\n      dup1\n      swap2\n      sub\n      swap1\n      keccak256\n      0x00\n      swap1\n      sload\n      swap1\n      0x0100\n      exp\n      swap1\n      div\n      0xffffffffffffffffffffffffffffffffffffffff\n      and\n        /* \"PoT.sol\":3664:3694  flowAddr[flowId] != address(0) */\n      0xffffffffffffffffffffffffffffffffffffffff\n      and\n      sub\n        /* \"PoT.sol\":3656:3746  require(flowAddr[flowId] != address(0), \"No flow is registered with the provided flow ID\") */\n      tag_55\n      jumpi\n      mload(0x40)\n      0x08c379a000000000000000000000000000000000000000000000000000000000\n      dup2\n      mstore\n      0x04\n      add\n      tag_56\n      swap1\n      tag_46\n      jump\t// in\n    tag_56:\n      mload(0x40)\n      dup1\n      swap2\n      sub\n      swap1\n      revert\n    tag_55:\n        /* \"PoT.sol\":4515:4533  ProofOfTransit pot */\n      0x00\n        /* \"PoT.sol\":4551:4558  flowPOT */\n      dup1\n        /* \"PoT.sol\":4559:4565  flowId */\n      dup6\n        /* \"PoT.sol\":4551:4566  flowPOT[flowId] */\n      mload(0x40)\n      tag_58\n      swap2\n      swap1\n      tag_43\n      jump\t// in\n    tag_58:\n      swap1\n      dup2\n      mstore\n      0x20\n      add\n      mload(0x40)\n      dup1\n      swap2\n      sub\n      swap1\n      keccak256\n      0x00\n      swap1\n      sload\n      swap1\n      0x0100\n      exp\n      swap1\n      div\n      0xffffffffffffffffffffffffffffffffffffffff\n      and\n        /* \"PoT.sol\":4515:4567  ProofOfTransit pot = ProofOfTransit(flowPOT[flowId]) */\n      swap1\n      pop\n        /* \"PoT.sol\":4586:4589  pot */\n      dup1\n        /* \"PoT.sol\":4586:4598  pot.logProbe */\n      0xffffffffffffffffffffffffffffffffffffffff\n      and\n      0x9877afc5\n        /* \"PoT.sol\":4599:4603  id_x */\n      dup6\n        /* \"PoT.sol\":4604:4608  hash */\n      dup6\n        /* \"PoT.sol\":4609:4619  msg.sender */\n      caller\n        /* \"PoT.sol\":4586:4620  pot.logProbe(id_x,hash,msg.sender) */\n      mload(0x40)\n      dup5\n      0xffffffff\n      and\n      0xe0\n      shl\n      dup2\n      mstore\n      0x04\n      add\n      tag_59\n      swap4\n      swap3\n      swap2\n      swap1\n      tag_60\n      jump\t// in\n    tag_59:\n      0x00\n      mload(0x40)\n      dup1\n      dup4\n      sub\n      dup2\n      0x00\n      dup8\n      dup1\n      extcodesize\n      iszero\n      dup1\n      iszero\n      tag_61\n      jumpi\n      0x00\n      dup1\n      revert\n    tag_61:\n      pop\n      gas\n      call\n      iszero\n      dup1\n      iszero\n      tag_63\n      jumpi\n      returndatasize\n      0x00\n      dup1\n      returndatacopy\n      revert(0x00, returndatasize)\n    tag_63:\n      pop\n      pop\n      pop\n      pop\n        /* \"PoT.sol\":4505:4627  {... */\n      pop\n        /* \"PoT.sol\":4386:4627  function logFlowProbeHash(string memory flowId, string memory id_x, string memory hash) public isFlowRegistered(flowId){... */\n      pop\n      pop\n      pop\n      pop\n      jump\t// out\n        /* \"PoT.sol\":4135:4380  function setFlowProbeHash(string memory flowId, string memory id_x, string memory hash) public isFlowRegistered(flowId){... */\n    tag_23:\n        /* \"PoT.sol\":4247:4253  flowId */\n      dup3\n        /* \"PoT.sol\":3692:3693  0 */\n      0x00\n        /* \"PoT.sol\":3664:3694  flowAddr[flowId] != address(0) */\n      0xffffffffffffffffffffffffffffffffffffffff\n      and\n        /* \"PoT.sol\":3664:3672  flowAddr */\n      0x01\n        /* \"PoT.sol\":3673:3679  flowId */\n      dup3\n        /* \"PoT.sol\":3664:3680  flowAddr[flowId] */\n      mload(0x40)\n      tag_65\n      swap2\n      swap1\n      tag_43\n      jump\t// in\n    tag_65:\n      swap1\n      dup2\n      mstore\n      0x20\n      add\n      mload(0x40)\n      dup1\n      swap2\n      sub\n      swap1\n      keccak256\n      0x00\n      swap1\n      sload\n      swap1\n      0x0100\n      exp\n      swap1\n      div\n      0xffffffffffffffffffffffffffffffffffffffff\n      and\n        /* \"PoT.sol\":3664:3694  flowAddr[flowId] != address(0) */\n      0xffffffffffffffffffffffffffffffffffffffff\n      and\n      sub\n        /* \"PoT.sol\":3656:3746  require(flowAddr[flowId] != address(0), \"No flow is registered with the provided flow ID\") */\n      tag_66\n      jumpi\n      mload(0x40)\n      0x08c379a000000000000000000000000000000000000000000000000000000000\n      dup2\n      mstore\n      0x04\n      add\n      tag_67\n      swap1\n      tag_46\n      jump\t// in\n    tag_67:\n      mload(0x40)\n      dup1\n      swap2\n      sub\n      swap1\n      revert\n    tag_66:\n        /* \"PoT.sol\":4264:4282  ProofOfTransit pot */\n      0x00\n        /* \"PoT.sol\":4300:4307  flowPOT */\n      dup1\n        /* \"PoT.sol\":4308:4314  flowId */\n      dup6\n        /* \"PoT.sol\":4300:4315  flowPOT[flowId] */\n      mload(0x40)\n      tag_69\n      swap2\n      swap1\n      tag_43\n      jump\t// in\n    tag_69:\n      swap1\n      dup2\n      mstore\n      0x20\n      add\n      mload(0x40)\n      dup1\n      swap2\n      sub\n      swap1\n      keccak256\n      0x00\n      swap1\n      sload\n      swap1\n      0x0100\n      exp\n      swap1\n      div\n      0xffffffffffffffffffffffffffffffffffffffff\n      and\n        /* \"PoT.sol\":4264:4316  ProofOfTransit pot = ProofOfTransit(flowPOT[flowId]) */\n      swap1\n      pop\n        /* \"PoT.sol\":4335:4338  pot */\n      dup1\n        /* \"PoT.sol\":4335:4351  pot.setProbeHash */\n      0xffffffffffffffffffffffffffffffffffffffff\n      and\n      0xb68cc799\n        /* \"PoT.sol\":4352:4356  id_x */\n      dup6\n        /* \"PoT.sol\":4357:4361  hash */\n      dup6\n        /* \"PoT.sol\":4362:4372  msg.sender */\n      caller\n        /* \"PoT.sol\":4335:4373  pot.setProbeHash(id_x,hash,msg.sender) */\n      mload(0x40)\n      dup5\n      0xffffffff\n      and\n      0xe0\n      shl\n      dup2\n      mstore\n      0x04\n      add\n      tag_70\n      swap4\n      swap3\n      swap2\n      swap1\n      tag_60\n      jump\t// in\n    tag_70:\n      0x00\n      mload(0x40)\n      dup1\n      dup4\n      sub\n      dup2\n      0x00\n      dup8\n      dup1\n      extcodesize\n      iszero\n      dup1\n      iszero\n      tag_71\n      jumpi\n      0x00\n      dup1\n      revert\n    tag_71:\n      pop\n      gas\n      call\n      iszero\n      dup1\n      iszero\n      tag_73\n      jumpi\n      returndatasize\n      0x00\n      dup1\n      returndatacopy\n      revert(0x00, returndatasize)\n    tag_73:\n      pop\n      pop\n      pop\n      pop\n        /* \"PoT.sol\":4254:4380  {... */\n      pop\n        /* \"PoT.sol\":4135:4380  function setFlowProbeHash(string memory flowId, string memory id_x, string memory hash) public isFlowRegistered(flowId){... */\n      pop\n      pop\n      pop\n      pop\n      jump\t// out\n        /* \"PoT.sol\":3517:3559  mapping(string => address) public flowAddr */\n    tag_26:\n      0x01\n      dup2\n      dup1\n      mload\n      0x20\n      dup2\n      add\n      dup3\n      add\n      dup1\n      mload\n      dup5\n      dup3\n      mstore\n      0x20\n      dup4\n      add\n      0x20\n      dup6\n      add\n      keccak256\n      dup2\n      dup4\n      mstore\n      dup1\n      swap6\n      pop\n      pop\n      pop\n      pop\n      pop\n      pop\n      0x00\n      swap2\n      pop\n      sload\n      swap1\n      0x0100\n      exp\n      swap1\n      div\n      0xffffffffffffffffffffffffffffffffffffffff\n      and\n      dup2\n      jump\t// out\n        /* \"PoT.sol\":4633:4912  function setRouteId(string memory flowId, string memory newRouteID, address newEgressEdge) public isFlowRegistered(flowId){... */\n    tag_32:\n        /* \"PoT.sol\":4748:4754  flowId */\n      dup3\n        /* \"PoT.sol\":3692:3693  0 */\n      0x00\n        /* \"PoT.sol\":3664:3694  flowAddr[flowId] != address(0) */\n      0xffffffffffffffffffffffffffffffffffffffff\n      and\n        /* \"PoT.sol\":3664:3672  flowAddr */\n      0x01\n        /* \"PoT.sol\":3673:3679  flowId */\n      dup3\n        /* \"PoT.sol\":3664:3680  flowAddr[flowId] */\n      mload(0x40)\n      tag_75\n      swap2\n      swap1\n      tag_43\n      jump\t// in\n    tag_75:\n      swap1\n      dup2\n      mstore\n      0x20\n      add\n      mload(0x40)\n      dup1\n      swap2\n      sub\n      swap1\n      keccak256\n      0x00\n      swap1\n      sload\n      swap1\n      0x0100\n      exp\n      swap1\n      div\n      0xffffffffffffffffffffffffffffffffffffffff\n      and\n        /* \"PoT.sol\":3664:3694  flowAddr[flowId] != address(0) */\n      0xffffffffffffffffffffffffffffffffffffffff\n      and\n      sub\n        /* \"PoT.sol\":3656:3746  require(flowAddr[flowId] != address(0), \"No flow is registered with the provided flow ID\") */\n      tag_76\n      jumpi\n      mload(0x40)\n      0x08c379a000000000000000000000000000000000000000000000000000000000\n      dup2\n      mstore\n      0x04\n      add\n      tag_77\n      swap1\n      tag_46\n      jump\t// in\n    tag_77:\n      mload(0x40)\n      dup1\n      swap2\n      sub\n      swap1\n      revert\n    tag_76:\n        /* \"PoT.sol\":4765:4783  ProofOfTransit pot */\n      0x00\n        /* \"PoT.sol\":4801:4808  flowPOT */\n      dup1\n        /* \"PoT.sol\":4809:4815  flowId */\n      dup6\n        /* \"PoT.sol\":4801:4816  flowPOT[flowId] */\n      mload(0x40)\n      tag_79\n      swap2\n      swap1\n      tag_43\n      jump\t// in\n    tag_79:\n      swap1\n      dup2\n      mstore\n      0x20\n      add\n      mload(0x40)\n      dup1\n      swap2\n      sub\n      swap1\n      keccak256\n      0x00\n      swap1\n      sload\n      swap1\n      0x0100\n      exp\n      swap1\n      div\n      0xffffffffffffffffffffffffffffffffffffffff\n      and\n        /* \"PoT.sol\":4765:4817  ProofOfTransit pot = ProofOfTransit(flowPOT[flowId]) */\n      swap1\n      pop\n        /* \"PoT.sol\":4836:4839  pot */\n      dup1\n        /* \"PoT.sol\":4836:4866  pot.changeRouteIdAndEgressEdge */\n      0xffffffffffffffffffffffffffffffffffffffff\n      and\n      0xc543691a\n        /* \"PoT.sol\":4867:4877  newRouteID */\n      dup6\n        /* \"PoT.sol\":4879:4892  newEgressEdge */\n      dup6\n        /* \"PoT.sol\":4894:4904  msg.sender */\n      caller\n        /* \"PoT.sol\":4836:4905  pot.changeRouteIdAndEgressEdge(newRouteID, newEgressEdge, msg.sender) */\n      mload(0x40)\n      dup5\n      0xffffffff\n      and\n      0xe0\n      shl\n      dup2\n      mstore\n      0x04\n      add\n      tag_80\n      swap4\n      swap3\n      swap2\n      swap1\n      tag_81\n      jump\t// in\n    tag_80:\n      0x00\n      mload(0x40)\n      dup1\n      dup4\n      sub\n      dup2\n      0x00\n      dup8\n      dup1\n      extcodesize\n      iszero\n      dup1\n      iszero\n      tag_82\n      jumpi\n      0x00\n      dup1\n      revert\n    tag_82:\n      pop\n      gas\n      call\n      iszero\n      dup1\n      iszero\n      tag_84\n      jumpi\n      returndatasize\n      0x00\n      dup1\n      returndatacopy\n      revert(0x00, returndatasize)\n    tag_84:\n      pop\n      pop\n      pop\n      pop\n        /* \"PoT.sol\":4755:4912  {... */\n      pop\n        /* \"PoT.sol\":4633:4912  function setRouteId(string memory flowId, string memory newRouteID, address newEgressEdge) public isFlowRegistered(flowId){... */\n      pop\n      pop\n      pop\n      pop\n      jump\t// out\n        /* \"PoT.sol\":3770:3853  function echo(string calldata message) external {... */\n    tag_36:\n        /* \"PoT.sol\":3833:3846  Echo(message) */\n      0xdb84d7c006c4de68f9c0bd50b8b81ed31f29ebeec325c872d36445c6565d757c\n        /* \"PoT.sol\":3838:3845  message */\n      dup3\n      dup3\n        /* \"PoT.sol\":3833:3846  Echo(message) */\n      mload(0x40)\n      tag_86\n      swap3\n      swap2\n      swap1\n      tag_87\n      jump\t// in\n    tag_86:\n      mload(0x40)\n      dup1\n      swap2\n      sub\n      swap1\n      log1\n        /* \"PoT.sol\":3770:3853  function echo(string calldata message) external {... */\n      pop\n      pop\n      jump\t// out\n        /* \"PoT.sol\":3859:4129  function newFlow(string memory flowId, address egress_edgeAddr, string memory routeId) public{... */\n    tag_40:\n        /* \"PoT.sol\":3962:3984  ProofOfTransit new_pot */\n      0x00\n        /* \"PoT.sol\":4006:4016  msg.sender */\n      caller\n        /* \"PoT.sol\":4017:4032  egress_edgeAddr */\n      dup4\n        /* \"PoT.sol\":4033:4040  routeId */\n      dup4\n        /* \"PoT.sol\":3987:4041  new ProofOfTransit(msg.sender,egress_edgeAddr,routeId) */\n      mload(0x40)\n      tag_89\n      swap1\n      tag_90\n      jump\t// in\n    tag_89:\n      tag_91\n      swap4\n      swap3\n      swap2\n      swap1\n      tag_92\n      jump\t// in\n    tag_91:\n      mload(0x40)\n      dup1\n      swap2\n      sub\n      swap1\n      0x00\n      create\n      dup1\n      iszero\n      dup1\n      iszero\n      tag_93\n      jumpi\n      returndatasize\n      0x00\n      dup1\n      returndatacopy\n      revert(0x00, returndatasize)\n    tag_93:\n      pop\n        /* \"PoT.sol\":3962:4041  ProofOfTransit new_pot = new ProofOfTransit(msg.sender,egress_edgeAddr,routeId) */\n      swap1\n      pop\n        /* \"PoT.sol\":4070:4077  new_pot */\n      dup1\n        /* \"PoT.sol\":4052:4059  flowPOT */\n      0x00\n        /* \"PoT.sol\":4060:4066  flowId */\n      dup6\n        /* \"PoT.sol\":4052:4067  flowPOT[flowId] */\n      mload(0x40)\n      tag_94\n      swap2\n      swap1\n      tag_43\n      jump\t// in\n    tag_94:\n      swap1\n      dup2\n      mstore\n      0x20\n      add\n      mload(0x40)\n      dup1\n      swap2\n      sub\n      swap1\n      keccak256\n      0x00\n        /* \"PoT.sol\":4052:4077  flowPOT[flowId] = new_pot */\n      0x0100\n      exp\n      dup2\n      sload\n      dup2\n      0xffffffffffffffffffffffffffffffffffffffff\n      mul\n      not\n      and\n      swap1\n      dup4\n      0xffffffffffffffffffffffffffffffffffffffff\n      and\n      mul\n      or\n      swap1\n      sstore\n      pop\n        /* \"PoT.sol\":4114:4121  new_pot */\n      dup1\n        /* \"PoT.sol\":4087:4095  flowAddr */\n      0x01\n        /* \"PoT.sol\":4096:4102  flowId */\n      dup6\n        /* \"PoT.sol\":4087:4103  flowAddr[flowId] */\n      mload(0x40)\n      tag_95\n      swap2\n      swap1\n      tag_43\n      jump\t// in\n    tag_95:\n      swap1\n      dup2\n      mstore\n      0x20\n      add\n      mload(0x40)\n      dup1\n      swap2\n      sub\n      swap1\n      keccak256\n      0x00\n        /* \"PoT.sol\":4087:4122  flowAddr[flowId] = address(new_pot) */\n      0x0100\n      exp\n      dup2\n      sload\n      dup2\n      0xffffffffffffffffffffffffffffffffffffffff\n      mul\n      not\n      and\n      swap1\n      dup4\n      0xffffffffffffffffffffffffffffffffffffffff\n      and\n      mul\n      or\n      swap1\n      sstore\n      pop\n        /* \"PoT.sol\":3952:4129  {... */\n      pop\n        /* \"PoT.sol\":3859:4129  function newFlow(string memory flowId, address egress_edgeAddr, string memory routeId) public{... */\n      pop\n      pop\n      pop\n      jump\t// out\n    tag_90:\n      dataSize(sub_0)\n      dup1\n      dataOffset(sub_0)\n      dup4\n      codecopy\n      add\n      swap1\n      jump\t// out\n        /* \"#utility.yul\":7:82   */\n    tag_96:\n        /* \"#utility.yul\":40:46   */\n      0x00\n        /* \"#utility.yul\":73:75   */\n      0x40\n        /* \"#utility.yul\":67:76   */\n      mload\n        /* \"#utility.yul\":57:76   */\n      swap1\n      pop\n        /* \"#utility.yul\":7:82   */\n      swap1\n      jump\t// out\n        /* \"#utility.yul\":88:205   */\n    tag_97:\n        /* \"#utility.yul\":197:198   */\n      0x00\n        /* \"#utility.yul\":194:195   */\n      dup1\n        /* \"#utility.yul\":187:199   */\n      revert\n        /* \"#utility.yul\":211:328   */\n    tag_98:\n        /* \"#utility.yul\":320:321   */\n      0x00\n        /* \"#utility.yul\":317:318   */\n      dup1\n        /* \"#utility.yul\":310:322   */\n      revert\n        /* \"#utility.yul\":334:451   */\n    tag_99:\n        /* \"#utility.yul\":443:444   */\n      0x00\n        /* \"#utility.yul\":440:441   */\n      dup1\n        /* \"#utility.yul\":433:445   */\n      revert\n        /* \"#utility.yul\":457:574   */\n    tag_100:\n        /* \"#utility.yul\":566:567   */\n      0x00\n        /* \"#utility.yul\":563:564   */\n      dup1\n        /* \"#utility.yul\":556:568   */\n      revert\n        /* \"#utility.yul\":580:682   */\n    tag_101:\n        /* \"#utility.yul\":621:627   */\n      0x00\n        /* \"#utility.yul\":672:674   */\n      0x1f\n        /* \"#utility.yul\":668:675   */\n      not\n        /* \"#utility.yul\":663:665   */\n      0x1f\n        /* \"#utility.yul\":656:661   */\n      dup4\n        /* \"#utility.yul\":652:666   */\n      add\n        /* \"#utility.yul\":648:676   */\n      and\n        /* \"#utility.yul\":638:676   */\n      swap1\n      pop\n        /* \"#utility.yul\":580:682   */\n      swap2\n      swap1\n      pop\n      jump\t// out\n        /* \"#utility.yul\":688:868   */\n    tag_102:\n        /* \"#utility.yul\":736:813   */\n      0x4e487b7100000000000000000000000000000000000000000000000000000000\n        /* \"#utility.yul\":733:734   */\n      0x00\n        /* \"#utility.yul\":726:814   */\n      mstore\n        /* \"#utility.yul\":833:837   */\n      0x41\n        /* \"#utility.yul\":830:831   */\n      0x04\n        /* \"#utility.yul\":823:838   */\n      mstore\n        /* \"#utility.yul\":857:861   */\n      0x24\n        /* \"#utility.yul\":854:855   */\n      0x00\n        /* \"#utility.yul\":847:862   */\n      revert\n        /* \"#utility.yul\":874:1155   */\n    tag_103:\n        /* \"#utility.yul\":957:984   */\n      tag_141\n        /* \"#utility.yul\":979:983   */\n      dup3\n        /* \"#utility.yul\":957:984   */\n      tag_101\n      jump\t// in\n    tag_141:\n        /* \"#utility.yul\":949:955   */\n      dup2\n        /* \"#utility.yul\":945:985   */\n      add\n        /* \"#utility.yul\":1087:1093   */\n      dup2\n        /* \"#utility.yul\":1075:1085   */\n      dup2\n        /* \"#utility.yul\":1072:1094   */\n      lt\n        /* \"#utility.yul\":1051:1069   */\n      0xffffffffffffffff\n        /* \"#utility.yul\":1039:1049   */\n      dup3\n        /* \"#utility.yul\":1036:1070   */\n      gt\n        /* \"#utility.yul\":1033:1095   */\n      or\n        /* \"#utility.yul\":1030:1118   */\n      iszero\n      tag_142\n      jumpi\n        /* \"#utility.yul\":1098:1116   */\n      tag_143\n      tag_102\n      jump\t// in\n    tag_143:\n        /* \"#utility.yul\":1030:1118   */\n    tag_142:\n        /* \"#utility.yul\":1138:1148   */\n      dup1\n        /* \"#utility.yul\":1134:1136   */\n      0x40\n        /* \"#utility.yul\":1127:1149   */\n      mstore\n        /* \"#utility.yul\":917:1155   */\n      pop\n        /* \"#utility.yul\":874:1155   */\n      pop\n      pop\n      jump\t// out\n        /* \"#utility.yul\":1161:1290   */\n    tag_104:\n        /* \"#utility.yul\":1195:1201   */\n      0x00\n        /* \"#utility.yul\":1222:1242   */\n      tag_145\n      tag_96\n      jump\t// in\n    tag_145:\n        /* \"#utility.yul\":1212:1242   */\n      swap1\n      pop\n        /* \"#utility.yul\":1251:1284   */\n      tag_146\n        /* \"#utility.yul\":1279:1283   */\n      dup3\n        /* \"#utility.yul\":1271:1277   */\n      dup3\n        /* \"#utility.yul\":1251:1284   */\n      tag_103\n      jump\t// in\n    tag_146:\n        /* \"#utility.yul\":1161:1290   */\n      swap2\n      swap1\n      pop\n      jump\t// out\n        /* \"#utility.yul\":1296:1604   */\n    tag_105:\n        /* \"#utility.yul\":1358:1362   */\n      0x00\n        /* \"#utility.yul\":1448:1466   */\n      0xffffffffffffffff\n        /* \"#utility.yul\":1440:1446   */\n      dup3\n        /* \"#utility.yul\":1437:1467   */\n      gt\n        /* \"#utility.yul\":1434:1490   */\n      iszero\n      tag_148\n      jumpi\n        /* \"#utility.yul\":1470:1488   */\n      tag_149\n      tag_102\n      jump\t// in\n    tag_149:\n        /* \"#utility.yul\":1434:1490   */\n    tag_148:\n        /* \"#utility.yul\":1508:1537   */\n      tag_150\n        /* \"#utility.yul\":1530:1536   */\n      dup3\n        /* \"#utility.yul\":1508:1537   */\n      tag_101\n      jump\t// in\n    tag_150:\n        /* \"#utility.yul\":1500:1537   */\n      swap1\n      pop\n        /* \"#utility.yul\":1592:1596   */\n      0x20\n        /* \"#utility.yul\":1586:1590   */\n      dup2\n        /* \"#utility.yul\":1582:1597   */\n      add\n        /* \"#utility.yul\":1574:1597   */\n      swap1\n      pop\n        /* \"#utility.yul\":1296:1604   */\n      swap2\n      swap1\n      pop\n      jump\t// out\n        /* \"#utility.yul\":1610:1758   */\n    tag_106:\n        /* \"#utility.yul\":1708:1714   */\n      dup3\n        /* \"#utility.yul\":1703:1706   */\n      dup2\n        /* \"#utility.yul\":1698:1701   */\n      dup4\n        /* \"#utility.yul\":1685:1715   */\n      calldatacopy\n        /* \"#utility.yul\":1749:1750   */\n      0x00\n        /* \"#utility.yul\":1740:1746   */\n      dup4\n        /* \"#utility.yul\":1735:1738   */\n      dup4\n        /* \"#utility.yul\":1731:1747   */\n      add\n        /* \"#utility.yul\":1724:1751   */\n      mstore\n        /* \"#utility.yul\":1610:1758   */\n      pop\n      pop\n      pop\n      jump\t// out\n        /* \"#utility.yul\":1764:2189   */\n    tag_107:\n        /* \"#utility.yul\":1842:1847   */\n      0x00\n        /* \"#utility.yul\":1867:1933   */\n      tag_153\n        /* \"#utility.yul\":1883:1932   */\n      tag_154\n        /* \"#utility.yul\":1925:1931   */\n      dup5\n        /* \"#utility.yul\":1883:1932   */\n      tag_105\n      jump\t// in\n    tag_154:\n        /* \"#utility.yul\":1867:1933   */\n      tag_104\n      jump\t// in\n    tag_153:\n        /* \"#utility.yul\":1858:1933   */\n      swap1\n      pop\n        /* \"#utility.yul\":1956:1962   */\n      dup3\n        /* \"#utility.yul\":1949:1954   */\n      dup2\n        /* \"#utility.yul\":1942:1963   */\n      mstore\n        /* \"#utility.yul\":1994:1998   */\n      0x20\n        /* \"#utility.yul\":1987:1992   */\n      dup2\n        /* \"#utility.yul\":1983:1999   */\n      add\n        /* \"#utility.yul\":2032:2035   */\n      dup5\n        /* \"#utility.yul\":2023:2029   */\n      dup5\n        /* \"#utility.yul\":2018:2021   */\n      dup5\n        /* \"#utility.yul\":2014:2030   */\n      add\n        /* \"#utility.yul\":2011:2036   */\n      gt\n        /* \"#utility.yul\":2008:2120   */\n      iszero\n      tag_155\n      jumpi\n        /* \"#utility.yul\":2039:2118   */\n      tag_156\n      tag_100\n      jump\t// in\n    tag_156:\n        /* \"#utility.yul\":2008:2120   */\n    tag_155:\n        /* \"#utility.yul\":2129:2183   */\n      tag_157\n        /* \"#utility.yul\":2176:2182   */\n      dup5\n        /* \"#utility.yul\":2171:2174   */\n      dup3\n        /* \"#utility.yul\":2166:2169   */\n      dup6\n        /* \"#utility.yul\":2129:2183   */\n      tag_106\n      jump\t// in\n    tag_157:\n        /* \"#utility.yul\":1848:2189   */\n      pop\n        /* \"#utility.yul\":1764:2189   */\n      swap4\n      swap3\n      pop\n      pop\n      pop\n      jump\t// out\n        /* \"#utility.yul\":2209:2549   */\n    tag_108:\n        /* \"#utility.yul\":2265:2270   */\n      0x00\n        /* \"#utility.yul\":2314:2317   */\n      dup3\n        /* \"#utility.yul\":2307:2311   */\n      0x1f\n        /* \"#utility.yul\":2299:2305   */\n      dup4\n        /* \"#utility.yul\":2295:2312   */\n      add\n        /* \"#utility.yul\":2291:2318   */\n      slt\n        /* \"#utility.yul\":2281:2403   */\n      tag_159\n      jumpi\n        /* \"#utility.yul\":2322:2401   */\n      tag_160\n      tag_99\n      jump\t// in\n    tag_160:\n        /* \"#utility.yul\":2281:2403   */\n    tag_159:\n        /* \"#utility.yul\":2439:2445   */\n      dup2\n        /* \"#utility.yul\":2426:2446   */\n      calldataload\n        /* \"#utility.yul\":2464:2543   */\n      tag_161\n        /* \"#utility.yul\":2539:2542   */\n      dup5\n        /* \"#utility.yul\":2531:2537   */\n      dup3\n        /* \"#utility.yul\":2524:2528   */\n      0x20\n        /* \"#utility.yul\":2516:2522   */\n      dup7\n        /* \"#utility.yul\":2512:2529   */\n      add\n        /* \"#utility.yul\":2464:2543   */\n      tag_107\n      jump\t// in\n    tag_161:\n        /* \"#utility.yul\":2455:2543   */\n      swap2\n      pop\n        /* \"#utility.yul\":2271:2549   */\n      pop\n        /* \"#utility.yul\":2209:2549   */\n      swap3\n      swap2\n      pop\n      pop\n      jump\t// out\n        /* \"#utility.yul\":2555:3064   */\n    tag_13:\n        /* \"#utility.yul\":2624:2630   */\n      0x00\n        /* \"#utility.yul\":2673:2675   */\n      0x20\n        /* \"#utility.yul\":2661:2670   */\n      dup3\n        /* \"#utility.yul\":2652:2659   */\n      dup5\n        /* \"#utility.yul\":2648:2671   */\n      sub\n        /* \"#utility.yul\":2644:2676   */\n      slt\n        /* \"#utility.yul\":2641:2760   */\n      iszero\n      tag_163\n      jumpi\n        /* \"#utility.yul\":2679:2758   */\n      tag_164\n      tag_97\n      jump\t// in\n    tag_164:\n        /* \"#utility.yul\":2641:2760   */\n    tag_163:\n        /* \"#utility.yul\":2827:2828   */\n      0x00\n        /* \"#utility.yul\":2816:2825   */\n      dup3\n        /* \"#utility.yul\":2812:2829   */\n      add\n        /* \"#utility.yul\":2799:2830   */\n      calldataload\n        /* \"#utility.yul\":2857:2875   */\n      0xffffffffffffffff\n        /* \"#utility.yul\":2849:2855   */\n      dup2\n        /* \"#utility.yul\":2846:2876   */\n      gt\n        /* \"#utility.yul\":2843:2960   */\n      iszero\n      tag_165\n      jumpi\n        /* \"#utility.yul\":2879:2958   */\n      tag_166\n      tag_98\n      jump\t// in\n    tag_166:\n        /* \"#utility.yul\":2843:2960   */\n    tag_165:\n        /* \"#utility.yul\":2984:3047   */\n      tag_167\n        /* \"#utility.yul\":3039:3046   */\n      dup5\n        /* \"#utility.yul\":3030:3036   */\n      dup3\n        /* \"#utility.yul\":3019:3028   */\n      dup6\n        /* \"#utility.yul\":3015:3037   */\n      add\n        /* \"#utility.yul\":2984:3047   */\n      tag_108\n      jump\t// in\n    tag_167:\n        /* \"#utility.yul\":2974:3047   */\n      swap2\n      pop\n        /* \"#utility.yul\":2770:3057   */\n      pop\n        /* \"#utility.yul\":2555:3064   */\n      swap3\n      swap2\n      pop\n      pop\n      jump\t// out\n        /* \"#utility.yul\":3070:3147   */\n    tag_109:\n        /* \"#utility.yul\":3107:3114   */\n      0x00\n        /* \"#utility.yul\":3136:3141   */\n      dup2\n        /* \"#utility.yul\":3125:3141   */\n      swap1\n      pop\n        /* \"#utility.yul\":3070:3147   */\n      swap2\n      swap1\n      pop\n      jump\t// out\n        /* \"#utility.yul\":3153:3271   */\n    tag_110:\n        /* \"#utility.yul\":3240:3264   */\n      tag_170\n        /* \"#utility.yul\":3258:3263   */\n      dup2\n        /* \"#utility.yul\":3240:3264   */\n      tag_109\n      jump\t// in\n    tag_170:\n        /* \"#utility.yul\":3235:3238   */\n      dup3\n        /* \"#utility.yul\":3228:3265   */\n      mstore\n        /* \"#utility.yul\":3153:3271   */\n      pop\n      pop\n      jump\t// out\n        /* \"#utility.yul\":3277:3376   */\n    tag_111:\n        /* \"#utility.yul\":3329:3335   */\n      0x00\n        /* \"#utility.yul\":3363:3368   */\n      dup2\n        /* \"#utility.yul\":3357:3369   */\n      mload\n        /* \"#utility.yul\":3347:3369   */\n      swap1\n      pop\n        /* \"#utility.yul\":3277:3376   */\n      swap2\n      swap1\n      pop\n      jump\t// out\n        /* \"#utility.yul\":3382:3551   */\n    tag_112:\n        /* \"#utility.yul\":3466:3477   */\n      0x00\n        /* \"#utility.yul\":3500:3506   */\n      dup3\n        /* \"#utility.yul\":3495:3498   */\n      dup3\n        /* \"#utility.yul\":3488:3507   */\n      mstore\n        /* \"#utility.yul\":3540:3544   */\n      0x20\n        /* \"#utility.yul\":3535:3538   */\n      dup3\n        /* \"#utility.yul\":3531:3545   */\n      add\n        /* \"#utility.yul\":3516:3545   */\n      swap1\n      pop\n        /* \"#utility.yul\":3382:3551   */\n      swap3\n      swap2\n      pop\n      pop\n      jump\t// out\n        /* \"#utility.yul\":3557:3805   */\n    tag_113:\n        /* \"#utility.yul\":3639:3640   */\n      0x00\n        /* \"#utility.yul\":3649:3762   */\n    tag_174:\n        /* \"#utility.yul\":3663:3669   */\n      dup4\n        /* \"#utility.yul\":3660:3661   */\n      dup2\n        /* \"#utility.yul\":3657:3670   */\n      lt\n        /* \"#utility.yul\":3649:3762   */\n      iszero\n      tag_176\n      jumpi\n        /* \"#utility.yul\":3748:3749   */\n      dup1\n        /* \"#utility.yul\":3743:3746   */\n      dup3\n        /* \"#utility.yul\":3739:3750   */\n      add\n        /* \"#utility.yul\":3733:3751   */\n      mload\n        /* \"#utility.yul\":3729:3730   */\n      dup2\n        /* \"#utility.yul\":3724:3727   */\n      dup5\n        /* \"#utility.yul\":3720:3731   */\n      add\n        /* \"#utility.yul\":3713:3752   */\n      mstore\n        /* \"#utility.yul\":3685:3687   */\n      0x20\n        /* \"#utility.yul\":3682:3683   */\n      dup2\n        /* \"#utility.yul\":3678:3688   */\n      add\n        /* \"#utility.yul\":3673:3688   */\n      swap1\n      pop\n        /* \"#utility.yul\":3649:3762   */\n      jump(tag_174)\n    tag_176:\n        /* \"#utility.yul\":3796:3797   */\n      0x00\n        /* \"#utility.yul\":3787:3793   */\n      dup5\n        /* \"#utility.yul\":3782:3785   */\n      dup5\n        /* \"#utility.yul\":3778:3794   */\n      add\n        /* \"#utility.yul\":3771:3798   */\n      mstore\n        /* \"#utility.yul\":3619:3805   */\n      pop\n        /* \"#utility.yul\":3557:3805   */\n      pop\n      pop\n      pop\n      jump\t// out\n        /* \"#utility.yul\":3811:4188   */\n    tag_114:\n        /* \"#utility.yul\":3899:3902   */\n      0x00\n        /* \"#utility.yul\":3927:3966   */\n      tag_178\n        /* \"#utility.yul\":3960:3965   */\n      dup3\n        /* \"#utility.yul\":3927:3966   */\n      tag_111\n      jump\t// in\n    tag_178:\n        /* \"#utility.yul\":3982:4053   */\n      tag_179\n        /* \"#utility.yul\":4046:4052   */\n      dup2\n        /* \"#utility.yul\":4041:4044   */\n      dup6\n        /* \"#utility.yul\":3982:4053   */\n      tag_112\n      jump\t// in\n    tag_179:\n        /* \"#utility.yul\":3975:4053   */\n      swap4\n      pop\n        /* \"#utility.yul\":4062:4127   */\n      tag_180\n        /* \"#utility.yul\":4120:4126   */\n      dup2\n        /* \"#utility.yul\":4115:4118   */\n      dup6\n        /* \"#utility.yul\":4108:4112   */\n      0x20\n        /* \"#utility.yul\":4101:4106   */\n      dup7\n        /* \"#utility.yul\":4097:4113   */\n      add\n        /* \"#utility.yul\":4062:4127   */\n      tag_113\n      jump\t// in\n    tag_180:\n        /* \"#utility.yul\":4152:4181   */\n      tag_181\n        /* \"#utility.yul\":4174:4180   */\n      dup2\n        /* \"#utility.yul\":4152:4181   */\n      tag_101\n      jump\t// in\n    tag_181:\n        /* \"#utility.yul\":4147:4150   */\n      dup5\n        /* \"#utility.yul\":4143:4182   */\n      add\n        /* \"#utility.yul\":4136:4182   */\n      swap2\n      pop\n        /* \"#utility.yul\":3903:4188   */\n      pop\n        /* \"#utility.yul\":3811:4188   */\n      swap3\n      swap2\n      pop\n      pop\n      jump\t// out\n        /* \"#utility.yul\":4194:4838   */\n    tag_16:\n        /* \"#utility.yul\":4391:4395   */\n      0x00\n        /* \"#utility.yul\":4429:4432   */\n      0x80\n        /* \"#utility.yul\":4418:4427   */\n      dup3\n        /* \"#utility.yul\":4414:4433   */\n      add\n        /* \"#utility.yul\":4406:4433   */\n      swap1\n      pop\n        /* \"#utility.yul\":4443:4514   */\n      tag_183\n        /* \"#utility.yul\":4511:4512   */\n      0x00\n        /* \"#utility.yul\":4500:4509   */\n      dup4\n        /* \"#utility.yul\":4496:4513   */\n      add\n        /* \"#utility.yul\":4487:4493   */\n      dup8\n        /* \"#utility.yul\":4443:4514   */\n      tag_110\n      jump\t// in\n    tag_183:\n        /* \"#utility.yul\":4524:4596   */\n      tag_184\n        /* \"#utility.yul\":4592:4594   */\n      0x20\n        /* \"#utility.yul\":4581:4590   */\n      dup4\n        /* \"#utility.yul\":4577:4595   */\n      add\n        /* \"#utility.yul\":4568:4574   */\n      dup7\n        /* \"#utility.yul\":4524:4596   */\n      tag_110\n      jump\t// in\n    tag_184:\n        /* \"#utility.yul\":4606:4678   */\n      tag_185\n        /* \"#utility.yul\":4674:4676   */\n      0x40\n        /* \"#utility.yul\":4663:4672   */\n      dup4\n        /* \"#utility.yul\":4659:4677   */\n      add\n        /* \"#utility.yul\":4650:4656   */\n      dup6\n        /* \"#utility.yul\":4606:4678   */\n      tag_110\n      jump\t// in\n    tag_185:\n        /* \"#utility.yul\":4725:4734   */\n      dup2\n        /* \"#utility.yul\":4719:4723   */\n      dup2\n        /* \"#utility.yul\":4715:4735   */\n      sub\n        /* \"#utility.yul\":4710:4712   */\n      0x60\n        /* \"#utility.yul\":4699:4708   */\n      dup4\n        /* \"#utility.yul\":4695:4713   */\n      add\n        /* \"#utility.yul\":4688:4736   */\n      mstore\n        /* \"#utility.yul\":4753:4831   */\n      tag_186\n        /* \"#utility.yul\":4826:4830   */\n      dup2\n        /* \"#utility.yul\":4817:4823   */\n      dup5\n        /* \"#utility.yul\":4753:4831   */\n      tag_114\n      jump\t// in\n    tag_186:\n        /* \"#utility.yul\":4745:4831   */\n      swap1\n      pop\n        /* \"#utility.yul\":4194:4838   */\n      swap6\n      swap5\n      pop\n      pop\n      pop\n      pop\n      pop\n      jump\t// out\n        /* \"#utility.yul\":4844:6003   */\n    tag_19:\n        /* \"#utility.yul\":4951:4957   */\n      0x00\n        /* \"#utility.yul\":4959:4965   */\n      dup1\n        /* \"#utility.yul\":4967:4973   */\n      0x00\n        /* \"#utility.yul\":5016:5018   */\n      0x60\n        /* \"#utility.yul\":5004:5013   */\n      dup5\n        /* \"#utility.yul\":4995:5002   */\n      dup7\n        /* \"#utility.yul\":4991:5014   */\n      sub\n        /* \"#utility.yul\":4987:5019   */\n      slt\n        /* \"#utility.yul\":4984:5103   */\n      iszero\n      tag_188\n      jumpi\n        /* \"#utility.yul\":5022:5101   */\n      tag_189\n      tag_97\n      jump\t// in\n    tag_189:\n        /* \"#utility.yul\":4984:5103   */\n    tag_188:\n        /* \"#utility.yul\":5170:5171   */\n      0x00\n        /* \"#utility.yul\":5159:5168   */\n      dup5\n        /* \"#utility.yul\":5155:5172   */\n      add\n        /* \"#utility.yul\":5142:5173   */\n      calldataload\n        /* \"#utility.yul\":5200:5218   */\n      0xffffffffffffffff\n        /* \"#utility.yul\":5192:5198   */\n      dup2\n        /* \"#utility.yul\":5189:5219   */\n      gt\n        /* \"#utility.yul\":5186:5303   */\n      iszero\n      tag_190\n      jumpi\n        /* \"#utility.yul\":5222:5301   */\n      tag_191\n      tag_98\n      jump\t// in\n    tag_191:\n        /* \"#utility.yul\":5186:5303   */\n    tag_190:\n        /* \"#utility.yul\":5327:5390   */\n      tag_192\n        /* \"#utility.yul\":5382:5389   */\n      dup7\n        /* \"#utility.yul\":5373:5379   */\n      dup3\n        /* \"#utility.yul\":5362:5371   */\n      dup8\n        /* \"#utility.yul\":5358:5380   */\n      add\n        /* \"#utility.yul\":5327:5390   */\n      tag_108\n      jump\t// in\n    tag_192:\n        /* \"#utility.yul\":5317:5390   */\n      swap4\n      pop\n        /* \"#utility.yul\":5113:5400   */\n      pop\n        /* \"#utility.yul\":5467:5469   */\n      0x20\n        /* \"#utility.yul\":5456:5465   */\n      dup5\n        /* \"#utility.yul\":5452:5470   */\n      add\n        /* \"#utility.yul\":5439:5471   */\n      calldataload\n        /* \"#utility.yul\":5498:5516   */\n      0xffffffffffffffff\n        /* \"#utility.yul\":5490:5496   */\n      dup2\n        /* \"#utility.yul\":5487:5517   */\n      gt\n        /* \"#utility.yul\":5484:5601   */\n      iszero\n      tag_193\n      jumpi\n        /* \"#utility.yul\":5520:5599   */\n      tag_194\n      tag_98\n      jump\t// in\n    tag_194:\n        /* \"#utility.yul\":5484:5601   */\n    tag_193:\n        /* \"#utility.yul\":5625:5688   */\n      tag_195\n        /* \"#utility.yul\":5680:5687   */\n      dup7\n        /* \"#utility.yul\":5671:5677   */\n      dup3\n        /* \"#utility.yul\":5660:5669   */\n      dup8\n        /* \"#utility.yul\":5656:5678   */\n      add\n        /* \"#utility.yul\":5625:5688   */\n      tag_108\n      jump\t// in\n    tag_195:\n        /* \"#utility.yul\":5615:5688   */\n      swap3\n      pop\n        /* \"#utility.yul\":5410:5698   */\n      pop\n        /* \"#utility.yul\":5765:5767   */\n      0x40\n        /* \"#utility.yul\":5754:5763   */\n      dup5\n        /* \"#utility.yul\":5750:5768   */\n      add\n        /* \"#utility.yul\":5737:5769   */\n      calldataload\n        /* \"#utility.yul\":5796:5814   */\n      0xffffffffffffffff\n        /* \"#utility.yul\":5788:5794   */\n      dup2\n        /* \"#utility.yul\":5785:5815   */\n      gt\n        /* \"#utility.yul\":5782:5899   */\n      iszero\n      tag_196\n      jumpi\n        /* \"#utility.yul\":5818:5897   */\n      tag_197\n      tag_98\n      jump\t// in\n    tag_197:\n        /* \"#utility.yul\":5782:5899   */\n    tag_196:\n        /* \"#utility.yul\":5923:5986   */\n      tag_198\n        /* \"#utility.yul\":5978:5985   */\n      dup7\n        /* \"#utility.yul\":5969:5975   */\n      dup3\n        /* \"#utility.yul\":5958:5967   */\n      dup8\n        /* \"#utility.yul\":5954:5976   */\n      add\n        /* \"#utility.yul\":5923:5986   */\n      tag_108\n      jump\t// in\n    tag_198:\n        /* \"#utility.yul\":5913:5986   */\n      swap2\n      pop\n        /* \"#utility.yul\":5708:5996   */\n      pop\n        /* \"#utility.yul\":4844:6003   */\n      swap3\n      pop\n      swap3\n      pop\n      swap3\n      jump\t// out\n        /* \"#utility.yul\":6009:6135   */\n    tag_115:\n        /* \"#utility.yul\":6046:6053   */\n      0x00\n        /* \"#utility.yul\":6086:6128   */\n      0xffffffffffffffffffffffffffffffffffffffff\n        /* \"#utility.yul\":6079:6084   */\n      dup3\n        /* \"#utility.yul\":6075:6129   */\n      and\n        /* \"#utility.yul\":6064:6129   */\n      swap1\n      pop\n        /* \"#utility.yul\":6009:6135   */\n      swap2\n      swap1\n      pop\n      jump\t// out\n        /* \"#utility.yul\":6141:6237   */\n    tag_116:\n        /* \"#utility.yul\":6178:6185   */\n      0x00\n        /* \"#utility.yul\":6207:6231   */\n      tag_201\n        /* \"#utility.yul\":6225:6230   */\n      dup3\n        /* \"#utility.yul\":6207:6231   */\n      tag_115\n      jump\t// in\n    tag_201:\n        /* \"#utility.yul\":6196:6231   */\n      swap1\n      pop\n        /* \"#utility.yul\":6141:6237   */\n      swap2\n      swap1\n      pop\n      jump\t// out\n        /* \"#utility.yul\":6243:6361   */\n    tag_117:\n        /* \"#utility.yul\":6330:6354   */\n      tag_203\n        /* \"#utility.yul\":6348:6353   */\n      dup2\n        /* \"#utility.yul\":6330:6354   */\n      tag_116\n      jump\t// in\n    tag_203:\n        /* \"#utility.yul\":6325:6328   */\n      dup3\n        /* \"#utility.yul\":6318:6355   */\n      mstore\n        /* \"#utility.yul\":6243:6361   */\n      pop\n      pop\n      jump\t// out\n        /* \"#utility.yul\":6367:6589   */\n    tag_28:\n        /* \"#utility.yul\":6460:6464   */\n      0x00\n        /* \"#utility.yul\":6498:6500   */\n      0x20\n        /* \"#utility.yul\":6487:6496   */\n      dup3\n        /* \"#utility.yul\":6483:6501   */\n      add\n        /* \"#utility.yul\":6475:6501   */\n      swap1\n      pop\n        /* \"#utility.yul\":6511:6582   */\n      tag_205\n        /* \"#utility.yul\":6579:6580   */\n      0x00\n        /* \"#utility.yul\":6568:6577   */\n      dup4\n        /* \"#utility.yul\":6564:6581   */\n      add\n        /* \"#utility.yul\":6555:6561   */\n      dup5\n        /* \"#utility.yul\":6511:6582   */\n      tag_117\n      jump\t// in\n    tag_205:\n        /* \"#utility.yul\":6367:6589   */\n      swap3\n      swap2\n      pop\n      pop\n      jump\t// out\n        /* \"#utility.yul\":6595:6717   */\n    tag_118:\n        /* \"#utility.yul\":6668:6692   */\n      tag_207\n        /* \"#utility.yul\":6686:6691   */\n      dup2\n        /* \"#utility.yul\":6668:6692   */\n      tag_116\n      jump\t// in\n    tag_207:\n        /* \"#utility.yul\":6661:6666   */\n      dup2\n        /* \"#utility.yul\":6658:6693   */\n      eq\n        /* \"#utility.yul\":6648:6711   */\n      tag_208\n      jumpi\n        /* \"#utility.yul\":6707:6708   */\n      0x00\n        /* \"#utility.yul\":6704:6705   */\n      dup1\n        /* \"#utility.yul\":6697:6709   */\n      revert\n        /* \"#utility.yul\":6648:6711   */\n    tag_208:\n        /* \"#utility.yul\":6595:6717   */\n      pop\n      jump\t// out\n        /* \"#utility.yul\":6723:6862   */\n    tag_119:\n        /* \"#utility.yul\":6769:6774   */\n      0x00\n        /* \"#utility.yul\":6807:6813   */\n      dup2\n        /* \"#utility.yul\":6794:6814   */\n      calldataload\n        /* \"#utility.yul\":6785:6814   */\n      swap1\n      pop\n        /* \"#utility.yul\":6823:6856   */\n      tag_210\n        /* \"#utility.yul\":6850:6855   */\n      dup2\n        /* \"#utility.yul\":6823:6856   */\n      tag_118\n      jump\t// in\n    tag_210:\n        /* \"#utility.yul\":6723:6862   */\n      swap3\n      swap2\n      pop\n      pop\n      jump\t// out\n        /* \"#utility.yul\":6868:7847   */\n    tag_31:\n        /* \"#utility.yul\":6965:6971   */\n      0x00\n        /* \"#utility.yul\":6973:6979   */\n      dup1\n        /* \"#utility.yul\":6981:6987   */\n      0x00\n        /* \"#utility.yul\":7030:7032   */\n      0x60\n        /* \"#utility.yul\":7018:7027   */\n      dup5\n        /* \"#utility.yul\":7009:7016   */\n      dup7\n        /* \"#utility.yul\":7005:7028   */\n      sub\n        /* \"#utility.yul\":7001:7033   */\n      slt\n        /* \"#utility.yul\":6998:7117   */\n      iszero\n      tag_212\n      jumpi\n        /* \"#utility.yul\":7036:7115   */\n      tag_213\n      tag_97\n      jump\t// in\n    tag_213:\n        /* \"#utility.yul\":6998:7117   */\n    tag_212:\n        /* \"#utility.yul\":7184:7185   */\n      0x00\n        /* \"#utility.yul\":7173:7182   */\n      dup5\n        /* \"#utility.yul\":7169:7186   */\n      add\n        /* \"#utility.yul\":7156:7187   */\n      calldataload\n        /* \"#utility.yul\":7214:7232   */\n      0xffffffffffffffff\n        /* \"#utility.yul\":7206:7212   */\n      dup2\n        /* \"#utility.yul\":7203:7233   */\n      gt\n        /* \"#utility.yul\":7200:7317   */\n      iszero\n      tag_214\n      jumpi\n        /* \"#utility.yul\":7236:7315   */\n      tag_215\n      tag_98\n      jump\t// in\n    tag_215:\n        /* \"#utility.yul\":7200:7317   */\n    tag_214:\n        /* \"#utility.yul\":7341:7404   */\n      tag_216\n        /* \"#utility.yul\":7396:7403   */\n      dup7\n        /* \"#utility.yul\":7387:7393   */\n      dup3\n        /* \"#utility.yul\":7376:7385   */\n      dup8\n        /* \"#utility.yul\":7372:7394   */\n      add\n        /* \"#utility.yul\":7341:7404   */\n      tag_108\n      jump\t// in\n    tag_216:\n        /* \"#utility.yul\":7331:7404   */\n      swap4\n      pop\n        /* \"#utility.yul\":7127:7414   */\n      pop\n        /* \"#utility.yul\":7481:7483   */\n      0x20\n        /* \"#utility.yul\":7470:7479   */\n      dup5\n        /* \"#utility.yul\":7466:7484   */\n      add\n        /* \"#utility.yul\":7453:7485   */\n      calldataload\n        /* \"#utility.yul\":7512:7530   */\n      0xffffffffffffffff\n        /* \"#utility.yul\":7504:7510   */\n      dup2\n        /* \"#utility.yul\":7501:7531   */\n      gt\n        /* \"#utility.yul\":7498:7615   */\n      iszero\n      tag_217\n      jumpi\n        /* \"#utility.yul\":7534:7613   */\n      tag_218\n      tag_98\n      jump\t// in\n    tag_218:\n        /* \"#utility.yul\":7498:7615   */\n    tag_217:\n        /* \"#utility.yul\":7639:7702   */\n      tag_219\n        /* \"#utility.yul\":7694:7701   */\n      dup7\n        /* \"#utility.yul\":7685:7691   */\n      dup3\n        /* \"#utility.yul\":7674:7683   */\n      dup8\n        /* \"#utility.yul\":7670:7692   */\n      add\n        /* \"#utility.yul\":7639:7702   */\n      tag_108\n      jump\t// in\n    tag_219:\n        /* \"#utility.yul\":7629:7702   */\n      swap3\n      pop\n        /* \"#utility.yul\":7424:7712   */\n      pop\n        /* \"#utility.yul\":7751:7753   */\n      0x40\n        /* \"#utility.yul\":7777:7830   */\n      tag_220\n        /* \"#utility.yul\":7822:7829   */\n      dup7\n        /* \"#utility.yul\":7813:7819   */\n      dup3\n        /* \"#utility.yul\":7802:7811   */\n      dup8\n        /* \"#utility.yul\":7798:7820   */\n      add\n        /* \"#utility.yul\":7777:7830   */\n      tag_119\n      jump\t// in\n    tag_220:\n        /* \"#utility.yul\":7767:7830   */\n      swap2\n      pop\n        /* \"#utility.yul\":7722:7840   */\n      pop\n        /* \"#utility.yul\":6868:7847   */\n      swap3\n      pop\n      swap3\n      pop\n      swap3\n      jump\t// out\n        /* \"#utility.yul\":7853:7970   */\n    tag_120:\n        /* \"#utility.yul\":7962:7963   */\n      0x00\n        /* \"#utility.yul\":7959:7960   */\n      dup1\n        /* \"#utility.yul\":7952:7964   */\n      revert\n        /* \"#utility.yul\":7976:8093   */\n    tag_121:\n        /* \"#utility.yul\":8085:8086   */\n      0x00\n        /* \"#utility.yul\":8082:8083   */\n      dup1\n        /* \"#utility.yul\":8075:8087   */\n      revert\n        /* \"#utility.yul\":8113:8666   */\n    tag_122:\n        /* \"#utility.yul\":8171:8179   */\n      0x00\n        /* \"#utility.yul\":8181:8187   */\n      dup1\n        /* \"#utility.yul\":8231:8234   */\n      dup4\n        /* \"#utility.yul\":8224:8228   */\n      0x1f\n        /* \"#utility.yul\":8216:8222   */\n      dup5\n        /* \"#utility.yul\":8212:8229   */\n      add\n        /* \"#utility.yul\":8208:8235   */\n      slt\n        /* \"#utility.yul\":8198:8320   */\n      tag_224\n      jumpi\n        /* \"#utility.yul\":8239:8318   */\n      tag_225\n      tag_99\n      jump\t// in\n    tag_225:\n        /* \"#utility.yul\":8198:8320   */\n    tag_224:\n        /* \"#utility.yul\":8352:8358   */\n      dup3\n        /* \"#utility.yul\":8339:8359   */\n      calldataload\n        /* \"#utility.yul\":8329:8359   */\n      swap1\n      pop\n        /* \"#utility.yul\":8382:8400   */\n      0xffffffffffffffff\n        /* \"#utility.yul\":8374:8380   */\n      dup2\n        /* \"#utility.yul\":8371:8401   */\n      gt\n        /* \"#utility.yul\":8368:8485   */\n      iszero\n      tag_226\n      jumpi\n        /* \"#utility.yul\":8404:8483   */\n      tag_227\n      tag_120\n      jump\t// in\n    tag_227:\n        /* \"#utility.yul\":8368:8485   */\n    tag_226:\n        /* \"#utility.yul\":8518:8522   */\n      0x20\n        /* \"#utility.yul\":8510:8516   */\n      dup4\n        /* \"#utility.yul\":8506:8523   */\n      add\n        /* \"#utility.yul\":8494:8523   */\n      swap2\n      pop\n        /* \"#utility.yul\":8572:8575   */\n      dup4\n        /* \"#utility.yul\":8564:8568   */\n      0x01\n        /* \"#utility.yul\":8556:8562   */\n      dup3\n        /* \"#utility.yul\":8552:8569   */\n      mul\n        /* \"#utility.yul\":8542:8550   */\n      dup4\n        /* \"#utility.yul\":8538:8570   */\n      add\n        /* \"#utility.yul\":8535:8576   */\n      gt\n        /* \"#utility.yul\":8532:8660   */\n      iszero\n      tag_228\n      jumpi\n        /* \"#utility.yul\":8579:8658   */\n      tag_229\n      tag_121\n      jump\t// in\n    tag_229:\n        /* \"#utility.yul\":8532:8660   */\n    tag_228:\n        /* \"#utility.yul\":8113:8666   */\n      swap3\n      pop\n      swap3\n      swap1\n      pop\n      jump\t// out\n        /* \"#utility.yul\":8672:9201   */\n    tag_35:\n        /* \"#utility.yul\":8743:8749   */\n      0x00\n        /* \"#utility.yul\":8751:8757   */\n      dup1\n        /* \"#utility.yul\":8800:8802   */\n      0x20\n        /* \"#utility.yul\":8788:8797   */\n      dup4\n        /* \"#utility.yul\":8779:8786   */\n      dup6\n        /* \"#utility.yul\":8775:8798   */\n      sub\n        /* \"#utility.yul\":8771:8803   */\n      slt\n        /* \"#utility.yul\":8768:8887   */\n      iszero\n      tag_231\n      jumpi\n        /* \"#utility.yul\":8806:8885   */\n      tag_232\n      tag_97\n      jump\t// in\n    tag_232:\n        /* \"#utility.yul\":8768:8887   */\n    tag_231:\n        /* \"#utility.yul\":8954:8955   */\n      0x00\n        /* \"#utility.yul\":8943:8952   */\n      dup4\n        /* \"#utility.yul\":8939:8956   */\n      add\n        /* \"#utility.yul\":8926:8957   */\n      calldataload\n        /* \"#utility.yul\":8984:9002   */\n      0xffffffffffffffff\n        /* \"#utility.yul\":8976:8982   */\n      dup2\n        /* \"#utility.yul\":8973:9003   */\n      gt\n        /* \"#utility.yul\":8970:9087   */\n      iszero\n      tag_233\n      jumpi\n        /* \"#utility.yul\":9006:9085   */\n      tag_234\n      tag_98\n      jump\t// in\n    tag_234:\n        /* \"#utility.yul\":8970:9087   */\n    tag_233:\n        /* \"#utility.yul\":9119:9184   */\n      tag_235\n        /* \"#utility.yul\":9176:9183   */\n      dup6\n        /* \"#utility.yul\":9167:9173   */\n      dup3\n        /* \"#utility.yul\":9156:9165   */\n      dup7\n        /* \"#utility.yul\":9152:9174   */\n      add\n        /* \"#utility.yul\":9119:9184   */\n      tag_122\n      jump\t// in\n    tag_235:\n        /* \"#utility.yul\":9101:9184   */\n      swap3\n      pop\n      swap3\n      pop\n        /* \"#utility.yul\":8897:9194   */\n      pop\n        /* \"#utility.yul\":8672:9201   */\n      swap3\n      pop\n      swap3\n      swap1\n      pop\n      jump\t// out\n        /* \"#utility.yul\":9207:10186   */\n    tag_39:\n        /* \"#utility.yul\":9304:9310   */\n      0x00\n        /* \"#utility.yul\":9312:9318   */\n      dup1\n        /* \"#utility.yul\":9320:9326   */\n      0x00\n        /* \"#utility.yul\":9369:9371   */\n      0x60\n        /* \"#utility.yul\":9357:9366   */\n      dup5\n        /* \"#utility.yul\":9348:9355   */\n      dup7\n        /* \"#utility.yul\":9344:9367   */\n      sub\n        /* \"#utility.yul\":9340:9372   */\n      slt\n        /* \"#utility.yul\":9337:9456   */\n      iszero\n      tag_237\n      jumpi\n        /* \"#utility.yul\":9375:9454   */\n      tag_238\n      tag_97\n      jump\t// in\n    tag_238:\n        /* \"#utility.yul\":9337:9456   */\n    tag_237:\n        /* \"#utility.yul\":9523:9524   */\n      0x00\n        /* \"#utility.yul\":9512:9521   */\n      dup5\n        /* \"#utility.yul\":9508:9525   */\n      add\n        /* \"#utility.yul\":9495:9526   */\n      calldataload\n        /* \"#utility.yul\":9553:9571   */\n      0xffffffffffffffff\n        /* \"#utility.yul\":9545:9551   */\n      dup2\n        /* \"#utility.yul\":9542:9572   */\n      gt\n        /* \"#utility.yul\":9539:9656   */\n      iszero\n      tag_239\n      jumpi\n        /* \"#utility.yul\":9575:9654   */\n      tag_240\n      tag_98\n      jump\t// in\n    tag_240:\n        /* \"#utility.yul\":9539:9656   */\n    tag_239:\n        /* \"#utility.yul\":9680:9743   */\n      tag_241\n        /* \"#utility.yul\":9735:9742   */\n      dup7\n        /* \"#utility.yul\":9726:9732   */\n      dup3\n        /* \"#utility.yul\":9715:9724   */\n      dup8\n        /* \"#utility.yul\":9711:9733   */\n      add\n        /* \"#utility.yul\":9680:9743   */\n      tag_108\n      jump\t// in\n    tag_241:\n        /* \"#utility.yul\":9670:9743   */\n      swap4\n      pop\n        /* \"#utility.yul\":9466:9753   */\n      pop\n        /* \"#utility.yul\":9792:9794   */\n      0x20\n        /* \"#utility.yul\":9818:9871   */\n      tag_242\n        /* \"#utility.yul\":9863:9870   */\n      dup7\n        /* \"#utility.yul\":9854:9860   */\n      dup3\n        /* \"#utility.yul\":9843:9852   */\n      dup8\n        /* \"#utility.yul\":9839:9861   */\n      add\n        /* \"#utility.yul\":9818:9871   */\n      tag_119\n      jump\t// in\n    tag_242:\n        /* \"#utility.yul\":9808:9871   */\n      swap3\n      pop\n        /* \"#utility.yul\":9763:9881   */\n      pop\n        /* \"#utility.yul\":9948:9950   */\n      0x40\n        /* \"#utility.yul\":9937:9946   */\n      dup5\n        /* \"#utility.yul\":9933:9951   */\n      add\n        /* \"#utility.yul\":9920:9952   */\n      calldataload\n        /* \"#utility.yul\":9979:9997   */\n      0xffffffffffffffff\n        /* \"#utility.yul\":9971:9977   */\n      dup2\n        /* \"#utility.yul\":9968:9998   */\n      gt\n        /* \"#utility.yul\":9965:10082   */\n      iszero\n      tag_243\n      jumpi\n        /* \"#utility.yul\":10001:10080   */\n      tag_244\n      tag_98\n      jump\t// in\n    tag_244:\n        /* \"#utility.yul\":9965:10082   */\n    tag_243:\n        /* \"#utility.yul\":10106:10169   */\n      tag_245\n        /* \"#utility.yul\":10161:10168   */\n      dup7\n        /* \"#utility.yul\":10152:10158   */\n      dup3\n        /* \"#utility.yul\":10141:10150   */\n      dup8\n        /* \"#utility.yul\":10137:10159   */\n      add\n        /* \"#utility.yul\":10106:10169   */\n      tag_108\n      jump\t// in\n    tag_245:\n        /* \"#utility.yul\":10096:10169   */\n      swap2\n      pop\n        /* \"#utility.yul\":9891:10179   */\n      pop\n        /* \"#utility.yul\":9207:10186   */\n      swap3\n      pop\n      swap3\n      pop\n      swap3\n      jump\t// out\n        /* \"#utility.yul\":10192:10340   */\n    tag_123:\n        /* \"#utility.yul\":10294:10305   */\n      0x00\n        /* \"#utility.yul\":10331:10334   */\n      dup2\n        /* \"#utility.yul\":10316:10334   */\n      swap1\n      pop\n        /* \"#utility.yul\":10192:10340   */\n      swap3\n      swap2\n      pop\n      pop\n      jump\t// out\n        /* \"#utility.yul\":10346:10736   */\n    tag_124:\n        /* \"#utility.yul\":10452:10455   */\n      0x00\n        /* \"#utility.yul\":10480:10519   */\n      tag_248\n        /* \"#utility.yul\":10513:10518   */\n      dup3\n        /* \"#utility.yul\":10480:10519   */\n      tag_111\n      jump\t// in\n    tag_248:\n        /* \"#utility.yul\":10535:10624   */\n      tag_249\n        /* \"#utility.yul\":10617:10623   */\n      dup2\n        /* \"#utility.yul\":10612:10615   */\n      dup6\n        /* \"#utility.yul\":10535:10624   */\n      tag_123\n      jump\t// in\n    tag_249:\n        /* \"#utility.yul\":10528:10624   */\n      swap4\n      pop\n        /* \"#utility.yul\":10633:10698   */\n      tag_250\n        /* \"#utility.yul\":10691:10697   */\n      dup2\n        /* \"#utility.yul\":10686:10689   */\n      dup6\n        /* \"#utility.yul\":10679:10683   */\n      0x20\n        /* \"#utility.yul\":10672:10677   */\n      dup7\n        /* \"#utility.yul\":10668:10684   */\n      add\n        /* \"#utility.yul\":10633:10698   */\n      tag_113\n      jump\t// in\n    tag_250:\n        /* \"#utility.yul\":10723:10729   */\n      dup1\n        /* \"#utility.yul\":10718:10721   */\n      dup5\n        /* \"#utility.yul\":10714:10730   */\n      add\n        /* \"#utility.yul\":10707:10730   */\n      swap2\n      pop\n        /* \"#utility.yul\":10456:10736   */\n      pop\n        /* \"#utility.yul\":10346:10736   */\n      swap3\n      swap2\n      pop\n      pop\n      jump\t// out\n        /* \"#utility.yul\":10742:11017   */\n    tag_43:\n        /* \"#utility.yul\":10874:10877   */\n      0x00\n        /* \"#utility.yul\":10896:10991   */\n      tag_252\n        /* \"#utility.yul\":10987:10990   */\n      dup3\n        /* \"#utility.yul\":10978:10984   */\n      dup5\n        /* \"#utility.yul\":10896:10991   */\n      tag_124\n      jump\t// in\n    tag_252:\n        /* \"#utility.yul\":10889:10991   */\n      swap2\n      pop\n        /* \"#utility.yul\":11008:11011   */\n      dup2\n        /* \"#utility.yul\":11001:11011   */\n      swap1\n      pop\n        /* \"#utility.yul\":10742:11017   */\n      swap3\n      swap2\n      pop\n      pop\n      jump\t// out\n        /* \"#utility.yul\":11023:11257   */\n    tag_125:\n        /* \"#utility.yul\":11163:11197   */\n      0x4e6f20666c6f7720697320726567697374657265642077697468207468652070\n        /* \"#utility.yul\":11159:11160   */\n      0x00\n        /* \"#utility.yul\":11151:11157   */\n      dup3\n        /* \"#utility.yul\":11147:11161   */\n      add\n        /* \"#utility.yul\":11140:11198   */\n      mstore\n        /* \"#utility.yul\":11232:11249   */\n      0x726f766964656420666c6f772049440000000000000000000000000000000000\n        /* \"#utility.yul\":11227:11229   */\n      0x20\n        /* \"#utility.yul\":11219:11225   */\n      dup3\n        /* \"#utility.yul\":11215:11230   */\n      add\n        /* \"#utility.yul\":11208:11250   */\n      mstore\n        /* \"#utility.yul\":11023:11257   */\n      pop\n      jump\t// out\n        /* \"#utility.yul\":11263:11629   */\n    tag_126:\n        /* \"#utility.yul\":11405:11408   */\n      0x00\n        /* \"#utility.yul\":11426:11493   */\n      tag_255\n        /* \"#utility.yul\":11490:11492   */\n      0x2f\n        /* \"#utility.yul\":11485:11488   */\n      dup4\n        /* \"#utility.yul\":11426:11493   */\n      tag_112\n      jump\t// in\n    tag_255:\n        /* \"#utility.yul\":11419:11493   */\n      swap2\n      pop\n        /* \"#utility.yul\":11502:11595   */\n      tag_256\n        /* \"#utility.yul\":11591:11594   */\n      dup3\n        /* \"#utility.yul\":11502:11595   */\n      tag_125\n      jump\t// in\n    tag_256:\n        /* \"#utility.yul\":11620:11622   */\n      0x40\n        /* \"#utility.yul\":11615:11618   */\n      dup3\n        /* \"#utility.yul\":11611:11623   */\n      add\n        /* \"#utility.yul\":11604:11623   */\n      swap1\n      pop\n        /* \"#utility.yul\":11263:11629   */\n      swap2\n      swap1\n      pop\n      jump\t// out\n        /* \"#utility.yul\":11635:12054   */\n    tag_46:\n        /* \"#utility.yul\":11801:11805   */\n      0x00\n        /* \"#utility.yul\":11839:11841   */\n      0x20\n        /* \"#utility.yul\":11828:11837   */\n      dup3\n        /* \"#utility.yul\":11824:11842   */\n      add\n        /* \"#utility.yul\":11816:11842   */\n      swap1\n      pop\n        /* \"#utility.yul\":11888:11897   */\n      dup2\n        /* \"#utility.yul\":11882:11886   */\n      dup2\n        /* \"#utility.yul\":11878:11898   */\n      sub\n        /* \"#utility.yul\":11874:11875   */\n      0x00\n        /* \"#utility.yul\":11863:11872   */\n      dup4\n        /* \"#utility.yul\":11859:11876   */\n      add\n        /* \"#utility.yul\":11852:11899   */\n      mstore\n        /* \"#utility.yul\":11916:12047   */\n      tag_258\n        /* \"#utility.yul\":12042:12046   */\n      dup2\n        /* \"#utility.yul\":11916:12047   */\n      tag_126\n      jump\t// in\n    tag_258:\n        /* \"#utility.yul\":11908:12047   */\n      swap1\n      pop\n        /* \"#utility.yul\":11635:12054   */\n      swap2\n      swap1\n      pop\n      jump\t// out\n        /* \"#utility.yul\":12060:12182   */\n    tag_127:\n        /* \"#utility.yul\":12133:12157   */\n      tag_260\n        /* \"#utility.yul\":12151:12156   */\n      dup2\n        /* \"#utility.yul\":12133:12157   */\n      tag_109\n      jump\t// in\n    tag_260:\n        /* \"#utility.yul\":12126:12131   */\n      dup2\n        /* \"#utility.yul\":12123:12158   */\n      eq\n        /* \"#utility.yul\":12113:12176   */\n      tag_261\n      jumpi\n        /* \"#utility.yul\":12172:12173   */\n      0x00\n        /* \"#utility.yul\":12169:12170   */\n      dup1\n        /* \"#utility.yul\":12162:12174   */\n      revert\n        /* \"#utility.yul\":12113:12176   */\n    tag_261:\n        /* \"#utility.yul\":12060:12182   */\n      pop\n      jump\t// out\n        /* \"#utility.yul\":12188:12331   */\n    tag_128:\n        /* \"#utility.yul\":12245:12250   */\n      0x00\n        /* \"#utility.yul\":12276:12282   */\n      dup2\n        /* \"#utility.yul\":12270:12283   */\n      mload\n        /* \"#utility.yul\":12261:12283   */\n      swap1\n      pop\n        /* \"#utility.yul\":12292:12325   */\n      tag_263\n        /* \"#utility.yul\":12319:12324   */\n      dup2\n        /* \"#utility.yul\":12292:12325   */\n      tag_127\n      jump\t// in\n    tag_263:\n        /* \"#utility.yul\":12188:12331   */\n      swap3\n      swap2\n      pop\n      pop\n      jump\t// out\n        /* \"#utility.yul\":12337:12771   */\n    tag_129:\n        /* \"#utility.yul\":12426:12431   */\n      0x00\n        /* \"#utility.yul\":12451:12517   */\n      tag_265\n        /* \"#utility.yul\":12467:12516   */\n      tag_266\n        /* \"#utility.yul\":12509:12515   */\n      dup5\n        /* \"#utility.yul\":12467:12516   */\n      tag_105\n      jump\t// in\n    tag_266:\n        /* \"#utility.yul\":12451:12517   */\n      tag_104\n      jump\t// in\n    tag_265:\n        /* \"#utility.yul\":12442:12517   */\n      swap1\n      pop\n        /* \"#utility.yul\":12540:12546   */\n      dup3\n        /* \"#utility.yul\":12533:12538   */\n      dup2\n        /* \"#utility.yul\":12526:12547   */\n      mstore\n        /* \"#utility.yul\":12578:12582   */\n      0x20\n        /* \"#utility.yul\":12571:12576   */\n      dup2\n        /* \"#utility.yul\":12567:12583   */\n      add\n        /* \"#utility.yul\":12616:12619   */\n      dup5\n        /* \"#utility.yul\":12607:12613   */\n      dup5\n        /* \"#utility.yul\":12602:12605   */\n      dup5\n        /* \"#utility.yul\":12598:12614   */\n      add\n        /* \"#utility.yul\":12595:12620   */\n      gt\n        /* \"#utility.yul\":12592:12704   */\n      iszero\n      tag_267\n      jumpi\n        /* \"#utility.yul\":12623:12702   */\n      tag_268\n      tag_100\n      jump\t// in\n    tag_268:\n        /* \"#utility.yul\":12592:12704   */\n    tag_267:\n        /* \"#utility.yul\":12713:12765   */\n      tag_269\n        /* \"#utility.yul\":12758:12764   */\n      dup5\n        /* \"#utility.yul\":12753:12756   */\n      dup3\n        /* \"#utility.yul\":12748:12751   */\n      dup6\n        /* \"#utility.yul\":12713:12765   */\n      tag_113\n      jump\t// in\n    tag_269:\n        /* \"#utility.yul\":12432:12771   */\n      pop\n        /* \"#utility.yul\":12337:12771   */\n      swap4\n      swap3\n      pop\n      pop\n      pop\n      jump\t// out\n        /* \"#utility.yul\":12791:13146   */\n    tag_130:\n        /* \"#utility.yul\":12858:12863   */\n      0x00\n        /* \"#utility.yul\":12907:12910   */\n      dup3\n        /* \"#utility.yul\":12900:12904   */\n      0x1f\n        /* \"#utility.yul\":12892:12898   */\n      dup4\n        /* \"#utility.yul\":12888:12905   */\n      add\n        /* \"#utility.yul\":12884:12911   */\n      slt\n        /* \"#utility.yul\":12874:12996   */\n      tag_271\n      jumpi\n        /* \"#utility.yul\":12915:12994   */\n      tag_272\n      tag_99\n      jump\t// in\n    tag_272:\n        /* \"#utility.yul\":12874:12996   */\n    tag_271:\n        /* \"#utility.yul\":13025:13031   */\n      dup2\n        /* \"#utility.yul\":13019:13032   */\n      mload\n        /* \"#utility.yul\":13050:13140   */\n      tag_273\n        /* \"#utility.yul\":13136:13139   */\n      dup5\n        /* \"#utility.yul\":13128:13134   */\n      dup3\n        /* \"#utility.yul\":13121:13125   */\n      0x20\n        /* \"#utility.yul\":13113:13119   */\n      dup7\n        /* \"#utility.yul\":13109:13126   */\n      add\n        /* \"#utility.yul\":13050:13140   */\n      tag_129\n      jump\t// in\n    tag_273:\n        /* \"#utility.yul\":13041:13140   */\n      swap2\n      pop\n        /* \"#utility.yul\":12864:13146   */\n      pop\n        /* \"#utility.yul\":12791:13146   */\n      swap3\n      swap2\n      pop\n      pop\n      jump\t// out\n        /* \"#utility.yul\":13152:14145   */\n    tag_52:\n        /* \"#utility.yul\":13259:13265   */\n      0x00\n        /* \"#utility.yul\":13267:13273   */\n      dup1\n        /* \"#utility.yul\":13275:13281   */\n      0x00\n        /* \"#utility.yul\":13283:13289   */\n      dup1\n        /* \"#utility.yul\":13332:13335   */\n      0x80\n        /* \"#utility.yul\":13320:13329   */\n      dup6\n        /* \"#utility.yul\":13311:13318   */\n      dup8\n        /* \"#utility.yul\":13307:13330   */\n      sub\n        /* \"#utility.yul\":13303:13336   */\n      slt\n        /* \"#utility.yul\":13300:13420   */\n      iszero\n      tag_275\n      jumpi\n        /* \"#utility.yul\":13339:13418   */\n      tag_276\n      tag_97\n      jump\t// in\n    tag_276:\n        /* \"#utility.yul\":13300:13420   */\n    tag_275:\n        /* \"#utility.yul\":13459:13460   */\n      0x00\n        /* \"#utility.yul\":13484:13548   */\n      tag_277\n        /* \"#utility.yul\":13540:13547   */\n      dup8\n        /* \"#utility.yul\":13531:13537   */\n      dup3\n        /* \"#utility.yul\":13520:13529   */\n      dup9\n        /* \"#utility.yul\":13516:13538   */\n      add\n        /* \"#utility.yul\":13484:13548   */\n      tag_128\n      jump\t// in\n    tag_277:\n        /* \"#utility.yul\":13474:13548   */\n      swap5\n      pop\n        /* \"#utility.yul\":13430:13558   */\n      pop\n        /* \"#utility.yul\":13597:13599   */\n      0x20\n        /* \"#utility.yul\":13623:13687   */\n      tag_278\n        /* \"#utility.yul\":13679:13686   */\n      dup8\n        /* \"#utility.yul\":13670:13676   */\n      dup3\n        /* \"#utility.yul\":13659:13668   */\n      dup9\n        /* \"#utility.yul\":13655:13677   */\n      add\n        /* \"#utility.yul\":13623:13687   */\n      tag_128\n      jump\t// in\n    tag_278:\n        /* \"#utility.yul\":13613:13687   */\n      swap4\n      pop\n        /* \"#utility.yul\":13568:13697   */\n      pop\n        /* \"#utility.yul\":13736:13738   */\n      0x40\n        /* \"#utility.yul\":13762:13826   */\n      tag_279\n        /* \"#utility.yul\":13818:13825   */\n      dup8\n        /* \"#utility.yul\":13809:13815   */\n      dup3\n        /* \"#utility.yul\":13798:13807   */\n      dup9\n        /* \"#utility.yul\":13794:13816   */\n      add\n        /* \"#utility.yul\":13762:13826   */\n      tag_128\n      jump\t// in\n    tag_279:\n        /* \"#utility.yul\":13752:13826   */\n      swap3\n      pop\n        /* \"#utility.yul\":13707:13836   */\n      pop\n        /* \"#utility.yul\":13896:13898   */\n      0x60\n        /* \"#utility.yul\":13885:13894   */\n      dup6\n        /* \"#utility.yul\":13881:13899   */\n      add\n        /* \"#utility.yul\":13875:13900   */\n      mload\n        /* \"#utility.yul\":13927:13945   */\n      0xffffffffffffffff\n        /* \"#utility.yul\":13919:13925   */\n      dup2\n        /* \"#utility.yul\":13916:13946   */\n      gt\n        /* \"#utility.yul\":13913:14030   */\n      iszero\n      tag_280\n      jumpi\n        /* \"#utility.yul\":13949:14028   */\n      tag_281\n      tag_98\n      jump\t// in\n    tag_281:\n        /* \"#utility.yul\":13913:14030   */\n    tag_280:\n        /* \"#utility.yul\":14054:14128   */\n      tag_282\n        /* \"#utility.yul\":14120:14127   */\n      dup8\n        /* \"#utility.yul\":14111:14117   */\n      dup3\n        /* \"#utility.yul\":14100:14109   */\n      dup9\n        /* \"#utility.yul\":14096:14118   */\n      add\n        /* \"#utility.yul\":14054:14128   */\n      tag_130\n      jump\t// in\n    tag_282:\n        /* \"#utility.yul\":14044:14128   */\n      swap2\n      pop\n        /* \"#utility.yul\":13846:14138   */\n      pop\n        /* \"#utility.yul\":13152:14145   */\n      swap3\n      swap6\n      swap2\n      swap5\n      pop\n      swap3\n      pop\n      jump\t// out\n        /* \"#utility.yul\":14151:14775   */\n    tag_60:\n        /* \"#utility.yul\":14340:14344   */\n      0x00\n        /* \"#utility.yul\":14378:14380   */\n      0x60\n        /* \"#utility.yul\":14367:14376   */\n      dup3\n        /* \"#utility.yul\":14363:14381   */\n      add\n        /* \"#utility.yul\":14355:14381   */\n      swap1\n      pop\n        /* \"#utility.yul\":14427:14436   */\n      dup2\n        /* \"#utility.yul\":14421:14425   */\n      dup2\n        /* \"#utility.yul\":14417:14437   */\n      sub\n        /* \"#utility.yul\":14413:14414   */\n      0x00\n        /* \"#utility.yul\":14402:14411   */\n      dup4\n        /* \"#utility.yul\":14398:14415   */\n      add\n        /* \"#utility.yul\":14391:14438   */\n      mstore\n        /* \"#utility.yul\":14455:14533   */\n      tag_284\n        /* \"#utility.yul\":14528:14532   */\n      dup2\n        /* \"#utility.yul\":14519:14525   */\n      dup7\n        /* \"#utility.yul\":14455:14533   */\n      tag_114\n      jump\t// in\n    tag_284:\n        /* \"#utility.yul\":14447:14533   */\n      swap1\n      pop\n        /* \"#utility.yul\":14580:14589   */\n      dup2\n        /* \"#utility.yul\":14574:14578   */\n      dup2\n        /* \"#utility.yul\":14570:14590   */\n      sub\n        /* \"#utility.yul\":14565:14567   */\n      0x20\n        /* \"#utility.yul\":14554:14563   */\n      dup4\n        /* \"#utility.yul\":14550:14568   */\n      add\n        /* \"#utility.yul\":14543:14591   */\n      mstore\n        /* \"#utility.yul\":14608:14686   */\n      tag_285\n        /* \"#utility.yul\":14681:14685   */\n      dup2\n        /* \"#utility.yul\":14672:14678   */\n      dup6\n        /* \"#utility.yul\":14608:14686   */\n      tag_114\n      jump\t// in\n    tag_285:\n        /* \"#utility.yul\":14600:14686   */\n      swap1\n      pop\n        /* \"#utility.yul\":14696:14768   */\n      tag_286\n        /* \"#utility.yul\":14764:14766   */\n      0x40\n        /* \"#utility.yul\":14753:14762   */\n      dup4\n        /* \"#utility.yul\":14749:14767   */\n      add\n        /* \"#utility.yul\":14740:14746   */\n      dup5\n        /* \"#utility.yul\":14696:14768   */\n      tag_117\n      jump\t// in\n    tag_286:\n        /* \"#utility.yul\":14151:14775   */\n      swap5\n      swap4\n      pop\n      pop\n      pop\n      pop\n      jump\t// out\n        /* \"#utility.yul\":14781:15314   */\n    tag_81:\n        /* \"#utility.yul\":14950:14954   */\n      0x00\n        /* \"#utility.yul\":14988:14990   */\n      0x60\n        /* \"#utility.yul\":14977:14986   */\n      dup3\n        /* \"#utility.yul\":14973:14991   */\n      add\n        /* \"#utility.yul\":14965:14991   */\n      swap1\n      pop\n        /* \"#utility.yul\":15037:15046   */\n      dup2\n        /* \"#utility.yul\":15031:15035   */\n      dup2\n        /* \"#utility.yul\":15027:15047   */\n      sub\n        /* \"#utility.yul\":15023:15024   */\n      0x00\n        /* \"#utility.yul\":15012:15021   */\n      dup4\n        /* \"#utility.yul\":15008:15025   */\n      add\n        /* \"#utility.yul\":15001:15048   */\n      mstore\n        /* \"#utility.yul\":15065:15143   */\n      tag_288\n        /* \"#utility.yul\":15138:15142   */\n      dup2\n        /* \"#utility.yul\":15129:15135   */\n      dup7\n        /* \"#utility.yul\":15065:15143   */\n      tag_114\n      jump\t// in\n    tag_288:\n        /* \"#utility.yul\":15057:15143   */\n      swap1\n      pop\n        /* \"#utility.yul\":15153:15225   */\n      tag_289\n        /* \"#utility.yul\":15221:15223   */\n      0x20\n        /* \"#utility.yul\":15210:15219   */\n      dup4\n        /* \"#utility.yul\":15206:15224   */\n      add\n        /* \"#utility.yul\":15197:15203   */\n      dup6\n        /* \"#utility.yul\":15153:15225   */\n      tag_117\n      jump\t// in\n    tag_289:\n        /* \"#utility.yul\":15235:15307   */\n      tag_290\n        /* \"#utility.yul\":15303:15305   */\n      0x40\n        /* \"#utility.yul\":15292:15301   */\n      dup4\n        /* \"#utility.yul\":15288:15306   */\n      add\n        /* \"#utility.yul\":15279:15285   */\n      dup5\n        /* \"#utility.yul\":15235:15307   */\n      tag_117\n      jump\t// in\n    tag_290:\n        /* \"#utility.yul\":14781:15314   */\n      swap5\n      swap4\n      pop\n      pop\n      pop\n      pop\n      jump\t// out\n        /* \"#utility.yul\":15344:15661   */\n    tag_131:\n        /* \"#utility.yul\":15442:15445   */\n      0x00\n        /* \"#utility.yul\":15463:15534   */\n      tag_292\n        /* \"#utility.yul\":15527:15533   */\n      dup4\n        /* \"#utility.yul\":15522:15525   */\n      dup6\n        /* \"#utility.yul\":15463:15534   */\n      tag_112\n      jump\t// in\n    tag_292:\n        /* \"#utility.yul\":15456:15534   */\n      swap4\n      pop\n        /* \"#utility.yul\":15544:15600   */\n      tag_293\n        /* \"#utility.yul\":15593:15599   */\n      dup4\n        /* \"#utility.yul\":15588:15591   */\n      dup6\n        /* \"#utility.yul\":15581:15586   */\n      dup5\n        /* \"#utility.yul\":15544:15600   */\n      tag_106\n      jump\t// in\n    tag_293:\n        /* \"#utility.yul\":15625:15654   */\n      tag_294\n        /* \"#utility.yul\":15647:15653   */\n      dup4\n        /* \"#utility.yul\":15625:15654   */\n      tag_101\n      jump\t// in\n    tag_294:\n        /* \"#utility.yul\":15620:15623   */\n      dup5\n        /* \"#utility.yul\":15616:15655   */\n      add\n        /* \"#utility.yul\":15609:15655   */\n      swap1\n      pop\n        /* \"#utility.yul\":15344:15661   */\n      swap4\n      swap3\n      pop\n      pop\n      pop\n      jump\t// out\n        /* \"#utility.yul\":15667:16000   */\n    tag_87:\n        /* \"#utility.yul\":15790:15794   */\n      0x00\n        /* \"#utility.yul\":15828:15830   */\n      0x20\n        /* \"#utility.yul\":15817:15826   */\n      dup3\n        /* \"#utility.yul\":15813:15831   */\n      add\n        /* \"#utility.yul\":15805:15831   */\n      swap1\n      pop\n        /* \"#utility.yul\":15877:15886   */\n      dup2\n        /* \"#utility.yul\":15871:15875   */\n      dup2\n        /* \"#utility.yul\":15867:15887   */\n      sub\n        /* \"#utility.yul\":15863:15864   */\n      0x00\n        /* \"#utility.yul\":15852:15861   */\n      dup4\n        /* \"#utility.yul\":15848:15865   */\n      add\n        /* \"#utility.yul\":15841:15888   */\n      mstore\n        /* \"#utility.yul\":15905:15993   */\n      tag_296\n        /* \"#utility.yul\":15988:15992   */\n      dup2\n        /* \"#utility.yul\":15979:15985   */\n      dup5\n        /* \"#utility.yul\":15971:15977   */\n      dup7\n        /* \"#utility.yul\":15905:15993   */\n      tag_131\n      jump\t// in\n    tag_296:\n        /* \"#utility.yul\":15897:15993   */\n      swap1\n      pop\n        /* \"#utility.yul\":15667:16000   */\n      swap4\n      swap3\n      pop\n      pop\n      pop\n      jump\t// out\n        /* \"#utility.yul\":16006:16539   */\n    tag_92:\n        /* \"#utility.yul\":16175:16179   */\n      0x00\n        /* \"#utility.yul\":16213:16215   */\n      0x60\n        /* \"#utility.yul\":16202:16211   */\n      dup3\n        /* \"#utility.yul\":16198:16216   */\n      add\n        /* \"#utility.yul\":16190:16216   */\n      swap1\n      pop\n        /* \"#utility.yul\":16226:16297   */\n      tag_298\n        /* \"#utility.yul\":16294:16295   */\n      0x00\n        /* \"#utility.yul\":16283:16292   */\n      dup4\n        /* \"#utility.yul\":16279:16296   */\n      add\n        /* \"#utility.yul\":16270:16276   */\n      dup7\n        /* \"#utility.yul\":16226:16297   */\n      tag_117\n      jump\t// in\n    tag_298:\n        /* \"#utility.yul\":16307:16379   */\n      tag_299\n        /* \"#utility.yul\":16375:16377   */\n      0x20\n        /* \"#utility.yul\":16364:16373   */\n      dup4\n        /* \"#utility.yul\":16360:16378   */\n      add\n        /* \"#utility.yul\":16351:16357   */\n      dup6\n        /* \"#utility.yul\":16307:16379   */\n      tag_117\n      jump\t// in\n    tag_299:\n        /* \"#utility.yul\":16426:16435   */\n      dup2\n        /* \"#utility.yul\":16420:16424   */\n      dup2\n        /* \"#utility.yul\":16416:16436   */\n      sub\n        /* \"#utility.yul\":16411:16413   */\n      0x40\n        /* \"#utility.yul\":16400:16409   */\n      dup4\n        /* \"#utility.yul\":16396:16414   */\n      add\n        /* \"#utility.yul\":16389:16437   */\n      mstore\n        /* \"#utility.yul\":16454:16532   */\n      tag_300\n        /* \"#utility.yul\":16527:16531   */\n      dup2\n        /* \"#utility.yul\":16518:16524   */\n      dup5\n        /* \"#utility.yul\":16454:16532   */\n      tag_114\n      jump\t// in\n    tag_300:\n        /* \"#utility.yul\":16446:16532   */\n      swap1\n      pop\n        /* \"#utility.yul\":16006:16539   */\n      swap5\n      swap4\n      pop\n      pop\n      pop\n      pop\n      jump\t// out\n    stop\n\n    sub_0: assembly {\n            /* \"PoT.sol\":70:3435  contract ProofOfTransit{... */\n          mstore(0x40, 0x80)\n            /* \"PoT.sol\":899:1400  constructor(address controllerAddr, address egress_edgeAddr, string memory routeId) {... */\n          callvalue\n          dup1\n          iszero\n          tag_1\n          jumpi\n          0x00\n          dup1\n          revert\n        tag_1:\n          pop\n          mload(0x40)\n          sub(codesize, bytecodeSize)\n          dup1\n          bytecodeSize\n          dup4\n          codecopy\n          dup2\n          dup2\n          add\n          0x40\n          mstore\n          dup2\n          add\n          swap1\n          tag_2\n          swap2\n          swap1\n          tag_3\n          jump\t// in\n        tag_2:\n            /* \"PoT.sol\":1006:1020  controllerAddr */\n          dup3\n            /* \"PoT.sol\":993:1003  controller */\n          0x00\n          dup1\n            /* \"PoT.sol\":993:1020  controller = controllerAddr */\n          0x0100\n          exp\n          dup2\n          sload\n          dup2\n          0xffffffffffffffffffffffffffffffffffffffff\n          mul\n          not\n          and\n          swap1\n          dup4\n          0xffffffffffffffffffffffffffffffffffffffff\n          and\n          mul\n          or\n          swap1\n          sstore\n          pop\n            /* \"PoT.sol\":1042:1057  block.timestamp */\n          timestamp\n            /* \"PoT.sol\":1030:1039  startTime */\n          0x01\n            /* \"PoT.sol\":1030:1057  startTime = block.timestamp */\n          dup2\n          swap1\n          sstore\n          pop\n            /* \"PoT.sol\":1117:1118  0 */\n          0x00\n            /* \"PoT.sol\":1076:1098  current_route_id_audit */\n          0x03\n            /* \"PoT.sol\":1076:1114  current_route_id_audit.probeFailAmount */\n          0x00\n          add\n            /* \"PoT.sol\":1076:1118  current_route_id_audit.probeFailAmount = 0 */\n          dup2\n          swap1\n          sstore\n          pop\n            /* \"PoT.sol\":1172:1173  0 */\n          0x00\n            /* \"PoT.sol\":1128:1150  current_route_id_audit */\n          0x03\n            /* \"PoT.sol\":1128:1169  current_route_id_audit.probeSuccessAmount */\n          0x02\n          add\n            /* \"PoT.sol\":1128:1173  current_route_id_audit.probeSuccessAmount = 0 */\n          dup2\n          swap1\n          sstore\n          pop\n            /* \"PoT.sol\":1224:1225  0 */\n          0x00\n            /* \"PoT.sol\":1183:1205  current_route_id_audit */\n          0x03\n            /* \"PoT.sol\":1183:1221  current_route_id_audit.probeNullAmount */\n          0x01\n          add\n            /* \"PoT.sol\":1183:1225  current_route_id_audit.probeNullAmount = 0 */\n          dup2\n          swap1\n          sstore\n          pop\n            /* \"PoT.sol\":1272:1287  egress_edgeAddr */\n          dup2\n            /* \"PoT.sol\":1236:1258  current_route_id_audit */\n          0x03\n            /* \"PoT.sol\":1236:1269  current_route_id_audit.egressEdge */\n          0x04\n          add\n          0x00\n            /* \"PoT.sol\":1236:1287  current_route_id_audit.egressEdge = egress_edgeAddr */\n          0x0100\n          exp\n          dup2\n          sload\n          dup2\n          0xffffffffffffffffffffffffffffffffffffffff\n          mul\n          not\n          and\n          swap1\n          dup4\n          0xffffffffffffffffffffffffffffffffffffffff\n          and\n          mul\n          or\n          swap1\n          sstore\n          pop\n            /* \"PoT.sol\":1330:1337  routeId */\n          dup1\n            /* \"PoT.sol\":1297:1319  current_route_id_audit */\n          0x03\n            /* \"PoT.sol\":1297:1327  current_route_id_audit.routeId */\n          dup1\n          add\n            /* \"PoT.sol\":1297:1337  current_route_id_audit.routeId = routeId */\n          swap1\n          dup2\n          tag_6\n          swap2\n          swap1\n          tag_7\n          jump\t// in\n        tag_6:\n          pop\n            /* \"PoT.sol\":1382:1392  controller */\n          0x00\n          dup1\n          sload\n          swap1\n          0x0100\n          exp\n          swap1\n          div\n          0xffffffffffffffffffffffffffffffffffffffff\n          and\n            /* \"PoT.sol\":1356:1393  ControllerSet(address(0), controller) */\n          0xffffffffffffffffffffffffffffffffffffffff\n          and\n            /* \"PoT.sol\":1378:1379  0 */\n          0x00\n            /* \"PoT.sol\":1356:1393  ControllerSet(address(0), controller) */\n          0xffffffffffffffffffffffffffffffffffffffff\n          and\n          0x7582b62407f53d49cfc72e7ddab574c06ef3b8aced104b54b7bed4681ee54a\n          mload(0x40)\n          mload(0x40)\n          dup1\n          swap2\n          sub\n          swap1\n          log3\n            /* \"PoT.sol\":899:1400  constructor(address controllerAddr, address egress_edgeAddr, string memory routeId) {... */\n          pop\n          pop\n          pop\n            /* \"PoT.sol\":70:3435  contract ProofOfTransit{... */\n          jump(tag_8)\n            /* \"#utility.yul\":7:82   */\n        tag_9:\n            /* \"#utility.yul\":40:46   */\n          0x00\n            /* \"#utility.yul\":73:75   */\n          0x40\n            /* \"#utility.yul\":67:76   */\n          mload\n            /* \"#utility.yul\":57:76   */\n          swap1\n          pop\n            /* \"#utility.yul\":7:82   */\n          swap1\n          jump\t// out\n            /* \"#utility.yul\":88:205   */\n        tag_10:\n            /* \"#utility.yul\":197:198   */\n          0x00\n            /* \"#utility.yul\":194:195   */\n          dup1\n            /* \"#utility.yul\":187:199   */\n          revert\n            /* \"#utility.yul\":211:328   */\n        tag_11:\n            /* \"#utility.yul\":320:321   */\n          0x00\n            /* \"#utility.yul\":317:318   */\n          dup1\n            /* \"#utility.yul\":310:322   */\n          revert\n            /* \"#utility.yul\":334:460   */\n        tag_12:\n            /* \"#utility.yul\":371:378   */\n          0x00\n            /* \"#utility.yul\":411:453   */\n          0xffffffffffffffffffffffffffffffffffffffff\n            /* \"#utility.yul\":404:409   */\n          dup3\n            /* \"#utility.yul\":400:454   */\n          and\n            /* \"#utility.yul\":389:454   */\n          swap1\n          pop\n            /* \"#utility.yul\":334:460   */\n          swap2\n          swap1\n          pop\n          jump\t// out\n            /* \"#utility.yul\":466:562   */\n        tag_13:\n            /* \"#utility.yul\":503:510   */\n          0x00\n            /* \"#utility.yul\":532:556   */\n          tag_51\n            /* \"#utility.yul\":550:555   */\n          dup3\n            /* \"#utility.yul\":532:556   */\n          tag_12\n          jump\t// in\n        tag_51:\n            /* \"#utility.yul\":521:556   */\n          swap1\n          pop\n            /* \"#utility.yul\":466:562   */\n          swap2\n          swap1\n          pop\n          jump\t// out\n            /* \"#utility.yul\":568:690   */\n        tag_14:\n            /* \"#utility.yul\":641:665   */\n          tag_53\n            /* \"#utility.yul\":659:664   */\n          dup2\n            /* \"#utility.yul\":641:665   */\n          tag_13\n          jump\t// in\n        tag_53:\n            /* \"#utility.yul\":634:639   */\n          dup2\n            /* \"#utility.yul\":631:666   */\n          eq\n            /* \"#utility.yul\":621:684   */\n          tag_54\n          jumpi\n            /* \"#utility.yul\":680:681   */\n          0x00\n            /* \"#utility.yul\":677:678   */\n          dup1\n            /* \"#utility.yul\":670:682   */\n          revert\n            /* \"#utility.yul\":621:684   */\n        tag_54:\n            /* \"#utility.yul\":568:690   */\n          pop\n          jump\t// out\n            /* \"#utility.yul\":696:839   */\n        tag_15:\n            /* \"#utility.yul\":753:758   */\n          0x00\n            /* \"#utility.yul\":784:790   */\n          dup2\n            /* \"#utility.yul\":778:791   */\n          mload\n            /* \"#utility.yul\":769:791   */\n          swap1\n          pop\n            /* \"#utility.yul\":800:833   */\n          tag_56\n            /* \"#utility.yul\":827:832   */\n          dup2\n            /* \"#utility.yul\":800:833   */\n          tag_14\n          jump\t// in\n        tag_56:\n            /* \"#utility.yul\":696:839   */\n          swap3\n          swap2\n          pop\n          pop\n          jump\t// out\n            /* \"#utility.yul\":845:962   */\n        tag_16:\n            /* \"#utility.yul\":954:955   */\n          0x00\n            /* \"#utility.yul\":951:952   */\n          dup1\n            /* \"#utility.yul\":944:956   */\n          revert\n            /* \"#utility.yul\":968:1085   */\n        tag_17:\n            /* \"#utility.yul\":1077:1078   */\n          0x00\n            /* \"#utility.yul\":1074:1075   */\n          dup1\n            /* \"#utility.yul\":1067:1079   */\n          revert\n            /* \"#utility.yul\":1091:1193   */\n        tag_18:\n            /* \"#utility.yul\":1132:1138   */\n          0x00\n            /* \"#utility.yul\":1183:1185   */\n          0x1f\n            /* \"#utility.yul\":1179:1186   */\n          not\n            /* \"#utility.yul\":1174:1176   */\n          0x1f\n            /* \"#utility.yul\":1167:1172   */\n          dup4\n            /* \"#utility.yul\":1163:1177   */\n          add\n            /* \"#utility.yul\":1159:1187   */\n          and\n            /* \"#utility.yul\":1149:1187   */\n          swap1\n          pop\n            /* \"#utility.yul\":1091:1193   */\n          swap2\n          swap1\n          pop\n          jump\t// out\n            /* \"#utility.yul\":1199:1379   */\n        tag_19:\n            /* \"#utility.yul\":1247:1324   */\n          0x4e487b7100000000000000000000000000000000000000000000000000000000\n            /* \"#utility.yul\":1244:1245   */\n          0x00\n            /* \"#utility.yul\":1237:1325   */\n          mstore\n            /* \"#utility.yul\":1344:1348   */\n          0x41\n            /* \"#utility.yul\":1341:1342   */\n          0x04\n            /* \"#utility.yul\":1334:1349   */\n          mstore\n            /* \"#utility.yul\":1368:1372   */\n          0x24\n            /* \"#utility.yul\":1365:1366   */\n          0x00\n            /* \"#utility.yul\":1358:1373   */\n          revert\n            /* \"#utility.yul\":1385:1666   */\n        tag_20:\n            /* \"#utility.yul\":1468:1495   */\n          tag_62\n            /* \"#utility.yul\":1490:1494   */\n          dup3\n            /* \"#utility.yul\":1468:1495   */\n          tag_18\n          jump\t// in\n        tag_62:\n            /* \"#utility.yul\":1460:1466   */\n          dup2\n            /* \"#utility.yul\":1456:1496   */\n          add\n            /* \"#utility.yul\":1598:1604   */\n          dup2\n            /* \"#utility.yul\":1586:1596   */\n          dup2\n            /* \"#utility.yul\":1583:1605   */\n          lt\n            /* \"#utility.yul\":1562:1580   */\n          0xffffffffffffffff\n            /* \"#utility.yul\":1550:1560   */\n          dup3\n            /* \"#utility.yul\":1547:1581   */\n          gt\n            /* \"#utility.yul\":1544:1606   */\n          or\n            /* \"#utility.yul\":1541:1629   */\n          iszero\n          tag_63\n          jumpi\n            /* \"#utility.yul\":1609:1627   */\n          tag_64\n          tag_19\n          jump\t// in\n        tag_64:\n            /* \"#utility.yul\":1541:1629   */\n        tag_63:\n            /* \"#utility.yul\":1649:1659   */\n          dup1\n            /* \"#utility.yul\":1645:1647   */\n          0x40\n            /* \"#utility.yul\":1638:1660   */\n          mstore\n            /* \"#utility.yul\":1428:1666   */\n          pop\n            /* \"#utility.yul\":1385:1666   */\n          pop\n          pop\n          jump\t// out\n            /* \"#utility.yul\":1672:1801   */\n        tag_21:\n            /* \"#utility.yul\":1706:1712   */\n          0x00\n            /* \"#utility.yul\":1733:1753   */\n          tag_66\n          tag_9\n          jump\t// in\n        tag_66:\n            /* \"#utility.yul\":1723:1753   */\n          swap1\n          pop\n            /* \"#utility.yul\":1762:1795   */\n          tag_67\n            /* \"#utility.yul\":1790:1794   */\n          dup3\n            /* \"#utility.yul\":1782:1788   */\n          dup3\n            /* \"#utility.yul\":1762:1795   */\n          tag_20\n          jump\t// in\n        tag_67:\n            /* \"#utility.yul\":1672:1801   */\n          swap2\n          swap1\n          pop\n          jump\t// out\n            /* \"#utility.yul\":1807:2115   */\n        tag_22:\n            /* \"#utility.yul\":1869:1873   */\n          0x00\n            /* \"#utility.yul\":1959:1977   */\n          0xffffffffffffffff\n            /* \"#utility.yul\":1951:1957   */\n          dup3\n            /* \"#utility.yul\":1948:1978   */\n          gt\n            /* \"#utility.yul\":1945:2001   */\n          iszero\n          tag_69\n          jumpi\n            /* \"#utility.yul\":1981:1999   */\n          tag_70\n          tag_19\n          jump\t// in\n        tag_70:\n            /* \"#utility.yul\":1945:2001   */\n        tag_69:\n            /* \"#utility.yul\":2019:2048   */\n          tag_71\n            /* \"#utility.yul\":2041:2047   */\n          dup3\n            /* \"#utility.yul\":2019:2048   */\n          tag_18\n          jump\t// in\n        tag_71:\n            /* \"#utility.yul\":2011:2048   */\n          swap1\n          pop\n            /* \"#utility.yul\":2103:2107   */\n          0x20\n            /* \"#utility.yul\":2097:2101   */\n          dup2\n            /* \"#utility.yul\":2093:2108   */\n          add\n            /* \"#utility.yul\":2085:2108   */\n          swap1\n          pop\n            /* \"#utility.yul\":1807:2115   */\n          swap2\n          swap1\n          pop\n          jump\t// out\n            /* \"#utility.yul\":2121:2369   */\n        tag_23:\n            /* \"#utility.yul\":2203:2204   */\n          0x00\n            /* \"#utility.yul\":2213:2326   */\n        tag_73:\n            /* \"#utility.yul\":2227:2233   */\n          dup4\n            /* \"#utility.yul\":2224:2225   */\n          dup2\n            /* \"#utility.yul\":2221:2234   */\n          lt\n            /* \"#utility.yul\":2213:2326   */\n          iszero\n          tag_75\n          jumpi\n            /* \"#utility.yul\":2312:2313   */\n          dup1\n            /* \"#utility.yul\":2307:2310   */\n          dup3\n            /* \"#utility.yul\":2303:2314   */\n          add\n            /* \"#utility.yul\":2297:2315   */\n          mload\n            /* \"#utility.yul\":2293:2294   */\n          dup2\n            /* \"#utility.yul\":2288:2291   */\n          dup5\n            /* \"#utility.yul\":2284:2295   */\n          add\n            /* \"#utility.yul\":2277:2316   */\n          mstore\n            /* \"#utility.yul\":2249:2251   */\n          0x20\n            /* \"#utility.yul\":2246:2247   */\n          dup2\n            /* \"#utility.yul\":2242:2252   */\n          add\n            /* \"#utility.yul\":2237:2252   */\n          swap1\n          pop\n            /* \"#utility.yul\":2213:2326   */\n          jump(tag_73)\n        tag_75:\n            /* \"#utility.yul\":2360:2361   */\n          0x00\n            /* \"#utility.yul\":2351:2357   */\n          dup5\n            /* \"#utility.yul\":2346:2349   */\n          dup5\n            /* \"#utility.yul\":2342:2358   */\n          add\n            /* \"#utility.yul\":2335:2362   */\n          mstore\n            /* \"#utility.yul\":2183:2369   */\n          pop\n            /* \"#utility.yul\":2121:2369   */\n          pop\n          pop\n          pop\n          jump\t// out\n            /* \"#utility.yul\":2375:2809   */\n        tag_24:\n            /* \"#utility.yul\":2464:2469   */\n          0x00\n            /* \"#utility.yul\":2489:2555   */\n          tag_77\n            /* \"#utility.yul\":2505:2554   */\n          tag_78\n            /* \"#utility.yul\":2547:2553   */\n          dup5\n            /* \"#utility.yul\":2505:2554   */\n          tag_22\n          jump\t// in\n        tag_78:\n            /* \"#utility.yul\":2489:2555   */\n          tag_21\n          jump\t// in\n        tag_77:\n            /* \"#utility.yul\":2480:2555   */\n          swap1\n          pop\n            /* \"#utility.yul\":2578:2584   */\n          dup3\n            /* \"#utility.yul\":2571:2576   */\n          dup2\n            /* \"#utility.yul\":2564:2585   */\n          mstore\n            /* \"#utility.yul\":2616:2620   */\n          0x20\n            /* \"#utility.yul\":2609:2614   */\n          dup2\n            /* \"#utility.yul\":2605:2621   */\n          add\n            /* \"#utility.yul\":2654:2657   */\n          dup5\n            /* \"#utility.yul\":2645:2651   */\n          dup5\n            /* \"#utility.yul\":2640:2643   */\n          dup5\n            /* \"#utility.yul\":2636:2652   */\n          add\n            /* \"#utility.yul\":2633:2658   */\n          gt\n            /* \"#utility.yul\":2630:2742   */\n          iszero\n          tag_79\n          jumpi\n            /* \"#utility.yul\":2661:2740   */\n          tag_80\n          tag_17\n          jump\t// in\n        tag_80:\n            /* \"#utility.yul\":2630:2742   */\n        tag_79:\n            /* \"#utility.yul\":2751:2803   */\n          tag_81\n            /* \"#utility.yul\":2796:2802   */\n          dup5\n            /* \"#utility.yul\":2791:2794   */\n          dup3\n            /* \"#utility.yul\":2786:2789   */\n          dup6\n            /* \"#utility.yul\":2751:2803   */\n          tag_23\n          jump\t// in\n        tag_81:\n            /* \"#utility.yul\":2470:2809   */\n          pop\n            /* \"#utility.yul\":2375:2809   */\n          swap4\n          swap3\n          pop\n          pop\n          pop\n          jump\t// out\n            /* \"#utility.yul\":2829:3184   */\n        tag_25:\n            /* \"#utility.yul\":2896:2901   */\n          0x00\n            /* \"#utility.yul\":2945:2948   */\n          dup3\n            /* \"#utility.yul\":2938:2942   */\n          0x1f\n            /* \"#utility.yul\":2930:2936   */\n          dup4\n            /* \"#utility.yul\":2926:2943   */\n          add\n            /* \"#utility.yul\":2922:2949   */\n          slt\n            /* \"#utility.yul\":2912:3034   */\n          tag_83\n          jumpi\n            /* \"#utility.yul\":2953:3032   */\n          tag_84\n          tag_16\n          jump\t// in\n        tag_84:\n            /* \"#utility.yul\":2912:3034   */\n        tag_83:\n            /* \"#utility.yul\":3063:3069   */\n          dup2\n            /* \"#utility.yul\":3057:3070   */\n          mload\n            /* \"#utility.yul\":3088:3178   */\n          tag_85\n            /* \"#utility.yul\":3174:3177   */\n          dup5\n            /* \"#utility.yul\":3166:3172   */\n          dup3\n            /* \"#utility.yul\":3159:3163   */\n          0x20\n            /* \"#utility.yul\":3151:3157   */\n          dup7\n            /* \"#utility.yul\":3147:3164   */\n          add\n            /* \"#utility.yul\":3088:3178   */\n          tag_24\n          jump\t// in\n        tag_85:\n            /* \"#utility.yul\":3079:3178   */\n          swap2\n          pop\n            /* \"#utility.yul\":2902:3184   */\n          pop\n            /* \"#utility.yul\":2829:3184   */\n          swap3\n          swap2\n          pop\n          pop\n          jump\t// out\n            /* \"#utility.yul\":3190:4026   */\n        tag_3:\n            /* \"#utility.yul\":3288:3294   */\n          0x00\n            /* \"#utility.yul\":3296:3302   */\n          dup1\n            /* \"#utility.yul\":3304:3310   */\n          0x00\n            /* \"#utility.yul\":3353:3355   */\n          0x60\n            /* \"#utility.yul\":3341:3350   */\n          dup5\n            /* \"#utility.yul\":3332:3339   */\n          dup7\n            /* \"#utility.yul\":3328:3351   */\n          sub\n            /* \"#utility.yul\":3324:3356   */\n          slt\n            /* \"#utility.yul\":3321:3440   */\n          iszero\n          tag_87\n          jumpi\n            /* \"#utility.yul\":3359:3438   */\n          tag_88\n          tag_10\n          jump\t// in\n        tag_88:\n            /* \"#utility.yul\":3321:3440   */\n        tag_87:\n            /* \"#utility.yul\":3479:3480   */\n          0x00\n            /* \"#utility.yul\":3504:3568   */\n          tag_89\n            /* \"#utility.yul\":3560:3567   */\n          dup7\n            /* \"#utility.yul\":3551:3557   */\n          dup3\n            /* \"#utility.yul\":3540:3549   */\n          dup8\n            /* \"#utility.yul\":3536:3558   */\n          add\n            /* \"#utility.yul\":3504:3568   */\n          tag_15\n          jump\t// in\n        tag_89:\n            /* \"#utility.yul\":3494:3568   */\n          swap4\n          pop\n            /* \"#utility.yul\":3450:3578   */\n          pop\n            /* \"#utility.yul\":3617:3619   */\n          0x20\n            /* \"#utility.yul\":3643:3707   */\n          tag_90\n            /* \"#utility.yul\":3699:3706   */\n          dup7\n            /* \"#utility.yul\":3690:3696   */\n          dup3\n            /* \"#utility.yul\":3679:3688   */\n          dup8\n            /* \"#utility.yul\":3675:3697   */\n          add\n            /* \"#utility.yul\":3643:3707   */\n          tag_15\n          jump\t// in\n        tag_90:\n            /* \"#utility.yul\":3633:3707   */\n          swap3\n          pop\n            /* \"#utility.yul\":3588:3717   */\n          pop\n            /* \"#utility.yul\":3777:3779   */\n          0x40\n            /* \"#utility.yul\":3766:3775   */\n          dup5\n            /* \"#utility.yul\":3762:3780   */\n          add\n            /* \"#utility.yul\":3756:3781   */\n          mload\n            /* \"#utility.yul\":3808:3826   */\n          0xffffffffffffffff\n            /* \"#utility.yul\":3800:3806   */\n          dup2\n            /* \"#utility.yul\":3797:3827   */\n          gt\n            /* \"#utility.yul\":3794:3911   */\n          iszero\n          tag_91\n          jumpi\n            /* \"#utility.yul\":3830:3909   */\n          tag_92\n          tag_11\n          jump\t// in\n        tag_92:\n            /* \"#utility.yul\":3794:3911   */\n        tag_91:\n            /* \"#utility.yul\":3935:4009   */\n          tag_93\n            /* \"#utility.yul\":4001:4008   */\n          dup7\n            /* \"#utility.yul\":3992:3998   */\n          dup3\n            /* \"#utility.yul\":3981:3990   */\n          dup8\n            /* \"#utility.yul\":3977:3999   */\n          add\n            /* \"#utility.yul\":3935:4009   */\n          tag_25\n          jump\t// in\n        tag_93:\n            /* \"#utility.yul\":3925:4009   */\n          swap2\n          pop\n            /* \"#utility.yul\":3727:4019   */\n          pop\n            /* \"#utility.yul\":3190:4026   */\n          swap3\n          pop\n          swap3\n          pop\n          swap3\n          jump\t// out\n            /* \"#utility.yul\":4032:4131   */\n        tag_26:\n            /* \"#utility.yul\":4084:4090   */\n          0x00\n            /* \"#utility.yul\":4118:4123   */\n          dup2\n            /* \"#utility.yul\":4112:4124   */\n          mload\n            /* \"#utility.yul\":4102:4124   */\n          swap1\n          pop\n            /* \"#utility.yul\":4032:4131   */\n          swap2\n          swap1\n          pop\n          jump\t// out\n            /* \"#utility.yul\":4137:4317   */\n        tag_27:\n            /* \"#utility.yul\":4185:4262   */\n          0x4e487b7100000000000000000000000000000000000000000000000000000000\n            /* \"#utility.yul\":4182:4183   */\n          0x00\n            /* \"#utility.yul\":4175:4263   */\n          mstore\n            /* \"#utility.yul\":4282:4286   */\n          0x22\n            /* \"#utility.yul\":4279:4280   */\n          0x04\n            /* \"#utility.yul\":4272:4287   */\n          mstore\n            /* \"#utility.yul\":4306:4310   */\n          0x24\n            /* \"#utility.yul\":4303:4304   */\n          0x00\n            /* \"#utility.yul\":4296:4311   */\n          revert\n            /* \"#utility.yul\":4323:4643   */\n        tag_28:\n            /* \"#utility.yul\":4367:4373   */\n          0x00\n            /* \"#utility.yul\":4404:4405   */\n          0x02\n            /* \"#utility.yul\":4398:4402   */\n          dup3\n            /* \"#utility.yul\":4394:4406   */\n          div\n            /* \"#utility.yul\":4384:4406   */\n          swap1\n          pop\n            /* \"#utility.yul\":4451:4452   */\n          0x01\n            /* \"#utility.yul\":4445:4449   */\n          dup3\n            /* \"#utility.yul\":4441:4453   */\n          and\n            /* \"#utility.yul\":4472:4490   */\n          dup1\n            /* \"#utility.yul\":4462:4543   */\n          tag_97\n          jumpi\n            /* \"#utility.yul\":4528:4532   */\n          0x7f\n            /* \"#utility.yul\":4520:4526   */\n          dup3\n            /* \"#utility.yul\":4516:4533   */\n          and\n            /* \"#utility.yul\":4506:4533   */\n          swap2\n          pop\n            /* \"#utility.yul\":4462:4543   */\n        tag_97:\n            /* \"#utility.yul\":4590:4592   */\n          0x20\n            /* \"#utility.yul\":4582:4588   */\n          dup3\n            /* \"#utility.yul\":4579:4593   */\n          lt\n            /* \"#utility.yul\":4559:4577   */\n          dup2\n            /* \"#utility.yul\":4556:4594   */\n          sub\n            /* \"#utility.yul\":4553:4637   */\n          tag_98\n          jumpi\n            /* \"#utility.yul\":4609:4627   */\n          tag_99\n          tag_27\n          jump\t// in\n        tag_99:\n            /* \"#utility.yul\":4553:4637   */\n        tag_98:\n            /* \"#utility.yul\":4374:4643   */\n          pop\n            /* \"#utility.yul\":4323:4643   */\n          swap2\n          swap1\n          pop\n          jump\t// out\n            /* \"#utility.yul\":4649:4790   */\n        tag_29:\n            /* \"#utility.yul\":4698:4702   */\n          0x00\n            /* \"#utility.yul\":4721:4724   */\n          dup2\n            /* \"#utility.yul\":4713:4724   */\n          swap1\n          pop\n            /* \"#utility.yul\":4744:4747   */\n          dup2\n            /* \"#utility.yul\":4741:4742   */\n          0x00\n            /* \"#utility.yul\":4734:4748   */\n          mstore\n            /* \"#utility.yul\":4778:4782   */\n          0x20\n            /* \"#utility.yul\":4775:4776   */\n          0x00\n            /* \"#utility.yul\":4765:4783   */\n          keccak256\n            /* \"#utility.yul\":4757:4783   */\n          swap1\n          pop\n            /* \"#utility.yul\":4649:4790   */\n          swap2\n          swap1\n          pop\n          jump\t// out\n            /* \"#utility.yul\":4796:4889   */\n        tag_30:\n            /* \"#utility.yul\":4833:4839   */\n          0x00\n            /* \"#utility.yul\":4880:4882   */\n          0x20\n            /* \"#utility.yul\":4875:4877   */\n          0x1f\n            /* \"#utility.yul\":4868:4873   */\n          dup4\n            /* \"#utility.yul\":4864:4878   */\n          add\n            /* \"#utility.yul\":4860:4883   */\n          div\n            /* \"#utility.yul\":4850:4883   */\n          swap1\n          pop\n            /* \"#utility.yul\":4796:4889   */\n          swap2\n          swap1\n          pop\n          jump\t// out\n            /* \"#utility.yul\":4895:5002   */\n        tag_31:\n            /* \"#utility.yul\":4939:4947   */\n          0x00\n            /* \"#utility.yul\":4989:4994   */\n          dup3\n            /* \"#utility.yul\":4983:4987   */\n          dup3\n            /* \"#utility.yul\":4979:4995   */\n          shl\n            /* \"#utility.yul\":4958:4995   */\n          swap1\n          pop\n            /* \"#utility.yul\":4895:5002   */\n          swap3\n          swap2\n          pop\n          pop\n          jump\t// out\n            /* \"#utility.yul\":5008:5401   */\n        tag_32:\n            /* \"#utility.yul\":5077:5083   */\n          0x00\n            /* \"#utility.yul\":5127:5128   */\n          0x08\n            /* \"#utility.yul\":5115:5125   */\n          dup4\n            /* \"#utility.yul\":5111:5129   */\n          mul\n            /* \"#utility.yul\":5150:5247   */\n          tag_104\n            /* \"#utility.yul\":5180:5246   */\n          0xffffffffffffffffffffffffffffffffffffffffffffffffffffffffffffffff\n            /* \"#utility.yul\":5169:5178   */\n          dup3\n            /* \"#utility.yul\":5150:5247   */\n          tag_31\n          jump\t// in\n        tag_104:\n            /* \"#utility.yul\":5268:5307   */\n          tag_105\n            /* \"#utility.yul\":5298:5306   */\n          dup7\n            /* \"#utility.yul\":5287:5296   */\n          dup4\n            /* \"#utility.yul\":5268:5307   */\n          tag_31\n          jump\t// in\n        tag_105:\n            /* \"#utility.yul\":5256:5307   */\n          swap6\n          pop\n            /* \"#utility.yul\":5340:5344   */\n          dup1\n            /* \"#utility.yul\":5336:5345   */\n          not\n            /* \"#utility.yul\":5329:5334   */\n          dup5\n            /* \"#utility.yul\":5325:5346   */\n          and\n            /* \"#utility.yul\":5316:5346   */\n          swap4\n          pop\n            /* \"#utility.yul\":5389:5393   */\n          dup1\n            /* \"#utility.yul\":5379:5387   */\n          dup7\n            /* \"#utility.yul\":5375:5394   */\n          and\n            /* \"#utility.yul\":5368:5373   */\n          dup5\n            /* \"#utility.yul\":5365:5395   */\n          or\n            /* \"#utility.yul\":5355:5395   */\n          swap3\n          pop\n            /* \"#utility.yul\":5084:5401   */\n          pop\n          pop\n            /* \"#utility.yul\":5008:5401   */\n          swap4\n          swap3\n          pop\n          pop\n          pop\n          jump\t// out\n            /* \"#utility.yul\":5407:5484   */\n        tag_33:\n            /* \"#utility.yul\":5444:5451   */\n          0x00\n            /* \"#utility.yul\":5473:5478   */\n          dup2\n            /* \"#utility.yul\":5462:5478   */\n          swap1\n          pop\n            /* \"#utility.yul\":5407:5484   */\n          swap2\n          swap1\n          pop\n          jump\t// out\n            /* \"#utility.yul\":5490:5550   */\n        tag_34:\n            /* \"#utility.yul\":5518:5521   */\n          0x00\n            /* \"#utility.yul\":5539:5544   */\n          dup2\n            /* \"#utility.yul\":5532:5544   */\n          swap1\n          pop\n            /* \"#utility.yul\":5490:5550   */\n          swap2\n          swap1\n          pop\n          jump\t// out\n            /* \"#utility.yul\":5556:5698   */\n        tag_35:\n            /* \"#utility.yul\":5606:5615   */\n          0x00\n            /* \"#utility.yul\":5639:5692   */\n          tag_109\n            /* \"#utility.yul\":5657:5691   */\n          tag_110\n            /* \"#utility.yul\":5666:5690   */\n          tag_111\n            /* \"#utility.yul\":5684:5689   */\n          dup5\n            /* \"#utility.yul\":5666:5690   */\n          tag_33\n          jump\t// in\n        tag_111:\n            /* \"#utility.yul\":5657:5691   */\n          tag_34\n          jump\t// in\n        tag_110:\n            /* \"#utility.yul\":5639:5692   */\n          tag_33\n          jump\t// in\n        tag_109:\n            /* \"#utility.yul\":5626:5692   */\n          swap1\n          pop\n            /* \"#utility.yul\":5556:5698   */\n          swap2\n          swap1\n          pop\n          jump\t// out\n            /* \"#utility.yul\":5704:5779   */\n        tag_36:\n            /* \"#utility.yul\":5747:5750   */\n          0x00\n            /* \"#utility.yul\":5768:5773   */\n          dup2\n            /* \"#utility.yul\":5761:5773   */\n          swap1\n          pop\n            /* \"#utility.yul\":5704:5779   */\n          swap2\n          swap1\n          pop\n          jump\t// out\n            /* \"#utility.yul\":5785:6054   */\n        tag_37:\n            /* \"#utility.yul\":5895:5934   */\n          tag_114\n            /* \"#utility.yul\":5926:5933   */\n          dup4\n            /* \"#utility.yul\":5895:5934   */\n          tag_35\n          jump\t// in\n        tag_114:\n            /* \"#utility.yul\":5956:6047   */\n          tag_115\n            /* \"#utility.yul\":6005:6046   */\n          tag_116\n            /* \"#utility.yul\":6029:6045   */\n          dup3\n            /* \"#utility.yul\":6005:6046   */\n          tag_36\n          jump\t// in\n        tag_116:\n            /* \"#utility.yul\":5997:6003   */\n          dup5\n            /* \"#utility.yul\":5990:5994   */\n          dup5\n            /* \"#utility.yul\":5984:5995   */\n          sload\n            /* \"#utility.yul\":5956:6047   */\n          tag_32\n          jump\t// in\n        tag_115:\n            /* \"#utility.yul\":5950:5954   */\n          dup3\n            /* \"#utility.yul\":5943:6048   */\n          sstore\n            /* \"#utility.yul\":5861:6054   */\n          pop\n            /* \"#utility.yul\":5785:6054   */\n          pop\n          pop\n          pop\n          jump\t// out\n            /* \"#utility.yul\":6060:6133   */\n        tag_38:\n            /* \"#utility.yul\":6105:6108   */\n          0x00\n            /* \"#utility.yul\":6060:6133   */\n          swap1\n          jump\t// out\n            /* \"#utility.yul\":6139:6328   */\n        tag_39:\n            /* \"#utility.yul\":6216:6248   */\n          tag_119\n          tag_38\n          jump\t// in\n        tag_119:\n            /* \"#utility.yul\":6257:6322   */\n          tag_120\n            /* \"#utility.yul\":6315:6321   */\n          dup2\n            /* \"#utility.yul\":6307:6313   */\n          dup5\n            /* \"#utility.yul\":6301:6305   */\n          dup5\n            /* \"#utility.yul\":6257:6322   */\n          tag_37\n          jump\t// in\n        tag_120:\n            /* \"#utility.yul\":6192:6328   */\n          pop\n            /* \"#utility.yul\":6139:6328   */\n          pop\n          pop\n          jump\t// out\n            /* \"#utility.yul\":6334:6520   */\n        tag_40:\n            /* \"#utility.yul\":6394:6514   */\n        tag_122:\n            /* \"#utility.yul\":6411:6414   */\n          dup2\n            /* \"#utility.yul\":6404:6409   */\n          dup2\n            /* \"#utility.yul\":6401:6415   */\n          lt\n            /* \"#utility.yul\":6394:6514   */\n          iszero\n          tag_124\n          jumpi\n            /* \"#utility.yul\":6465:6504   */\n          tag_125\n            /* \"#utility.yul\":6502:6503   */\n          0x00\n            /* \"#utility.yul\":6495:6500   */\n          dup3\n            /* \"#utility.yul\":6465:6504   */\n          tag_39\n          jump\t// in\n        tag_125:\n            /* \"#utility.yul\":6438:6439   */\n          0x01\n            /* \"#utility.yul\":6431:6436   */\n          dup2\n            /* \"#utility.yul\":6427:6440   */\n          add\n            /* \"#utility.yul\":6418:6440   */\n          swap1\n          pop\n            /* \"#utility.yul\":6394:6514   */\n          jump(tag_122)\n        tag_124:\n            /* \"#utility.yul\":6334:6520   */\n          pop\n          pop\n          jump\t// out\n            /* \"#utility.yul\":6526:7069   */\n        tag_41:\n            /* \"#utility.yul\":6627:6629   */\n          0x1f\n            /* \"#utility.yul\":6622:6625   */\n          dup3\n            /* \"#utility.yul\":6619:6630   */\n          gt\n            /* \"#utility.yul\":6616:7062   */\n          iszero\n          tag_127\n          jumpi\n            /* \"#utility.yul\":6661:6699   */\n          tag_128\n            /* \"#utility.yul\":6693:6698   */\n          dup2\n            /* \"#utility.yul\":6661:6699   */\n          tag_29\n          jump\t// in\n        tag_128:\n            /* \"#utility.yul\":6745:6774   */\n          tag_129\n            /* \"#utility.yul\":6763:6773   */\n          dup5\n            /* \"#utility.yul\":6745:6774   */\n          tag_30\n          jump\t// in\n        tag_129:\n            /* \"#utility.yul\":6735:6743   */\n          dup2\n            /* \"#utility.yul\":6731:6775   */\n          add\n            /* \"#utility.yul\":6928:6930   */\n          0x20\n            /* \"#utility.yul\":6916:6926   */\n          dup6\n            /* \"#utility.yul\":6913:6931   */\n          lt\n            /* \"#utility.yul\":6910:6959   */\n          iszero\n          tag_130\n          jumpi\n            /* \"#utility.yul\":6949:6957   */\n          dup2\n            /* \"#utility.yul\":6934:6957   */\n          swap1\n          pop\n            /* \"#utility.yul\":6910:6959   */\n        tag_130:\n            /* \"#utility.yul\":6972:7052   */\n          tag_131\n            /* \"#utility.yul\":7028:7050   */\n          tag_132\n            /* \"#utility.yul\":7046:7049   */\n          dup6\n            /* \"#utility.yul\":7028:7050   */\n          tag_30\n          jump\t// in\n        tag_132:\n            /* \"#utility.yul\":7018:7026   */\n          dup4\n            /* \"#utility.yul\":7014:7051   */\n          add\n            /* \"#utility.yul\":7001:7012   */\n          dup3\n            /* \"#utility.yul\":6972:7052   */\n          tag_40\n          jump\t// in\n        tag_131:\n            /* \"#utility.yul\":6631:7062   */\n          pop\n          pop\n            /* \"#utility.yul\":6616:7062   */\n        tag_127:\n            /* \"#utility.yul\":6526:7069   */\n          pop\n          pop\n          pop\n          jump\t// out\n            /* \"#utility.yul\":7075:7192   */\n        tag_42:\n            /* \"#utility.yul\":7129:7137   */\n          0x00\n            /* \"#utility.yul\":7179:7184   */\n          dup3\n            /* \"#utility.yul\":7173:7177   */\n          dup3\n            /* \"#utility.yul\":7169:7185   */\n          shr\n            /* \"#utility.yul\":7148:7185   */\n          swap1\n          pop\n            /* \"#utility.yul\":7075:7192   */\n          swap3\n          swap2\n          pop\n          pop\n          jump\t// out\n            /* \"#utility.yul\":7198:7367   */\n        tag_43:\n            /* \"#utility.yul\":7242:7248   */\n          0x00\n            /* \"#utility.yul\":7275:7326   */\n          tag_135\n            /* \"#utility.yul\":7323:7324   */\n          0x00\n            /* \"#utility.yul\":7319:7325   */\n          not\n            /* \"#utility.yul\":7311:7316   */\n          dup5\n            /* \"#utility.yul\":7308:7309   */\n          0x08\n            /* \"#utility.yul\":7304:7317   */\n          mul\n            /* \"#utility.yul\":7275:7326   */\n          tag_42\n          jump\t// in\n        tag_135:\n            /* \"#utility.yul\":7271:7327   */\n          not\n            /* \"#utility.yul\":7356:7360   */\n          dup1\n            /* \"#utility.yul\":7350:7354   */\n          dup4\n            /* \"#utility.yul\":7346:7361   */\n          and\n            /* \"#utility.yul\":7336:7361   */\n          swap2\n          pop\n            /* \"#utility.yul\":7249:7367   */\n          pop\n            /* \"#utility.yul\":7198:7367   */\n          swap3\n          swap2\n          pop\n          pop\n          jump\t// out\n            /* \"#utility.yul\":7372:7667   */\n        tag_44:\n            /* \"#utility.yul\":7448:7452   */\n          0x00\n            /* \"#utility.yul\":7594:7623   */\n          tag_137\n            /* \"#utility.yul\":7619:7622   */\n          dup4\n            /* \"#utility.yul\":7613:7617   */\n          dup4\n            /* \"#utility.yul\":7594:7623   */\n          tag_43\n          jump\t// in\n        tag_137:\n            /* \"#utility.yul\":7586:7623   */\n          swap2\n          pop\n            /* \"#utility.yul\":7656:7659   */\n          dup3\n            /* \"#utility.yul\":7653:7654   */\n          0x02\n            /* \"#utility.yul\":7649:7660   */\n          mul\n            /* \"#utility.yul\":7643:7647   */\n          dup3\n            /* \"#utility.yul\":7640:7661   */\n          or\n            /* \"#utility.yul\":7632:7661   */\n          swap1\n          pop\n            /* \"#utility.yul\":7372:7667   */\n          swap3\n          swap2\n          pop\n          pop\n          jump\t// out\n            /* \"#utility.yul\":7672:9067   */\n        tag_7:\n            /* \"#utility.yul\":7789:7826   */\n          tag_139\n            /* \"#utility.yul\":7822:7825   */\n          dup3\n            /* \"#utility.yul\":7789:7826   */\n          tag_26\n          jump\t// in\n        tag_139:\n            /* \"#utility.yul\":7891:7909   */\n          0xffffffffffffffff\n            /* \"#utility.yul\":7883:7889   */\n          dup2\n            /* \"#utility.yul\":7880:7910   */\n          gt\n            /* \"#utility.yul\":7877:7933   */\n          iszero\n          tag_140\n          jumpi\n            /* \"#utility.yul\":7913:7931   */\n          tag_141\n          tag_19\n          jump\t// in\n        tag_141:\n            /* \"#utility.yul\":7877:7933   */\n        tag_140:\n            /* \"#utility.yul\":7957:7995   */\n          tag_142\n            /* \"#utility.yul\":7989:7993   */\n          dup3\n            /* \"#utility.yul\":7983:7994   */\n          sload\n            /* \"#utility.yul\":7957:7995   */\n          tag_28\n          jump\t// in\n        tag_142:\n            /* \"#utility.yul\":8042:8109   */\n          tag_143\n            /* \"#utility.yul\":8102:8108   */\n          dup3\n            /* \"#utility.yul\":8094:8100   */\n          dup3\n            /* \"#utility.yul\":8088:8092   */\n          dup6\n            /* \"#utility.yul\":8042:8109   */\n          tag_41\n          jump\t// in\n        tag_143:\n            /* \"#utility.yul\":8136:8137   */\n          0x00\n            /* \"#utility.yul\":8160:8164   */\n          0x20\n            /* \"#utility.yul\":8147:8164   */\n          swap1\n          pop\n            /* \"#utility.yul\":8192:8194   */\n          0x1f\n            /* \"#utility.yul\":8184:8190   */\n          dup4\n            /* \"#utility.yul\":8181:8195   */\n          gt\n            /* \"#utility.yul\":8209:8210   */\n          0x01\n            /* \"#utility.yul\":8204:8822   */\n          dup2\n          eq\n          tag_145\n          jumpi\n            /* \"#utility.yul\":8866:8867   */\n          0x00\n            /* \"#utility.yul\":8883:8889   */\n          dup5\n            /* \"#utility.yul\":8880:8957   */\n          iszero\n          tag_146\n          jumpi\n            /* \"#utility.yul\":8932:8941   */\n          dup3\n            /* \"#utility.yul\":8927:8930   */\n          dup8\n            /* \"#utility.yul\":8923:8942   */\n          add\n            /* \"#utility.yul\":8917:8943   */\n          mload\n            /* \"#utility.yul\":8908:8943   */\n          swap1\n          pop\n            /* \"#utility.yul\":8880:8957   */\n        tag_146:\n            /* \"#utility.yul\":8983:9050   */\n          tag_147\n            /* \"#utility.yul\":9043:9049   */\n          dup6\n            /* \"#utility.yul\":9036:9041   */\n          dup3\n            /* \"#utility.yul\":8983:9050   */\n          tag_44\n          jump\t// in\n        tag_147:\n            /* \"#utility.yul\":8977:8981   */\n          dup7\n            /* \"#utility.yul\":8970:9051   */\n          sstore\n            /* \"#utility.yul\":8839:9061   */\n          pop\n            /* \"#utility.yul\":8174:9061   */\n          jump(tag_144)\n            /* \"#utility.yul\":8204:8822   */\n        tag_145:\n            /* \"#utility.yul\":8256:8260   */\n          0x1f\n            /* \"#utility.yul\":8252:8261   */\n          not\n            /* \"#utility.yul\":8244:8250   */\n          dup5\n            /* \"#utility.yul\":8240:8262   */\n          and\n            /* \"#utility.yul\":8290:8327   */\n          tag_148\n            /* \"#utility.yul\":8322:8326   */\n          dup7\n            /* \"#utility.yul\":8290:8327   */\n          tag_29\n          jump\t// in\n        tag_148:\n            /* \"#utility.yul\":8349:8350   */\n          0x00\n            /* \"#utility.yul\":8363:8571   */\n        tag_149:\n            /* \"#utility.yul\":8377:8384   */\n          dup3\n            /* \"#utility.yul\":8374:8375   */\n          dup2\n            /* \"#utility.yul\":8371:8385   */\n          lt\n            /* \"#utility.yul\":8363:8571   */\n          iszero\n          tag_151\n          jumpi\n            /* \"#utility.yul\":8456:8465   */\n          dup5\n            /* \"#utility.yul\":8451:8454   */\n          dup10\n            /* \"#utility.yul\":8447:8466   */\n          add\n            /* \"#utility.yul\":8441:8467   */\n          mload\n            /* \"#utility.yul\":8433:8439   */\n          dup3\n            /* \"#utility.yul\":8426:8468   */\n          sstore\n            /* \"#utility.yul\":8507:8508   */\n          0x01\n            /* \"#utility.yul\":8499:8505   */\n          dup3\n            /* \"#utility.yul\":8495:8509   */\n          add\n            /* \"#utility.yul\":8485:8509   */\n          swap2\n          pop\n            /* \"#utility.yul\":8554:8556   */\n          0x20\n            /* \"#utility.yul\":8543:8552   */\n          dup6\n            /* \"#utility.yul\":8539:8557   */\n          add\n            /* \"#utility.yul\":8526:8557   */\n          swap5\n          pop\n            /* \"#utility.yul\":8400:8404   */\n          0x20\n            /* \"#utility.yul\":8397:8398   */\n          dup2\n            /* \"#utility.yul\":8393:8405   */\n          add\n            /* \"#utility.yul\":8388:8405   */\n          swap1\n          pop\n            /* \"#utility.yul\":8363:8571   */\n          jump(tag_149)\n        tag_151:\n            /* \"#utility.yul\":8599:8605   */\n          dup7\n            /* \"#utility.yul\":8590:8597   */\n          dup4\n            /* \"#utility.yul\":8587:8606   */\n          lt\n            /* \"#utility.yul\":8584:8763   */\n          iszero\n          tag_152\n          jumpi\n            /* \"#utility.yul\":8657:8666   */\n          dup5\n            /* \"#utility.yul\":8652:8655   */\n          dup10\n            /* \"#utility.yul\":8648:8667   */\n          add\n            /* \"#utility.yul\":8642:8668   */\n          mload\n            /* \"#utility.yul\":8700:8748   */\n          tag_153\n            /* \"#utility.yul\":8742:8746   */\n          0x1f\n            /* \"#utility.yul\":8734:8740   */\n          dup10\n            /* \"#utility.yul\":8730:8747   */\n          and\n            /* \"#utility.yul\":8719:8728   */\n          dup3\n            /* \"#utility.yul\":8700:8748   */\n          tag_43\n          jump\t// in\n        tag_153:\n            /* \"#utility.yul\":8692:8698   */\n          dup4\n            /* \"#utility.yul\":8685:8749   */\n          sstore\n            /* \"#utility.yul\":8607:8763   */\n          pop\n            /* \"#utility.yul\":8584:8763   */\n        tag_152:\n            /* \"#utility.yul\":8809:8810   */\n          0x01\n            /* \"#utility.yul\":8805:8806   */\n          0x02\n            /* \"#utility.yul\":8797:8803   */\n          dup9\n            /* \"#utility.yul\":8793:8807   */\n          mul\n            /* \"#utility.yul\":8789:8811   */\n          add\n            /* \"#utility.yul\":8783:8787   */\n          dup9\n            /* \"#utility.yul\":8776:8812   */\n          sstore\n            /* \"#utility.yul\":8211:8822   */\n          pop\n          pop\n          pop\n            /* \"#utility.yul\":8174:9061   */\n        tag_144:\n          pop\n            /* \"#utility.yul\":7764:9067   */\n          pop\n          pop\n          pop\n            /* \"#utility.yul\":7672:9067   */\n          pop\n          pop\n          jump\t// out\n            /* \"PoT.sol\":70:3435  contract ProofOfTransit{... */\n        tag_8:\n          dataSize(sub_0)\n          dup1\n          dataOffset(sub_0)\n          0x00\n          codecopy\n          0x00\n          return\n        stop\n\n        sub_0: assembly {\n                /* \"PoT.sol\":70:3435  contract ProofOfTransit{... */\n              mstore(0x40, 0x80)\n              callvalue\n              dup1\n              iszero\n              tag_1\n              jumpi\n              0x00\n              dup1\n              revert\n            tag_1:\n              pop\n              jumpi(tag_2, lt(calldatasize, 0x04))\n              shr(0xe0, calldataload(0x00))\n              dup1\n              0xb68cc799\n              gt\n              tag_12\n              jumpi\n              dup1\n              0xb68cc799\n              eq\n              tag_7\n              jumpi\n              dup1\n              0xbb56d412\n              eq\n              tag_8\n              jumpi\n              dup1\n              0xbc5b5fe9\n              eq\n              tag_9\n              jumpi\n              dup1\n              0xc543691a\n              eq\n              tag_10\n              jumpi\n              dup1\n              0xef040bb1\n              eq\n              tag_11\n              jumpi\n              jump(tag_2)\n            tag_12:\n              dup1\n              0x2c039a4a\n              eq\n              tag_3\n              jumpi\n              dup1\n              0x3018205f\n              eq\n              tag_4\n              jumpi\n              dup1\n              0x3e11e378\n              eq\n              tag_5\n              jumpi\n              dup1\n              0x9877afc5\n              eq\n              tag_6\n              jumpi\n            tag_2:\n              0x00\n              dup1\n              revert\n                /* \"PoT.sol\":466:501  logStructure[] public routesHistory */\n            tag_3:\n              tag_13\n              0x04\n              dup1\n              calldatasize\n              sub\n              dup2\n              add\n              swap1\n              tag_14\n              swap2\n              swap1\n              tag_15\n              jump\t// in\n            tag_14:\n              tag_16\n              jump\t// in\n            tag_13:\n              mload(0x40)\n              tag_17\n              swap7\n              swap6\n              swap5\n              swap4\n              swap3\n              swap2\n              swap1\n              tag_18\n              jump\t// in\n            tag_17:\n              mload(0x40)\n              dup1\n              swap2\n              sub\n              swap1\n              return\n                /* \"PoT.sol\":2176:2267  function getController() external view returns (address) {... */\n            tag_4:\n              tag_19\n              tag_20\n              jump\t// in\n            tag_19:\n              mload(0x40)\n              tag_21\n              swap2\n              swap1\n              tag_22\n              jump\t// in\n            tag_21:\n              mload(0x40)\n              dup1\n              swap2\n              sub\n              swap1\n              return\n                /* \"PoT.sol\":1431:1630  function changeController(address newController, address senderAddr) public isController(senderAddr) {... */\n            tag_5:\n              tag_23\n              0x04\n              dup1\n              calldatasize\n              sub\n              dup2\n              add\n              swap1\n              tag_24\n              swap2\n              swap1\n              tag_25\n              jump\t// in\n            tag_24:\n              tag_26\n              jump\t// in\n            tag_23:\n              stop\n                /* \"PoT.sol\":2455:2905  function logProbe(string memory id_x,string memory sig, address senderAddr) public isEgressEdge(senderAddr){... */\n            tag_6:\n              tag_27\n              0x04\n              dup1\n              calldatasize\n              sub\n              dup2\n              add\n              swap1\n              tag_28\n              swap2\n              swap1\n              tag_29\n              jump\t// in\n            tag_28:\n              tag_30\n              jump\t// in\n            tag_27:\n              stop\n                /* \"PoT.sol\":2273:2425  function setProbeHash(string memory id_x, string memory hash, address senderAddr) public isController(senderAddr) {... */\n            tag_7:\n              tag_31\n              0x04\n              dup1\n              calldatasize\n              sub\n              dup2\n              add\n              swap1\n              tag_32\n              swap2\n              swap1\n              tag_29\n              jump\t// in\n            tag_32:\n              tag_33\n              jump\t// in\n            tag_31:\n              stop\n                /* \"PoT.sol\":164:205  mapping(string => string) public probHash */\n            tag_8:\n              tag_34\n              0x04\n              dup1\n              calldatasize\n              sub\n              dup2\n              add\n              swap1\n              tag_35\n              swap2\n              swap1\n              tag_36\n              jump\t// in\n            tag_35:\n              tag_37\n              jump\t// in\n            tag_34:\n              mload(0x40)\n              tag_38\n              swap2\n              swap1\n              tag_39\n              jump\t// in\n            tag_38:\n              mload(0x40)\n              dup1\n              swap2\n              sub\n              swap1\n              return\n                /* \"PoT.sol\":211:253  logStructure public current_route_id_audit */\n            tag_9:\n              tag_40\n              tag_41\n              jump\t// in\n            tag_40:\n              mload(0x40)\n              tag_42\n              swap7\n              swap6\n              swap5\n              swap4\n              swap3\n              swap2\n              swap1\n              tag_18\n              jump\t// in\n            tag_42:\n              mload(0x40)\n              dup1\n              swap2\n              sub\n              swap1\n              return\n                /* \"PoT.sol\":1636:2170  function changeRouteIdAndEgressEdge(string memory newRouteId, address newEgressEdge, address senderAddr) public isController(senderAddr) {... */\n            tag_10:\n              tag_43\n              0x04\n              dup1\n              calldatasize\n              sub\n              dup2\n              add\n              swap1\n              tag_44\n              swap2\n              swap1\n              tag_45\n              jump\t// in\n            tag_44:\n              tag_46\n              jump\t// in\n            tag_43:\n              stop\n                /* \"PoT.sol\":2911:3220  function getCompliance() public view returns (uint, uint, uint, string memory) {... */\n            tag_11:\n              tag_47\n              tag_48\n              jump\t// in\n            tag_47:\n              mload(0x40)\n              tag_49\n              swap5\n              swap4\n              swap3\n              swap2\n              swap1\n              tag_50\n              jump\t// in\n            tag_49:\n              mload(0x40)\n              dup1\n              swap2\n              sub\n              swap1\n              return\n                /* \"PoT.sol\":466:501  logStructure[] public routesHistory */\n            tag_16:\n              0x09\n              dup2\n              dup2\n              sload\n              dup2\n              lt\n              tag_51\n              jumpi\n              0x00\n              dup1\n              revert\n            tag_51:\n              swap1\n              0x00\n              mstore\n              keccak256(0x00, 0x20)\n              swap1\n              0x06\n              mul\n              add\n              0x00\n              swap2\n              pop\n              swap1\n              pop\n              dup1\n              0x00\n              add\n              sload\n              swap1\n              dup1\n              0x01\n              add\n              sload\n              swap1\n              dup1\n              0x02\n              add\n              sload\n              swap1\n              dup1\n              0x03\n              add\n              dup1\n              sload\n              tag_53\n              swap1\n              tag_54\n              jump\t// in\n            tag_53:\n              dup1\n              0x1f\n              add\n              0x20\n              dup1\n              swap2\n              div\n              mul\n              0x20\n              add\n              mload(0x40)\n              swap1\n              dup2\n              add\n              0x40\n              mstore\n              dup1\n              swap3\n              swap2\n              swap1\n              dup2\n              dup2\n              mstore\n              0x20\n              add\n              dup3\n              dup1\n              sload\n              tag_55\n              swap1\n              tag_54\n              jump\t// in\n            tag_55:\n              dup1\n              iszero\n              tag_56\n              jumpi\n              dup1\n              0x1f\n              lt\n              tag_57\n              jumpi\n              0x0100\n              dup1\n              dup4\n              sload\n              div\n              mul\n              dup4\n              mstore\n              swap2\n              0x20\n              add\n              swap2\n              jump(tag_56)\n            tag_57:\n              dup3\n              add\n              swap2\n              swap1\n              0x00\n              mstore\n              keccak256(0x00, 0x20)\n              swap1\n            tag_58:\n              dup2\n              sload\n              dup2\n              mstore\n              swap1\n              0x01\n              add\n              swap1\n              0x20\n              add\n              dup1\n              dup4\n              gt\n              tag_58\n              jumpi\n              dup3\n              swap1\n              sub\n              0x1f\n              and\n              dup3\n              add\n              swap2\n            tag_56:\n              pop\n              pop\n              pop\n              pop\n              pop\n              swap1\n              dup1\n              0x04\n              add\n              0x00\n              swap1\n              sload\n              swap1\n              0x0100\n              exp\n              swap1\n              div\n              0xffffffffffffffffffffffffffffffffffffffff\n              and\n              swap1\n              dup1\n              0x05\n              add\n              sload\n              swap1\n              pop\n              dup7\n              jump\t// out\n                /* \"PoT.sol\":2176:2267  function getController() external view returns (address) {... */\n            tag_20:\n                /* \"PoT.sol\":2224:2231  address */\n              0x00\n                /* \"PoT.sol\":2250:2260  controller */\n              dup1\n              0x00\n              swap1\n              sload\n              swap1\n              0x0100\n              exp\n              swap1\n              div\n              0xffffffffffffffffffffffffffffffffffffffff\n              and\n                /* \"PoT.sol\":2243:2260  return controller */\n              swap1\n              pop\n                /* \"PoT.sol\":2176:2267  function getController() external view returns (address) {... */\n              swap1\n              jump\t// out\n                /* \"PoT.sol\":1431:1630  function changeController(address newController, address senderAddr) public isController(senderAddr) {... */\n            tag_26:\n                /* \"PoT.sol\":1520:1530  senderAddr */\n              dup1\n                /* \"PoT.sol\":670:680  controller */\n              0x00\n              dup1\n              sload\n              swap1\n              0x0100\n              exp\n              swap1\n              div\n              0xffffffffffffffffffffffffffffffffffffffff\n              and\n                /* \"PoT.sol\":656:680  senderAddr == controller */\n              0xffffffffffffffffffffffffffffffffffffffff\n              and\n                /* \"PoT.sol\":656:666  senderAddr */\n              dup2\n                /* \"PoT.sol\":656:680  senderAddr == controller */\n              0xffffffffffffffffffffffffffffffffffffffff\n              and\n              eq\n                /* \"PoT.sol\":648:709  require(senderAddr == controller, \"Caller is not controller\") */\n              tag_61\n              jumpi\n              mload(0x40)\n              0x08c379a000000000000000000000000000000000000000000000000000000000\n              dup2\n              mstore\n              0x04\n              add\n              tag_62\n              swap1\n              tag_63\n              jump\t// in\n            tag_62:\n              mload(0x40)\n              dup1\n              swap2\n              sub\n              swap1\n              revert\n            tag_61:\n                /* \"PoT.sol\":1573:1586  newController */\n              dup3\n                /* \"PoT.sol\":1547:1587  ControllerSet(controller, newController) */\n              0xffffffffffffffffffffffffffffffffffffffff\n              and\n                /* \"PoT.sol\":1561:1571  controller */\n              0x00\n              dup1\n              sload\n              swap1\n              0x0100\n              exp\n              swap1\n              div\n              0xffffffffffffffffffffffffffffffffffffffff\n              and\n                /* \"PoT.sol\":1547:1587  ControllerSet(controller, newController) */\n              0xffffffffffffffffffffffffffffffffffffffff\n              and\n              0x7582b62407f53d49cfc72e7ddab574c06ef3b8aced104b54b7bed4681ee54a\n              mload(0x40)\n              mload(0x40)\n              dup1\n              swap2\n              sub\n              swap1\n              log3\n                /* \"PoT.sol\":1610:1623  newController */\n              dup3\n                /* \"PoT.sol\":1597:1607  controller */\n              0x00\n              dup1\n                /* \"PoT.sol\":1597:1623  controller = newController */\n              0x0100\n              exp\n              dup2\n              sload\n              dup2\n              0xffffffffffffffffffffffffffffffffffffffff\n              mul\n              not\n              and\n              swap1\n              dup4\n              0xffffffffffffffffffffffffffffffffffffffff\n              and\n              mul\n              or\n              swap1\n              sstore\n              pop\n                /* \"PoT.sol\":1431:1630  function changeController(address newController, address senderAddr) public isController(senderAddr) {... */\n              pop\n              pop\n              pop\n              jump\t// out\n                /* \"PoT.sol\":2455:2905  function logProbe(string memory id_x,string memory sig, address senderAddr) public isEgressEdge(senderAddr){... */\n            tag_30:\n                /* \"PoT.sol\":2551:2561  senderAddr */\n              dup1\n                /* \"PoT.sol\":807:829  current_route_id_audit */\n              0x03\n                /* \"PoT.sol\":807:840  current_route_id_audit.egressEdge */\n              0x04\n              add\n              0x00\n              swap1\n              sload\n              swap1\n              0x0100\n              exp\n              swap1\n              div\n              0xffffffffffffffffffffffffffffffffffffffff\n              and\n                /* \"PoT.sol\":793:840  senderAddr == current_route_id_audit.egressEdge */\n              0xffffffffffffffffffffffffffffffffffffffff\n              and\n                /* \"PoT.sol\":793:803  senderAddr */\n              dup2\n                /* \"PoT.sol\":793:840  senderAddr == current_route_id_audit.egressEdge */\n              0xffffffffffffffffffffffffffffffffffffffff\n              and\n              eq\n                /* \"PoT.sol\":785:870  require(senderAddr == current_route_id_audit.egressEdge, \"Caller is not egress edge\") */\n              tag_66\n              jumpi\n              mload(0x40)\n              0x08c379a000000000000000000000000000000000000000000000000000000000\n              dup2\n              mstore\n              0x04\n              add\n              tag_67\n              swap1\n              tag_68\n              jump\t// in\n            tag_67:\n              mload(0x40)\n              dup1\n              swap2\n              sub\n              swap1\n              revert\n            tag_66:\n                /* \"PoT.sol\":2576:2609  compareStrings(probHash[id_x],\"\") */\n              tag_70\n                /* \"PoT.sol\":2591:2599  probHash */\n              0x02\n                /* \"PoT.sol\":2600:2604  id_x */\n              dup6\n                /* \"PoT.sol\":2591:2605  probHash[id_x] */\n              mload(0x40)\n              tag_71\n              swap2\n              swap1\n              tag_72\n              jump\t// in\n            tag_71:\n              swap1\n              dup2\n              mstore\n              0x20\n              add\n              mload(0x40)\n              dup1\n              swap2\n              sub\n              swap1\n              keccak256\n                /* \"PoT.sol\":2576:2609  compareStrings(probHash[id_x],\"\") */\n              dup1\n              sload\n              tag_73\n              swap1\n              tag_54\n              jump\t// in\n            tag_73:\n              dup1\n              0x1f\n              add\n              0x20\n              dup1\n              swap2\n              div\n              mul\n              0x20\n              add\n              mload(0x40)\n              swap1\n              dup2\n              add\n              0x40\n              mstore\n              dup1\n              swap3\n              swap2\n              swap1\n              dup2\n              dup2\n              mstore\n              0x20\n              add\n              dup3\n              dup1\n              sload\n              tag_74\n              swap1\n              tag_54\n              jump\t// in\n            tag_74:\n              dup1\n              iszero\n              tag_75\n              jumpi\n              dup1\n              0x1f\n              lt\n              tag_76\n              jumpi\n              0x0100\n              dup1\n              dup4\n              sload\n              div\n              mul\n              dup4\n              mstore\n              swap2\n              0x20\n              add\n              swap2\n              jump(tag_75)\n            tag_76:\n              dup3\n              add\n              swap2\n              swap1\n              0x00\n              mstore\n              keccak256(0x00, 0x20)\n              swap1\n            tag_77:\n              dup2\n              sload\n              dup2\n              mstore\n              swap1\n              0x01\n              add\n              swap1\n              0x20\n              add\n              dup1\n              dup4\n              gt\n              tag_77\n              jumpi\n              dup3\n              swap1\n              sub\n              0x1f\n              and\n              dup3\n              add\n              swap2\n            tag_75:\n              pop\n              pop\n              pop\n              pop\n              pop\n              mload(0x40)\n              dup1\n              0x20\n              add\n              0x40\n              mstore\n              dup1\n              0x00\n              dup2\n              mstore\n              pop\n                /* \"PoT.sol\":2576:2590  compareStrings */\n              tag_78\n                /* \"PoT.sol\":2576:2609  compareStrings(probHash[id_x],\"\") */\n              jump\t// in\n            tag_70:\n                /* \"PoT.sol\":2572:2899  if (compareStrings(probHash[id_x],\"\")) {... */\n              iszero\n              tag_79\n              jumpi\n                /* \"PoT.sol\":2667:2668  1 */\n              0x01\n                /* \"PoT.sol\":2625:2647  current_route_id_audit */\n              0x03\n                /* \"PoT.sol\":2625:2663  current_route_id_audit.probeNullAmount */\n              0x01\n              add\n              0x00\n                /* \"PoT.sol\":2625:2668  current_route_id_audit.probeNullAmount += 1 */\n              dup3\n              dup3\n              sload\n              tag_80\n              swap2\n              swap1\n              tag_81\n              jump\t// in\n            tag_80:\n              swap3\n              pop\n              pop\n              dup2\n              swap1\n              sstore\n              pop\n                /* \"PoT.sol\":2572:2899  if (compareStrings(probHash[id_x],\"\")) {... */\n              jump(tag_82)\n            tag_79:\n                /* \"PoT.sol\":2689:2723  compareStrings(probHash[id_x],sig) */\n              tag_83\n                /* \"PoT.sol\":2704:2712  probHash */\n              0x02\n                /* \"PoT.sol\":2713:2717  id_x */\n              dup6\n                /* \"PoT.sol\":2704:2718  probHash[id_x] */\n              mload(0x40)\n              tag_84\n              swap2\n              swap1\n              tag_72\n              jump\t// in\n            tag_84:\n              swap1\n              dup2\n              mstore\n              0x20\n              add\n              mload(0x40)\n              dup1\n              swap2\n              sub\n              swap1\n              keccak256\n                /* \"PoT.sol\":2689:2723  compareStrings(probHash[id_x],sig) */\n              dup1\n              sload\n              tag_85\n              swap1\n              tag_54\n              jump\t// in\n            tag_85:\n              dup1\n              0x1f\n              add\n              0x20\n              dup1\n              swap2\n              div\n              mul\n              0x20\n              add\n              mload(0x40)\n              swap1\n              dup2\n              add\n              0x40\n              mstore\n              dup1\n              swap3\n              swap2\n              swap1\n              dup2\n              dup2\n              mstore\n              0x20\n              add\n              dup3\n              dup1\n              sload\n              tag_86\n              swap1\n              tag_54\n              jump\t// in\n            tag_86:\n              dup1\n              iszero\n              tag_87\n              jumpi\n              dup1\n              0x1f\n              lt\n              tag_88\n              jumpi\n              0x0100\n              dup1\n              dup4\n              sload\n              div\n              mul\n              dup4\n              mstore\n              swap2\n              0x20\n              add\n              swap2\n              jump(tag_87)\n            tag_88:\n              dup3\n              add\n              swap2\n              swap1\n              0x00\n              mstore\n              keccak256(0x00, 0x20)\n              swap1\n            tag_89:\n              dup2\n              sload\n              dup2\n              mstore\n              swap1\n              0x01\n              add\n              swap1\n              0x20\n              add\n              dup1\n              dup4\n              gt\n              tag_89\n              jumpi\n              dup3\n              swap1\n              sub\n              0x1f\n              and\n              dup3\n              add\n              swap2\n            tag_87:\n              pop\n              pop\n              pop\n              pop\n              pop\n                /* \"PoT.sol\":2719:2722  sig */\n              dup5\n                /* \"PoT.sol\":2689:2703  compareStrings */\n              tag_78\n                /* \"PoT.sol\":2689:2723  compareStrings(probHash[id_x],sig) */\n              jump\t// in\n            tag_83:\n                /* \"PoT.sol\":2685:2899  if (compareStrings(probHash[id_x],sig)){... */\n              iszero\n              tag_90\n              jumpi\n                /* \"PoT.sol\":2783:2784  1 */\n              0x01\n                /* \"PoT.sol\":2738:2760  current_route_id_audit */\n              0x03\n                /* \"PoT.sol\":2738:2779  current_route_id_audit.probeSuccessAmount */\n              0x02\n              add\n              0x00\n                /* \"PoT.sol\":2738:2784  current_route_id_audit.probeSuccessAmount += 1 */\n              dup3\n              dup3\n              sload\n              tag_91\n              swap2\n              swap1\n              tag_81\n              jump\t// in\n            tag_91:\n              swap3\n              pop\n              pop\n              dup2\n              swap1\n              sstore\n              pop\n                /* \"PoT.sol\":2685:2899  if (compareStrings(probHash[id_x],sig)){... */\n              jump(tag_92)\n            tag_90:\n                /* \"PoT.sol\":2857:2858  1 */\n              0x01\n                /* \"PoT.sol\":2815:2837  current_route_id_audit */\n              0x03\n                /* \"PoT.sol\":2815:2853  current_route_id_audit.probeFailAmount */\n              0x00\n              add\n              0x00\n                /* \"PoT.sol\":2815:2858  current_route_id_audit.probeFailAmount += 1 */\n              dup3\n              dup3\n              sload\n              tag_93\n              swap2\n              swap1\n              tag_81\n              jump\t// in\n            tag_93:\n              swap3\n              pop\n              pop\n              dup2\n              swap1\n              sstore\n              pop\n                /* \"PoT.sol\":2877:2888  ProbeFail() */\n              0x9155208b51995e04c988eb045ef59af0f5f785f942cb81688516362b62d8fac0\n              mload(0x40)\n              mload(0x40)\n              dup1\n              swap2\n              sub\n              swap1\n              log1\n                /* \"PoT.sol\":2685:2899  if (compareStrings(probHash[id_x],sig)){... */\n            tag_92:\n                /* \"PoT.sol\":2572:2899  if (compareStrings(probHash[id_x],\"\")) {... */\n            tag_82:\n                /* \"PoT.sol\":2455:2905  function logProbe(string memory id_x,string memory sig, address senderAddr) public isEgressEdge(senderAddr){... */\n              pop\n              pop\n              pop\n              pop\n              jump\t// out\n                /* \"PoT.sol\":2273:2425  function setProbeHash(string memory id_x, string memory hash, address senderAddr) public isController(senderAddr) {... */\n            tag_33:\n                /* \"PoT.sol\":2375:2385  senderAddr */\n              dup1\n                /* \"PoT.sol\":670:680  controller */\n              0x00\n              dup1\n              sload\n              swap1\n              0x0100\n              exp\n              swap1\n              div\n              0xffffffffffffffffffffffffffffffffffffffff\n              and\n                /* \"PoT.sol\":656:680  senderAddr == controller */\n              0xffffffffffffffffffffffffffffffffffffffff\n              and\n                /* \"PoT.sol\":656:666  senderAddr */\n              dup2\n                /* \"PoT.sol\":656:680  senderAddr == controller */\n              0xffffffffffffffffffffffffffffffffffffffff\n              and\n              eq\n                /* \"PoT.sol\":648:709  require(senderAddr == controller, \"Caller is not controller\") */\n              tag_95\n              jumpi\n              mload(0x40)\n              0x08c379a000000000000000000000000000000000000000000000000000000000\n              dup2\n              mstore\n              0x04\n              add\n              tag_96\n              swap1\n              tag_63\n              jump\t// in\n            tag_96:\n              mload(0x40)\n              dup1\n              swap2\n              sub\n              swap1\n              revert\n            tag_95:\n                /* \"PoT.sol\":2414:2418  hash */\n              dup3\n                /* \"PoT.sol\":2397:2405  probHash */\n              0x02\n                /* \"PoT.sol\":2406:2410  id_x */\n              dup6\n                /* \"PoT.sol\":2397:2411  probHash[id_x] */\n              mload(0x40)\n              tag_98\n              swap2\n              swap1\n              tag_72\n              jump\t// in\n            tag_98:\n              swap1\n              dup2\n              mstore\n              0x20\n              add\n              mload(0x40)\n              dup1\n              swap2\n              sub\n              swap1\n              keccak256\n                /* \"PoT.sol\":2397:2418  probHash[id_x] = hash */\n              swap1\n              dup2\n              tag_99\n              swap2\n              swap1\n              tag_100\n              jump\t// in\n            tag_99:\n              pop\n                /* \"PoT.sol\":2273:2425  function setProbeHash(string memory id_x, string memory hash, address senderAddr) public isController(senderAddr) {... */\n              pop\n              pop\n              pop\n              pop\n              jump\t// out\n                /* \"PoT.sol\":164:205  mapping(string => string) public probHash */\n            tag_37:\n              0x02\n              dup2\n              dup1\n              mload\n              0x20\n              dup2\n              add\n              dup3\n              add\n              dup1\n              mload\n              dup5\n              dup3\n              mstore\n              0x20\n              dup4\n              add\n              0x20\n              dup6\n              add\n              keccak256\n              dup2\n              dup4\n              mstore\n              dup1\n              swap6\n              pop\n              pop\n              pop\n              pop\n              pop\n              pop\n              0x00\n              swap2\n              pop\n              swap1\n              pop\n              dup1\n              sload\n              tag_101\n              swap1\n              tag_54\n              jump\t// in\n            tag_101:\n              dup1\n              0x1f\n              add\n              0x20\n              dup1\n              swap2\n              div\n              mul\n              0x20\n              add\n              mload(0x40)\n              swap1\n              dup2\n              add\n              0x40\n              mstore\n              dup1\n              swap3\n              swap2\n              swap1\n              dup2\n              dup2\n              mstore\n              0x20\n              add\n              dup3\n              dup1\n              sload\n              tag_102\n              swap1\n              tag_54\n              jump\t// in\n            tag_102:\n              dup1\n              iszero\n              tag_103\n              jumpi\n              dup1\n              0x1f\n              lt\n              tag_104\n              jumpi\n              0x0100\n              dup1\n              dup4\n              sload\n              div\n              mul\n              dup4\n              mstore\n              swap2\n              0x20\n              add\n              swap2\n              jump(tag_103)\n            tag_104:\n              dup3\n              add\n              swap2\n              swap1\n              0x00\n              mstore\n              keccak256(0x00, 0x20)\n              swap1\n            tag_105:\n              dup2\n              sload\n              dup2\n              mstore\n              swap1\n              0x01\n              add\n              swap1\n              0x20\n              add\n              dup1\n              dup4\n              gt\n              tag_105\n              jumpi\n              dup3\n              swap1\n              sub\n              0x1f\n              and\n              dup3\n              add\n              swap2\n            tag_103:\n              pop\n              pop\n              pop\n              pop\n              pop\n              dup2\n              jump\t// out\n                /* \"PoT.sol\":211:253  logStructure public current_route_id_audit */\n            tag_41:\n              0x03\n              dup1\n              0x00\n              add\n              sload\n              swap1\n              dup1\n              0x01\n              add\n              sload\n              swap1\n              dup1\n              0x02\n              add\n              sload\n              swap1\n              dup1\n              0x03\n              add\n              dup1\n              sload\n              tag_106\n              swap1\n              tag_54\n              jump\t// in\n            tag_106:\n              dup1\n              0x1f\n              add\n              0x20\n              dup1\n              swap2\n              div\n              mul\n              0x20\n              add\n              mload(0x40)\n              swap1\n              dup2\n              add\n              0x40\n              mstore\n              dup1\n              swap3\n              swap2\n              swap1\n              dup2\n              dup2\n              mstore\n              0x20\n              add\n              dup3\n              dup1\n              sload\n              tag_107\n              swap1\n              tag_54\n              jump\t// in\n            tag_107:\n              dup1\n              iszero\n              tag_108\n              jumpi\n              dup1\n              0x1f\n              lt\n              tag_109\n              jumpi\n              0x0100\n              dup1\n              dup4\n              sload\n              div\n              mul\n              dup4\n              mstore\n              swap2\n              0x20\n              add\n              swap2\n              jump(tag_108)\n            tag_109:\n              dup3\n              add\n              swap2\n              swap1\n              0x00\n              mstore\n              keccak256(0x00, 0x20)\n              swap1\n            tag_110:\n              dup2\n              sload\n              dup2\n              mstore\n              swap1\n              0x01\n              add\n              swap1\n              0x20\n              add\n              dup1\n              dup4\n              gt\n              tag_110\n              jumpi\n              dup3\n              swap1\n              sub\n              0x1f\n              and\n              dup3\n              add\n              swap2\n            tag_108:\n              pop\n              pop\n              pop\n              pop\n              pop\n              swap1\n              dup1\n              0x04\n              add\n              0x00\n              swap1\n              sload\n              swap1\n              0x0100\n              exp\n              swap1\n              div\n              0xffffffffffffffffffffffffffffffffffffffff\n              and\n              swap1\n              dup1\n              0x05\n              add\n              sload\n              swap1\n              pop\n              dup7\n              jump\t// out\n                /* \"PoT.sol\":1636:2170  function changeRouteIdAndEgressEdge(string memory newRouteId, address newEgressEdge, address senderAddr) public isController(senderAddr) {... */\n            tag_46:\n                /* \"PoT.sol\":1761:1771  senderAddr */\n              dup1\n                /* \"PoT.sol\":670:680  controller */\n              0x00\n              dup1\n              sload\n              swap1\n              0x0100\n              exp\n              swap1\n              div\n              0xffffffffffffffffffffffffffffffffffffffff\n              and\n                /* \"PoT.sol\":656:680  senderAddr == controller */\n              0xffffffffffffffffffffffffffffffffffffffff\n              and\n                /* \"PoT.sol\":656:666  senderAddr */\n              dup2\n                /* \"PoT.sol\":656:680  senderAddr == controller */\n              0xffffffffffffffffffffffffffffffffffffffff\n              and\n              eq\n                /* \"PoT.sol\":648:709  require(senderAddr == controller, \"Caller is not controller\") */\n              tag_112\n              jumpi\n              mload(0x40)\n              0x08c379a000000000000000000000000000000000000000000000000000000000\n              dup2\n              mstore\n              0x04\n              add\n              tag_113\n              swap1\n              tag_63\n              jump\t// in\n            tag_113:\n              mload(0x40)\n              dup1\n              swap2\n              sub\n              swap1\n              revert\n            tag_112:\n                /* \"PoT.sol\":1822:1837  block.timestamp */\n              timestamp\n                /* \"PoT.sol\":1783:1805  current_route_id_audit */\n              0x03\n                /* \"PoT.sol\":1783:1819  current_route_id_audit.lastTimestamp */\n              0x05\n              add\n                /* \"PoT.sol\":1783:1837  current_route_id_audit.lastTimestamp = block.timestamp */\n              dup2\n              swap1\n              sstore\n              pop\n                /* \"PoT.sol\":1848:1861  routesHistory */\n              0x09\n                /* \"PoT.sol\":1867:1889  current_route_id_audit */\n              0x03\n                /* \"PoT.sol\":1848:1890  routesHistory.push(current_route_id_audit) */\n              swap1\n              dup1\n              0x01\n              dup2\n              sload\n              add\n              dup1\n              dup3\n              sstore\n              dup1\n              swap2\n              pop\n              pop\n              0x01\n              swap1\n              sub\n              swap1\n              0x00\n              mstore\n              keccak256(0x00, 0x20)\n              swap1\n              0x06\n              mul\n              add\n              0x00\n              swap1\n              swap2\n              swap1\n              swap2\n              swap1\n              swap2\n              pop\n              0x00\n              dup3\n              add\n              sload\n              dup2\n              0x00\n              add\n              sstore\n              0x01\n              dup3\n              add\n              sload\n              dup2\n              0x01\n              add\n              sstore\n              0x02\n              dup3\n              add\n              sload\n              dup2\n              0x02\n              add\n              sstore\n              0x03\n              dup3\n              add\n              dup2\n              0x03\n              add\n              swap1\n              dup2\n              tag_116\n              swap2\n              swap1\n              tag_117\n              jump\t// in\n            tag_116:\n              pop\n              0x04\n              dup3\n              add\n              0x00\n              swap1\n              sload\n              swap1\n              0x0100\n              exp\n              swap1\n              div\n              0xffffffffffffffffffffffffffffffffffffffff\n              and\n              dup2\n              0x04\n              add\n              exp(0x0100, 0x00)\n              dup2\n              sload\n              dup2\n              0xffffffffffffffffffffffffffffffffffffffff\n              mul\n              not\n              and\n              swap1\n              dup4\n              0xffffffffffffffffffffffffffffffffffffffff\n              and\n              mul\n              or\n              swap1\n              sstore\n              pop\n              0x05\n              dup3\n              add\n              sload\n              dup2\n              0x05\n              add\n              sstore\n              pop\n              pop\n                /* \"PoT.sol\":1942:1943  0 */\n              0x00\n                /* \"PoT.sol\":1901:1923  current_route_id_audit */\n              0x03\n                /* \"PoT.sol\":1901:1939  current_route_id_audit.probeFailAmount */\n              0x00\n              add\n                /* \"PoT.sol\":1901:1943  current_route_id_audit.probeFailAmount = 0 */\n              dup2\n              swap1\n              sstore\n              pop\n                /* \"PoT.sol\":1997:1998  0 */\n              0x00\n                /* \"PoT.sol\":1953:1975  current_route_id_audit */\n              0x03\n                /* \"PoT.sol\":1953:1994  current_route_id_audit.probeSuccessAmount */\n              0x02\n              add\n                /* \"PoT.sol\":1953:1998  current_route_id_audit.probeSuccessAmount = 0 */\n              dup2\n              swap1\n              sstore\n              pop\n                /* \"PoT.sol\":2049:2050  0 */\n              0x00\n                /* \"PoT.sol\":2008:2030  current_route_id_audit */\n              0x03\n                /* \"PoT.sol\":2008:2046  current_route_id_audit.probeNullAmount */\n              0x01\n              add\n                /* \"PoT.sol\":2008:2050  current_route_id_audit.probeNullAmount = 0 */\n              dup2\n              swap1\n              sstore\n              pop\n                /* \"PoT.sol\":2097:2110  newEgressEdge */\n              dup3\n                /* \"PoT.sol\":2061:2083  current_route_id_audit */\n              0x03\n                /* \"PoT.sol\":2061:2094  current_route_id_audit.egressEdge */\n              0x04\n              add\n              0x00\n                /* \"PoT.sol\":2061:2110  current_route_id_audit.egressEdge = newEgressEdge */\n              0x0100\n              exp\n              dup2\n              sload\n              dup2\n              0xffffffffffffffffffffffffffffffffffffffff\n              mul\n              not\n              and\n              swap1\n              dup4\n              0xffffffffffffffffffffffffffffffffffffffff\n              and\n              mul\n              or\n              swap1\n              sstore\n              pop\n                /* \"PoT.sol\":2153:2163  newRouteId */\n              dup4\n                /* \"PoT.sol\":2120:2142  current_route_id_audit */\n              0x03\n                /* \"PoT.sol\":2120:2150  current_route_id_audit.routeId */\n              dup1\n              add\n                /* \"PoT.sol\":2120:2163  current_route_id_audit.routeId = newRouteId */\n              swap1\n              dup2\n              tag_118\n              swap2\n              swap1\n              tag_100\n              jump\t// in\n            tag_118:\n              pop\n                /* \"PoT.sol\":1636:2170  function changeRouteIdAndEgressEdge(string memory newRouteId, address newEgressEdge, address senderAddr) public isController(senderAddr) {... */\n              pop\n              pop\n              pop\n              pop\n              jump\t// out\n                /* \"PoT.sol\":2911:3220  function getCompliance() public view returns (uint, uint, uint, string memory) {... */\n            tag_48:\n                /* \"PoT.sol\":2957:2961  uint */\n              0x00\n                /* \"PoT.sol\":2963:2967  uint */\n              dup1\n                /* \"PoT.sol\":2969:2973  uint */\n              0x00\n                /* \"PoT.sol\":2975:2988  string memory */\n              0x60\n                /* \"PoT.sol\":3008:3030  current_route_id_audit */\n              0x03\n                /* \"PoT.sol\":3008:3049  current_route_id_audit.probeSuccessAmount */\n              0x02\n              add\n              sload\n                /* \"PoT.sol\":3068:3090  current_route_id_audit */\n              0x03\n                /* \"PoT.sol\":3068:3106  current_route_id_audit.probeFailAmount */\n              0x00\n              add\n              sload\n                /* \"PoT.sol\":3124:3146  current_route_id_audit */\n              0x03\n                /* \"PoT.sol\":3124:3162  current_route_id_audit.probeNullAmount */\n              0x01\n              add\n              sload\n                /* \"PoT.sol\":3180:3202  current_route_id_audit */\n              0x03\n                /* \"PoT.sol\":3180:3210  current_route_id_audit.routeId */\n              dup1\n              add\n                /* \"PoT.sol\":3000:3213  return (current_route_id_audit.probeSuccessAmount, ... */\n              dup1\n              dup1\n              sload\n              tag_120\n              swap1\n              tag_54\n              jump\t// in\n            tag_120:\n              dup1\n              0x1f\n              add\n              0x20\n              dup1\n              swap2\n              div\n              mul\n              0x20\n              add\n              mload(0x40)\n              swap1\n              dup2\n              add\n              0x40\n              mstore\n              dup1\n              swap3\n              swap2\n              swap1\n              dup2\n              dup2\n              mstore\n              0x20\n              add\n              dup3\n              dup1\n              sload\n              tag_121\n              swap1\n              tag_54\n              jump\t// in\n            tag_121:\n              dup1\n              iszero\n              tag_122\n              jumpi\n              dup1\n              0x1f\n              lt\n              tag_123\n              jumpi\n              0x0100\n              dup1\n              dup4\n              sload\n              div\n              mul\n              dup4\n              mstore\n              swap2\n              0x20\n              add\n              swap2\n              jump(tag_122)\n            tag_123:\n              dup3\n              add\n              swap2\n              swap1\n              0x00\n              mstore\n              keccak256(0x00, 0x20)\n              swap1\n            tag_124:\n              dup2\n              sload\n              dup2\n              mstore\n              swap1\n              0x01\n              add\n              swap1\n              0x20\n              add\n              dup1\n              dup4\n              gt\n              tag_124\n              jumpi\n              dup3\n              swap1\n              sub\n              0x1f\n              and\n              dup3\n              add\n              swap2\n            tag_122:\n              pop\n              pop\n              pop\n              pop\n              pop\n              swap1\n              pop\n              swap4\n              pop\n              swap4\n              pop\n              swap4\n              pop\n              swap4\n              pop\n                /* \"PoT.sol\":2911:3220  function getCompliance() public view returns (uint, uint, uint, string memory) {... */\n              swap1\n              swap2\n              swap3\n              swap4\n              jump\t// out\n                /* \"PoT.sol\":3251:3432  function compareStrings(string memory a, string memory b) internal pure returns (bool) {... */\n            tag_78:\n                /* \"PoT.sol\":3332:3336  bool */\n              0x00\n                /* \"PoT.sol\":3420:3421  b */\n              dup2\n                /* \"PoT.sol\":3402:3423  abi.encodePacked((b)) */\n              add(0x20, mload(0x40))\n              tag_126\n              swap2\n              swap1\n              tag_72\n              jump\t// in\n            tag_126:\n              mload(0x40)\n              0x20\n              dup2\n              dup4\n              sub\n              sub\n              dup2\n              mstore\n              swap1\n              0x40\n              mstore\n                /* \"PoT.sol\":3392:3424  keccak256(abi.encodePacked((b))) */\n              dup1\n              mload\n              swap1\n              0x20\n              add\n              keccak256\n                /* \"PoT.sol\":3384:3385  a */\n              dup4\n                /* \"PoT.sol\":3366:3387  abi.encodePacked((a)) */\n              add(0x20, mload(0x40))\n              tag_127\n              swap2\n              swap1\n              tag_72\n              jump\t// in\n            tag_127:\n              mload(0x40)\n              0x20\n              dup2\n              dup4\n              sub\n              sub\n              dup2\n              mstore\n              swap1\n              0x40\n              mstore\n                /* \"PoT.sol\":3356:3388  keccak256(abi.encodePacked((a))) */\n              dup1\n              mload\n              swap1\n              0x20\n              add\n              keccak256\n                /* \"PoT.sol\":3356:3424  keccak256(abi.encodePacked((a))) == keccak256(abi.encodePacked((b))) */\n              eq\n                /* \"PoT.sol\":3348:3425  return (keccak256(abi.encodePacked((a))) == keccak256(abi.encodePacked((b)))) */\n              swap1\n              pop\n                /* \"PoT.sol\":3251:3432  function compareStrings(string memory a, string memory b) internal pure returns (bool) {... */\n              swap3\n              swap2\n              pop\n              pop\n              jump\t// out\n                /* \"#utility.yul\":7:82   */\n            tag_128:\n                /* \"#utility.yul\":40:46   */\n              0x00\n                /* \"#utility.yul\":73:75   */\n              0x40\n                /* \"#utility.yul\":67:76   */\n              mload\n                /* \"#utility.yul\":57:76   */\n              swap1\n              pop\n                /* \"#utility.yul\":7:82   */\n              swap1\n              jump\t// out\n                /* \"#utility.yul\":88:205   */\n            tag_129:\n                /* \"#utility.yul\":197:198   */\n              0x00\n                /* \"#utility.yul\":194:195   */\n              dup1\n                /* \"#utility.yul\":187:199   */\n              revert\n                /* \"#utility.yul\":211:328   */\n            tag_130:\n                /* \"#utility.yul\":320:321   */\n              0x00\n                /* \"#utility.yul\":317:318   */\n              dup1\n                /* \"#utility.yul\":310:322   */\n              revert\n                /* \"#utility.yul\":334:411   */\n            tag_131:\n                /* \"#utility.yul\":371:378   */\n              0x00\n                /* \"#utility.yul\":400:405   */\n              dup2\n                /* \"#utility.yul\":389:405   */\n              swap1\n              pop\n                /* \"#utility.yul\":334:411   */\n              swap2\n              swap1\n              pop\n              jump\t// out\n                /* \"#utility.yul\":417:539   */\n            tag_132:\n                /* \"#utility.yul\":490:514   */\n              tag_184\n                /* \"#utility.yul\":508:513   */\n              dup2\n                /* \"#utility.yul\":490:514   */\n              tag_131\n              jump\t// in\n            tag_184:\n                /* \"#utility.yul\":483:488   */\n              dup2\n                /* \"#utility.yul\":480:515   */\n              eq\n                /* \"#utility.yul\":470:533   */\n              tag_185\n              jumpi\n                /* \"#utility.yul\":529:530   */\n              0x00\n                /* \"#utility.yul\":526:527   */\n              dup1\n                /* \"#utility.yul\":519:531   */\n              revert\n                /* \"#utility.yul\":470:533   */\n            tag_185:\n                /* \"#utility.yul\":417:539   */\n              pop\n              jump\t// out\n                /* \"#utility.yul\":545:684   */\n            tag_133:\n                /* \"#utility.yul\":591:596   */\n              0x00\n                /* \"#utility.yul\":629:635   */\n              dup2\n                /* \"#utility.yul\":616:636   */\n              calldataload\n                /* \"#utility.yul\":607:636   */\n              swap1\n              pop\n                /* \"#utility.yul\":645:678   */\n              tag_187\n                /* \"#utility.yul\":672:677   */\n              dup2\n                /* \"#utility.yul\":645:678   */\n              tag_132\n              jump\t// in\n            tag_187:\n                /* \"#utility.yul\":545:684   */\n              swap3\n              swap2\n              pop\n              pop\n              jump\t// out\n                /* \"#utility.yul\":690:1019   */\n            tag_15:\n                /* \"#utility.yul\":749:755   */\n              0x00\n                /* \"#utility.yul\":798:800   */\n              0x20\n                /* \"#utility.yul\":786:795   */\n              dup3\n                /* \"#utility.yul\":777:784   */\n              dup5\n                /* \"#utility.yul\":773:796   */\n              sub\n                /* \"#utility.yul\":769:801   */\n              slt\n                /* \"#utility.yul\":766:885   */\n              iszero\n              tag_189\n              jumpi\n                /* \"#utility.yul\":804:883   */\n              tag_190\n              tag_129\n              jump\t// in\n            tag_190:\n                /* \"#utility.yul\":766:885   */\n            tag_189:\n                /* \"#utility.yul\":924:925   */\n              0x00\n                /* \"#utility.yul\":949:1002   */\n              tag_191\n                /* \"#utility.yul\":994:1001   */\n              dup5\n                /* \"#utility.yul\":985:991   */\n              dup3\n                /* \"#utility.yul\":974:983   */\n              dup6\n                /* \"#utility.yul\":970:992   */\n              add\n                /* \"#utility.yul\":949:1002   */\n              tag_133\n              jump\t// in\n            tag_191:\n                /* \"#utility.yul\":939:1002   */\n              swap2\n              pop\n                /* \"#utility.yul\":895:1012   */\n              pop\n                /* \"#utility.yul\":690:1019   */\n              swap3\n              swap2\n              pop\n              pop\n              jump\t// out\n                /* \"#utility.yul\":1025:1143   */\n            tag_134:\n                /* \"#utility.yul\":1112:1136   */\n              tag_193\n                /* \"#utility.yul\":1130:1135   */\n              dup2\n                /* \"#utility.yul\":1112:1136   */\n              tag_131\n              jump\t// in\n            tag_193:\n                /* \"#utility.yul\":1107:1110   */\n              dup3\n                /* \"#utility.yul\":1100:1137   */\n              mstore\n                /* \"#utility.yul\":1025:1143   */\n              pop\n              pop\n              jump\t// out\n                /* \"#utility.yul\":1149:1248   */\n            tag_135:\n                /* \"#utility.yul\":1201:1207   */\n              0x00\n                /* \"#utility.yul\":1235:1240   */\n              dup2\n                /* \"#utility.yul\":1229:1241   */\n              mload\n                /* \"#utility.yul\":1219:1241   */\n              swap1\n              pop\n                /* \"#utility.yul\":1149:1248   */\n              swap2\n              swap1\n              pop\n              jump\t// out\n                /* \"#utility.yul\":1254:1423   */\n            tag_136:\n                /* \"#utility.yul\":1338:1349   */\n              0x00\n                /* \"#utility.yul\":1372:1378   */\n              dup3\n                /* \"#utility.yul\":1367:1370   */\n              dup3\n                /* \"#utility.yul\":1360:1379   */\n              mstore\n                /* \"#utility.yul\":1412:1416   */\n              0x20\n                /* \"#utility.yul\":1407:1410   */\n              dup3\n                /* \"#utility.yul\":1403:1417   */\n              add\n                /* \"#utility.yul\":1388:1417   */\n              swap1\n              pop\n                /* \"#utility.yul\":1254:1423   */\n              swap3\n              swap2\n              pop\n              pop\n              jump\t// out\n                /* \"#utility.yul\":1429:1677   */\n            tag_137:\n                /* \"#utility.yul\":1511:1512   */\n              0x00\n                /* \"#utility.yul\":1521:1634   */\n            tag_197:\n                /* \"#utility.yul\":1535:1541   */\n              dup4\n                /* \"#utility.yul\":1532:1533   */\n              dup2\n                /* \"#utility.yul\":1529:1542   */\n              lt\n                /* \"#utility.yul\":1521:1634   */\n              iszero\n              tag_199\n              jumpi\n                /* \"#utility.yul\":1620:1621   */\n              dup1\n                /* \"#utility.yul\":1615:1618   */\n              dup3\n                /* \"#utility.yul\":1611:1622   */\n              add\n                /* \"#utility.yul\":1605:1623   */\n              mload\n                /* \"#utility.yul\":1601:1602   */\n              dup2\n                /* \"#utility.yul\":1596:1599   */\n              dup5\n                /* \"#utility.yul\":1592:1603   */\n              add\n                /* \"#utility.yul\":1585:1624   */\n              mstore\n                /* \"#utility.yul\":1557:1559   */\n              0x20\n                /* \"#utility.yul\":1554:1555   */\n              dup2\n                /* \"#utility.yul\":1550:1560   */\n              add\n                /* \"#utility.yul\":1545:1560   */\n              swap1\n              pop\n                /* \"#utility.yul\":1521:1634   */\n              jump(tag_197)\n            tag_199:\n                /* \"#utility.yul\":1668:1669   */\n              0x00\n                /* \"#utility.yul\":1659:1665   */\n              dup5\n                /* \"#utility.yul\":1654:1657   */\n              dup5\n                /* \"#utility.yul\":1650:1666   */\n              add\n                /* \"#utility.yul\":1643:1670   */\n              mstore\n                /* \"#utility.yul\":1491:1677   */\n              pop\n                /* \"#utility.yul\":1429:1677   */\n              pop\n              pop\n              pop\n              jump\t// out\n                /* \"#utility.yul\":1683:1785   */\n            tag_138:\n                /* \"#utility.yul\":1724:1730   */\n              0x00\n                /* \"#utility.yul\":1775:1777   */\n              0x1f\n                /* \"#utility.yul\":1771:1778   */\n              not\n                /* \"#utility.yul\":1766:1768   */\n              0x1f\n                /* \"#utility.yul\":1759:1764   */\n              dup4\n                /* \"#utility.yul\":1755:1769   */\n              add\n                /* \"#utility.yul\":1751:1779   */\n              and\n                /* \"#utility.yul\":1741:1779   */\n              swap1\n              pop\n                /* \"#utility.yul\":1683:1785   */\n              swap2\n              swap1\n              pop\n              jump\t// out\n                /* \"#utility.yul\":1791:2168   */\n            tag_139:\n                /* \"#utility.yul\":1879:1882   */\n              0x00\n                /* \"#utility.yul\":1907:1946   */\n              tag_202\n                /* \"#utility.yul\":1940:1945   */\n              dup3\n                /* \"#utility.yul\":1907:1946   */\n              tag_135\n              jump\t// in\n            tag_202:\n                /* \"#utility.yul\":1962:2033   */\n              tag_203\n                /* \"#utility.yul\":2026:2032   */\n              dup2\n                /* \"#utility.yul\":2021:2024   */\n              dup6\n                /* \"#utility.yul\":1962:2033   */\n              tag_136\n              jump\t// in\n            tag_203:\n                /* \"#utility.yul\":1955:2033   */\n              swap4\n              pop\n                /* \"#utility.yul\":2042:2107   */\n              tag_204\n                /* \"#utility.yul\":2100:2106   */\n              dup2\n                /* \"#utility.yul\":2095:2098   */\n              dup6\n                /* \"#utility.yul\":2088:2092   */\n              0x20\n                /* \"#utility.yul\":2081:2086   */\n              dup7\n                /* \"#utility.yul\":2077:2093   */\n              add\n                /* \"#utility.yul\":2042:2107   */\n              tag_137\n              jump\t// in\n            tag_204:\n                /* \"#utility.yul\":2132:2161   */\n              tag_205\n                /* \"#utility.yul\":2154:2160   */\n              dup2\n                /* \"#utility.yul\":2132:2161   */\n              tag_138\n              jump\t// in\n            tag_205:\n                /* \"#utility.yul\":2127:2130   */\n              dup5\n                /* \"#utility.yul\":2123:2162   */\n              add\n                /* \"#utility.yul\":2116:2162   */\n              swap2\n              pop\n                /* \"#utility.yul\":1883:2168   */\n              pop\n                /* \"#utility.yul\":1791:2168   */\n              swap3\n              swap2\n              pop\n              pop\n              jump\t// out\n                /* \"#utility.yul\":2174:2300   */\n            tag_140:\n                /* \"#utility.yul\":2211:2218   */\n              0x00\n                /* \"#utility.yul\":2251:2293   */\n              0xffffffffffffffffffffffffffffffffffffffff\n                /* \"#utility.yul\":2244:2249   */\n              dup3\n                /* \"#utility.yul\":2240:2294   */\n              and\n                /* \"#utility.yul\":2229:2294   */\n              swap1\n              pop\n                /* \"#utility.yul\":2174:2300   */\n              swap2\n              swap1\n              pop\n              jump\t// out\n                /* \"#utility.yul\":2306:2402   */\n            tag_141:\n                /* \"#utility.yul\":2343:2350   */\n              0x00\n                /* \"#utility.yul\":2372:2396   */\n              tag_208\n                /* \"#utility.yul\":2390:2395   */\n              dup3\n                /* \"#utility.yul\":2372:2396   */\n              tag_140\n              jump\t// in\n            tag_208:\n                /* \"#utility.yul\":2361:2396   */\n              swap1\n              pop\n                /* \"#utility.yul\":2306:2402   */\n              swap2\n              swap1\n              pop\n              jump\t// out\n                /* \"#utility.yul\":2408:2526   */\n            tag_142:\n                /* \"#utility.yul\":2495:2519   */\n              tag_210\n                /* \"#utility.yul\":2513:2518   */\n              dup2\n                /* \"#utility.yul\":2495:2519   */\n              tag_141\n              jump\t// in\n            tag_210:\n                /* \"#utility.yul\":2490:2493   */\n              dup3\n                /* \"#utility.yul\":2483:2520   */\n              mstore\n                /* \"#utility.yul\":2408:2526   */\n              pop\n              pop\n              jump\t// out\n                /* \"#utility.yul\":2532:3398   */\n            tag_18:\n                /* \"#utility.yul\":2785:2789   */\n              0x00\n                /* \"#utility.yul\":2823:2826   */\n              0xc0\n                /* \"#utility.yul\":2812:2821   */\n              dup3\n                /* \"#utility.yul\":2808:2827   */\n              add\n                /* \"#utility.yul\":2800:2827   */\n              swap1\n              pop\n                /* \"#utility.yul\":2837:2908   */\n              tag_212\n                /* \"#utility.yul\":2905:2906   */\n              0x00\n                /* \"#utility.yul\":2894:2903   */\n              dup4\n                /* \"#utility.yul\":2890:2907   */\n              add\n                /* \"#utility.yul\":2881:2887   */\n              dup10\n                /* \"#utility.yul\":2837:2908   */\n              tag_134\n              jump\t// in\n            tag_212:\n                /* \"#utility.yul\":2918:2990   */\n              tag_213\n                /* \"#utility.yul\":2986:2988   */\n              0x20\n                /* \"#utility.yul\":2975:2984   */\n              dup4\n                /* \"#utility.yul\":2971:2989   */\n              add\n                /* \"#utility.yul\":2962:2968   */\n              dup9\n                /* \"#utility.yul\":2918:2990   */\n              tag_134\n              jump\t// in\n            tag_213:\n                /* \"#utility.yul\":3000:3072   */\n              tag_214\n                /* \"#utility.yul\":3068:3070   */\n              0x40\n                /* \"#utility.yul\":3057:3066   */\n              dup4\n                /* \"#utility.yul\":3053:3071   */\n              add\n                /* \"#utility.yul\":3044:3050   */\n              dup8\n                /* \"#utility.yul\":3000:3072   */\n              tag_134\n              jump\t// in\n            tag_214:\n                /* \"#utility.yul\":3119:3128   */\n              dup2\n                /* \"#utility.yul\":3113:3117   */\n              dup2\n                /* \"#utility.yul\":3109:3129   */\n              sub\n                /* \"#utility.yul\":3104:3106   */\n              0x60\n                /* \"#utility.yul\":3093:3102   */\n              dup4\n                /* \"#utility.yul\":3089:3107   */\n              add\n                /* \"#utility.yul\":3082:3130   */\n              mstore\n                /* \"#utility.yul\":3147:3225   */\n              tag_215\n                /* \"#utility.yul\":3220:3224   */\n              dup2\n                /* \"#utility.yul\":3211:3217   */\n              dup7\n                /* \"#utility.yul\":3147:3225   */\n              tag_139\n              jump\t// in\n            tag_215:\n                /* \"#utility.yul\":3139:3225   */\n              swap1\n              pop\n                /* \"#utility.yul\":3235:3308   */\n              tag_216\n                /* \"#utility.yul\":3303:3306   */\n              0x80\n                /* \"#utility.yul\":3292:3301   */\n              dup4\n                /* \"#utility.yul\":3288:3307   */\n              add\n                /* \"#utility.yul\":3279:3285   */\n              dup6\n                /* \"#utility.yul\":3235:3308   */\n              tag_142\n              jump\t// in\n            tag_216:\n                /* \"#utility.yul\":3318:3391   */\n              tag_217\n                /* \"#utility.yul\":3386:3389   */\n              0xa0\n                /* \"#utility.yul\":3375:3384   */\n              dup4\n                /* \"#utility.yul\":3371:3390   */\n              add\n                /* \"#utility.yul\":3362:3368   */\n              dup5\n                /* \"#utility.yul\":3318:3391   */\n              tag_134\n              jump\t// in\n            tag_217:\n                /* \"#utility.yul\":2532:3398   */\n              swap8\n              swap7\n              pop\n              pop\n              pop\n              pop\n              pop\n              pop\n              pop\n              jump\t// out\n                /* \"#utility.yul\":3404:3626   */\n            tag_22:\n                /* \"#utility.yul\":3497:3501   */\n              0x00\n                /* \"#utility.yul\":3535:3537   */\n              0x20\n                /* \"#utility.yul\":3524:3533   */\n              dup3\n                /* \"#utility.yul\":3520:3538   */\n              add\n                /* \"#utility.yul\":3512:3538   */\n              swap1\n              pop\n                /* \"#utility.yul\":3548:3619   */\n              tag_219\n                /* \"#utility.yul\":3616:3617   */\n              0x00\n                /* \"#utility.yul\":3605:3614   */\n              dup4\n                /* \"#utility.yul\":3601:3618   */\n              add\n                /* \"#utility.yul\":3592:3598   */\n              dup5\n                /* \"#utility.yul\":3548:3619   */\n              tag_142\n              jump\t// in\n            tag_219:\n                /* \"#utility.yul\":3404:3626   */\n              swap3\n              swap2\n              pop\n              pop\n              jump\t// out\n                /* \"#utility.yul\":3632:3754   */\n            tag_143:\n                /* \"#utility.yul\":3705:3729   */\n              tag_221\n                /* \"#utility.yul\":3723:3728   */\n              dup2\n                /* \"#utility.yul\":3705:3729   */\n              tag_141\n              jump\t// in\n            tag_221:\n                /* \"#utility.yul\":3698:3703   */\n              dup2\n                /* \"#utility.yul\":3695:3730   */\n              eq\n                /* \"#utility.yul\":3685:3748   */\n              tag_222\n              jumpi\n                /* \"#utility.yul\":3744:3745   */\n              0x00\n                /* \"#utility.yul\":3741:3742   */\n              dup1\n                /* \"#utility.yul\":3734:3746   */\n              revert\n                /* \"#utility.yul\":3685:3748   */\n            tag_222:\n                /* \"#utility.yul\":3632:3754   */\n              pop\n              jump\t// out\n                /* \"#utility.yul\":3760:3899   */\n            tag_144:\n                /* \"#utility.yul\":3806:3811   */\n              0x00\n                /* \"#utility.yul\":3844:3850   */\n              dup2\n                /* \"#utility.yul\":3831:3851   */\n              calldataload\n                /* \"#utility.yul\":3822:3851   */\n              swap1\n              pop\n                /* \"#utility.yul\":3860:3893   */\n              tag_224\n                /* \"#utility.yul\":3887:3892   */\n              dup2\n                /* \"#utility.yul\":3860:3893   */\n              tag_143\n              jump\t// in\n            tag_224:\n                /* \"#utility.yul\":3760:3899   */\n              swap3\n              swap2\n              pop\n              pop\n              jump\t// out\n                /* \"#utility.yul\":3905:4379   */\n            tag_25:\n                /* \"#utility.yul\":3973:3979   */\n              0x00\n                /* \"#utility.yul\":3981:3987   */\n              dup1\n                /* \"#utility.yul\":4030:4032   */\n              0x40\n                /* \"#utility.yul\":4018:4027   */\n              dup4\n                /* \"#utility.yul\":4009:4016   */\n              dup6\n                /* \"#utility.yul\":4005:4028   */\n              sub\n                /* \"#utility.yul\":4001:4033   */\n              slt\n                /* \"#utility.yul\":3998:4117   */\n              iszero\n              tag_226\n              jumpi\n                /* \"#utility.yul\":4036:4115   */\n              tag_227\n              tag_129\n              jump\t// in\n            tag_227:\n                /* \"#utility.yul\":3998:4117   */\n            tag_226:\n                /* \"#utility.yul\":4156:4157   */\n              0x00\n                /* \"#utility.yul\":4181:4234   */\n              tag_228\n                /* \"#utility.yul\":4226:4233   */\n              dup6\n                /* \"#utility.yul\":4217:4223   */\n              dup3\n                /* \"#utility.yul\":4206:4215   */\n              dup7\n                /* \"#utility.yul\":4202:4224   */\n              add\n                /* \"#utility.yul\":4181:4234   */\n              tag_144\n              jump\t// in\n            tag_228:\n                /* \"#utility.yul\":4171:4234   */\n              swap3\n              pop\n                /* \"#utility.yul\":4127:4244   */\n              pop\n                /* \"#utility.yul\":4283:4285   */\n              0x20\n                /* \"#utility.yul\":4309:4362   */\n              tag_229\n                /* \"#utility.yul\":4354:4361   */\n              dup6\n                /* \"#utility.yul\":4345:4351   */\n              dup3\n                /* \"#utility.yul\":4334:4343   */\n              dup7\n                /* \"#utility.yul\":4330:4352   */\n              add\n                /* \"#utility.yul\":4309:4362   */\n              tag_144\n              jump\t// in\n            tag_229:\n                /* \"#utility.yul\":4299:4362   */\n              swap2\n              pop\n                /* \"#utility.yul\":4254:4372   */\n              pop\n                /* \"#utility.yul\":3905:4379   */\n              swap3\n              pop\n              swap3\n              swap1\n              pop\n              jump\t// out\n                /* \"#utility.yul\":4385:4502   */\n            tag_145:\n                /* \"#utility.yul\":4494:4495   */\n              0x00\n                /* \"#utility.yul\":4491:4492   */\n              dup1\n                /* \"#utility.yul\":4484:4496   */\n              revert\n                /* \"#utility.yul\":4508:4625   */\n            tag_146:\n                /* \"#utility.yul\":4617:4618   */\n              0x00\n                /* \"#utility.yul\":4614:4615   */\n              dup1\n                /* \"#utility.yul\":4607:4619   */\n              revert\n                /* \"#utility.yul\":4631:4811   */\n            tag_147:\n                /* \"#utility.yul\":4679:4756   */\n              0x4e487b7100000000000000000000000000000000000000000000000000000000\n                /* \"#utility.yul\":4676:4677   */\n              0x00\n                /* \"#utility.yul\":4669:4757   */\n              mstore\n                /* \"#utility.yul\":4776:4780   */\n              0x41\n                /* \"#utility.yul\":4773:4774   */\n              0x04\n                /* \"#utility.yul\":4766:4781   */\n              mstore\n                /* \"#utility.yul\":4800:4804   */\n              0x24\n                /* \"#utility.yul\":4797:4798   */\n              0x00\n                /* \"#utility.yul\":4790:4805   */\n              revert\n                /* \"#utility.yul\":4817:5098   */\n            tag_148:\n                /* \"#utility.yul\":4900:4927   */\n              tag_234\n                /* \"#utility.yul\":4922:4926   */\n              dup3\n                /* \"#utility.yul\":4900:4927   */\n              tag_138\n              jump\t// in\n            tag_234:\n                /* \"#utility.yul\":4892:4898   */\n              dup2\n                /* \"#utility.yul\":4888:4928   */\n              add\n                /* \"#utility.yul\":5030:5036   */\n              dup2\n                /* \"#utility.yul\":5018:5028   */\n              dup2\n                /* \"#utility.yul\":5015:5037   */\n              lt\n                /* \"#utility.yul\":4994:5012   */\n              0xffffffffffffffff\n                /* \"#utility.yul\":4982:4992   */\n              dup3\n                /* \"#utility.yul\":4979:5013   */\n              gt\n                /* \"#utility.yul\":4976:5038   */\n              or\n                /* \"#utility.yul\":4973:5061   */\n              iszero\n              tag_235\n              jumpi\n                /* \"#utility.yul\":5041:5059   */\n              tag_236\n              tag_147\n              jump\t// in\n            tag_236:\n                /* \"#utility.yul\":4973:5061   */\n            tag_235:\n                /* \"#utility.yul\":5081:5091   */\n              dup1\n                /* \"#utility.yul\":5077:5079   */\n              0x40\n                /* \"#utility.yul\":5070:5092   */\n              mstore\n                /* \"#utility.yul\":4860:5098   */\n              pop\n                /* \"#utility.yul\":4817:5098   */\n              pop\n              pop\n              jump\t// out\n                /* \"#utility.yul\":5104:5233   */\n            tag_149:\n                /* \"#utility.yul\":5138:5144   */\n              0x00\n                /* \"#utility.yul\":5165:5185   */\n              tag_238\n              tag_128\n              jump\t// in\n            tag_238:\n                /* \"#utility.yul\":5155:5185   */\n              swap1\n              pop\n                /* \"#utility.yul\":5194:5227   */\n              tag_239\n                /* \"#utility.yul\":5222:5226   */\n              dup3\n                /* \"#utility.yul\":5214:5220   */\n              dup3\n                /* \"#utility.yul\":5194:5227   */\n              tag_148\n              jump\t// in\n            tag_239:\n                /* \"#utility.yul\":5104:5233   */\n              swap2\n              swap1\n              pop\n              jump\t// out\n                /* \"#utility.yul\":5239:5547   */\n            tag_150:\n                /* \"#utility.yul\":5301:5305   */\n              0x00\n                /* \"#utility.yul\":5391:5409   */\n              0xffffffffffffffff\n                /* \"#utility.yul\":5383:5389   */\n              dup3\n                /* \"#utility.yul\":5380:5410   */\n              gt\n                /* \"#utility.yul\":5377:5433   */\n              iszero\n              tag_241\n              jumpi\n                /* \"#utility.yul\":5413:5431   */\n              tag_242\n              tag_147\n              jump\t// in\n            tag_242:\n                /* \"#utility.yul\":5377:5433   */\n            tag_241:\n                /* \"#utility.yul\":5451:5480   */\n              tag_243\n                /* \"#utility.yul\":5473:5479   */\n              dup3\n                /* \"#utility.yul\":5451:5480   */\n              tag_138\n              jump\t// in\n            tag_243:\n                /* \"#utility.yul\":5443:5480   */\n              swap1\n              pop\n                /* \"#utility.yul\":5535:5539   */\n              0x20\n                /* \"#utility.yul\":5529:5533   */\n              dup2\n                /* \"#utility.yul\":5525:5540   */\n              add\n                /* \"#utility.yul\":5517:5540   */\n              swap1\n              pop\n                /* \"#utility.yul\":5239:5547   */\n              swap2\n              swap1\n              pop\n              jump\t// out\n                /* \"#utility.yul\":5553:5701   */\n            tag_151:\n                /* \"#utility.yul\":5651:5657   */\n              dup3\n                /* \"#utility.yul\":5646:5649   */\n              dup2\n                /* \"#utility.yul\":5641:5644   */\n              dup4\n                /* \"#utility.yul\":5628:5658   */\n              calldatacopy\n                /* \"#utility.yul\":5692:5693   */\n              0x00\n                /* \"#utility.yul\":5683:5689   */\n              dup4\n                /* \"#utility.yul\":5678:5681   */\n              dup4\n                /* \"#utility.yul\":5674:5690   */\n              add\n                /* \"#utility.yul\":5667:5694   */\n              mstore\n                /* \"#utility.yul\":5553:5701   */\n              pop\n              pop\n              pop\n              jump\t// out\n                /* \"#utility.yul\":5707:6132   */\n            tag_152:\n                /* \"#utility.yul\":5785:5790   */\n              0x00\n                /* \"#utility.yul\":5810:5876   */\n              tag_246\n                /* \"#utility.yul\":5826:5875   */\n              tag_247\n                /* \"#utility.yul\":5868:5874   */\n              dup5\n                /* \"#utility.yul\":5826:5875   */\n              tag_150\n              jump\t// in\n            tag_247:\n                /* \"#utility.yul\":5810:5876   */\n              tag_149\n              jump\t// in\n            tag_246:\n                /* \"#utility.yul\":5801:5876   */\n              swap1\n              pop\n                /* \"#utility.yul\":5899:5905   */\n              dup3\n                /* \"#utility.yul\":5892:5897   */\n              dup2\n                /* \"#utility.yul\":5885:5906   */\n              mstore\n                /* \"#utility.yul\":5937:5941   */\n              0x20\n                /* \"#utility.yul\":5930:5935   */\n              dup2\n                /* \"#utility.yul\":5926:5942   */\n              add\n                /* \"#utility.yul\":5975:5978   */\n              dup5\n                /* \"#utility.yul\":5966:5972   */\n              dup5\n                /* \"#utility.yul\":5961:5964   */\n              dup5\n                /* \"#utility.yul\":5957:5973   */\n              add\n                /* \"#utility.yul\":5954:5979   */\n              gt\n                /* \"#utility.yul\":5951:6063   */\n              iszero\n              tag_248\n              jumpi\n                /* \"#utility.yul\":5982:6061   */\n              tag_249\n              tag_146\n              jump\t// in\n            tag_249:\n                /* \"#utility.yul\":5951:6063   */\n            tag_248:\n                /* \"#utility.yul\":6072:6126   */\n              tag_250\n                /* \"#utility.yul\":6119:6125   */\n              dup5\n                /* \"#utility.yul\":6114:6117   */\n              dup3\n                /* \"#utility.yul\":6109:6112   */\n              dup6\n                /* \"#utility.yul\":6072:6126   */\n              tag_151\n              jump\t// in\n            tag_250:\n                /* \"#utility.yul\":5791:6132   */\n              pop\n                /* \"#utility.yul\":5707:6132   */\n              swap4\n              swap3\n              pop\n              pop\n              pop\n              jump\t// out\n                /* \"#utility.yul\":6152:6492   */\n            tag_153:\n                /* \"#utility.yul\":6208:6213   */\n              0x00\n                /* \"#utility.yul\":6257:6260   */\n              dup3\n                /* \"#utility.yul\":6250:6254   */\n              0x1f\n                /* \"#utility.yul\":6242:6248   */\n              dup4\n                /* \"#utility.yul\":6238:6255   */\n              add\n                /* \"#utility.yul\":6234:6261   */\n              slt\n                /* \"#utility.yul\":6224:6346   */\n              tag_252\n              jumpi\n                /* \"#utility.yul\":6265:6344   */\n              tag_253\n              tag_145\n              jump\t// in\n            tag_253:\n                /* \"#utility.yul\":6224:6346   */\n            tag_252:\n                /* \"#utility.yul\":6382:6388   */\n              dup2\n                /* \"#utility.yul\":6369:6389   */\n              calldataload\n                /* \"#utility.yul\":6407:6486   */\n              tag_254\n                /* \"#utility.yul\":6482:6485   */\n              dup5\n                /* \"#utility.yul\":6474:6480   */\n              dup3\n                /* \"#utility.yul\":6467:6471   */\n              0x20\n                /* \"#utility.yul\":6459:6465   */\n              dup7\n                /* \"#utility.yul\":6455:6472   */\n              add\n                /* \"#utility.yul\":6407:6486   */\n              tag_152\n              jump\t// in\n            tag_254:\n                /* \"#utility.yul\":6398:6486   */\n              swap2\n              pop\n                /* \"#utility.yul\":6214:6492   */\n              pop\n                /* \"#utility.yul\":6152:6492   */\n              swap3\n              swap2\n              pop\n              pop\n              jump\t// out\n                /* \"#utility.yul\":6498:7477   */\n            tag_29:\n                /* \"#utility.yul\":6595:6601   */\n              0x00\n                /* \"#utility.yul\":6603:6609   */\n              dup1\n                /* \"#utility.yul\":6611:6617   */\n              0x00\n                /* \"#utility.yul\":6660:6662   */\n              0x60\n                /* \"#utility.yul\":6648:6657   */\n              dup5\n                /* \"#utility.yul\":6639:6646   */\n              dup7\n                /* \"#utility.yul\":6635:6658   */\n              sub\n                /* \"#utility.yul\":6631:6663   */\n              slt\n                /* \"#utility.yul\":6628:6747   */\n              iszero\n              tag_256\n              jumpi\n                /* \"#utility.yul\":6666:6745   */\n              tag_257\n              tag_129\n              jump\t// in\n            tag_257:\n                /* \"#utility.yul\":6628:6747   */\n            tag_256:\n                /* \"#utility.yul\":6814:6815   */\n              0x00\n                /* \"#utility.yul\":6803:6812   */\n              dup5\n                /* \"#utility.yul\":6799:6816   */\n              add\n                /* \"#utility.yul\":6786:6817   */\n              calldataload\n                /* \"#utility.yul\":6844:6862   */\n              0xffffffffffffffff\n                /* \"#utility.yul\":6836:6842   */\n              dup2\n                /* \"#utility.yul\":6833:6863   */\n              gt\n                /* \"#utility.yul\":6830:6947   */\n              iszero\n              tag_258\n              jumpi\n                /* \"#utility.yul\":6866:6945   */\n              tag_259\n              tag_130\n              jump\t// in\n            tag_259:\n                /* \"#utility.yul\":6830:6947   */\n            tag_258:\n                /* \"#utility.yul\":6971:7034   */\n              tag_260\n                /* \"#utility.yul\":7026:7033   */\n              dup7\n                /* \"#utility.yul\":7017:7023   */\n              dup3\n                /* \"#utility.yul\":7006:7015   */\n              dup8\n                /* \"#utility.yul\":7002:7024   */\n              add\n                /* \"#utility.yul\":6971:7034   */\n              tag_153\n              jump\t// in\n            tag_260:\n                /* \"#utility.yul\":6961:7034   */\n              swap4\n              pop\n                /* \"#utility.yul\":6757:7044   */\n              pop\n                /* \"#utility.yul\":7111:7113   */\n              0x20\n                /* \"#utility.yul\":7100:7109   */\n              dup5\n                /* \"#utility.yul\":7096:7114   */\n              add\n                /* \"#utility.yul\":7083:7115   */\n              calldataload\n                /* \"#utility.yul\":7142:7160   */\n              0xffffffffffffffff\n                /* \"#utility.yul\":7134:7140   */\n              dup2\n                /* \"#utility.yul\":7131:7161   */\n              gt\n                /* \"#utility.yul\":7128:7245   */\n              iszero\n              tag_261\n              jumpi\n                /* \"#utility.yul\":7164:7243   */\n              tag_262\n              tag_130\n              jump\t// in\n            tag_262:\n                /* \"#utility.yul\":7128:7245   */\n            tag_261:\n                /* \"#utility.yul\":7269:7332   */\n              tag_263\n                /* \"#utility.yul\":7324:7331   */\n              dup7\n                /* \"#utility.yul\":7315:7321   */\n              dup3\n                /* \"#utility.yul\":7304:7313   */\n              dup8\n                /* \"#utility.yul\":7300:7322   */\n              add\n                /* \"#utility.yul\":7269:7332   */\n              tag_153\n              jump\t// in\n            tag_263:\n                /* \"#utility.yul\":7259:7332   */\n              swap3\n              pop\n                /* \"#utility.yul\":7054:7342   */\n              pop\n                /* \"#utility.yul\":7381:7383   */\n              0x40\n                /* \"#utility.yul\":7407:7460   */\n              tag_264\n                /* \"#utility.yul\":7452:7459   */\n              dup7\n                /* \"#utility.yul\":7443:7449   */\n              dup3\n                /* \"#utility.yul\":7432:7441   */\n              dup8\n                /* \"#utility.yul\":7428:7450   */\n              add\n                /* \"#utility.yul\":7407:7460   */\n              tag_144\n              jump\t// in\n            tag_264:\n                /* \"#utility.yul\":7397:7460   */\n              swap2\n              pop\n                /* \"#utility.yul\":7352:7470   */\n              pop\n                /* \"#utility.yul\":6498:7477   */\n              swap3\n              pop\n              swap3\n              pop\n              swap3\n              jump\t// out\n                /* \"#utility.yul\":7483:7992   */\n            tag_36:\n                /* \"#utility.yul\":7552:7558   */\n              0x00\n                /* \"#utility.yul\":7601:7603   */\n              0x20\n                /* \"#utility.yul\":7589:7598   */\n              dup3\n                /* \"#utility.yul\":7580:7587   */\n              dup5\n                /* \"#utility.yul\":7576:7599   */\n              sub\n                /* \"#utility.yul\":7572:7604   */\n              slt\n                /* \"#utility.yul\":7569:7688   */\n              iszero\n              tag_266\n              jumpi\n                /* \"#utility.yul\":7607:7686   */\n              tag_267\n              tag_129\n              jump\t// in\n            tag_267:\n                /* \"#utility.yul\":7569:7688   */\n            tag_266:\n                /* \"#utility.yul\":7755:7756   */\n              0x00\n                /* \"#utility.yul\":7744:7753   */\n              dup3\n                /* \"#utility.yul\":7740:7757   */\n              add\n                /* \"#utility.yul\":7727:7758   */\n              calldataload\n                /* \"#utility.yul\":7785:7803   */\n              0xffffffffffffffff\n                /* \"#utility.yul\":7777:7783   */\n              dup2\n                /* \"#utility.yul\":7774:7804   */\n              gt\n                /* \"#utility.yul\":7771:7888   */\n              iszero\n              tag_268\n              jumpi\n                /* \"#utility.yul\":7807:7886   */\n              tag_269\n              tag_130\n              jump\t// in\n            tag_269:\n                /* \"#utility.yul\":7771:7888   */\n            tag_268:\n                /* \"#utility.yul\":7912:7975   */\n              tag_270\n                /* \"#utility.yul\":7967:7974   */\n              dup5\n                /* \"#utility.yul\":7958:7964   */\n              dup3\n                /* \"#utility.yul\":7947:7956   */\n              dup6\n                /* \"#utility.yul\":7943:7965   */\n              add\n                /* \"#utility.yul\":7912:7975   */\n              tag_153\n              jump\t// in\n            tag_270:\n                /* \"#utility.yul\":7902:7975   */\n              swap2\n              pop\n                /* \"#utility.yul\":7698:7985   */\n              pop\n                /* \"#utility.yul\":7483:7992   */\n              swap3\n              swap2\n              pop\n              pop\n              jump\t// out\n                /* \"#utility.yul\":7998:8311   */\n            tag_39:\n                /* \"#utility.yul\":8111:8115   */\n              0x00\n                /* \"#utility.yul\":8149:8151   */\n              0x20\n                /* \"#utility.yul\":8138:8147   */\n              dup3\n                /* \"#utility.yul\":8134:8152   */\n              add\n                /* \"#utility.yul\":8126:8152   */\n              swap1\n              pop\n                /* \"#utility.yul\":8198:8207   */\n              dup2\n                /* \"#utility.yul\":8192:8196   */\n              dup2\n                /* \"#utility.yul\":8188:8208   */\n              sub\n                /* \"#utility.yul\":8184:8185   */\n              0x00\n                /* \"#utility.yul\":8173:8182   */\n              dup4\n                /* \"#utility.yul\":8169:8186   */\n              add\n                /* \"#utility.yul\":8162:8209   */\n              mstore\n                /* \"#utility.yul\":8226:8304   */\n              tag_272\n                /* \"#utility.yul\":8299:8303   */\n              dup2\n                /* \"#utility.yul\":8290:8296   */\n              dup5\n                /* \"#utility.yul\":8226:8304   */\n              tag_139\n              jump\t// in\n            tag_272:\n                /* \"#utility.yul\":8218:8304   */\n              swap1\n              pop\n                /* \"#utility.yul\":7998:8311   */\n              swap3\n              swap2\n              pop\n              pop\n              jump\t// out\n                /* \"#utility.yul\":8317:9116   */\n            tag_45:\n                /* \"#utility.yul\":8404:8410   */\n              0x00\n                /* \"#utility.yul\":8412:8418   */\n              dup1\n                /* \"#utility.yul\":8420:8426   */\n              0x00\n                /* \"#utility.yul\":8469:8471   */\n              0x60\n                /* \"#utility.yul\":8457:8466   */\n              dup5\n                /* \"#utility.yul\":8448:8455   */\n              dup7\n                /* \"#utility.yul\":8444:8467   */\n              sub\n                /* \"#utility.yul\":8440:8472   */\n              slt\n                /* \"#utility.yul\":8437:8556   */\n              iszero\n              tag_274\n              jumpi\n                /* \"#utility.yul\":8475:8554   */\n              tag_275\n              tag_129\n              jump\t// in\n            tag_275:\n                /* \"#utility.yul\":8437:8556   */\n            tag_274:\n                /* \"#utility.yul\":8623:8624   */\n              0x00\n                /* \"#utility.yul\":8612:8621   */\n              dup5\n                /* \"#utility.yul\":8608:8625   */\n              add\n                /* \"#utility.yul\":8595:8626   */\n              calldataload\n                /* \"#utility.yul\":8653:8671   */\n              0xffffffffffffffff\n                /* \"#utility.yul\":8645:8651   */\n              dup2\n                /* \"#utility.yul\":8642:8672   */\n              gt\n                /* \"#utility.yul\":8639:8756   */\n              iszero\n              tag_276\n              jumpi\n                /* \"#utility.yul\":8675:8754   */\n              tag_277\n              tag_130\n              jump\t// in\n            tag_277:\n                /* \"#utility.yul\":8639:8756   */\n            tag_276:\n                /* \"#utility.yul\":8780:8843   */\n              tag_278\n                /* \"#utility.yul\":8835:8842   */\n              dup7\n                /* \"#utility.yul\":8826:8832   */\n              dup3\n                /* \"#utility.yul\":8815:8824   */\n              dup8\n                /* \"#utility.yul\":8811:8833   */\n              add\n                /* \"#utility.yul\":8780:8843   */\n              tag_153\n              jump\t// in\n            tag_278:\n                /* \"#utility.yul\":8770:8843   */\n              swap4\n              pop\n                /* \"#utility.yul\":8566:8853   */\n              pop\n                /* \"#utility.yul\":8892:8894   */\n              0x20\n                /* \"#utility.yul\":8918:8971   */\n              tag_279\n                /* \"#utility.yul\":8963:8970   */\n              dup7\n                /* \"#utility.yul\":8954:8960   */\n              dup3\n                /* \"#utility.yul\":8943:8952   */\n              dup8\n                /* \"#utility.yul\":8939:8961   */\n              add\n                /* \"#utility.yul\":8918:8971   */\n              tag_144\n              jump\t// in\n            tag_279:\n                /* \"#utility.yul\":8908:8971   */\n              swap3\n              pop\n                /* \"#utility.yul\":8863:8981   */\n              pop\n                /* \"#utility.yul\":9020:9022   */\n              0x40\n                /* \"#utility.yul\":9046:9099   */\n              tag_280\n                /* \"#utility.yul\":9091:9098   */\n              dup7\n                /* \"#utility.yul\":9082:9088   */\n              dup3\n                /* \"#utility.yul\":9071:9080   */\n              dup8\n                /* \"#utility.yul\":9067:9089   */\n              add\n                /* \"#utility.yul\":9046:9099   */\n              tag_144\n              jump\t// in\n            tag_280:\n                /* \"#utility.yul\":9036:9099   */\n              swap2\n              pop\n                /* \"#utility.yul\":8991:9109   */\n              pop\n                /* \"#utility.yul\":8317:9116   */\n              swap3\n              pop\n              swap3\n              pop\n              swap3\n              jump\t// out\n                /* \"#utility.yul\":9122:9766   */\n            tag_50:\n                /* \"#utility.yul\":9319:9323   */\n              0x00\n                /* \"#utility.yul\":9357:9360   */\n              0x80\n                /* \"#utility.yul\":9346:9355   */\n              dup3\n                /* \"#utility.yul\":9342:9361   */\n              add\n                /* \"#utility.yul\":9334:9361   */\n              swap1\n              pop\n                /* \"#utility.yul\":9371:9442   */\n              tag_282\n                /* \"#utility.yul\":9439:9440   */\n              0x00\n                /* \"#utility.yul\":9428:9437   */\n              dup4\n                /* \"#utility.yul\":9424:9441   */\n              add\n                /* \"#utility.yul\":9415:9421   */\n              dup8\n                /* \"#utility.yul\":9371:9442   */\n              tag_134\n              jump\t// in\n            tag_282:\n                /* \"#utility.yul\":9452:9524   */\n              tag_283\n                /* \"#utility.yul\":9520:9522   */\n              0x20\n                /* \"#utility.yul\":9509:9518   */\n              dup4\n                /* \"#utility.yul\":9505:9523   */\n              add\n                /* \"#utility.yul\":9496:9502   */\n              dup7\n                /* \"#utility.yul\":9452:9524   */\n              tag_134\n              jump\t// in\n            tag_283:\n                /* \"#utility.yul\":9534:9606   */\n              tag_284\n                /* \"#utility.yul\":9602:9604   */\n              0x40\n                /* \"#utility.yul\":9591:9600   */\n              dup4\n                /* \"#utility.yul\":9587:9605   */\n              add\n                /* \"#utility.yul\":9578:9584   */\n              dup6\n                /* \"#utility.yul\":9534:9606   */\n              tag_134\n              jump\t// in\n            tag_284:\n                /* \"#utility.yul\":9653:9662   */\n              dup2\n                /* \"#utility.yul\":9647:9651   */\n              dup2\n                /* \"#utility.yul\":9643:9663   */\n              sub\n                /* \"#utility.yul\":9638:9640   */\n              0x60\n                /* \"#utility.yul\":9627:9636   */\n              dup4\n                /* \"#utility.yul\":9623:9641   */\n              add\n                /* \"#utility.yul\":9616:9664   */\n              mstore\n                /* \"#utility.yul\":9681:9759   */\n              tag_285\n                /* \"#utility.yul\":9754:9758   */\n              dup2\n                /* \"#utility.yul\":9745:9751   */\n              dup5\n                /* \"#utility.yul\":9681:9759   */\n              tag_139\n              jump\t// in\n            tag_285:\n                /* \"#utility.yul\":9673:9759   */\n              swap1\n              pop\n                /* \"#utility.yul\":9122:9766   */\n              swap6\n              swap5\n              pop\n              pop\n              pop\n              pop\n              pop\n              jump\t// out\n                /* \"#utility.yul\":9772:9952   */\n            tag_154:\n                /* \"#utility.yul\":9820:9897   */\n              0x4e487b7100000000000000000000000000000000000000000000000000000000\n                /* \"#utility.yul\":9817:9818   */\n              0x00\n                /* \"#utility.yul\":9810:9898   */\n              mstore\n                /* \"#utility.yul\":9917:9921   */\n              0x22\n                /* \"#utility.yul\":9914:9915   */\n              0x04\n                /* \"#utility.yul\":9907:9922   */\n              mstore\n                /* \"#utility.yul\":9941:9945   */\n              0x24\n                /* \"#utility.yul\":9938:9939   */\n              0x00\n                /* \"#utility.yul\":9931:9946   */\n              revert\n                /* \"#utility.yul\":9958:10278   */\n            tag_54:\n                /* \"#utility.yul\":10002:10008   */\n              0x00\n                /* \"#utility.yul\":10039:10040   */\n              0x02\n                /* \"#utility.yul\":10033:10037   */\n              dup3\n                /* \"#utility.yul\":10029:10041   */\n              div\n                /* \"#utility.yul\":10019:10041   */\n              swap1\n              pop\n                /* \"#utility.yul\":10086:10087   */\n              0x01\n                /* \"#utility.yul\":10080:10084   */\n              dup3\n                /* \"#utility.yul\":10076:10088   */\n              and\n                /* \"#utility.yul\":10107:10125   */\n              dup1\n                /* \"#utility.yul\":10097:10178   */\n              tag_288\n              jumpi\n                /* \"#utility.yul\":10163:10167   */\n              0x7f\n                /* \"#utility.yul\":10155:10161   */\n              dup3\n                /* \"#utility.yul\":10151:10168   */\n              and\n                /* \"#utility.yul\":10141:10168   */\n              swap2\n              pop\n                /* \"#utility.yul\":10097:10178   */\n            tag_288:\n                /* \"#utility.yul\":10225:10227   */\n              0x20\n                /* \"#utility.yul\":10217:10223   */\n              dup3\n                /* \"#utility.yul\":10214:10228   */\n              lt\n                /* \"#utility.yul\":10194:10212   */\n              dup2\n                /* \"#utility.yul\":10191:10229   */\n              sub\n                /* \"#utility.yul\":10188:10272   */\n              tag_289\n              jumpi\n                /* \"#utility.yul\":10244:10262   */\n              tag_290\n              tag_154\n              jump\t// in\n            tag_290:\n                /* \"#utility.yul\":10188:10272   */\n            tag_289:\n                /* \"#utility.yul\":10009:10278   */\n              pop\n                /* \"#utility.yul\":9958:10278   */\n              swap2\n              swap1\n              pop\n              jump\t// out\n                /* \"#utility.yul\":10284:10458   */\n            tag_155:\n                /* \"#utility.yul\":10424:10450   */\n              0x43616c6c6572206973206e6f7420636f6e74726f6c6c65720000000000000000\n                /* \"#utility.yul\":10420:10421   */\n              0x00\n                /* \"#utility.yul\":10412:10418   */\n              dup3\n                /* \"#utility.yul\":10408:10422   */\n              add\n                /* \"#utility.yul\":10401:10451   */\n              mstore\n                /* \"#utility.yul\":10284:10458   */\n              pop\n              jump\t// out\n                /* \"#utility.yul\":10464:10830   */\n            tag_156:\n                /* \"#utility.yul\":10606:10609   */\n              0x00\n                /* \"#utility.yul\":10627:10694   */\n              tag_293\n                /* \"#utility.yul\":10691:10693   */\n              0x18\n                /* \"#utility.yul\":10686:10689   */\n              dup4\n                /* \"#utility.yul\":10627:10694   */\n              tag_136\n              jump\t// in\n            tag_293:\n                /* \"#utility.yul\":10620:10694   */\n              swap2\n              pop\n                /* \"#utility.yul\":10703:10796   */\n              tag_294\n                /* \"#utility.yul\":10792:10795   */\n              dup3\n                /* \"#utility.yul\":10703:10796   */\n              tag_155\n              jump\t// in\n            tag_294:\n                /* \"#utility.yul\":10821:10823   */\n              0x20\n                /* \"#utility.yul\":10816:10819   */\n              dup3\n                /* \"#utility.yul\":10812:10824   */\n              add\n                /* \"#utility.yul\":10805:10824   */\n              swap1\n              pop\n                /* \"#utility.yul\":10464:10830   */\n              swap2\n              swap1\n              pop\n              jump\t// out\n                /* \"#utility.yul\":10836:11255   */\n            tag_63:\n                /* \"#utility.yul\":11002:11006   */\n              0x00\n                /* \"#utility.yul\":11040:11042   */\n              0x20\n                /* \"#utility.yul\":11029:11038   */\n              dup3\n                /* \"#utility.yul\":11025:11043   */\n              add\n                /* \"#utility.yul\":11017:11043   */\n              swap1\n              pop\n                /* \"#utility.yul\":11089:11098   */\n              dup2\n                /* \"#utility.yul\":11083:11087   */\n              dup2\n                /* \"#utility.yul\":11079:11099   */\n              sub\n                /* \"#utility.yul\":11075:11076   */\n              0x00\n                /* \"#utility.yul\":11064:11073   */\n              dup4\n                /* \"#utility.yul\":11060:11077   */\n              add\n                /* \"#utility.yul\":11053:11100   */\n              mstore\n                /* \"#utility.yul\":11117:11248   */\n              tag_296\n                /* \"#utility.yul\":11243:11247   */\n              dup2\n                /* \"#utility.yul\":11117:11248   */\n              tag_156\n              jump\t// in\n            tag_296:\n                /* \"#utility.yul\":11109:11248   */\n              swap1\n              pop\n                /* \"#utility.yul\":10836:11255   */\n              swap2\n              swap1\n              pop\n              jump\t// out\n                /* \"#utility.yul\":11261:11436   */\n            tag_157:\n                /* \"#utility.yul\":11401:11428   */\n              0x43616c6c6572206973206e6f7420656772657373206564676500000000000000\n                /* \"#utility.yul\":11397:11398   */\n              0x00\n                /* \"#utility.yul\":11389:11395   */\n              dup3\n                /* \"#utility.yul\":11385:11399   */\n              add\n                /* \"#utility.yul\":11378:11429   */\n              mstore\n                /* \"#utility.yul\":11261:11436   */\n              pop\n              jump\t// out\n                /* \"#utility.yul\":11442:11808   */\n            tag_158:\n                /* \"#utility.yul\":11584:11587   */\n              0x00\n                /* \"#utility.yul\":11605:11672   */\n              tag_299\n                /* \"#utility.yul\":11669:11671   */\n              0x19\n                /* \"#utility.yul\":11664:11667   */\n              dup4\n                /* \"#utility.yul\":11605:11672   */\n              tag_136\n              jump\t// in\n            tag_299:\n                /* \"#utility.yul\":11598:11672   */\n              swap2\n              pop\n                /* \"#utility.yul\":11681:11774   */\n              tag_300\n                /* \"#utility.yul\":11770:11773   */\n              dup3\n                /* \"#utility.yul\":11681:11774   */\n              tag_157\n              jump\t// in\n            tag_300:\n                /* \"#utility.yul\":11799:11801   */\n              0x20\n                /* \"#utility.yul\":11794:11797   */\n              dup3\n                /* \"#utility.yul\":11790:11802   */\n              add\n                /* \"#utility.yul\":11783:11802   */\n              swap1\n              pop\n                /* \"#utility.yul\":11442:11808   */\n              swap2\n              swap1\n              pop\n              jump\t// out\n                /* \"#utility.yul\":11814:12233   */\n            tag_68:\n                /* \"#utility.yul\":11980:11984   */\n              0x00\n                /* \"#utility.yul\":12018:12020   */\n              0x20\n                /* \"#utility.yul\":12007:12016   */\n              dup3\n                /* \"#utility.yul\":12003:12021   */\n              add\n                /* \"#utility.yul\":11995:12021   */\n              swap1\n              pop\n                /* \"#utility.yul\":12067:12076   */\n              dup2\n                /* \"#utility.yul\":12061:12065   */\n              dup2\n                /* \"#utility.yul\":12057:12077   */\n              sub\n                /* \"#utility.yul\":12053:12054   */\n              0x00\n                /* \"#utility.yul\":12042:12051   */\n              dup4\n                /* \"#utility.yul\":12038:12055   */\n              add\n                /* \"#utility.yul\":12031:12078   */\n              mstore\n                /* \"#utility.yul\":12095:12226   */\n              tag_302\n                /* \"#utility.yul\":12221:12225   */\n              dup2\n                /* \"#utility.yul\":12095:12226   */\n              tag_158\n              jump\t// in\n            tag_302:\n                /* \"#utility.yul\":12087:12226   */\n              swap1\n              pop\n                /* \"#utility.yul\":11814:12233   */\n              swap2\n              swap1\n              pop\n              jump\t// out\n                /* \"#utility.yul\":12239:12387   */\n            tag_159:\n                /* \"#utility.yul\":12341:12352   */\n              0x00\n                /* \"#utility.yul\":12378:12381   */\n              dup2\n                /* \"#utility.yul\":12363:12381   */\n              swap1\n              pop\n                /* \"#utility.yul\":12239:12387   */\n              swap3\n              swap2\n              pop\n              pop\n              jump\t// out\n                /* \"#utility.yul\":12393:12783   */\n            tag_160:\n                /* \"#utility.yul\":12499:12502   */\n              0x00\n                /* \"#utility.yul\":12527:12566   */\n              tag_305\n                /* \"#utility.yul\":12560:12565   */\n              dup3\n                /* \"#utility.yul\":12527:12566   */\n              tag_135\n              jump\t// in\n            tag_305:\n                /* \"#utility.yul\":12582:12671   */\n              tag_306\n                /* \"#utility.yul\":12664:12670   */\n              dup2\n                /* \"#utility.yul\":12659:12662   */\n              dup6\n                /* \"#utility.yul\":12582:12671   */\n              tag_159\n              jump\t// in\n            tag_306:\n                /* \"#utility.yul\":12575:12671   */\n              swap4\n              pop\n                /* \"#utility.yul\":12680:12745   */\n              tag_307\n                /* \"#utility.yul\":12738:12744   */\n              dup2\n                /* \"#utility.yul\":12733:12736   */\n              dup6\n                /* \"#utility.yul\":12726:12730   */\n              0x20\n                /* \"#utility.yul\":12719:12724   */\n              dup7\n                /* \"#utility.yul\":12715:12731   */\n              add\n                /* \"#utility.yul\":12680:12745   */\n              tag_137\n              jump\t// in\n            tag_307:\n                /* \"#utility.yul\":12770:12776   */\n              dup1\n                /* \"#utility.yul\":12765:12768   */\n              dup5\n                /* \"#utility.yul\":12761:12777   */\n              add\n                /* \"#utility.yul\":12754:12777   */\n              swap2\n              pop\n                /* \"#utility.yul\":12503:12783   */\n              pop\n                /* \"#utility.yul\":12393:12783   */\n              swap3\n              swap2\n              pop\n              pop\n              jump\t// out\n                /* \"#utility.yul\":12789:13064   */\n            tag_72:\n                /* \"#utility.yul\":12921:12924   */\n              0x00\n                /* \"#utility.yul\":12943:13038   */\n              tag_309\n                /* \"#utility.yul\":13034:13037   */\n              dup3\n                /* \"#utility.yul\":13025:13031   */\n              dup5\n                /* \"#utility.yul\":12943:13038   */\n              tag_160\n              jump\t// in\n            tag_309:\n                /* \"#utility.yul\":12936:13038   */\n              swap2\n              pop\n                /* \"#utility.yul\":13055:13058   */\n              dup2\n                /* \"#utility.yul\":13048:13058   */\n              swap1\n              pop\n                /* \"#utility.yul\":12789:13064   */\n              swap3\n              swap2\n              pop\n              pop\n              jump\t// out\n                /* \"#utility.yul\":13070:13250   */\n            tag_161:\n                /* \"#utility.yul\":13118:13195   */\n              0x4e487b7100000000000000000000000000000000000000000000000000000000\n                /* \"#utility.yul\":13115:13116   */\n              0x00\n                /* \"#utility.yul\":13108:13196   */\n              mstore\n                /* \"#utility.yul\":13215:13219   */\n              0x11\n                /* \"#utility.yul\":13212:13213   */\n              0x04\n                /* \"#utility.yul\":13205:13220   */\n              mstore\n                /* \"#utility.yul\":13239:13243   */\n              0x24\n                /* \"#utility.yul\":13236:13237   */\n              0x00\n                /* \"#utility.yul\":13229:13244   */\n              revert\n                /* \"#utility.yul\":13256:13447   */\n            tag_81:\n                /* \"#utility.yul\":13296:13299   */\n              0x00\n                /* \"#utility.yul\":13315:13335   */\n              tag_312\n                /* \"#utility.yul\":13333:13334   */\n              dup3\n                /* \"#utility.yul\":13315:13335   */\n              tag_131\n              jump\t// in\n            tag_312:\n                /* \"#utility.yul\":13310:13335   */\n              swap2\n              pop\n                /* \"#utility.yul\":13349:13369   */\n              tag_313\n                /* \"#utility.yul\":13367:13368   */\n              dup4\n                /* \"#utility.yul\":13349:13369   */\n              tag_131\n              jump\t// in\n            tag_313:\n                /* \"#utility.yul\":13344:13369   */\n              swap3\n              pop\n                /* \"#utility.yul\":13392:13393   */\n              dup3\n                /* \"#utility.yul\":13389:13390   */\n              dup3\n                /* \"#utility.yul\":13385:13394   */\n              add\n                /* \"#utility.yul\":13378:13394   */\n              swap1\n              pop\n                /* \"#utility.yul\":13413:13416   */\n              dup1\n                /* \"#utility.yul\":13410:13411   */\n              dup3\n                /* \"#utility.yul\":13407:13417   */\n              gt\n                /* \"#utility.yul\":13404:13440   */\n              iszero\n              tag_314\n              jumpi\n                /* \"#utility.yul\":13420:13438   */\n              tag_315\n              tag_161\n              jump\t// in\n            tag_315:\n                /* \"#utility.yul\":13404:13440   */\n            tag_314:\n                /* \"#utility.yul\":13256:13447   */\n              swap3\n              swap2\n              pop\n              pop\n              jump\t// out\n                /* \"#utility.yul\":13453:13594   */\n            tag_162:\n                /* \"#utility.yul\":13502:13506   */\n              0x00\n                /* \"#utility.yul\":13525:13528   */\n              dup2\n                /* \"#utility.yul\":13517:13528   */\n              swap1\n              pop\n                /* \"#utility.yul\":13548:13551   */\n              dup2\n                /* \"#utility.yul\":13545:13546   */\n              0x00\n                /* \"#utility.yul\":13538:13552   */\n              mstore\n                /* \"#utility.yul\":13582:13586   */\n              0x20\n                /* \"#utility.yul\":13579:13580   */\n              0x00\n                /* \"#utility.yul\":13569:13587   */\n              keccak256\n                /* \"#utility.yul\":13561:13587   */\n              swap1\n              pop\n                /* \"#utility.yul\":13453:13594   */\n              swap2\n              swap1\n              pop\n              jump\t// out\n                /* \"#utility.yul\":13600:13693   */\n            tag_163:\n                /* \"#utility.yul\":13637:13643   */\n              0x00\n                /* \"#utility.yul\":13684:13686   */\n              0x20\n                /* \"#utility.yul\":13679:13681   */\n              0x1f\n                /* \"#utility.yul\":13672:13677   */\n              dup4\n                /* \"#utility.yul\":13668:13682   */\n              add\n                /* \"#utility.yul\":13664:13687   */\n              div\n                /* \"#utility.yul\":13654:13687   */\n              swap1\n              pop\n                /* \"#utility.yul\":13600:13693   */\n              swap2\n              swap1\n              pop\n              jump\t// out\n                /* \"#utility.yul\":13699:13806   */\n            tag_164:\n                /* \"#utility.yul\":13743:13751   */\n              0x00\n                /* \"#utility.yul\":13793:13798   */\n              dup3\n                /* \"#utility.yul\":13787:13791   */\n              dup3\n                /* \"#utility.yul\":13783:13799   */\n              shl\n                /* \"#utility.yul\":13762:13799   */\n              swap1\n              pop\n                /* \"#utility.yul\":13699:13806   */\n              swap3\n              swap2\n              pop\n              pop\n              jump\t// out\n                /* \"#utility.yul\":13812:14205   */\n            tag_165:\n                /* \"#utility.yul\":13881:13887   */\n              0x00\n                /* \"#utility.yul\":13931:13932   */\n              0x08\n                /* \"#utility.yul\":13919:13929   */\n              dup4\n                /* \"#utility.yul\":13915:13933   */\n              mul\n                /* \"#utility.yul\":13954:14051   */\n              tag_320\n                /* \"#utility.yul\":13984:14050   */\n              0xffffffffffffffffffffffffffffffffffffffffffffffffffffffffffffffff\n                /* \"#utility.yul\":13973:13982   */\n              dup3\n                /* \"#utility.yul\":13954:14051   */\n              tag_164\n              jump\t// in\n            tag_320:\n                /* \"#utility.yul\":14072:14111   */\n              tag_321\n                /* \"#utility.yul\":14102:14110   */\n              dup7\n                /* \"#utility.yul\":14091:14100   */\n              dup4\n                /* \"#utility.yul\":14072:14111   */\n              tag_164\n              jump\t// in\n            tag_321:\n                /* \"#utility.yul\":14060:14111   */\n              swap6\n              pop\n                /* \"#utility.yul\":14144:14148   */\n              dup1\n                /* \"#utility.yul\":14140:14149   */\n              not\n                /* \"#utility.yul\":14133:14138   */\n              dup5\n                /* \"#utility.yul\":14129:14150   */\n              and\n                /* \"#utility.yul\":14120:14150   */\n              swap4\n              pop\n                /* \"#utility.yul\":14193:14197   */\n              dup1\n                /* \"#utility.yul\":14183:14191   */\n              dup7\n                /* \"#utility.yul\":14179:14198   */\n              and\n                /* \"#utility.yul\":14172:14177   */\n              dup5\n                /* \"#utility.yul\":14169:14199   */\n              or\n                /* \"#utility.yul\":14159:14199   */\n              swap3\n              pop\n                /* \"#utility.yul\":13888:14205   */\n              pop\n              pop\n                /* \"#utility.yul\":13812:14205   */\n              swap4\n              swap3\n              pop\n              pop\n              pop\n              jump\t// out\n                /* \"#utility.yul\":14211:14271   */\n            tag_166:\n                /* \"#utility.yul\":14239:14242   */\n              0x00\n                /* \"#utility.yul\":14260:14265   */\n              dup2\n                /* \"#utility.yul\":14253:14265   */\n              swap1\n              pop\n                /* \"#utility.yul\":14211:14271   */\n              swap2\n              swap1\n              pop\n              jump\t// out\n                /* \"#utility.yul\":14277:14419   */\n            tag_167:\n                /* \"#utility.yul\":14327:14336   */\n              0x00\n                /* \"#utility.yul\":14360:14413   */\n              tag_324\n                /* \"#utility.yul\":14378:14412   */\n              tag_325\n                /* \"#utility.yul\":14387:14411   */\n              tag_326\n                /* \"#utility.yul\":14405:14410   */\n              dup5\n                /* \"#utility.yul\":14387:14411   */\n              tag_131\n              jump\t// in\n            tag_326:\n                /* \"#utility.yul\":14378:14412   */\n              tag_166\n              jump\t// in\n            tag_325:\n                /* \"#utility.yul\":14360:14413   */\n              tag_131\n              jump\t// in\n            tag_324:\n                /* \"#utility.yul\":14347:14413   */\n              swap1\n              pop\n                /* \"#utility.yul\":14277:14419   */\n              swap2\n              swap1\n              pop\n              jump\t// out\n                /* \"#utility.yul\":14425:14500   */\n            tag_168:\n                /* \"#utility.yul\":14468:14471   */\n              0x00\n                /* \"#utility.yul\":14489:14494   */\n              dup2\n                /* \"#utility.yul\":14482:14494   */\n              swap1\n              pop\n                /* \"#utility.yul\":14425:14500   */\n              swap2\n              swap1\n              pop\n              jump\t// out\n                /* \"#utility.yul\":14506:14775   */\n            tag_169:\n                /* \"#utility.yul\":14616:14655   */\n              tag_329\n                /* \"#utility.yul\":14647:14654   */\n              dup4\n                /* \"#utility.yul\":14616:14655   */\n              tag_167\n              jump\t// in\n            tag_329:\n                /* \"#utility.yul\":14677:14768   */\n              tag_330\n                /* \"#utility.yul\":14726:14767   */\n              tag_331\n                /* \"#utility.yul\":14750:14766   */\n              dup3\n                /* \"#utility.yul\":14726:14767   */\n              tag_168\n              jump\t// in\n            tag_331:\n                /* \"#utility.yul\":14718:14724   */\n              dup5\n                /* \"#utility.yul\":14711:14715   */\n              dup5\n                /* \"#utility.yul\":14705:14716   */\n              sload\n                /* \"#utility.yul\":14677:14768   */\n              tag_165\n              jump\t// in\n            tag_330:\n                /* \"#utility.yul\":14671:14675   */\n              dup3\n                /* \"#utility.yul\":14664:14769   */\n              sstore\n                /* \"#utility.yul\":14582:14775   */\n              pop\n                /* \"#utility.yul\":14506:14775   */\n              pop\n              pop\n              pop\n              jump\t// out\n                /* \"#utility.yul\":14781:14854   */\n            tag_170:\n                /* \"#utility.yul\":14826:14829   */\n              0x00\n                /* \"#utility.yul\":14781:14854   */\n              swap1\n              jump\t// out\n                /* \"#utility.yul\":14860:15049   */\n            tag_171:\n                /* \"#utility.yul\":14937:14969   */\n              tag_334\n              tag_170\n              jump\t// in\n            tag_334:\n                /* \"#utility.yul\":14978:15043   */\n              tag_335\n                /* \"#utility.yul\":15036:15042   */\n              dup2\n                /* \"#utility.yul\":15028:15034   */\n              dup5\n                /* \"#utility.yul\":15022:15026   */\n              dup5\n                /* \"#utility.yul\":14978:15043   */\n              tag_169\n              jump\t// in\n            tag_335:\n                /* \"#utility.yul\":14913:15049   */\n              pop\n                /* \"#utility.yul\":14860:15049   */\n              pop\n              pop\n              jump\t// out\n                /* \"#utility.yul\":15055:15241   */\n            tag_172:\n                /* \"#utility.yul\":15115:15235   */\n            tag_337:\n                /* \"#utility.yul\":15132:15135   */\n              dup2\n                /* \"#utility.yul\":15125:15130   */\n              dup2\n                /* \"#utility.yul\":15122:15136   */\n              lt\n                /* \"#utility.yul\":15115:15235   */\n              iszero\n              tag_339\n              jumpi\n                /* \"#utility.yul\":15186:15225   */\n              tag_340\n                /* \"#utility.yul\":15223:15224   */\n              0x00\n                /* \"#utility.yul\":15216:15221   */\n              dup3\n                /* \"#utility.yul\":15186:15225   */\n              tag_171\n              jump\t// in\n            tag_340:\n                /* \"#utility.yul\":15159:15160   */\n              0x01\n                /* \"#utility.yul\":15152:15157   */\n              dup2\n                /* \"#utility.yul\":15148:15161   */\n              add\n                /* \"#utility.yul\":15139:15161   */\n              swap1\n              pop\n                /* \"#utility.yul\":15115:15235   */\n              jump(tag_337)\n            tag_339:\n                /* \"#utility.yul\":15055:15241   */\n              pop\n              pop\n              jump\t// out\n                /* \"#utility.yul\":15247:15790   */\n            tag_173:\n                /* \"#utility.yul\":15348:15350   */\n              0x1f\n                /* \"#utility.yul\":15343:15346   */\n              dup3\n                /* \"#utility.yul\":15340:15351   */\n              gt\n                /* \"#utility.yul\":15337:15783   */\n              iszero\n              tag_342\n              jumpi\n                /* \"#utility.yul\":15382:15420   */\n              tag_343\n                /* \"#utility.yul\":15414:15419   */\n              dup2\n                /* \"#utility.yul\":15382:15420   */\n              tag_162\n              jump\t// in\n            tag_343:\n                /* \"#utility.yul\":15466:15495   */\n              tag_344\n                /* \"#utility.yul\":15484:15494   */\n              dup5\n                /* \"#utility.yul\":15466:15495   */\n              tag_163\n              jump\t// in\n            tag_344:\n                /* \"#utility.yul\":15456:15464   */\n              dup2\n                /* \"#utility.yul\":15452:15496   */\n              add\n                /* \"#utility.yul\":15649:15651   */\n              0x20\n                /* \"#utility.yul\":15637:15647   */\n              dup6\n                /* \"#utility.yul\":15634:15652   */\n              lt\n                /* \"#utility.yul\":15631:15680   */\n              iszero\n              tag_345\n              jumpi\n                /* \"#utility.yul\":15670:15678   */\n              dup2\n                /* \"#utility.yul\":15655:15678   */\n              swap1\n              pop\n                /* \"#utility.yul\":15631:15680   */\n            tag_345:\n                /* \"#utility.yul\":15693:15773   */\n              tag_346\n                /* \"#utility.yul\":15749:15771   */\n              tag_347\n                /* \"#utility.yul\":15767:15770   */\n              dup6\n                /* \"#utility.yul\":15749:15771   */\n              tag_163\n              jump\t// in\n            tag_347:\n                /* \"#utility.yul\":15739:15747   */\n              dup4\n                /* \"#utility.yul\":15735:15772   */\n              add\n                /* \"#utility.yul\":15722:15733   */\n              dup3\n                /* \"#utility.yul\":15693:15773   */\n              tag_172\n              jump\t// in\n            tag_346:\n                /* \"#utility.yul\":15352:15783   */\n              pop\n              pop\n                /* \"#utility.yul\":15337:15783   */\n            tag_342:\n                /* \"#utility.yul\":15247:15790   */\n              pop\n              pop\n              pop\n              jump\t// out\n                /* \"#utility.yul\":15796:15913   */\n            tag_174:\n                /* \"#utility.yul\":15850:15858   */\n              0x00\n                /* \"#utility.yul\":15900:15905   */\n              dup3\n                /* \"#utility.yul\":15894:15898   */\n              dup3\n                /* \"#utility.yul\":15890:15906   */\n              shr\n                /* \"#utility.yul\":15869:15906   */\n              swap1\n              pop\n                /* \"#utility.yul\":15796:15913   */\n              swap3\n              swap2\n              pop\n              pop\n              jump\t// out\n                /* \"#utility.yul\":15919:16088   */\n            tag_175:\n                /* \"#utility.yul\":15963:15969   */\n              0x00\n                /* \"#utility.yul\":15996:16047   */\n              tag_350\n                /* \"#utility.yul\":16044:16045   */\n              0x00\n                /* \"#utility.yul\":16040:16046   */\n              not\n                /* \"#utility.yul\":16032:16037   */\n              dup5\n                /* \"#utility.yul\":16029:16030   */\n              0x08\n                /* \"#utility.yul\":16025:16038   */\n              mul\n                /* \"#utility.yul\":15996:16047   */\n              tag_174\n              jump\t// in\n            tag_350:\n                /* \"#utility.yul\":15992:16048   */\n              not\n                /* \"#utility.yul\":16077:16081   */\n              dup1\n                /* \"#utility.yul\":16071:16075   */\n              dup4\n                /* \"#utility.yul\":16067:16082   */\n              and\n                /* \"#utility.yul\":16057:16082   */\n              swap2\n              pop\n                /* \"#utility.yul\":15970:16088   */\n              pop\n                /* \"#utility.yul\":15919:16088   */\n              swap3\n              swap2\n              pop\n              pop\n              jump\t// out\n                /* \"#utility.yul\":16093:16388   */\n            tag_176:\n                /* \"#utility.yul\":16169:16173   */\n              0x00\n                /* \"#utility.yul\":16315:16344   */\n              tag_352\n                /* \"#utility.yul\":16340:16343   */\n              dup4\n                /* \"#utility.yul\":16334:16338   */\n              dup4\n                /* \"#utility.yul\":16315:16344   */\n              tag_175\n              jump\t// in\n            tag_352:\n                /* \"#utility.yul\":16307:16344   */\n              swap2\n              pop\n                /* \"#utility.yul\":16377:16380   */\n              dup3\n                /* \"#utility.yul\":16374:16375   */\n              0x02\n                /* \"#utility.yul\":16370:16381   */\n              mul\n                /* \"#utility.yul\":16364:16368   */\n              dup3\n                /* \"#utility.yul\":16361:16382   */\n              or\n                /* \"#utility.yul\":16353:16382   */\n              swap1\n              pop\n                /* \"#utility.yul\":16093:16388   */\n              swap3\n              swap2\n              pop\n              pop\n              jump\t// out\n                /* \"#utility.yul\":16393:17788   */\n            tag_100:\n                /* \"#utility.yul\":16510:16547   */\n              tag_354\n                /* \"#utility.yul\":16543:16546   */\n              dup3\n                /* \"#utility.yul\":16510:16547   */\n              tag_135\n              jump\t// in\n            tag_354:\n                /* \"#utility.yul\":16612:16630   */\n              0xffffffffffffffff\n                /* \"#utility.yul\":16604:16610   */\n              dup2\n                /* \"#utility.yul\":16601:16631   */\n              gt\n                /* \"#utility.yul\":16598:16654   */\n              iszero\n              tag_355\n              jumpi\n                /* \"#utility.yul\":16634:16652   */\n              tag_356\n              tag_147\n              jump\t// in\n            tag_356:\n                /* \"#utility.yul\":16598:16654   */\n            tag_355:\n                /* \"#utility.yul\":16678:16716   */\n              tag_357\n                /* \"#utility.yul\":16710:16714   */\n              dup3\n                /* \"#utility.yul\":16704:16715   */\n              sload\n                /* \"#utility.yul\":16678:16716   */\n              tag_54\n              jump\t// in\n            tag_357:\n                /* \"#utility.yul\":16763:16830   */\n              tag_358\n                /* \"#utility.yul\":16823:16829   */\n              dup3\n                /* \"#utility.yul\":16815:16821   */\n              dup3\n                /* \"#utility.yul\":16809:16813   */\n              dup6\n                /* \"#utility.yul\":16763:16830   */\n              tag_173\n              jump\t// in\n            tag_358:\n                /* \"#utility.yul\":16857:16858   */\n              0x00\n                /* \"#utility.yul\":16881:16885   */\n              0x20\n                /* \"#utility.yul\":16868:16885   */\n              swap1\n              pop\n                /* \"#utility.yul\":16913:16915   */\n              0x1f\n                /* \"#utility.yul\":16905:16911   */\n              dup4\n                /* \"#utility.yul\":16902:16916   */\n              gt\n                /* \"#utility.yul\":16930:16931   */\n              0x01\n                /* \"#utility.yul\":16925:17543   */\n              dup2\n              eq\n              tag_360\n              jumpi\n                /* \"#utility.yul\":17587:17588   */\n              0x00\n                /* \"#utility.yul\":17604:17610   */\n              dup5\n                /* \"#utility.yul\":17601:17678   */\n              iszero\n              tag_361\n              jumpi\n                /* \"#utility.yul\":17653:17662   */\n              dup3\n                /* \"#utility.yul\":17648:17651   */\n              dup8\n                /* \"#utility.yul\":17644:17663   */\n              add\n                /* \"#utility.yul\":17638:17664   */\n              mload\n                /* \"#utility.yul\":17629:17664   */\n              swap1\n              pop\n                /* \"#utility.yul\":17601:17678   */\n            tag_361:\n                /* \"#utility.yul\":17704:17771   */\n              tag_362\n                /* \"#utility.yul\":17764:17770   */\n              dup6\n                /* \"#utility.yul\":17757:17762   */\n              dup3\n                /* \"#utility.yul\":17704:17771   */\n              tag_176\n              jump\t// in\n            tag_362:\n                /* \"#utility.yul\":17698:17702   */\n              dup7\n                /* \"#utility.yul\":17691:17772   */\n              sstore\n                /* \"#utility.yul\":17560:17782   */\n              pop\n                /* \"#utility.yul\":16895:17782   */\n              jump(tag_359)\n                /* \"#utility.yul\":16925:17543   */\n            tag_360:\n                /* \"#utility.yul\":16977:16981   */\n              0x1f\n                /* \"#utility.yul\":16973:16982   */\n              not\n                /* \"#utility.yul\":16965:16971   */\n              dup5\n                /* \"#utility.yul\":16961:16983   */\n              and\n                /* \"#utility.yul\":17011:17048   */\n              tag_363\n                /* \"#utility.yul\":17043:17047   */\n              dup7\n                /* \"#utility.yul\":17011:17048   */\n              tag_162\n              jump\t// in\n            tag_363:\n                /* \"#utility.yul\":17070:17071   */\n              0x00\n                /* \"#utility.yul\":17084:17292   */\n            tag_364:\n                /* \"#utility.yul\":17098:17105   */\n              dup3\n                /* \"#utility.yul\":17095:17096   */\n              dup2\n                /* \"#utility.yul\":17092:17106   */\n              lt\n                /* \"#utility.yul\":17084:17292   */\n              iszero\n              tag_366\n              jumpi\n                /* \"#utility.yul\":17177:17186   */\n              dup5\n                /* \"#utility.yul\":17172:17175   */\n              dup10\n                /* \"#utility.yul\":17168:17187   */\n              add\n                /* \"#utility.yul\":17162:17188   */\n              mload\n                /* \"#utility.yul\":17154:17160   */\n              dup3\n                /* \"#utility.yul\":17147:17189   */\n              sstore\n                /* \"#utility.yul\":17228:17229   */\n              0x01\n                /* \"#utility.yul\":17220:17226   */\n              dup3\n                /* \"#utility.yul\":17216:17230   */\n              add\n                /* \"#utility.yul\":17206:17230   */\n              swap2\n              pop\n                /* \"#utility.yul\":17275:17277   */\n              0x20\n                /* \"#utility.yul\":17264:17273   */\n              dup6\n                /* \"#utility.yul\":17260:17278   */\n              add\n                /* \"#utility.yul\":17247:17278   */\n              swap5\n              pop\n                /* \"#utility.yul\":17121:17125   */\n              0x20\n                /* \"#utility.yul\":17118:17119   */\n              dup2\n                /* \"#utility.yul\":17114:17126   */\n              add\n                /* \"#utility.yul\":17109:17126   */\n              swap1\n              pop\n                /* \"#utility.yul\":17084:17292   */\n              jump(tag_364)\n            tag_366:\n                /* \"#utility.yul\":17320:17326   */\n              dup7\n                /* \"#utility.yul\":17311:17318   */\n              dup4\n                /* \"#utility.yul\":17308:17327   */\n              lt\n                /* \"#utility.yul\":17305:17484   */\n              iszero\n              tag_367\n              jumpi\n                /* \"#utility.yul\":17378:17387   */\n              dup5\n                /* \"#utility.yul\":17373:17376   */\n              dup10\n                /* \"#utility.yul\":17369:17388   */\n              add\n                /* \"#utility.yul\":17363:17389   */\n              mload\n                /* \"#utility.yul\":17421:17469   */\n              tag_368\n                /* \"#utility.yul\":17463:17467   */\n              0x1f\n                /* \"#utility.yul\":17455:17461   */\n              dup10\n                /* \"#utility.yul\":17451:17468   */\n              and\n                /* \"#utility.yul\":17440:17449   */\n              dup3\n                /* \"#utility.yul\":17421:17469   */\n              tag_175\n              jump\t// in\n            tag_368:\n                /* \"#utility.yul\":17413:17419   */\n              dup4\n                /* \"#utility.yul\":17406:17470   */\n              sstore\n                /* \"#utility.yul\":17328:17484   */\n              pop\n                /* \"#utility.yul\":17305:17484   */\n            tag_367:\n                /* \"#utility.yul\":17530:17531   */\n              0x01\n                /* \"#utility.yul\":17526:17527   */\n              0x02\n                /* \"#utility.yul\":17518:17524   */\n              dup9\n                /* \"#utility.yul\":17514:17528   */\n              mul\n                /* \"#utility.yul\":17510:17532   */\n              add\n                /* \"#utility.yul\":17504:17508   */\n              dup9\n                /* \"#utility.yul\":17497:17533   */\n              sstore\n                /* \"#utility.yul\":16932:17543   */\n              pop\n              pop\n              pop\n                /* \"#utility.yul\":16895:17782   */\n            tag_359:\n              pop\n                /* \"#utility.yul\":16485:17788   */\n              pop\n              pop\n              pop\n                /* \"#utility.yul\":16393:17788   */\n              pop\n              pop\n              jump\t// out\n                /* \"#utility.yul\":17794:17943   */\n            tag_177:\n                /* \"#utility.yul\":17843:17849   */\n              0x00\n                /* \"#utility.yul\":17877:17882   */\n              dup2\n                /* \"#utility.yul\":17871:17883   */\n              sload\n                /* \"#utility.yul\":17861:17883   */\n              swap1\n              pop\n                /* \"#utility.yul\":17903:17936   */\n              tag_370\n                /* \"#utility.yul\":17929:17935   */\n              dup2\n                /* \"#utility.yul\":17903:17936   */\n              tag_54\n              jump\t// in\n            tag_370:\n                /* \"#utility.yul\":17893:17936   */\n              swap1\n              pop\n                /* \"#utility.yul\":17794:17943   */\n              swap2\n              swap1\n              pop\n              jump\t// out\n                /* \"#utility.yul\":17949:19400   */\n            tag_117:\n                /* \"#utility.yul\":18060:18063   */\n              dup2\n                /* \"#utility.yul\":18054:18058   */\n              dup2\n                /* \"#utility.yul\":18051:18064   */\n              sub\n                /* \"#utility.yul\":18048:18074   */\n              tag_372\n              jumpi\n                /* \"#utility.yul\":18067:18072   */\n              pop\n              pop\n              jump(tag_371)\n                /* \"#utility.yul\":18048:18074   */\n            tag_372:\n                /* \"#utility.yul\":18098:18132   */\n              tag_373\n                /* \"#utility.yul\":18128:18131   */\n              dup3\n                /* \"#utility.yul\":18098:18132   */\n              tag_177\n              jump\t// in\n            tag_373:\n                /* \"#utility.yul\":18197:18215   */\n              0xffffffffffffffff\n                /* \"#utility.yul\":18189:18195   */\n              dup2\n                /* \"#utility.yul\":18186:18216   */\n              gt\n                /* \"#utility.yul\":18183:18239   */\n              iszero\n              tag_374\n              jumpi\n                /* \"#utility.yul\":18219:18237   */\n              tag_375\n              tag_147\n              jump\t// in\n            tag_375:\n                /* \"#utility.yul\":18183:18239   */\n            tag_374:\n                /* \"#utility.yul\":18263:18301   */\n              tag_376\n                /* \"#utility.yul\":18295:18299   */\n              dup3\n                /* \"#utility.yul\":18289:18300   */\n              sload\n                /* \"#utility.yul\":18263:18301   */\n              tag_54\n              jump\t// in\n            tag_376:\n                /* \"#utility.yul\":18348:18415   */\n              tag_377\n                /* \"#utility.yul\":18408:18414   */\n              dup3\n                /* \"#utility.yul\":18400:18406   */\n              dup3\n                /* \"#utility.yul\":18394:18398   */\n              dup6\n                /* \"#utility.yul\":18348:18415   */\n              tag_173\n              jump\t// in\n            tag_377:\n                /* \"#utility.yul\":18442:18443   */\n              0x00\n                /* \"#utility.yul\":18471:18473   */\n              0x1f\n                /* \"#utility.yul\":18463:18469   */\n              dup4\n                /* \"#utility.yul\":18460:18474   */\n              gt\n                /* \"#utility.yul\":18488:18489   */\n              0x01\n                /* \"#utility.yul\":18483:19155   */\n              dup2\n              eq\n              tag_379\n              jumpi\n                /* \"#utility.yul\":19199:19200   */\n              0x00\n                /* \"#utility.yul\":19216:19222   */\n              dup5\n                /* \"#utility.yul\":19213:19290   */\n              iszero\n              tag_380\n              jumpi\n                /* \"#utility.yul\":19265:19274   */\n              dup3\n                /* \"#utility.yul\":19260:19263   */\n              dup8\n                /* \"#utility.yul\":19256:19275   */\n              add\n                /* \"#utility.yul\":19250:19276   */\n              sload\n                /* \"#utility.yul\":19241:19276   */\n              swap1\n              pop\n                /* \"#utility.yul\":19213:19290   */\n            tag_380:\n                /* \"#utility.yul\":19316:19383   */\n              tag_381\n                /* \"#utility.yul\":19376:19382   */\n              dup6\n                /* \"#utility.yul\":19369:19374   */\n              dup3\n                /* \"#utility.yul\":19316:19383   */\n              tag_176\n              jump\t// in\n            tag_381:\n                /* \"#utility.yul\":19310:19314   */\n              dup7\n                /* \"#utility.yul\":19303:19384   */\n              sstore\n                /* \"#utility.yul\":19172:19394   */\n              pop\n                /* \"#utility.yul\":18453:19394   */\n              jump(tag_378)\n                /* \"#utility.yul\":18483:19155   */\n            tag_379:\n                /* \"#utility.yul\":18535:18539   */\n              0x1f\n                /* \"#utility.yul\":18531:18540   */\n              not\n                /* \"#utility.yul\":18523:18529   */\n              dup5\n                /* \"#utility.yul\":18519:18541   */\n              and\n                /* \"#utility.yul\":18561:18597   */\n              tag_382\n                /* \"#utility.yul\":18593:18596   */\n              dup8\n                /* \"#utility.yul\":18561:18597   */\n              tag_162\n              jump\t// in\n            tag_382:\n                /* \"#utility.yul\":18554:18597   */\n              swap7\n              pop\n                /* \"#utility.yul\":18624:18661   */\n              tag_383\n                /* \"#utility.yul\":18656:18660   */\n              dup7\n                /* \"#utility.yul\":18624:18661   */\n              tag_162\n              jump\t// in\n            tag_383:\n                /* \"#utility.yul\":18683:18684   */\n              0x00\n                /* \"#utility.yul\":18697:18904   */\n            tag_384:\n                /* \"#utility.yul\":18711:18718   */\n              dup3\n                /* \"#utility.yul\":18708:18709   */\n              dup2\n                /* \"#utility.yul\":18705:18719   */\n              lt\n                /* \"#utility.yul\":18697:18904   */\n              iszero\n              tag_386\n              jumpi\n                /* \"#utility.yul\":18790:18799   */\n              dup5\n                /* \"#utility.yul\":18785:18788   */\n              dup10\n                /* \"#utility.yul\":18781:18800   */\n              add\n                /* \"#utility.yul\":18775:18801   */\n              sload\n                /* \"#utility.yul\":18767:18773   */\n              dup3\n                /* \"#utility.yul\":18760:18802   */\n              sstore\n                /* \"#utility.yul\":18841:18842   */\n              0x01\n                /* \"#utility.yul\":18833:18839   */\n              dup3\n                /* \"#utility.yul\":18829:18843   */\n              add\n                /* \"#utility.yul\":18819:18843   */\n              swap2\n              pop\n                /* \"#utility.yul\":18888:18889   */\n              0x01\n                /* \"#utility.yul\":18877:18886   */\n              dup6\n                /* \"#utility.yul\":18873:18890   */\n              add\n                /* \"#utility.yul\":18860:18890   */\n              swap5\n              pop\n                /* \"#utility.yul\":18734:18738   */\n              0x20\n                /* \"#utility.yul\":18731:18732   */\n              dup2\n                /* \"#utility.yul\":18727:18739   */\n              add\n                /* \"#utility.yul\":18722:18739   */\n              swap1\n              pop\n                /* \"#utility.yul\":18697:18904   */\n              jump(tag_384)\n            tag_386:\n                /* \"#utility.yul\":18932:18938   */\n              dup7\n                /* \"#utility.yul\":18923:18930   */\n              dup4\n                /* \"#utility.yul\":18920:18939   */\n              lt\n                /* \"#utility.yul\":18917:19096   */\n              iszero\n              tag_387\n              jumpi\n                /* \"#utility.yul\":18990:18999   */\n              dup5\n                /* \"#utility.yul\":18985:18988   */\n              dup10\n                /* \"#utility.yul\":18981:19000   */\n              add\n                /* \"#utility.yul\":18975:19001   */\n              sload\n                /* \"#utility.yul\":19033:19081   */\n              tag_388\n                /* \"#utility.yul\":19075:19079   */\n              0x1f\n                /* \"#utility.yul\":19067:19073   */\n              dup10\n                /* \"#utility.yul\":19063:19080   */\n              and\n                /* \"#utility.yul\":19052:19061   */\n              dup3\n                /* \"#utility.yul\":19033:19081   */\n              tag_175\n              jump\t// in\n            tag_388:\n                /* \"#utility.yul\":19025:19031   */\n              dup4\n                /* \"#utility.yul\":19018:19082   */\n              sstore\n                /* \"#utility.yul\":18940:19096   */\n              pop\n                /* \"#utility.yul\":18917:19096   */\n            tag_387:\n                /* \"#utility.yul\":19142:19143   */\n              0x01\n                /* \"#utility.yul\":19138:19139   */\n              0x02\n                /* \"#utility.yul\":19130:19136   */\n              dup9\n                /* \"#utility.yul\":19126:19140   */\n              mul\n                /* \"#utility.yul\":19122:19144   */\n              add\n                /* \"#utility.yul\":19116:19120   */\n              dup9\n                /* \"#utility.yul\":19109:19145   */\n              sstore\n                /* \"#utility.yul\":18490:19155   */\n              pop\n              pop\n              pop\n                /* \"#utility.yul\":18453:19394   */\n            tag_378:\n              pop\n                /* \"#utility.yul\":18038:19400   */\n              pop\n              pop\n              pop\n                /* \"#utility.yul\":17949:19400   */\n              pop\n              pop\n            tag_371:\n              jump\t// out\n\n            auxdata: 0xa2646970667358221220c96ce3d07b5cbe25264fe6d7af880458157b171529e26331d890d6ad628c9f4364736f6c634300081a0033\n        }\n    }\n\n    auxdata: 0xa26469706673582212207b4140111f6b6339d0f545f895107cdbd2e118b4875af11598d7feddf965b4b964736f6c634300081a0033\n}\n",
				"bytecode": {
					"linkReferences": {},
					"object": "6080604052348015600f57600080fd5b50612f1a8061001f6000396000f3fe608060405234801561001057600080fd5b506004361061007d5760003560e01c8063b288366b1161005b578063b288366b146100ed578063e6a594bc1461011d578063f15da72914610139578063f3a01fd2146101555761007d565b8063058187aa146100825780633dc1779e146100b55780635ca94b73146100d1575b600080fd5b61009c60048036038101906100979190610a10565b610171565b6040516100ac9493929190610af1565b60405180910390f35b6100cf60048036038101906100ca9190610b3d565b6102f5565b005b6100eb60048036038101906100e69190610b3d565b61045b565b005b61010760048036038101906101029190610a10565b6105c1565b6040516101149190610c25565b60405180910390f35b61013760048036038101906101329190610c6c565b61060a565b005b610153600480360381019061014e9190610d57565b610770565b005b61016f600480360381019061016a9190610da4565b6107ad565b005b6000806000606084600073ffffffffffffffffffffffffffffffffffffffff166001826040516101a19190610e6b565b908152602001604051809103902060009054906101000a900473ffffffffffffffffffffffffffffffffffffffff1673ffffffffffffffffffffffffffffffffffffffff1603610226576040517f08c379a000000000000000000000000000000000000000000000000000000000815260040161021d90610ef4565b60405180910390fd5b600080876040516102379190610e6b565b908152602001604051809103902060009054906101000a900473ffffffffffffffffffffffffffffffffffffffff1690508073ffffffffffffffffffffffffffffffffffffffff1663ef040bb16040518163ffffffff1660e01b8152600401600060405180830381865afa1580156102b3573d6000803e3d6000fd5b505050506040513d6000823e3d601f19601f820116820180604052508101906102dc9190610fb0565b8096508197508298508399505050505050509193509193565b82600073ffffffffffffffffffffffffffffffffffffffff1660018260405161031e9190610e6b565b908152602001604051809103902060009054906101000a900473ffffffffffffffffffffffffffffffffffffffff1673ffffffffffffffffffffffffffffffffffffffff16036103a3576040517f08c379a000000000000000000000000000000000000000000000000000000000815260040161039a90610ef4565b60405180910390fd5b600080856040516103b49190610e6b565b908152602001604051809103902060009054906101000a900473ffffffffffffffffffffffffffffffffffffffff1690508073ffffffffffffffffffffffffffffffffffffffff16639877afc58585336040518463ffffffff1660e01b815260040161042293929190611033565b600060405180830381600087803b15801561043c57600080fd5b505af1158015610450573d6000803e3d6000fd5b505050505050505050565b82600073ffffffffffffffffffffffffffffffffffffffff166001826040516104849190610e6b565b908152602001604051809103902060009054906101000a900473ffffffffffffffffffffffffffffffffffffffff1673ffffffffffffffffffffffffffffffffffffffff1603610509576040517f08c379a000000000000000000000000000000000000000000000000000000000815260040161050090610ef4565b60405180910390fd5b6000808560405161051a9190610e6b565b908152602001604051809103902060009054906101000a900473ffffffffffffffffffffffffffffffffffffffff1690508073ffffffffffffffffffffffffffffffffffffffff1663b68cc7998585336040518463ffffffff1660e01b815260040161058893929190611033565b600060405180830381600087803b1580156105a257600080fd5b505af11580156105b6573d6000803e3d6000fd5b505050505050505050565b6001818051602081018201805184825260208301602085012081835280955050505050506000915054906101000a900473ffffffffffffffffffffffffffffffffffffffff1681565b82600073ffffffffffffffffffffffffffffffffffffffff166001826040516106339190610e6b565b908152602001604051809103902060009054906101000a900473ffffffffffffffffffffffffffffffffffffffff1673ffffffffffffffffffffffffffffffffffffffff16036106b8576040517f08c379a00000000000000000000000000000000000000000000000000000000081526004016106af90610ef4565b60405180910390fd5b600080856040516106c99190610e6b565b908152602001604051809103902060009054906101000a900473ffffffffffffffffffffffffffffffffffffffff1690508073ffffffffffffffffffffffffffffffffffffffff1663c543691a8585336040518463ffffffff1660e01b815260040161073793929190611078565b600060405180830381600087803b15801561075157600080fd5b505af1158015610765573d6000803e3d6000fd5b505050505050505050565b7fdb84d7c006c4de68f9c0bd50b8b81ed31f29ebeec325c872d36445c6565d757c82826040516107a19291906110e3565b60405180910390a15050565b60003383836040516107be906108a9565b6107ca93929190611107565b604051809103906000f0801580156107e6573d6000803e3d6000fd5b509050806000856040516107fa9190610e6b565b908152602001604051809103902060006101000a81548173ffffffffffffffffffffffffffffffffffffffff021916908373ffffffffffffffffffffffffffffffffffffffff160217905550806001856040516108579190610e6b565b908152602001604051809103902060006101000a81548173ffffffffffffffffffffffffffffffffffffffff021916908373ffffffffffffffffffffffffffffffffffffffff16021790555050505050565b611d9f8061114683390190565b6000604051905090565b600080fd5b600080fd5b600080fd5b600080fd5b6000601f19601f8301169050919050565b7f4e487b7100000000000000000000000000000000000000000000000000000000600052604160045260246000fd5b61091d826108d4565b810181811067ffffffffffffffff8211171561093c5761093b6108e5565b5b80604052505050565b600061094f6108b6565b905061095b8282610914565b919050565b600067ffffffffffffffff82111561097b5761097a6108e5565b5b610984826108d4565b9050602081019050919050565b82818337600083830152505050565b60006109b36109ae84610960565b610945565b9050828152602081018484840111156109cf576109ce6108cf565b5b6109da848285610991565b509392505050565b600082601f8301126109f7576109f66108ca565b5b8135610a078482602086016109a0565b91505092915050565b600060208284031215610a2657610a256108c0565b5b600082013567ffffffffffffffff811115610a4457610a436108c5565b5b610a50848285016109e2565b91505092915050565b6000819050919050565b610a6c81610a59565b82525050565b600081519050919050565b600082825260208201905092915050565b60005b83811015610aac578082015181840152602081019050610a91565b60008484015250505050565b6000610ac382610a72565b610acd8185610a7d565b9350610add818560208601610a8e565b610ae6816108d4565b840191505092915050565b6000608082019050610b066000830187610a63565b610b136020830186610a63565b610b206040830185610a63565b8181036060830152610b328184610ab8565b905095945050505050565b600080600060608486031215610b5657610b556108c0565b5b600084013567ffffffffffffffff811115610b7457610b736108c5565b5b610b80868287016109e2565b935050602084013567ffffffffffffffff811115610ba157610ba06108c5565b5b610bad868287016109e2565b925050604084013567ffffffffffffffff811115610bce57610bcd6108c5565b5b610bda868287016109e2565b9150509250925092565b600073ffffffffffffffffffffffffffffffffffffffff82169050919050565b6000610c0f82610be4565b9050919050565b610c1f81610c04565b82525050565b6000602082019050610c3a6000830184610c16565b92915050565b610c4981610c04565b8114610c5457600080fd5b50565b600081359050610c6681610c40565b92915050565b600080600060608486031215610c8557610c846108c0565b5b600084013567ffffffffffffffff811115610ca357610ca26108c5565b5b610caf868287016109e2565b935050602084013567ffffffffffffffff811115610cd057610ccf6108c5565b5b610cdc868287016109e2565b9250506040610ced86828701610c57565b9150509250925092565b600080fd5b600080fd5b60008083601f840112610d1757610d166108ca565b5b8235905067ffffffffffffffff811115610d3457610d33610cf7565b5b602083019150836001820283011115610d5057610d4f610cfc565b5b9250929050565b60008060208385031215610d6e57610d6d6108c0565b5b600083013567ffffffffffffffff811115610d8c57610d8b6108c5565b5b610d9885828601610d01565b92509250509250929050565b600080600060608486031215610dbd57610dbc6108c0565b5b600084013567ffffffffffffffff811115610ddb57610dda6108c5565b5b610de7868287016109e2565b9350506020610df886828701610c57565b925050604084013567ffffffffffffffff811115610e1957610e186108c5565b5b610e25868287016109e2565b9150509250925092565b600081905092915050565b6000610e4582610a72565b610e4f8185610e2f565b9350610e5f818560208601610a8e565b80840191505092915050565b6000610e778284610e3a565b915081905092915050565b7f4e6f20666c6f772069732072656769737465726564207769746820746865207060008201527f726f766964656420666c6f772049440000000000000000000000000000000000602082015250565b6000610ede602f83610a7d565b9150610ee982610e82565b604082019050919050565b60006020820190508181036000830152610f0d81610ed1565b9050919050565b610f1d81610a59565b8114610f2857600080fd5b50565b600081519050610f3a81610f14565b92915050565b6000610f53610f4e84610960565b610945565b905082815260208101848484011115610f6f57610f6e6108cf565b5b610f7a848285610a8e565b509392505050565b600082601f830112610f9757610f966108ca565b5b8151610fa7848260208601610f40565b91505092915050565b60008060008060808587031215610fca57610fc96108c0565b5b6000610fd887828801610f2b565b9450506020610fe987828801610f2b565b9350506040610ffa87828801610f2b565b925050606085015167ffffffffffffffff81111561101b5761101a6108c5565b5b61102787828801610f82565b91505092959194509250565b6000606082019050818103600083015261104d8186610ab8565b905081810360208301526110618185610ab8565b90506110706040830184610c16565b949350505050565b600060608201905081810360008301526110928186610ab8565b90506110a16020830185610c16565b6110ae6040830184610c16565b949350505050565b60006110c28385610a7d565b93506110cf838584610991565b6110d8836108d4565b840190509392505050565b600060208201905081810360008301526110fe8184866110b6565b90509392505050565b600060608201905061111c6000830186610c16565b6111296020830185610c16565b818103604083015261113b8184610ab8565b905094935050505056fe608060405234801561001057600080fd5b50604051611d9f380380611d9f83398181016040528101906100329190610345565b826000806101000a81548173ffffffffffffffffffffffffffffffffffffffff021916908373ffffffffffffffffffffffffffffffffffffffff1602179055504260018190555060006003600001819055506000600360020181905550600060036001018190555081600360040160006101000a81548173ffffffffffffffffffffffffffffffffffffffff021916908373ffffffffffffffffffffffffffffffffffffffff160217905550806003800190816100ef91906105d5565b5060008054906101000a900473ffffffffffffffffffffffffffffffffffffffff1673ffffffffffffffffffffffffffffffffffffffff16600073ffffffffffffffffffffffffffffffffffffffff167e7582b62407f53d49cfc72e7ddab574c06ef3b8aced104b54b7bed4681ee54a60405160405180910390a35050506106a7565b6000604051905090565b600080fd5b600080fd5b600073ffffffffffffffffffffffffffffffffffffffff82169050919050565b60006101b182610186565b9050919050565b6101c1816101a6565b81146101cc57600080fd5b50565b6000815190506101de816101b8565b92915050565b600080fd5b600080fd5b6000601f19601f8301169050919050565b7f4e487b7100000000000000000000000000000000000000000000000000000000600052604160045260246000fd5b610237826101ee565b810181811067ffffffffffffffff82111715610256576102556101ff565b5b80604052505050565b6000610269610172565b9050610275828261022e565b919050565b600067ffffffffffffffff821115610295576102946101ff565b5b61029e826101ee565b9050602081019050919050565b60005b838110156102c95780820151818401526020810190506102ae565b60008484015250505050565b60006102e86102e38461027a565b61025f565b905082815260208101848484011115610304576103036101e9565b5b61030f8482856102ab565b509392505050565b600082601f83011261032c5761032b6101e4565b5b815161033c8482602086016102d5565b91505092915050565b60008060006060848603121561035e5761035d61017c565b5b600061036c868287016101cf565b935050602061037d868287016101cf565b925050604084015167ffffffffffffffff81111561039e5761039d610181565b5b6103aa86828701610317565b9150509250925092565b600081519050919050565b7f4e487b7100000000000000000000000000000000000000000000000000000000600052602260045260246000fd5b6000600282049050600182168061040657607f821691505b602082108103610419576104186103bf565b5b50919050565b60008190508160005260206000209050919050565b60006020601f8301049050919050565b600082821b905092915050565b6000600883026104817fffffffffffffffffffffffffffffffffffffffffffffffffffffffffffffffff82610444565b61048b8683610444565b95508019841693508086168417925050509392505050565b6000819050919050565b6000819050919050565b60006104d26104cd6104c8846104a3565b6104ad565b6104a3565b9050919050565b6000819050919050565b6104ec836104b7565b6105006104f8826104d9565b848454610451565b825550505050565b600090565b610515610508565b6105208184846104e3565b505050565b5b818110156105445761053960008261050d565b600181019050610526565b5050565b601f8211156105895761055a8161041f565b61056384610434565b81016020851015610572578190505b61058661057e85610434565b830182610525565b50505b505050565b600082821c905092915050565b60006105ac6000198460080261058e565b1980831691505092915050565b60006105c5838361059b565b9150826002028217905092915050565b6105de826103b4565b67ffffffffffffffff8111156105f7576105f66101ff565b5b61060182546103ee565b61060c828285610548565b600060209050601f83116001811461063f576000841561062d578287015190505b61063785826105b9565b86555061069f565b601f19841661064d8661041f565b60005b8281101561067557848901518255600182019150602085019450602081019050610650565b86831015610692578489015161068e601f89168261059b565b8355505b6001600288020188555050505b505050505050565b6116e9806106b66000396000f3fe608060405234801561001057600080fd5b50600436106100935760003560e01c8063b68cc79911610066578063b68cc79914610123578063bb56d4121461013f578063bc5b5fe91461016f578063c543691a14610192578063ef040bb1146101ae57610093565b80632c039a4a146100985780633018205f146100cd5780633e11e378146100eb5780639877afc514610107575b600080fd5b6100b260048036038101906100ad9190610c67565b6101cf565b6040516100c496959493929190610d74565b60405180910390f35b6100d56102c3565b6040516100e29190610ddc565b60405180910390f35b61010560048036038101906101009190610e23565b6102ec565b005b610121600480360381019061011c9190610f98565b610439565b005b61013d60048036038101906101389190610f98565b6106db565b005b61015960048036038101906101549190611023565b61079c565b604051610166919061106c565b60405180910390f35b610177610852565b60405161018996959493929190610d74565b60405180910390f35b6101ac60048036038101906101a7919061108e565b610924565b005b6101b6610b0d565b6040516101c694939291906110fd565b60405180910390f35b600981815481106101df57600080fd5b906000526020600020906006020160009150905080600001549080600101549080600201549080600301805461021490611178565b80601f016020809104026020016040519081016040528092919081815260200182805461024090611178565b801561028d5780601f106102625761010080835404028352916020019161028d565b820191906000526020600020905b81548152906001019060200180831161027057829003601f168201915b5050505050908060040160009054906101000a900473ffffffffffffffffffffffffffffffffffffffff16908060050154905086565b60008060009054906101000a900473ffffffffffffffffffffffffffffffffffffffff16905090565b8060008054906101000a900473ffffffffffffffffffffffffffffffffffffffff1673ffffffffffffffffffffffffffffffffffffffff168173ffffffffffffffffffffffffffffffffffffffff161461037b576040517f08c379a0000000000000000000000000000000000000000000000000000000008152600401610372906111f5565b60405180910390fd5b8273ffffffffffffffffffffffffffffffffffffffff1660008054906101000a900473ffffffffffffffffffffffffffffffffffffffff1673ffffffffffffffffffffffffffffffffffffffff167e7582b62407f53d49cfc72e7ddab574c06ef3b8aced104b54b7bed4681ee54a60405160405180910390a3826000806101000a81548173ffffffffffffffffffffffffffffffffffffffff021916908373ffffffffffffffffffffffffffffffffffffffff160217905550505050565b80600360040160009054906101000a900473ffffffffffffffffffffffffffffffffffffffff1673ffffffffffffffffffffffffffffffffffffffff168173ffffffffffffffffffffffffffffffffffffffff16146104cd576040517f08c379a00000000000000000000000000000000000000000000000000000000081526004016104c490611261565b60405180910390fd5b61058c6002856040516104e091906112bd565b908152602001604051809103902080546104f990611178565b80601f016020809104026020016040519081016040528092919081815260200182805461052590611178565b80156105725780601f1061054757610100808354040283529160200191610572565b820191906000526020600020905b81548152906001019060200180831161055557829003601f168201915b505050505060405180602001604052806000815250610bc4565b156105b3576001600360010160008282546105a79190611303565b925050819055506106d5565b6106636002856040516105c691906112bd565b908152602001604051809103902080546105df90611178565b80601f016020809104026020016040519081016040528092919081815260200182805461060b90611178565b80156106585780601f1061062d57610100808354040283529160200191610658565b820191906000526020600020905b81548152906001019060200180831161063b57829003601f168201915b505050505084610bc4565b1561068a5760016003600201600082825461067e9190611303565b925050819055506106d4565b6001600360000160008282546106a09190611303565b925050819055507f9155208b51995e04c988eb045ef59af0f5f785f942cb81688516362b62d8fac060405160405180910390a15b5b50505050565b8060008054906101000a900473ffffffffffffffffffffffffffffffffffffffff1673ffffffffffffffffffffffffffffffffffffffff168173ffffffffffffffffffffffffffffffffffffffff161461076a576040517f08c379a0000000000000000000000000000000000000000000000000000000008152600401610761906111f5565b60405180910390fd5b8260028560405161077b91906112bd565b9081526020016040518091039020908161079591906114e3565b5050505050565b60028180516020810182018051848252602083016020850120818352809550505050505060009150905080546107d190611178565b80601f01602080910402602001604051908101604052809291908181526020018280546107fd90611178565b801561084a5780601f1061081f5761010080835404028352916020019161084a565b820191906000526020600020905b81548152906001019060200180831161082d57829003601f168201915b505050505081565b600380600001549080600101549080600201549080600301805461087590611178565b80601f01602080910402602001604051908101604052809291908181526020018280546108a190611178565b80156108ee5780601f106108c3576101008083540402835291602001916108ee565b820191906000526020600020905b8154815290600101906020018083116108d157829003601f168201915b5050505050908060040160009054906101000a900473ffffffffffffffffffffffffffffffffffffffff16908060050154905086565b8060008054906101000a900473ffffffffffffffffffffffffffffffffffffffff1673ffffffffffffffffffffffffffffffffffffffff168173ffffffffffffffffffffffffffffffffffffffff16146109b3576040517f08c379a00000000000000000000000000000000000000000000000000000000081526004016109aa906111f5565b60405180910390fd5b4260036005018190555060096003908060018154018082558091505060019003906000526020600020906006020160009091909190915060008201548160000155600182015481600101556002820154816002015560038201816003019081610a1c91906115cb565b506004820160009054906101000a900473ffffffffffffffffffffffffffffffffffffffff168160040160006101000a81548173ffffffffffffffffffffffffffffffffffffffff021916908373ffffffffffffffffffffffffffffffffffffffff16021790555060058201548160050155505060006003600001819055506000600360020181905550600060036001018190555082600360040160006101000a81548173ffffffffffffffffffffffffffffffffffffffff021916908373ffffffffffffffffffffffffffffffffffffffff16021790555083600380019081610b0691906114e3565b5050505050565b6000806000606060036002015460036000015460036001015460038001808054610b3690611178565b80601f0160208091040260200160405190810160405280929190818152602001828054610b6290611178565b8015610baf5780601f10610b8457610100808354040283529160200191610baf565b820191906000526020600020905b815481529060010190602001808311610b9257829003601f168201915b50505050509050935093509350935090919293565b600081604051602001610bd791906112bd565b6040516020818303038152906040528051906020012083604051602001610bfe91906112bd565b6040516020818303038152906040528051906020012014905092915050565b6000604051905090565b600080fd5b600080fd5b6000819050919050565b610c4481610c31565b8114610c4f57600080fd5b50565b600081359050610c6181610c3b565b92915050565b600060208284031215610c7d57610c7c610c27565b5b6000610c8b84828501610c52565b91505092915050565b610c9d81610c31565b82525050565b600081519050919050565b600082825260208201905092915050565b60005b83811015610cdd578082015181840152602081019050610cc2565b60008484015250505050565b6000601f19601f8301169050919050565b6000610d0582610ca3565b610d0f8185610cae565b9350610d1f818560208601610cbf565b610d2881610ce9565b840191505092915050565b600073ffffffffffffffffffffffffffffffffffffffff82169050919050565b6000610d5e82610d33565b9050919050565b610d6e81610d53565b82525050565b600060c082019050610d896000830189610c94565b610d966020830188610c94565b610da36040830187610c94565b8181036060830152610db58186610cfa565b9050610dc46080830185610d65565b610dd160a0830184610c94565b979650505050505050565b6000602082019050610df16000830184610d65565b92915050565b610e0081610d53565b8114610e0b57600080fd5b50565b600081359050610e1d81610df7565b92915050565b60008060408385031215610e3a57610e39610c27565b5b6000610e4885828601610e0e565b9250506020610e5985828601610e0e565b9150509250929050565b600080fd5b600080fd5b7f4e487b7100000000000000000000000000000000000000000000000000000000600052604160045260246000fd5b610ea582610ce9565b810181811067ffffffffffffffff82111715610ec457610ec3610e6d565b5b80604052505050565b6000610ed7610c1d565b9050610ee38282610e9c565b919050565b600067ffffffffffffffff821115610f0357610f02610e6d565b5b610f0c82610ce9565b9050602081019050919050565b82818337600083830152505050565b6000610f3b610f3684610ee8565b610ecd565b905082815260208101848484011115610f5757610f56610e68565b5b610f62848285610f19565b509392505050565b600082601f830112610f7f57610f7e610e63565b5b8135610f8f848260208601610f28565b91505092915050565b600080600060608486031215610fb157610fb0610c27565b5b600084013567ffffffffffffffff811115610fcf57610fce610c2c565b5b610fdb86828701610f6a565b935050602084013567ffffffffffffffff811115610ffc57610ffb610c2c565b5b61100886828701610f6a565b925050604061101986828701610e0e565b9150509250925092565b60006020828403121561103957611038610c27565b5b600082013567ffffffffffffffff81111561105757611056610c2c565b5b61106384828501610f6a565b91505092915050565b600060208201905081810360008301526110868184610cfa565b905092915050565b6000806000606084860312156110a7576110a6610c27565b5b600084013567ffffffffffffffff8111156110c5576110c4610c2c565b5b6110d186828701610f6a565b93505060206110e286828701610e0e565b92505060406110f386828701610e0e565b9150509250925092565b60006080820190506111126000830187610c94565b61111f6020830186610c94565b61112c6040830185610c94565b818103606083015261113e8184610cfa565b905095945050505050565b7f4e487b7100000000000000000000000000000000000000000000000000000000600052602260045260246000fd5b6000600282049050600182168061119057607f821691505b6020821081036111a3576111a2611149565b5b50919050565b7f43616c6c6572206973206e6f7420636f6e74726f6c6c65720000000000000000600082015250565b60006111df601883610cae565b91506111ea826111a9565b602082019050919050565b6000602082019050818103600083015261120e816111d2565b9050919050565b7f43616c6c6572206973206e6f7420656772657373206564676500000000000000600082015250565b600061124b601983610cae565b915061125682611215565b602082019050919050565b6000602082019050818103600083015261127a8161123e565b9050919050565b600081905092915050565b600061129782610ca3565b6112a18185611281565b93506112b1818560208601610cbf565b80840191505092915050565b60006112c9828461128c565b915081905092915050565b7f4e487b7100000000000000000000000000000000000000000000000000000000600052601160045260246000fd5b600061130e82610c31565b915061131983610c31565b9250828201905080821115611331576113306112d4565b5b92915050565b60008190508160005260206000209050919050565b60006020601f8301049050919050565b600082821b905092915050565b6000600883026113997fffffffffffffffffffffffffffffffffffffffffffffffffffffffffffffffff8261135c565b6113a3868361135c565b95508019841693508086168417925050509392505050565b6000819050919050565b60006113e06113db6113d684610c31565b6113bb565b610c31565b9050919050565b6000819050919050565b6113fa836113c5565b61140e611406826113e7565b848454611369565b825550505050565b600090565b611423611416565b61142e8184846113f1565b505050565b5b818110156114525761144760008261141b565b600181019050611434565b5050565b601f8211156114975761146881611337565b6114718461134c565b81016020851015611480578190505b61149461148c8561134c565b830182611433565b50505b505050565b600082821c905092915050565b60006114ba6000198460080261149c565b1980831691505092915050565b60006114d383836114a9565b9150826002028217905092915050565b6114ec82610ca3565b67ffffffffffffffff81111561150557611504610e6d565b5b61150f8254611178565b61151a828285611456565b600060209050601f83116001811461154d576000841561153b578287015190505b61154585826114c7565b8655506115ad565b601f19841661155b86611337565b60005b828110156115835784890151825560018201915060208501945060208101905061155e565b868310156115a0578489015161159c601f8916826114a9565b8355505b6001600288020188555050505b505050505050565b6000815490506115c481611178565b9050919050565b8181036115d95750506116b1565b6115e2826115b5565b67ffffffffffffffff8111156115fb576115fa610e6d565b5b6116058254611178565b611610828285611456565b6000601f83116001811461163f576000841561162d578287015490505b61163785826114c7565b8655506116aa565b601f19841661164d87611337565b965061165886611337565b60005b828110156116805784890154825560018201915060018501945060208101905061165b565b8683101561169d5784890154611699601f8916826114a9565b8355505b6001600288020188555050505b5050505050505b56fea2646970667358221220c96ce3d07b5cbe25264fe6d7af880458157b171529e26331d890d6ad628c9f4364736f6c634300081a0033a26469706673582212207b4140111f6b6339d0f545f895107cdbd2e118b4875af11598d7feddf965b4b964736f6c634300081a0033",
					"opcodes": "PUSH1 0x80 PUSH1 0x40 MSTORE CALLVALUE DUP1 ISZERO PUSH1 0xF JUMPI PUSH1 0x0 DUP1 REVERT JUMPDEST POP PUSH2 0x2F1A DUP1 PUSH2 0x1F PUSH1 0x0 CODECOPY PUSH1 0x0 RETURN INVALID PUSH1 0x80 PUSH1 0x40 MSTORE CALLVALUE DUP1 ISZERO PUSH2 0x10 JUMPI PUSH1 0x0 DUP1 REVERT JUMPDEST POP PUSH1 0x4 CALLDATASIZE LT PUSH2 0x7D JUMPI PUSH1 0x0 CALLDATALOAD PUSH1 0xE0 SHR DUP1 PUSH4 0xB288366B GT PUSH2 0x5B JUMPI DUP1 PUSH4 0xB288366B EQ PUSH2 0xED JUMPI DUP1 PUSH4 0xE6A594BC EQ PUSH2 0x11D JUMPI DUP1 PUSH4 0xF15DA729 EQ PUSH2 0x139 JUMPI DUP1 PUSH4 0xF3A01FD2 EQ PUSH2 0x155 JUMPI PUSH2 0x7D JUMP JUMPDEST DUP1 PUSH4 0x58187AA EQ PUSH2 0x82 JUMPI DUP1 PUSH4 0x3DC1779E EQ PUSH2 0xB5 JUMPI DUP1 PUSH4 0x5CA94B73 EQ PUSH2 0xD1 JUMPI JUMPDEST PUSH1 0x0 DUP1 REVERT JUMPDEST PUSH2 0x9C PUSH1 0x4 DUP1 CALLDATASIZE SUB DUP2 ADD SWAP1 PUSH2 0x97 SWAP2 SWAP1 PUSH2 0xA10 JUMP JUMPDEST PUSH2 0x171 JUMP JUMPDEST PUSH1 0x40 MLOAD PUSH2 0xAC SWAP5 SWAP4 SWAP3 SWAP2 SWAP1 PUSH2 0xAF1 JUMP JUMPDEST PUSH1 0x40 MLOAD DUP1 SWAP2 SUB SWAP1 RETURN JUMPDEST PUSH2 0xCF PUSH1 0x4 DUP1 CALLDATASIZE SUB DUP2 ADD SWAP1 PUSH2 0xCA SWAP2 SWAP1 PUSH2 0xB3D JUMP JUMPDEST PUSH2 0x2F5 JUMP JUMPDEST STOP JUMPDEST PUSH2 0xEB PUSH1 0x4 DUP1 CALLDATASIZE SUB DUP2 ADD SWAP1 PUSH2 0xE6 SWAP2 SWAP1 PUSH2 0xB3D JUMP JUMPDEST PUSH2 0x45B JUMP JUMPDEST STOP JUMPDEST PUSH2 0x107 PUSH1 0x4 DUP1 CALLDATASIZE SUB DUP2 ADD SWAP1 PUSH2 0x102 SWAP2 SWAP1 PUSH2 0xA10 JUMP JUMPDEST PUSH2 0x5C1 JUMP JUMPDEST PUSH1 0x40 MLOAD PUSH2 0x114 SWAP2 SWAP1 PUSH2 0xC25 JUMP JUMPDEST PUSH1 0x40 MLOAD DUP1 SWAP2 SUB SWAP1 RETURN JUMPDEST PUSH2 0x137 PUSH1 0x4 DUP1 CALLDATASIZE SUB DUP2 ADD SWAP1 PUSH2 0x132 SWAP2 SWAP1 PUSH2 0xC6C JUMP JUMPDEST PUSH2 0x60A JUMP JUMPDEST STOP JUMPDEST PUSH2 0x153 PUSH1 0x4 DUP1 CALLDATASIZE SUB DUP2 ADD SWAP1 PUSH2 0x14E SWAP2 SWAP1 PUSH2 0xD57 JUMP JUMPDEST PUSH2 0x770 JUMP JUMPDEST STOP JUMPDEST PUSH2 0x16F PUSH1 0x4 DUP1 CALLDATASIZE SUB DUP2 ADD SWAP1 PUSH2 0x16A SWAP2 SWAP1 PUSH2 0xDA4 JUMP JUMPDEST PUSH2 0x7AD JUMP JUMPDEST STOP JUMPDEST PUSH1 0x0 DUP1 PUSH1 0x0 PUSH1 0x60 DUP5 PUSH1 0x0 PUSH20 0xFFFFFFFFFFFFFFFFFFFFFFFFFFFFFFFFFFFFFFFF AND PUSH1 0x1 DUP3 PUSH1 0x40 MLOAD PUSH2 0x1A1 SWAP2 SWAP1 PUSH2 0xE6B JUMP JUMPDEST SWAP1 DUP2 MSTORE PUSH1 0x20 ADD PUSH1 0x40 MLOAD DUP1 SWAP2 SUB SWAP1 KECCAK256 PUSH1 0x0 SWAP1 SLOAD SWAP1 PUSH2 0x100 EXP SWAP1 DIV PUSH20 0xFFFFFFFFFFFFFFFFFFFFFFFFFFFFFFFFFFFFFFFF AND PUSH20 0xFFFFFFFFFFFFFFFFFFFFFFFFFFFFFFFFFFFFFFFF AND SUB PUSH2 0x226 JUMPI PUSH1 0x40 MLOAD PUSH32 0x8C379A000000000000000000000000000000000000000000000000000000000 DUP2 MSTORE PUSH1 0x4 ADD PUSH2 0x21D SWAP1 PUSH2 0xEF4 JUMP JUMPDEST PUSH1 0x40 MLOAD DUP1 SWAP2 SUB SWAP1 REVERT JUMPDEST PUSH1 0x0 DUP1 DUP8 PUSH1 0x40 MLOAD PUSH2 0x237 SWAP2 SWAP1 PUSH2 0xE6B JUMP JUMPDEST SWAP1 DUP2 MSTORE PUSH1 0x20 ADD PUSH1 0x40 MLOAD DUP1 SWAP2 SUB SWAP1 KECCAK256 PUSH1 0x0 SWAP1 SLOAD SWAP1 PUSH2 0x100 EXP SWAP1 DIV PUSH20 0xFFFFFFFFFFFFFFFFFFFFFFFFFFFFFFFFFFFFFFFF AND SWAP1 POP DUP1 PUSH20 0xFFFFFFFFFFFFFFFFFFFFFFFFFFFFFFFFFFFFFFFF AND PUSH4 0xEF040BB1 PUSH1 0x40 MLOAD DUP2 PUSH4 0xFFFFFFFF AND PUSH1 0xE0 SHL DUP2 MSTORE PUSH1 0x4 ADD PUSH1 0x0 PUSH1 0x40 MLOAD DUP1 DUP4 SUB DUP2 DUP7 GAS STATICCALL ISZERO DUP1 ISZERO PUSH2 0x2B3 JUMPI RETURNDATASIZE PUSH1 0x0 DUP1 RETURNDATACOPY RETURNDATASIZE PUSH1 0x0 REVERT JUMPDEST POP POP POP POP PUSH1 0x40 MLOAD RETURNDATASIZE PUSH1 0x0 DUP3 RETURNDATACOPY RETURNDATASIZE PUSH1 0x1F NOT PUSH1 0x1F DUP3 ADD AND DUP3 ADD DUP1 PUSH1 0x40 MSTORE POP DUP2 ADD SWAP1 PUSH2 0x2DC SWAP2 SWAP1 PUSH2 0xFB0 JUMP JUMPDEST DUP1 SWAP7 POP DUP2 SWAP8 POP DUP3 SWAP9 POP DUP4 SWAP10 POP POP POP POP POP POP POP SWAP2 SWAP4 POP SWAP2 SWAP4 JUMP JUMPDEST DUP3 PUSH1 0x0 PUSH20 0xFFFFFFFFFFFFFFFFFFFFFFFFFFFFFFFFFFFFFFFF AND PUSH1 0x1 DUP3 PUSH1 0x40 MLOAD PUSH2 0x31E SWAP2 SWAP1 PUSH2 0xE6B JUMP JUMPDEST SWAP1 DUP2 MSTORE PUSH1 0x20 ADD PUSH1 0x40 MLOAD DUP1 SWAP2 SUB SWAP1 KECCAK256 PUSH1 0x0 SWAP1 SLOAD SWAP1 PUSH2 0x100 EXP SWAP1 DIV PUSH20 0xFFFFFFFFFFFFFFFFFFFFFFFFFFFFFFFFFFFFFFFF AND PUSH20 0xFFFFFFFFFFFFFFFFFFFFFFFFFFFFFFFFFFFFFFFF AND SUB PUSH2 0x3A3 JUMPI PUSH1 0x40 MLOAD PUSH32 0x8C379A000000000000000000000000000000000000000000000000000000000 DUP2 MSTORE PUSH1 0x4 ADD PUSH2 0x39A SWAP1 PUSH2 0xEF4 JUMP JUMPDEST PUSH1 0x40 MLOAD DUP1 SWAP2 SUB SWAP1 REVERT JUMPDEST PUSH1 0x0 DUP1 DUP6 PUSH1 0x40 MLOAD PUSH2 0x3B4 SWAP2 SWAP1 PUSH2 0xE6B JUMP JUMPDEST SWAP1 DUP2 MSTORE PUSH1 0x20 ADD PUSH1 0x40 MLOAD DUP1 SWAP2 SUB SWAP1 KECCAK256 PUSH1 0x0 SWAP1 SLOAD SWAP1 PUSH2 0x100 EXP SWAP1 DIV PUSH20 0xFFFFFFFFFFFFFFFFFFFFFFFFFFFFFFFFFFFFFFFF AND SWAP1 POP DUP1 PUSH20 0xFFFFFFFFFFFFFFFFFFFFFFFFFFFFFFFFFFFFFFFF AND PUSH4 0x9877AFC5 DUP6 DUP6 CALLER PUSH1 0x40 MLOAD DUP5 PUSH4 0xFFFFFFFF AND PUSH1 0xE0 SHL DUP2 MSTORE PUSH1 0x4 ADD PUSH2 0x422 SWAP4 SWAP3 SWAP2 SWAP1 PUSH2 0x1033 JUMP JUMPDEST PUSH1 0x0 PUSH1 0x40 MLOAD DUP1 DUP4 SUB DUP2 PUSH1 0x0 DUP8 DUP1 EXTCODESIZE ISZERO DUP1 ISZERO PUSH2 0x43C JUMPI PUSH1 0x0 DUP1 REVERT JUMPDEST POP GAS CALL ISZERO DUP1 ISZERO PUSH2 0x450 JUMPI RETURNDATASIZE PUSH1 0x0 DUP1 RETURNDATACOPY RETURNDATASIZE PUSH1 0x0 REVERT JUMPDEST POP POP POP POP POP POP POP POP POP JUMP JUMPDEST DUP3 PUSH1 0x0 PUSH20 0xFFFFFFFFFFFFFFFFFFFFFFFFFFFFFFFFFFFFFFFF AND PUSH1 0x1 DUP3 PUSH1 0x40 MLOAD PUSH2 0x484 SWAP2 SWAP1 PUSH2 0xE6B JUMP JUMPDEST SWAP1 DUP2 MSTORE PUSH1 0x20 ADD PUSH1 0x40 MLOAD DUP1 SWAP2 SUB SWAP1 KECCAK256 PUSH1 0x0 SWAP1 SLOAD SWAP1 PUSH2 0x100 EXP SWAP1 DIV PUSH20 0xFFFFFFFFFFFFFFFFFFFFFFFFFFFFFFFFFFFFFFFF AND PUSH20 0xFFFFFFFFFFFFFFFFFFFFFFFFFFFFFFFFFFFFFFFF AND SUB PUSH2 0x509 JUMPI PUSH1 0x40 MLOAD PUSH32 0x8C379A000000000000000000000000000000000000000000000000000000000 DUP2 MSTORE PUSH1 0x4 ADD PUSH2 0x500 SWAP1 PUSH2 0xEF4 JUMP JUMPDEST PUSH1 0x40 MLOAD DUP1 SWAP2 SUB SWAP1 REVERT JUMPDEST PUSH1 0x0 DUP1 DUP6 PUSH1 0x40 MLOAD PUSH2 0x51A SWAP2 SWAP1 PUSH2 0xE6B JUMP JUMPDEST SWAP1 DUP2 MSTORE PUSH1 0x20 ADD PUSH1 0x40 MLOAD DUP1 SWAP2 SUB SWAP1 KECCAK256 PUSH1 0x0 SWAP1 SLOAD SWAP1 PUSH2 0x100 EXP SWAP1 DIV PUSH20 0xFFFFFFFFFFFFFFFFFFFFFFFFFFFFFFFFFFFFFFFF AND SWAP1 POP DUP1 PUSH20 0xFFFFFFFFFFFFFFFFFFFFFFFFFFFFFFFFFFFFFFFF AND PUSH4 0xB68CC799 DUP6 DUP6 CALLER PUSH1 0x40 MLOAD DUP5 PUSH4 0xFFFFFFFF AND PUSH1 0xE0 SHL DUP2 MSTORE PUSH1 0x4 ADD PUSH2 0x588 SWAP4 SWAP3 SWAP2 SWAP1 PUSH2 0x1033 JUMP JUMPDEST PUSH1 0x0 PUSH1 0x40 MLOAD DUP1 DUP4 SUB DUP2 PUSH1 0x0 DUP8 DUP1 EXTCODESIZE ISZERO DUP1 ISZERO PUSH2 0x5A2 JUMPI PUSH1 0x0 DUP1 REVERT JUMPDEST POP GAS CALL ISZERO DUP1 ISZERO PUSH2 0x5B6 JUMPI RETURNDATASIZE PUSH1 0x0 DUP1 RETURNDATACOPY RETURNDATASIZE PUSH1 0x0 REVERT JUMPDEST POP POP POP POP POP POP POP POP POP JUMP JUMPDEST PUSH1 0x1 DUP2 DUP1 MLOAD PUSH1 0x20 DUP2 ADD DUP3 ADD DUP1 MLOAD DUP5 DUP3 MSTORE PUSH1 0x20 DUP4 ADD PUSH1 0x20 DUP6 ADD KECCAK256 DUP2 DUP4 MSTORE DUP1 SWAP6 POP POP POP POP POP POP PUSH1 0x0 SWAP2 POP SLOAD SWAP1 PUSH2 0x100 EXP SWAP1 DIV PUSH20 0xFFFFFFFFFFFFFFFFFFFFFFFFFFFFFFFFFFFFFFFF AND DUP2 JUMP JUMPDEST DUP3 PUSH1 0x0 PUSH20 0xFFFFFFFFFFFFFFFFFFFFFFFFFFFFFFFFFFFFFFFF AND PUSH1 0x1 DUP3 PUSH1 0x40 MLOAD PUSH2 0x633 SWAP2 SWAP1 PUSH2 0xE6B JUMP JUMPDEST SWAP1 DUP2 MSTORE PUSH1 0x20 ADD PUSH1 0x40 MLOAD DUP1 SWAP2 SUB SWAP1 KECCAK256 PUSH1 0x0 SWAP1 SLOAD SWAP1 PUSH2 0x100 EXP SWAP1 DIV PUSH20 0xFFFFFFFFFFFFFFFFFFFFFFFFFFFFFFFFFFFFFFFF AND PUSH20 0xFFFFFFFFFFFFFFFFFFFFFFFFFFFFFFFFFFFFFFFF AND SUB PUSH2 0x6B8 JUMPI PUSH1 0x40 MLOAD PUSH32 0x8C379A000000000000000000000000000000000000000000000000000000000 DUP2 MSTORE PUSH1 0x4 ADD PUSH2 0x6AF SWAP1 PUSH2 0xEF4 JUMP JUMPDEST PUSH1 0x40 MLOAD DUP1 SWAP2 SUB SWAP1 REVERT JUMPDEST PUSH1 0x0 DUP1 DUP6 PUSH1 0x40 MLOAD PUSH2 0x6C9 SWAP2 SWAP1 PUSH2 0xE6B JUMP JUMPDEST SWAP1 DUP2 MSTORE PUSH1 0x20 ADD PUSH1 0x40 MLOAD DUP1 SWAP2 SUB SWAP1 KECCAK256 PUSH1 0x0 SWAP1 SLOAD SWAP1 PUSH2 0x100 EXP SWAP1 DIV PUSH20 0xFFFFFFFFFFFFFFFFFFFFFFFFFFFFFFFFFFFFFFFF AND SWAP1 POP DUP1 PUSH20 0xFFFFFFFFFFFFFFFFFFFFFFFFFFFFFFFFFFFFFFFF AND PUSH4 0xC543691A DUP6 DUP6 CALLER PUSH1 0x40 MLOAD DUP5 PUSH4 0xFFFFFFFF AND PUSH1 0xE0 SHL DUP2 MSTORE PUSH1 0x4 ADD PUSH2 0x737 SWAP4 SWAP3 SWAP2 SWAP1 PUSH2 0x1078 JUMP JUMPDEST PUSH1 0x0 PUSH1 0x40 MLOAD DUP1 DUP4 SUB DUP2 PUSH1 0x0 DUP8 DUP1 EXTCODESIZE ISZERO DUP1 ISZERO PUSH2 0x751 JUMPI PUSH1 0x0 DUP1 REVERT JUMPDEST POP GAS CALL ISZERO DUP1 ISZERO PUSH2 0x765 JUMPI RETURNDATASIZE PUSH1 0x0 DUP1 RETURNDATACOPY RETURNDATASIZE PUSH1 0x0 REVERT JUMPDEST POP POP POP POP POP POP POP POP POP JUMP JUMPDEST PUSH32 0xDB84D7C006C4DE68F9C0BD50B8B81ED31F29EBEEC325C872D36445C6565D757C DUP3 DUP3 PUSH1 0x40 MLOAD PUSH2 0x7A1 SWAP3 SWAP2 SWAP1 PUSH2 0x10E3 JUMP JUMPDEST PUSH1 0x40 MLOAD DUP1 SWAP2 SUB SWAP1 LOG1 POP POP JUMP JUMPDEST PUSH1 0x0 CALLER DUP4 DUP4 PUSH1 0x40 MLOAD PUSH2 0x7BE SWAP1 PUSH2 0x8A9 JUMP JUMPDEST PUSH2 0x7CA SWAP4 SWAP3 SWAP2 SWAP1 PUSH2 0x1107 JUMP JUMPDEST PUSH1 0x40 MLOAD DUP1 SWAP2 SUB SWAP1 PUSH1 0x0 CREATE DUP1 ISZERO DUP1 ISZERO PUSH2 0x7E6 JUMPI RETURNDATASIZE PUSH1 0x0 DUP1 RETURNDATACOPY RETURNDATASIZE PUSH1 0x0 REVERT JUMPDEST POP SWAP1 POP DUP1 PUSH1 0x0 DUP6 PUSH1 0x40 MLOAD PUSH2 0x7FA SWAP2 SWAP1 PUSH2 0xE6B JUMP JUMPDEST SWAP1 DUP2 MSTORE PUSH1 0x20 ADD PUSH1 0x40 MLOAD DUP1 SWAP2 SUB SWAP1 KECCAK256 PUSH1 0x0 PUSH2 0x100 EXP DUP2 SLOAD DUP2 PUSH20 0xFFFFFFFFFFFFFFFFFFFFFFFFFFFFFFFFFFFFFFFF MUL NOT AND SWAP1 DUP4 PUSH20 0xFFFFFFFFFFFFFFFFFFFFFFFFFFFFFFFFFFFFFFFF AND MUL OR SWAP1 SSTORE POP DUP1 PUSH1 0x1 DUP6 PUSH1 0x40 MLOAD PUSH2 0x857 SWAP2 SWAP1 PUSH2 0xE6B JUMP JUMPDEST SWAP1 DUP2 MSTORE PUSH1 0x20 ADD PUSH1 0x40 MLOAD DUP1 SWAP2 SUB SWAP1 KECCAK256 PUSH1 0x0 PUSH2 0x100 EXP DUP2 SLOAD DUP2 PUSH20 0xFFFFFFFFFFFFFFFFFFFFFFFFFFFFFFFFFFFFFFFF MUL NOT AND SWAP1 DUP4 PUSH20 0xFFFFFFFFFFFFFFFFFFFFFFFFFFFFFFFFFFFFFFFF AND MUL OR SWAP1 SSTORE POP POP POP POP POP JUMP JUMPDEST PUSH2 0x1D9F DUP1 PUSH2 0x1146 DUP4 CODECOPY ADD SWAP1 JUMP JUMPDEST PUSH1 0x0 PUSH1 0x40 MLOAD SWAP1 POP SWAP1 JUMP JUMPDEST PUSH1 0x0 DUP1 REVERT JUMPDEST PUSH1 0x0 DUP1 REVERT JUMPDEST PUSH1 0x0 DUP1 REVERT JUMPDEST PUSH1 0x0 DUP1 REVERT JUMPDEST PUSH1 0x0 PUSH1 0x1F NOT PUSH1 0x1F DUP4 ADD AND SWAP1 POP SWAP2 SWAP1 POP JUMP JUMPDEST PUSH32 0x4E487B7100000000000000000000000000000000000000000000000000000000 PUSH1 0x0 MSTORE PUSH1 0x41 PUSH1 0x4 MSTORE PUSH1 0x24 PUSH1 0x0 REVERT JUMPDEST PUSH2 0x91D DUP3 PUSH2 0x8D4 JUMP JUMPDEST DUP2 ADD DUP2 DUP2 LT PUSH8 0xFFFFFFFFFFFFFFFF DUP3 GT OR ISZERO PUSH2 0x93C JUMPI PUSH2 0x93B PUSH2 0x8E5 JUMP JUMPDEST JUMPDEST DUP1 PUSH1 0x40 MSTORE POP POP POP JUMP JUMPDEST PUSH1 0x0 PUSH2 0x94F PUSH2 0x8B6 JUMP JUMPDEST SWAP1 POP PUSH2 0x95B DUP3 DUP3 PUSH2 0x914 JUMP JUMPDEST SWAP2 SWAP1 POP JUMP JUMPDEST PUSH1 0x0 PUSH8 0xFFFFFFFFFFFFFFFF DUP3 GT ISZERO PUSH2 0x97B JUMPI PUSH2 0x97A PUSH2 0x8E5 JUMP JUMPDEST JUMPDEST PUSH2 0x984 DUP3 PUSH2 0x8D4 JUMP JUMPDEST SWAP1 POP PUSH1 0x20 DUP2 ADD SWAP1 POP SWAP2 SWAP1 POP JUMP JUMPDEST DUP3 DUP2 DUP4 CALLDATACOPY PUSH1 0x0 DUP4 DUP4 ADD MSTORE POP POP POP JUMP JUMPDEST PUSH1 0x0 PUSH2 0x9B3 PUSH2 0x9AE DUP5 PUSH2 0x960 JUMP JUMPDEST PUSH2 0x945 JUMP JUMPDEST SWAP1 POP DUP3 DUP2 MSTORE PUSH1 0x20 DUP2 ADD DUP5 DUP5 DUP5 ADD GT ISZERO PUSH2 0x9CF JUMPI PUSH2 0x9CE PUSH2 0x8CF JUMP JUMPDEST JUMPDEST PUSH2 0x9DA DUP5 DUP3 DUP6 PUSH2 0x991 JUMP JUMPDEST POP SWAP4 SWAP3 POP POP POP JUMP JUMPDEST PUSH1 0x0 DUP3 PUSH1 0x1F DUP4 ADD SLT PUSH2 0x9F7 JUMPI PUSH2 0x9F6 PUSH2 0x8CA JUMP JUMPDEST JUMPDEST DUP2 CALLDATALOAD PUSH2 0xA07 DUP5 DUP3 PUSH1 0x20 DUP7 ADD PUSH2 0x9A0 JUMP JUMPDEST SWAP2 POP POP SWAP3 SWAP2 POP POP JUMP JUMPDEST PUSH1 0x0 PUSH1 0x20 DUP3 DUP5 SUB SLT ISZERO PUSH2 0xA26 JUMPI PUSH2 0xA25 PUSH2 0x8C0 JUMP JUMPDEST JUMPDEST PUSH1 0x0 DUP3 ADD CALLDATALOAD PUSH8 0xFFFFFFFFFFFFFFFF DUP2 GT ISZERO PUSH2 0xA44 JUMPI PUSH2 0xA43 PUSH2 0x8C5 JUMP JUMPDEST JUMPDEST PUSH2 0xA50 DUP5 DUP3 DUP6 ADD PUSH2 0x9E2 JUMP JUMPDEST SWAP2 POP POP SWAP3 SWAP2 POP POP JUMP JUMPDEST PUSH1 0x0 DUP2 SWAP1 POP SWAP2 SWAP1 POP JUMP JUMPDEST PUSH2 0xA6C DUP2 PUSH2 0xA59 JUMP JUMPDEST DUP3 MSTORE POP POP JUMP JUMPDEST PUSH1 0x0 DUP2 MLOAD SWAP1 POP SWAP2 SWAP1 POP JUMP JUMPDEST PUSH1 0x0 DUP3 DUP3 MSTORE PUSH1 0x20 DUP3 ADD SWAP1 POP SWAP3 SWAP2 POP POP JUMP JUMPDEST PUSH1 0x0 JUMPDEST DUP4 DUP2 LT ISZERO PUSH2 0xAAC JUMPI DUP1 DUP3 ADD MLOAD DUP2 DUP5 ADD MSTORE PUSH1 0x20 DUP2 ADD SWAP1 POP PUSH2 0xA91 JUMP JUMPDEST PUSH1 0x0 DUP5 DUP5 ADD MSTORE POP POP POP POP JUMP JUMPDEST PUSH1 0x0 PUSH2 0xAC3 DUP3 PUSH2 0xA72 JUMP JUMPDEST PUSH2 0xACD DUP2 DUP6 PUSH2 0xA7D JUMP JUMPDEST SWAP4 POP PUSH2 0xADD DUP2 DUP6 PUSH1 0x20 DUP7 ADD PUSH2 0xA8E JUMP JUMPDEST PUSH2 0xAE6 DUP2 PUSH2 0x8D4 JUMP JUMPDEST DUP5 ADD SWAP2 POP POP SWAP3 SWAP2 POP POP JUMP JUMPDEST PUSH1 0x0 PUSH1 0x80 DUP3 ADD SWAP1 POP PUSH2 0xB06 PUSH1 0x0 DUP4 ADD DUP8 PUSH2 0xA63 JUMP JUMPDEST PUSH2 0xB13 PUSH1 0x20 DUP4 ADD DUP7 PUSH2 0xA63 JUMP JUMPDEST PUSH2 0xB20 PUSH1 0x40 DUP4 ADD DUP6 PUSH2 0xA63 JUMP JUMPDEST DUP2 DUP2 SUB PUSH1 0x60 DUP4 ADD MSTORE PUSH2 0xB32 DUP2 DUP5 PUSH2 0xAB8 JUMP JUMPDEST SWAP1 POP SWAP6 SWAP5 POP POP POP POP POP JUMP JUMPDEST PUSH1 0x0 DUP1 PUSH1 0x0 PUSH1 0x60 DUP5 DUP7 SUB SLT ISZERO PUSH2 0xB56 JUMPI PUSH2 0xB55 PUSH2 0x8C0 JUMP JUMPDEST JUMPDEST PUSH1 0x0 DUP5 ADD CALLDATALOAD PUSH8 0xFFFFFFFFFFFFFFFF DUP2 GT ISZERO PUSH2 0xB74 JUMPI PUSH2 0xB73 PUSH2 0x8C5 JUMP JUMPDEST JUMPDEST PUSH2 0xB80 DUP7 DUP3 DUP8 ADD PUSH2 0x9E2 JUMP JUMPDEST SWAP4 POP POP PUSH1 0x20 DUP5 ADD CALLDATALOAD PUSH8 0xFFFFFFFFFFFFFFFF DUP2 GT ISZERO PUSH2 0xBA1 JUMPI PUSH2 0xBA0 PUSH2 0x8C5 JUMP JUMPDEST JUMPDEST PUSH2 0xBAD DUP7 DUP3 DUP8 ADD PUSH2 0x9E2 JUMP JUMPDEST SWAP3 POP POP PUSH1 0x40 DUP5 ADD CALLDATALOAD PUSH8 0xFFFFFFFFFFFFFFFF DUP2 GT ISZERO PUSH2 0xBCE JUMPI PUSH2 0xBCD PUSH2 0x8C5 JUMP JUMPDEST JUMPDEST PUSH2 0xBDA DUP7 DUP3 DUP8 ADD PUSH2 0x9E2 JUMP JUMPDEST SWAP2 POP POP SWAP3 POP SWAP3 POP SWAP3 JUMP JUMPDEST PUSH1 0x0 PUSH20 0xFFFFFFFFFFFFFFFFFFFFFFFFFFFFFFFFFFFFFFFF DUP3 AND SWAP1 POP SWAP2 SWAP1 POP JUMP JUMPDEST PUSH1 0x0 PUSH2 0xC0F DUP3 PUSH2 0xBE4 JUMP JUMPDEST SWAP1 POP SWAP2 SWAP1 POP JUMP JUMPDEST PUSH2 0xC1F DUP2 PUSH2 0xC04 JUMP JUMPDEST DUP3 MSTORE POP POP JUMP JUMPDEST PUSH1 0x0 PUSH1 0x20 DUP3 ADD SWAP1 POP PUSH2 0xC3A PUSH1 0x0 DUP4 ADD DUP5 PUSH2 0xC16 JUMP JUMPDEST SWAP3 SWAP2 POP POP JUMP JUMPDEST PUSH2 0xC49 DUP2 PUSH2 0xC04 JUMP JUMPDEST DUP2 EQ PUSH2 0xC54 JUMPI PUSH1 0x0 DUP1 REVERT JUMPDEST POP JUMP JUMPDEST PUSH1 0x0 DUP2 CALLDATALOAD SWAP1 POP PUSH2 0xC66 DUP2 PUSH2 0xC40 JUMP JUMPDEST SWAP3 SWAP2 POP POP JUMP JUMPDEST PUSH1 0x0 DUP1 PUSH1 0x0 PUSH1 0x60 DUP5 DUP7 SUB SLT ISZERO PUSH2 0xC85 JUMPI PUSH2 0xC84 PUSH2 0x8C0 JUMP JUMPDEST JUMPDEST PUSH1 0x0 DUP5 ADD CALLDATALOAD PUSH8 0xFFFFFFFFFFFFFFFF DUP2 GT ISZERO PUSH2 0xCA3 JUMPI PUSH2 0xCA2 PUSH2 0x8C5 JUMP JUMPDEST JUMPDEST PUSH2 0xCAF DUP7 DUP3 DUP8 ADD PUSH2 0x9E2 JUMP JUMPDEST SWAP4 POP POP PUSH1 0x20 DUP5 ADD CALLDATALOAD PUSH8 0xFFFFFFFFFFFFFFFF DUP2 GT ISZERO PUSH2 0xCD0 JUMPI PUSH2 0xCCF PUSH2 0x8C5 JUMP JUMPDEST JUMPDEST PUSH2 0xCDC DUP7 DUP3 DUP8 ADD PUSH2 0x9E2 JUMP JUMPDEST SWAP3 POP POP PUSH1 0x40 PUSH2 0xCED DUP7 DUP3 DUP8 ADD PUSH2 0xC57 JUMP JUMPDEST SWAP2 POP POP SWAP3 POP SWAP3 POP SWAP3 JUMP JUMPDEST PUSH1 0x0 DUP1 REVERT JUMPDEST PUSH1 0x0 DUP1 REVERT JUMPDEST PUSH1 0x0 DUP1 DUP4 PUSH1 0x1F DUP5 ADD SLT PUSH2 0xD17 JUMPI PUSH2 0xD16 PUSH2 0x8CA JUMP JUMPDEST JUMPDEST DUP3 CALLDATALOAD SWAP1 POP PUSH8 0xFFFFFFFFFFFFFFFF DUP2 GT ISZERO PUSH2 0xD34 JUMPI PUSH2 0xD33 PUSH2 0xCF7 JUMP JUMPDEST JUMPDEST PUSH1 0x20 DUP4 ADD SWAP2 POP DUP4 PUSH1 0x1 DUP3 MUL DUP4 ADD GT ISZERO PUSH2 0xD50 JUMPI PUSH2 0xD4F PUSH2 0xCFC JUMP JUMPDEST JUMPDEST SWAP3 POP SWAP3 SWAP1 POP JUMP JUMPDEST PUSH1 0x0 DUP1 PUSH1 0x20 DUP4 DUP6 SUB SLT ISZERO PUSH2 0xD6E JUMPI PUSH2 0xD6D PUSH2 0x8C0 JUMP JUMPDEST JUMPDEST PUSH1 0x0 DUP4 ADD CALLDATALOAD PUSH8 0xFFFFFFFFFFFFFFFF DUP2 GT ISZERO PUSH2 0xD8C JUMPI PUSH2 0xD8B PUSH2 0x8C5 JUMP JUMPDEST JUMPDEST PUSH2 0xD98 DUP6 DUP3 DUP7 ADD PUSH2 0xD01 JUMP JUMPDEST SWAP3 POP SWAP3 POP POP SWAP3 POP SWAP3 SWAP1 POP JUMP JUMPDEST PUSH1 0x0 DUP1 PUSH1 0x0 PUSH1 0x60 DUP5 DUP7 SUB SLT ISZERO PUSH2 0xDBD JUMPI PUSH2 0xDBC PUSH2 0x8C0 JUMP JUMPDEST JUMPDEST PUSH1 0x0 DUP5 ADD CALLDATALOAD PUSH8 0xFFFFFFFFFFFFFFFF DUP2 GT ISZERO PUSH2 0xDDB JUMPI PUSH2 0xDDA PUSH2 0x8C5 JUMP JUMPDEST JUMPDEST PUSH2 0xDE7 DUP7 DUP3 DUP8 ADD PUSH2 0x9E2 JUMP JUMPDEST SWAP4 POP POP PUSH1 0x20 PUSH2 0xDF8 DUP7 DUP3 DUP8 ADD PUSH2 0xC57 JUMP JUMPDEST SWAP3 POP POP PUSH1 0x40 DUP5 ADD CALLDATALOAD PUSH8 0xFFFFFFFFFFFFFFFF DUP2 GT ISZERO PUSH2 0xE19 JUMPI PUSH2 0xE18 PUSH2 0x8C5 JUMP JUMPDEST JUMPDEST PUSH2 0xE25 DUP7 DUP3 DUP8 ADD PUSH2 0x9E2 JUMP JUMPDEST SWAP2 POP POP SWAP3 POP SWAP3 POP SWAP3 JUMP JUMPDEST PUSH1 0x0 DUP2 SWAP1 POP SWAP3 SWAP2 POP POP JUMP JUMPDEST PUSH1 0x0 PUSH2 0xE45 DUP3 PUSH2 0xA72 JUMP JUMPDEST PUSH2 0xE4F DUP2 DUP6 PUSH2 0xE2F JUMP JUMPDEST SWAP4 POP PUSH2 0xE5F DUP2 DUP6 PUSH1 0x20 DUP7 ADD PUSH2 0xA8E JUMP JUMPDEST DUP1 DUP5 ADD SWAP2 POP POP SWAP3 SWAP2 POP POP JUMP JUMPDEST PUSH1 0x0 PUSH2 0xE77 DUP3 DUP5 PUSH2 0xE3A JUMP JUMPDEST SWAP2 POP DUP2 SWAP1 POP SWAP3 SWAP2 POP POP JUMP JUMPDEST PUSH32 0x4E6F20666C6F7720697320726567697374657265642077697468207468652070 PUSH1 0x0 DUP3 ADD MSTORE PUSH32 0x726F766964656420666C6F772049440000000000000000000000000000000000 PUSH1 0x20 DUP3 ADD MSTORE POP JUMP JUMPDEST PUSH1 0x0 PUSH2 0xEDE PUSH1 0x2F DUP4 PUSH2 0xA7D JUMP JUMPDEST SWAP2 POP PUSH2 0xEE9 DUP3 PUSH2 0xE82 JUMP JUMPDEST PUSH1 0x40 DUP3 ADD SWAP1 POP SWAP2 SWAP1 POP JUMP JUMPDEST PUSH1 0x0 PUSH1 0x20 DUP3 ADD SWAP1 POP DUP2 DUP2 SUB PUSH1 0x0 DUP4 ADD MSTORE PUSH2 0xF0D DUP2 PUSH2 0xED1 JUMP JUMPDEST SWAP1 POP SWAP2 SWAP1 POP JUMP JUMPDEST PUSH2 0xF1D DUP2 PUSH2 0xA59 JUMP JUMPDEST DUP2 EQ PUSH2 0xF28 JUMPI PUSH1 0x0 DUP1 REVERT JUMPDEST POP JUMP JUMPDEST PUSH1 0x0 DUP2 MLOAD SWAP1 POP PUSH2 0xF3A DUP2 PUSH2 0xF14 JUMP JUMPDEST SWAP3 SWAP2 POP POP JUMP JUMPDEST PUSH1 0x0 PUSH2 0xF53 PUSH2 0xF4E DUP5 PUSH2 0x960 JUMP JUMPDEST PUSH2 0x945 JUMP JUMPDEST SWAP1 POP DUP3 DUP2 MSTORE PUSH1 0x20 DUP2 ADD DUP5 DUP5 DUP5 ADD GT ISZERO PUSH2 0xF6F JUMPI PUSH2 0xF6E PUSH2 0x8CF JUMP JUMPDEST JUMPDEST PUSH2 0xF7A DUP5 DUP3 DUP6 PUSH2 0xA8E JUMP JUMPDEST POP SWAP4 SWAP3 POP POP POP JUMP JUMPDEST PUSH1 0x0 DUP3 PUSH1 0x1F DUP4 ADD SLT PUSH2 0xF97 JUMPI PUSH2 0xF96 PUSH2 0x8CA JUMP JUMPDEST JUMPDEST DUP2 MLOAD PUSH2 0xFA7 DUP5 DUP3 PUSH1 0x20 DUP7 ADD PUSH2 0xF40 JUMP JUMPDEST SWAP2 POP POP SWAP3 SWAP2 POP POP JUMP JUMPDEST PUSH1 0x0 DUP1 PUSH1 0x0 DUP1 PUSH1 0x80 DUP6 DUP8 SUB SLT ISZERO PUSH2 0xFCA JUMPI PUSH2 0xFC9 PUSH2 0x8C0 JUMP JUMPDEST JUMPDEST PUSH1 0x0 PUSH2 0xFD8 DUP8 DUP3 DUP9 ADD PUSH2 0xF2B JUMP JUMPDEST SWAP5 POP POP PUSH1 0x20 PUSH2 0xFE9 DUP8 DUP3 DUP9 ADD PUSH2 0xF2B JUMP JUMPDEST SWAP4 POP POP PUSH1 0x40 PUSH2 0xFFA DUP8 DUP3 DUP9 ADD PUSH2 0xF2B JUMP JUMPDEST SWAP3 POP POP PUSH1 0x60 DUP6 ADD MLOAD PUSH8 0xFFFFFFFFFFFFFFFF DUP2 GT ISZERO PUSH2 0x101B JUMPI PUSH2 0x101A PUSH2 0x8C5 JUMP JUMPDEST JUMPDEST PUSH2 0x1027 DUP8 DUP3 DUP9 ADD PUSH2 0xF82 JUMP JUMPDEST SWAP2 POP POP SWAP3 SWAP6 SWAP2 SWAP5 POP SWAP3 POP JUMP JUMPDEST PUSH1 0x0 PUSH1 0x60 DUP3 ADD SWAP1 POP DUP2 DUP2 SUB PUSH1 0x0 DUP4 ADD MSTORE PUSH2 0x104D DUP2 DUP7 PUSH2 0xAB8 JUMP JUMPDEST SWAP1 POP DUP2 DUP2 SUB PUSH1 0x20 DUP4 ADD MSTORE PUSH2 0x1061 DUP2 DUP6 PUSH2 0xAB8 JUMP JUMPDEST SWAP1 POP PUSH2 0x1070 PUSH1 0x40 DUP4 ADD DUP5 PUSH2 0xC16 JUMP JUMPDEST SWAP5 SWAP4 POP POP POP POP JUMP JUMPDEST PUSH1 0x0 PUSH1 0x60 DUP3 ADD SWAP1 POP DUP2 DUP2 SUB PUSH1 0x0 DUP4 ADD MSTORE PUSH2 0x1092 DUP2 DUP7 PUSH2 0xAB8 JUMP JUMPDEST SWAP1 POP PUSH2 0x10A1 PUSH1 0x20 DUP4 ADD DUP6 PUSH2 0xC16 JUMP JUMPDEST PUSH2 0x10AE PUSH1 0x40 DUP4 ADD DUP5 PUSH2 0xC16 JUMP JUMPDEST SWAP5 SWAP4 POP POP POP POP JUMP JUMPDEST PUSH1 0x0 PUSH2 0x10C2 DUP4 DUP6 PUSH2 0xA7D JUMP JUMPDEST SWAP4 POP PUSH2 0x10CF DUP4 DUP6 DUP5 PUSH2 0x991 JUMP JUMPDEST PUSH2 0x10D8 DUP4 PUSH2 0x8D4 JUMP JUMPDEST DUP5 ADD SWAP1 POP SWAP4 SWAP3 POP POP POP JUMP JUMPDEST PUSH1 0x0 PUSH1 0x20 DUP3 ADD SWAP1 POP DUP2 DUP2 SUB PUSH1 0x0 DUP4 ADD MSTORE PUSH2 0x10FE DUP2 DUP5 DUP7 PUSH2 0x10B6 JUMP JUMPDEST SWAP1 POP SWAP4 SWAP3 POP POP POP JUMP JUMPDEST PUSH1 0x0 PUSH1 0x60 DUP3 ADD SWAP1 POP PUSH2 0x111C PUSH1 0x0 DUP4 ADD DUP7 PUSH2 0xC16 JUMP JUMPDEST PUSH2 0x1129 PUSH1 0x20 DUP4 ADD DUP6 PUSH2 0xC16 JUMP JUMPDEST DUP2 DUP2 SUB PUSH1 0x40 DUP4 ADD MSTORE PUSH2 0x113B DUP2 DUP5 PUSH2 0xAB8 JUMP JUMPDEST SWAP1 POP SWAP5 SWAP4 POP POP POP POP JUMP INVALID PUSH1 0x80 PUSH1 0x40 MSTORE CALLVALUE DUP1 ISZERO PUSH2 0x10 JUMPI PUSH1 0x0 DUP1 REVERT JUMPDEST POP PUSH1 0x40 MLOAD PUSH2 0x1D9F CODESIZE SUB DUP1 PUSH2 0x1D9F DUP4 CODECOPY DUP2 DUP2 ADD PUSH1 0x40 MSTORE DUP2 ADD SWAP1 PUSH2 0x32 SWAP2 SWAP1 PUSH2 0x345 JUMP JUMPDEST DUP3 PUSH1 0x0 DUP1 PUSH2 0x100 EXP DUP2 SLOAD DUP2 PUSH20 0xFFFFFFFFFFFFFFFFFFFFFFFFFFFFFFFFFFFFFFFF MUL NOT AND SWAP1 DUP4 PUSH20 0xFFFFFFFFFFFFFFFFFFFFFFFFFFFFFFFFFFFFFFFF AND MUL OR SWAP1 SSTORE POP TIMESTAMP PUSH1 0x1 DUP2 SWAP1 SSTORE POP PUSH1 0x0 PUSH1 0x3 PUSH1 0x0 ADD DUP2 SWAP1 SSTORE POP PUSH1 0x0 PUSH1 0x3 PUSH1 0x2 ADD DUP2 SWAP1 SSTORE POP PUSH1 0x0 PUSH1 0x3 PUSH1 0x1 ADD DUP2 SWAP1 SSTORE POP DUP2 PUSH1 0x3 PUSH1 0x4 ADD PUSH1 0x0 PUSH2 0x100 EXP DUP2 SLOAD DUP2 PUSH20 0xFFFFFFFFFFFFFFFFFFFFFFFFFFFFFFFFFFFFFFFF MUL NOT AND SWAP1 DUP4 PUSH20 0xFFFFFFFFFFFFFFFFFFFFFFFFFFFFFFFFFFFFFFFF AND MUL OR SWAP1 SSTORE POP DUP1 PUSH1 0x3 DUP1 ADD SWAP1 DUP2 PUSH2 0xEF SWAP2 SWAP1 PUSH2 0x5D5 JUMP JUMPDEST POP PUSH1 0x0 DUP1 SLOAD SWAP1 PUSH2 0x100 EXP SWAP1 DIV PUSH20 0xFFFFFFFFFFFFFFFFFFFFFFFFFFFFFFFFFFFFFFFF AND PUSH20 0xFFFFFFFFFFFFFFFFFFFFFFFFFFFFFFFFFFFFFFFF AND PUSH1 0x0 PUSH20 0xFFFFFFFFFFFFFFFFFFFFFFFFFFFFFFFFFFFFFFFF AND PUSH31 0x7582B62407F53D49CFC72E7DDAB574C06EF3B8ACED104B54B7BED4681EE54A PUSH1 0x40 MLOAD PUSH1 0x40 MLOAD DUP1 SWAP2 SUB SWAP1 LOG3 POP POP POP PUSH2 0x6A7 JUMP JUMPDEST PUSH1 0x0 PUSH1 0x40 MLOAD SWAP1 POP SWAP1 JUMP JUMPDEST PUSH1 0x0 DUP1 REVERT JUMPDEST PUSH1 0x0 DUP1 REVERT JUMPDEST PUSH1 0x0 PUSH20 0xFFFFFFFFFFFFFFFFFFFFFFFFFFFFFFFFFFFFFFFF DUP3 AND SWAP1 POP SWAP2 SWAP1 POP JUMP JUMPDEST PUSH1 0x0 PUSH2 0x1B1 DUP3 PUSH2 0x186 JUMP JUMPDEST SWAP1 POP SWAP2 SWAP1 POP JUMP JUMPDEST PUSH2 0x1C1 DUP2 PUSH2 0x1A6 JUMP JUMPDEST DUP2 EQ PUSH2 0x1CC JUMPI PUSH1 0x0 DUP1 REVERT JUMPDEST POP JUMP JUMPDEST PUSH1 0x0 DUP2 MLOAD SWAP1 POP PUSH2 0x1DE DUP2 PUSH2 0x1B8 JUMP JUMPDEST SWAP3 SWAP2 POP POP JUMP JUMPDEST PUSH1 0x0 DUP1 REVERT JUMPDEST PUSH1 0x0 DUP1 REVERT JUMPDEST PUSH1 0x0 PUSH1 0x1F NOT PUSH1 0x1F DUP4 ADD AND SWAP1 POP SWAP2 SWAP1 POP JUMP JUMPDEST PUSH32 0x4E487B7100000000000000000000000000000000000000000000000000000000 PUSH1 0x0 MSTORE PUSH1 0x41 PUSH1 0x4 MSTORE PUSH1 0x24 PUSH1 0x0 REVERT JUMPDEST PUSH2 0x237 DUP3 PUSH2 0x1EE JUMP JUMPDEST DUP2 ADD DUP2 DUP2 LT PUSH8 0xFFFFFFFFFFFFFFFF DUP3 GT OR ISZERO PUSH2 0x256 JUMPI PUSH2 0x255 PUSH2 0x1FF JUMP JUMPDEST JUMPDEST DUP1 PUSH1 0x40 MSTORE POP POP POP JUMP JUMPDEST PUSH1 0x0 PUSH2 0x269 PUSH2 0x172 JUMP JUMPDEST SWAP1 POP PUSH2 0x275 DUP3 DUP3 PUSH2 0x22E JUMP JUMPDEST SWAP2 SWAP1 POP JUMP JUMPDEST PUSH1 0x0 PUSH8 0xFFFFFFFFFFFFFFFF DUP3 GT ISZERO PUSH2 0x295 JUMPI PUSH2 0x294 PUSH2 0x1FF JUMP JUMPDEST JUMPDEST PUSH2 0x29E DUP3 PUSH2 0x1EE JUMP JUMPDEST SWAP1 POP PUSH1 0x20 DUP2 ADD SWAP1 POP SWAP2 SWAP1 POP JUMP JUMPDEST PUSH1 0x0 JUMPDEST DUP4 DUP2 LT ISZERO PUSH2 0x2C9 JUMPI DUP1 DUP3 ADD MLOAD DUP2 DUP5 ADD MSTORE PUSH1 0x20 DUP2 ADD SWAP1 POP PUSH2 0x2AE JUMP JUMPDEST PUSH1 0x0 DUP5 DUP5 ADD MSTORE POP POP POP POP JUMP JUMPDEST PUSH1 0x0 PUSH2 0x2E8 PUSH2 0x2E3 DUP5 PUSH2 0x27A JUMP JUMPDEST PUSH2 0x25F JUMP JUMPDEST SWAP1 POP DUP3 DUP2 MSTORE PUSH1 0x20 DUP2 ADD DUP5 DUP5 DUP5 ADD GT ISZERO PUSH2 0x304 JUMPI PUSH2 0x303 PUSH2 0x1E9 JUMP JUMPDEST JUMPDEST PUSH2 0x30F DUP5 DUP3 DUP6 PUSH2 0x2AB JUMP JUMPDEST POP SWAP4 SWAP3 POP POP POP JUMP JUMPDEST PUSH1 0x0 DUP3 PUSH1 0x1F DUP4 ADD SLT PUSH2 0x32C JUMPI PUSH2 0x32B PUSH2 0x1E4 JUMP JUMPDEST JUMPDEST DUP2 MLOAD PUSH2 0x33C DUP5 DUP3 PUSH1 0x20 DUP7 ADD PUSH2 0x2D5 JUMP JUMPDEST SWAP2 POP POP SWAP3 SWAP2 POP POP JUMP JUMPDEST PUSH1 0x0 DUP1 PUSH1 0x0 PUSH1 0x60 DUP5 DUP7 SUB SLT ISZERO PUSH2 0x35E JUMPI PUSH2 0x35D PUSH2 0x17C JUMP JUMPDEST JUMPDEST PUSH1 0x0 PUSH2 0x36C DUP7 DUP3 DUP8 ADD PUSH2 0x1CF JUMP JUMPDEST SWAP4 POP POP PUSH1 0x20 PUSH2 0x37D DUP7 DUP3 DUP8 ADD PUSH2 0x1CF JUMP JUMPDEST SWAP3 POP POP PUSH1 0x40 DUP5 ADD MLOAD PUSH8 0xFFFFFFFFFFFFFFFF DUP2 GT ISZERO PUSH2 0x39E JUMPI PUSH2 0x39D PUSH2 0x181 JUMP JUMPDEST JUMPDEST PUSH2 0x3AA DUP7 DUP3 DUP8 ADD PUSH2 0x317 JUMP JUMPDEST SWAP2 POP POP SWAP3 POP SWAP3 POP SWAP3 JUMP JUMPDEST PUSH1 0x0 DUP2 MLOAD SWAP1 POP SWAP2 SWAP1 POP JUMP JUMPDEST PUSH32 0x4E487B7100000000000000000000000000000000000000000000000000000000 PUSH1 0x0 MSTORE PUSH1 0x22 PUSH1 0x4 MSTORE PUSH1 0x24 PUSH1 0x0 REVERT JUMPDEST PUSH1 0x0 PUSH1 0x2 DUP3 DIV SWAP1 POP PUSH1 0x1 DUP3 AND DUP1 PUSH2 0x406 JUMPI PUSH1 0x7F DUP3 AND SWAP2 POP JUMPDEST PUSH1 0x20 DUP3 LT DUP2 SUB PUSH2 0x419 JUMPI PUSH2 0x418 PUSH2 0x3BF JUMP JUMPDEST JUMPDEST POP SWAP2 SWAP1 POP JUMP JUMPDEST PUSH1 0x0 DUP2 SWAP1 POP DUP2 PUSH1 0x0 MSTORE PUSH1 0x20 PUSH1 0x0 KECCAK256 SWAP1 POP SWAP2 SWAP1 POP JUMP JUMPDEST PUSH1 0x0 PUSH1 0x20 PUSH1 0x1F DUP4 ADD DIV SWAP1 POP SWAP2 SWAP1 POP JUMP JUMPDEST PUSH1 0x0 DUP3 DUP3 SHL SWAP1 POP SWAP3 SWAP2 POP POP JUMP JUMPDEST PUSH1 0x0 PUSH1 0x8 DUP4 MUL PUSH2 0x481 PUSH32 0xFFFFFFFFFFFFFFFFFFFFFFFFFFFFFFFFFFFFFFFFFFFFFFFFFFFFFFFFFFFFFFFF DUP3 PUSH2 0x444 JUMP JUMPDEST PUSH2 0x48B DUP7 DUP4 PUSH2 0x444 JUMP JUMPDEST SWAP6 POP DUP1 NOT DUP5 AND SWAP4 POP DUP1 DUP7 AND DUP5 OR SWAP3 POP POP POP SWAP4 SWAP3 POP POP POP JUMP JUMPDEST PUSH1 0x0 DUP2 SWAP1 POP SWAP2 SWAP1 POP JUMP JUMPDEST PUSH1 0x0 DUP2 SWAP1 POP SWAP2 SWAP1 POP JUMP JUMPDEST PUSH1 0x0 PUSH2 0x4D2 PUSH2 0x4CD PUSH2 0x4C8 DUP5 PUSH2 0x4A3 JUMP JUMPDEST PUSH2 0x4AD JUMP JUMPDEST PUSH2 0x4A3 JUMP JUMPDEST SWAP1 POP SWAP2 SWAP1 POP JUMP JUMPDEST PUSH1 0x0 DUP2 SWAP1 POP SWAP2 SWAP1 POP JUMP JUMPDEST PUSH2 0x4EC DUP4 PUSH2 0x4B7 JUMP JUMPDEST PUSH2 0x500 PUSH2 0x4F8 DUP3 PUSH2 0x4D9 JUMP JUMPDEST DUP5 DUP5 SLOAD PUSH2 0x451 JUMP JUMPDEST DUP3 SSTORE POP POP POP POP JUMP JUMPDEST PUSH1 0x0 SWAP1 JUMP JUMPDEST PUSH2 0x515 PUSH2 0x508 JUMP JUMPDEST PUSH2 0x520 DUP2 DUP5 DUP5 PUSH2 0x4E3 JUMP JUMPDEST POP POP POP JUMP JUMPDEST JUMPDEST DUP2 DUP2 LT ISZERO PUSH2 0x544 JUMPI PUSH2 0x539 PUSH1 0x0 DUP3 PUSH2 0x50D JUMP JUMPDEST PUSH1 0x1 DUP2 ADD SWAP1 POP PUSH2 0x526 JUMP JUMPDEST POP POP JUMP JUMPDEST PUSH1 0x1F DUP3 GT ISZERO PUSH2 0x589 JUMPI PUSH2 0x55A DUP2 PUSH2 0x41F JUMP JUMPDEST PUSH2 0x563 DUP5 PUSH2 0x434 JUMP JUMPDEST DUP2 ADD PUSH1 0x20 DUP6 LT ISZERO PUSH2 0x572 JUMPI DUP2 SWAP1 POP JUMPDEST PUSH2 0x586 PUSH2 0x57E DUP6 PUSH2 0x434 JUMP JUMPDEST DUP4 ADD DUP3 PUSH2 0x525 JUMP JUMPDEST POP POP JUMPDEST POP POP POP JUMP JUMPDEST PUSH1 0x0 DUP3 DUP3 SHR SWAP1 POP SWAP3 SWAP2 POP POP JUMP JUMPDEST PUSH1 0x0 PUSH2 0x5AC PUSH1 0x0 NOT DUP5 PUSH1 0x8 MUL PUSH2 0x58E JUMP JUMPDEST NOT DUP1 DUP4 AND SWAP2 POP POP SWAP3 SWAP2 POP POP JUMP JUMPDEST PUSH1 0x0 PUSH2 0x5C5 DUP4 DUP4 PUSH2 0x59B JUMP JUMPDEST SWAP2 POP DUP3 PUSH1 0x2 MUL DUP3 OR SWAP1 POP SWAP3 SWAP2 POP POP JUMP JUMPDEST PUSH2 0x5DE DUP3 PUSH2 0x3B4 JUMP JUMPDEST PUSH8 0xFFFFFFFFFFFFFFFF DUP2 GT ISZERO PUSH2 0x5F7 JUMPI PUSH2 0x5F6 PUSH2 0x1FF JUMP JUMPDEST JUMPDEST PUSH2 0x601 DUP3 SLOAD PUSH2 0x3EE JUMP JUMPDEST PUSH2 0x60C DUP3 DUP3 DUP6 PUSH2 0x548 JUMP JUMPDEST PUSH1 0x0 PUSH1 0x20 SWAP1 POP PUSH1 0x1F DUP4 GT PUSH1 0x1 DUP2 EQ PUSH2 0x63F JUMPI PUSH1 0x0 DUP5 ISZERO PUSH2 0x62D JUMPI DUP3 DUP8 ADD MLOAD SWAP1 POP JUMPDEST PUSH2 0x637 DUP6 DUP3 PUSH2 0x5B9 JUMP JUMPDEST DUP7 SSTORE POP PUSH2 0x69F JUMP JUMPDEST PUSH1 0x1F NOT DUP5 AND PUSH2 0x64D DUP7 PUSH2 0x41F JUMP JUMPDEST PUSH1 0x0 JUMPDEST DUP3 DUP2 LT ISZERO PUSH2 0x675 JUMPI DUP5 DUP10 ADD MLOAD DUP3 SSTORE PUSH1 0x1 DUP3 ADD SWAP2 POP PUSH1 0x20 DUP6 ADD SWAP5 POP PUSH1 0x20 DUP2 ADD SWAP1 POP PUSH2 0x650 JUMP JUMPDEST DUP7 DUP4 LT ISZERO PUSH2 0x692 JUMPI DUP5 DUP10 ADD MLOAD PUSH2 0x68E PUSH1 0x1F DUP10 AND DUP3 PUSH2 0x59B JUMP JUMPDEST DUP4 SSTORE POP JUMPDEST PUSH1 0x1 PUSH1 0x2 DUP9 MUL ADD DUP9 SSTORE POP POP POP JUMPDEST POP POP POP POP POP POP JUMP JUMPDEST PUSH2 0x16E9 DUP1 PUSH2 0x6B6 PUSH1 0x0 CODECOPY PUSH1 0x0 RETURN INVALID PUSH1 0x80 PUSH1 0x40 MSTORE CALLVALUE DUP1 ISZERO PUSH2 0x10 JUMPI PUSH1 0x0 DUP1 REVERT JUMPDEST POP PUSH1 0x4 CALLDATASIZE LT PUSH2 0x93 JUMPI PUSH1 0x0 CALLDATALOAD PUSH1 0xE0 SHR DUP1 PUSH4 0xB68CC799 GT PUSH2 0x66 JUMPI DUP1 PUSH4 0xB68CC799 EQ PUSH2 0x123 JUMPI DUP1 PUSH4 0xBB56D412 EQ PUSH2 0x13F JUMPI DUP1 PUSH4 0xBC5B5FE9 EQ PUSH2 0x16F JUMPI DUP1 PUSH4 0xC543691A EQ PUSH2 0x192 JUMPI DUP1 PUSH4 0xEF040BB1 EQ PUSH2 0x1AE JUMPI PUSH2 0x93 JUMP JUMPDEST DUP1 PUSH4 0x2C039A4A EQ PUSH2 0x98 JUMPI DUP1 PUSH4 0x3018205F EQ PUSH2 0xCD JUMPI DUP1 PUSH4 0x3E11E378 EQ PUSH2 0xEB JUMPI DUP1 PUSH4 0x9877AFC5 EQ PUSH2 0x107 JUMPI JUMPDEST PUSH1 0x0 DUP1 REVERT JUMPDEST PUSH2 0xB2 PUSH1 0x4 DUP1 CALLDATASIZE SUB DUP2 ADD SWAP1 PUSH2 0xAD SWAP2 SWAP1 PUSH2 0xC67 JUMP JUMPDEST PUSH2 0x1CF JUMP JUMPDEST PUSH1 0x40 MLOAD PUSH2 0xC4 SWAP7 SWAP6 SWAP5 SWAP4 SWAP3 SWAP2 SWAP1 PUSH2 0xD74 JUMP JUMPDEST PUSH1 0x40 MLOAD DUP1 SWAP2 SUB SWAP1 RETURN JUMPDEST PUSH2 0xD5 PUSH2 0x2C3 JUMP JUMPDEST PUSH1 0x40 MLOAD PUSH2 0xE2 SWAP2 SWAP1 PUSH2 0xDDC JUMP JUMPDEST PUSH1 0x40 MLOAD DUP1 SWAP2 SUB SWAP1 RETURN JUMPDEST PUSH2 0x105 PUSH1 0x4 DUP1 CALLDATASIZE SUB DUP2 ADD SWAP1 PUSH2 0x100 SWAP2 SWAP1 PUSH2 0xE23 JUMP JUMPDEST PUSH2 0x2EC JUMP JUMPDEST STOP JUMPDEST PUSH2 0x121 PUSH1 0x4 DUP1 CALLDATASIZE SUB DUP2 ADD SWAP1 PUSH2 0x11C SWAP2 SWAP1 PUSH2 0xF98 JUMP JUMPDEST PUSH2 0x439 JUMP JUMPDEST STOP JUMPDEST PUSH2 0x13D PUSH1 0x4 DUP1 CALLDATASIZE SUB DUP2 ADD SWAP1 PUSH2 0x138 SWAP2 SWAP1 PUSH2 0xF98 JUMP JUMPDEST PUSH2 0x6DB JUMP JUMPDEST STOP JUMPDEST PUSH2 0x159 PUSH1 0x4 DUP1 CALLDATASIZE SUB DUP2 ADD SWAP1 PUSH2 0x154 SWAP2 SWAP1 PUSH2 0x1023 JUMP JUMPDEST PUSH2 0x79C JUMP JUMPDEST PUSH1 0x40 MLOAD PUSH2 0x166 SWAP2 SWAP1 PUSH2 0x106C JUMP JUMPDEST PUSH1 0x40 MLOAD DUP1 SWAP2 SUB SWAP1 RETURN JUMPDEST PUSH2 0x177 PUSH2 0x852 JUMP JUMPDEST PUSH1 0x40 MLOAD PUSH2 0x189 SWAP7 SWAP6 SWAP5 SWAP4 SWAP3 SWAP2 SWAP1 PUSH2 0xD74 JUMP JUMPDEST PUSH1 0x40 MLOAD DUP1 SWAP2 SUB SWAP1 RETURN JUMPDEST PUSH2 0x1AC PUSH1 0x4 DUP1 CALLDATASIZE SUB DUP2 ADD SWAP1 PUSH2 0x1A7 SWAP2 SWAP1 PUSH2 0x108E JUMP JUMPDEST PUSH2 0x924 JUMP JUMPDEST STOP JUMPDEST PUSH2 0x1B6 PUSH2 0xB0D JUMP JUMPDEST PUSH1 0x40 MLOAD PUSH2 0x1C6 SWAP5 SWAP4 SWAP3 SWAP2 SWAP1 PUSH2 0x10FD JUMP JUMPDEST PUSH1 0x40 MLOAD DUP1 SWAP2 SUB SWAP1 RETURN JUMPDEST PUSH1 0x9 DUP2 DUP2 SLOAD DUP2 LT PUSH2 0x1DF JUMPI PUSH1 0x0 DUP1 REVERT JUMPDEST SWAP1 PUSH1 0x0 MSTORE PUSH1 0x20 PUSH1 0x0 KECCAK256 SWAP1 PUSH1 0x6 MUL ADD PUSH1 0x0 SWAP2 POP SWAP1 POP DUP1 PUSH1 0x0 ADD SLOAD SWAP1 DUP1 PUSH1 0x1 ADD SLOAD SWAP1 DUP1 PUSH1 0x2 ADD SLOAD SWAP1 DUP1 PUSH1 0x3 ADD DUP1 SLOAD PUSH2 0x214 SWAP1 PUSH2 0x1178 JUMP JUMPDEST DUP1 PUSH1 0x1F ADD PUSH1 0x20 DUP1 SWAP2 DIV MUL PUSH1 0x20 ADD PUSH1 0x40 MLOAD SWAP1 DUP2 ADD PUSH1 0x40 MSTORE DUP1 SWAP3 SWAP2 SWAP1 DUP2 DUP2 MSTORE PUSH1 0x20 ADD DUP3 DUP1 SLOAD PUSH2 0x240 SWAP1 PUSH2 0x1178 JUMP JUMPDEST DUP1 ISZERO PUSH2 0x28D JUMPI DUP1 PUSH1 0x1F LT PUSH2 0x262 JUMPI PUSH2 0x100 DUP1 DUP4 SLOAD DIV MUL DUP4 MSTORE SWAP2 PUSH1 0x20 ADD SWAP2 PUSH2 0x28D JUMP JUMPDEST DUP3 ADD SWAP2 SWAP1 PUSH1 0x0 MSTORE PUSH1 0x20 PUSH1 0x0 KECCAK256 SWAP1 JUMPDEST DUP2 SLOAD DUP2 MSTORE SWAP1 PUSH1 0x1 ADD SWAP1 PUSH1 0x20 ADD DUP1 DUP4 GT PUSH2 0x270 JUMPI DUP3 SWAP1 SUB PUSH1 0x1F AND DUP3 ADD SWAP2 JUMPDEST POP POP POP POP POP SWAP1 DUP1 PUSH1 0x4 ADD PUSH1 0x0 SWAP1 SLOAD SWAP1 PUSH2 0x100 EXP SWAP1 DIV PUSH20 0xFFFFFFFFFFFFFFFFFFFFFFFFFFFFFFFFFFFFFFFF AND SWAP1 DUP1 PUSH1 0x5 ADD SLOAD SWAP1 POP DUP7 JUMP JUMPDEST PUSH1 0x0 DUP1 PUSH1 0x0 SWAP1 SLOAD SWAP1 PUSH2 0x100 EXP SWAP1 DIV PUSH20 0xFFFFFFFFFFFFFFFFFFFFFFFFFFFFFFFFFFFFFFFF AND SWAP1 POP SWAP1 JUMP JUMPDEST DUP1 PUSH1 0x0 DUP1 SLOAD SWAP1 PUSH2 0x100 EXP SWAP1 DIV PUSH20 0xFFFFFFFFFFFFFFFFFFFFFFFFFFFFFFFFFFFFFFFF AND PUSH20 0xFFFFFFFFFFFFFFFFFFFFFFFFFFFFFFFFFFFFFFFF AND DUP2 PUSH20 0xFFFFFFFFFFFFFFFFFFFFFFFFFFFFFFFFFFFFFFFF AND EQ PUSH2 0x37B JUMPI PUSH1 0x40 MLOAD PUSH32 0x8C379A000000000000000000000000000000000000000000000000000000000 DUP2 MSTORE PUSH1 0x4 ADD PUSH2 0x372 SWAP1 PUSH2 0x11F5 JUMP JUMPDEST PUSH1 0x40 MLOAD DUP1 SWAP2 SUB SWAP1 REVERT JUMPDEST DUP3 PUSH20 0xFFFFFFFFFFFFFFFFFFFFFFFFFFFFFFFFFFFFFFFF AND PUSH1 0x0 DUP1 SLOAD SWAP1 PUSH2 0x100 EXP SWAP1 DIV PUSH20 0xFFFFFFFFFFFFFFFFFFFFFFFFFFFFFFFFFFFFFFFF AND PUSH20 0xFFFFFFFFFFFFFFFFFFFFFFFFFFFFFFFFFFFFFFFF AND PUSH31 0x7582B62407F53D49CFC72E7DDAB574C06EF3B8ACED104B54B7BED4681EE54A PUSH1 0x40 MLOAD PUSH1 0x40 MLOAD DUP1 SWAP2 SUB SWAP1 LOG3 DUP3 PUSH1 0x0 DUP1 PUSH2 0x100 EXP DUP2 SLOAD DUP2 PUSH20 0xFFFFFFFFFFFFFFFFFFFFFFFFFFFFFFFFFFFFFFFF MUL NOT AND SWAP1 DUP4 PUSH20 0xFFFFFFFFFFFFFFFFFFFFFFFFFFFFFFFFFFFFFFFF AND MUL OR SWAP1 SSTORE POP POP POP POP JUMP JUMPDEST DUP1 PUSH1 0x3 PUSH1 0x4 ADD PUSH1 0x0 SWAP1 SLOAD SWAP1 PUSH2 0x100 EXP SWAP1 DIV PUSH20 0xFFFFFFFFFFFFFFFFFFFFFFFFFFFFFFFFFFFFFFFF AND PUSH20 0xFFFFFFFFFFFFFFFFFFFFFFFFFFFFFFFFFFFFFFFF AND DUP2 PUSH20 0xFFFFFFFFFFFFFFFFFFFFFFFFFFFFFFFFFFFFFFFF AND EQ PUSH2 0x4CD JUMPI PUSH1 0x40 MLOAD PUSH32 0x8C379A000000000000000000000000000000000000000000000000000000000 DUP2 MSTORE PUSH1 0x4 ADD PUSH2 0x4C4 SWAP1 PUSH2 0x1261 JUMP JUMPDEST PUSH1 0x40 MLOAD DUP1 SWAP2 SUB SWAP1 REVERT JUMPDEST PUSH2 0x58C PUSH1 0x2 DUP6 PUSH1 0x40 MLOAD PUSH2 0x4E0 SWAP2 SWAP1 PUSH2 0x12BD JUMP JUMPDEST SWAP1 DUP2 MSTORE PUSH1 0x20 ADD PUSH1 0x40 MLOAD DUP1 SWAP2 SUB SWAP1 KECCAK256 DUP1 SLOAD PUSH2 0x4F9 SWAP1 PUSH2 0x1178 JUMP JUMPDEST DUP1 PUSH1 0x1F ADD PUSH1 0x20 DUP1 SWAP2 DIV MUL PUSH1 0x20 ADD PUSH1 0x40 MLOAD SWAP1 DUP2 ADD PUSH1 0x40 MSTORE DUP1 SWAP3 SWAP2 SWAP1 DUP2 DUP2 MSTORE PUSH1 0x20 ADD DUP3 DUP1 SLOAD PUSH2 0x525 SWAP1 PUSH2 0x1178 JUMP JUMPDEST DUP1 ISZERO PUSH2 0x572 JUMPI DUP1 PUSH1 0x1F LT PUSH2 0x547 JUMPI PUSH2 0x100 DUP1 DUP4 SLOAD DIV MUL DUP4 MSTORE SWAP2 PUSH1 0x20 ADD SWAP2 PUSH2 0x572 JUMP JUMPDEST DUP3 ADD SWAP2 SWAP1 PUSH1 0x0 MSTORE PUSH1 0x20 PUSH1 0x0 KECCAK256 SWAP1 JUMPDEST DUP2 SLOAD DUP2 MSTORE SWAP1 PUSH1 0x1 ADD SWAP1 PUSH1 0x20 ADD DUP1 DUP4 GT PUSH2 0x555 JUMPI DUP3 SWAP1 SUB PUSH1 0x1F AND DUP3 ADD SWAP2 JUMPDEST POP POP POP POP POP PUSH1 0x40 MLOAD DUP1 PUSH1 0x20 ADD PUSH1 0x40 MSTORE DUP1 PUSH1 0x0 DUP2 MSTORE POP PUSH2 0xBC4 JUMP JUMPDEST ISZERO PUSH2 0x5B3 JUMPI PUSH1 0x1 PUSH1 0x3 PUSH1 0x1 ADD PUSH1 0x0 DUP3 DUP3 SLOAD PUSH2 0x5A7 SWAP2 SWAP1 PUSH2 0x1303 JUMP JUMPDEST SWAP3 POP POP DUP2 SWAP1 SSTORE POP PUSH2 0x6D5 JUMP JUMPDEST PUSH2 0x663 PUSH1 0x2 DUP6 PUSH1 0x40 MLOAD PUSH2 0x5C6 SWAP2 SWAP1 PUSH2 0x12BD JUMP JUMPDEST SWAP1 DUP2 MSTORE PUSH1 0x20 ADD PUSH1 0x40 MLOAD DUP1 SWAP2 SUB SWAP1 KECCAK256 DUP1 SLOAD PUSH2 0x5DF SWAP1 PUSH2 0x1178 JUMP JUMPDEST DUP1 PUSH1 0x1F ADD PUSH1 0x20 DUP1 SWAP2 DIV MUL PUSH1 0x20 ADD PUSH1 0x40 MLOAD SWAP1 DUP2 ADD PUSH1 0x40 MSTORE DUP1 SWAP3 SWAP2 SWAP1 DUP2 DUP2 MSTORE PUSH1 0x20 ADD DUP3 DUP1 SLOAD PUSH2 0x60B SWAP1 PUSH2 0x1178 JUMP JUMPDEST DUP1 ISZERO PUSH2 0x658 JUMPI DUP1 PUSH1 0x1F LT PUSH2 0x62D JUMPI PUSH2 0x100 DUP1 DUP4 SLOAD DIV MUL DUP4 MSTORE SWAP2 PUSH1 0x20 ADD SWAP2 PUSH2 0x658 JUMP JUMPDEST DUP3 ADD SWAP2 SWAP1 PUSH1 0x0 MSTORE PUSH1 0x20 PUSH1 0x0 KECCAK256 SWAP1 JUMPDEST DUP2 SLOAD DUP2 MSTORE SWAP1 PUSH1 0x1 ADD SWAP1 PUSH1 0x20 ADD DUP1 DUP4 GT PUSH2 0x63B JUMPI DUP3 SWAP1 SUB PUSH1 0x1F AND DUP3 ADD SWAP2 JUMPDEST POP POP POP POP POP DUP5 PUSH2 0xBC4 JUMP JUMPDEST ISZERO PUSH2 0x68A JUMPI PUSH1 0x1 PUSH1 0x3 PUSH1 0x2 ADD PUSH1 0x0 DUP3 DUP3 SLOAD PUSH2 0x67E SWAP2 SWAP1 PUSH2 0x1303 JUMP JUMPDEST SWAP3 POP POP DUP2 SWAP1 SSTORE POP PUSH2 0x6D4 JUMP JUMPDEST PUSH1 0x1 PUSH1 0x3 PUSH1 0x0 ADD PUSH1 0x0 DUP3 DUP3 SLOAD PUSH2 0x6A0 SWAP2 SWAP1 PUSH2 0x1303 JUMP JUMPDEST SWAP3 POP POP DUP2 SWAP1 SSTORE POP PUSH32 0x9155208B51995E04C988EB045EF59AF0F5F785F942CB81688516362B62D8FAC0 PUSH1 0x40 MLOAD PUSH1 0x40 MLOAD DUP1 SWAP2 SUB SWAP1 LOG1 JUMPDEST JUMPDEST POP POP POP POP JUMP JUMPDEST DUP1 PUSH1 0x0 DUP1 SLOAD SWAP1 PUSH2 0x100 EXP SWAP1 DIV PUSH20 0xFFFFFFFFFFFFFFFFFFFFFFFFFFFFFFFFFFFFFFFF AND PUSH20 0xFFFFFFFFFFFFFFFFFFFFFFFFFFFFFFFFFFFFFFFF AND DUP2 PUSH20 0xFFFFFFFFFFFFFFFFFFFFFFFFFFFFFFFFFFFFFFFF AND EQ PUSH2 0x76A JUMPI PUSH1 0x40 MLOAD PUSH32 0x8C379A000000000000000000000000000000000000000000000000000000000 DUP2 MSTORE PUSH1 0x4 ADD PUSH2 0x761 SWAP1 PUSH2 0x11F5 JUMP JUMPDEST PUSH1 0x40 MLOAD DUP1 SWAP2 SUB SWAP1 REVERT JUMPDEST DUP3 PUSH1 0x2 DUP6 PUSH1 0x40 MLOAD PUSH2 0x77B SWAP2 SWAP1 PUSH2 0x12BD JUMP JUMPDEST SWAP1 DUP2 MSTORE PUSH1 0x20 ADD PUSH1 0x40 MLOAD DUP1 SWAP2 SUB SWAP1 KECCAK256 SWAP1 DUP2 PUSH2 0x795 SWAP2 SWAP1 PUSH2 0x14E3 JUMP JUMPDEST POP POP POP POP POP JUMP JUMPDEST PUSH1 0x2 DUP2 DUP1 MLOAD PUSH1 0x20 DUP2 ADD DUP3 ADD DUP1 MLOAD DUP5 DUP3 MSTORE PUSH1 0x20 DUP4 ADD PUSH1 0x20 DUP6 ADD KECCAK256 DUP2 DUP4 MSTORE DUP1 SWAP6 POP POP POP POP POP POP PUSH1 0x0 SWAP2 POP SWAP1 POP DUP1 SLOAD PUSH2 0x7D1 SWAP1 PUSH2 0x1178 JUMP JUMPDEST DUP1 PUSH1 0x1F ADD PUSH1 0x20 DUP1 SWAP2 DIV MUL PUSH1 0x20 ADD PUSH1 0x40 MLOAD SWAP1 DUP2 ADD PUSH1 0x40 MSTORE DUP1 SWAP3 SWAP2 SWAP1 DUP2 DUP2 MSTORE PUSH1 0x20 ADD DUP3 DUP1 SLOAD PUSH2 0x7FD SWAP1 PUSH2 0x1178 JUMP JUMPDEST DUP1 ISZERO PUSH2 0x84A JUMPI DUP1 PUSH1 0x1F LT PUSH2 0x81F JUMPI PUSH2 0x100 DUP1 DUP4 SLOAD DIV MUL DUP4 MSTORE SWAP2 PUSH1 0x20 ADD SWAP2 PUSH2 0x84A JUMP JUMPDEST DUP3 ADD SWAP2 SWAP1 PUSH1 0x0 MSTORE PUSH1 0x20 PUSH1 0x0 KECCAK256 SWAP1 JUMPDEST DUP2 SLOAD DUP2 MSTORE SWAP1 PUSH1 0x1 ADD SWAP1 PUSH1 0x20 ADD DUP1 DUP4 GT PUSH2 0x82D JUMPI DUP3 SWAP1 SUB PUSH1 0x1F AND DUP3 ADD SWAP2 JUMPDEST POP POP POP POP POP DUP2 JUMP JUMPDEST PUSH1 0x3 DUP1 PUSH1 0x0 ADD SLOAD SWAP1 DUP1 PUSH1 0x1 ADD SLOAD SWAP1 DUP1 PUSH1 0x2 ADD SLOAD SWAP1 DUP1 PUSH1 0x3 ADD DUP1 SLOAD PUSH2 0x875 SWAP1 PUSH2 0x1178 JUMP JUMPDEST DUP1 PUSH1 0x1F ADD PUSH1 0x20 DUP1 SWAP2 DIV MUL PUSH1 0x20 ADD PUSH1 0x40 MLOAD SWAP1 DUP2 ADD PUSH1 0x40 MSTORE DUP1 SWAP3 SWAP2 SWAP1 DUP2 DUP2 MSTORE PUSH1 0x20 ADD DUP3 DUP1 SLOAD PUSH2 0x8A1 SWAP1 PUSH2 0x1178 JUMP JUMPDEST DUP1 ISZERO PUSH2 0x8EE JUMPI DUP1 PUSH1 0x1F LT PUSH2 0x8C3 JUMPI PUSH2 0x100 DUP1 DUP4 SLOAD DIV MUL DUP4 MSTORE SWAP2 PUSH1 0x20 ADD SWAP2 PUSH2 0x8EE JUMP JUMPDEST DUP3 ADD SWAP2 SWAP1 PUSH1 0x0 MSTORE PUSH1 0x20 PUSH1 0x0 KECCAK256 SWAP1 JUMPDEST DUP2 SLOAD DUP2 MSTORE SWAP1 PUSH1 0x1 ADD SWAP1 PUSH1 0x20 ADD DUP1 DUP4 GT PUSH2 0x8D1 JUMPI DUP3 SWAP1 SUB PUSH1 0x1F AND DUP3 ADD SWAP2 JUMPDEST POP POP POP POP POP SWAP1 DUP1 PUSH1 0x4 ADD PUSH1 0x0 SWAP1 SLOAD SWAP1 PUSH2 0x100 EXP SWAP1 DIV PUSH20 0xFFFFFFFFFFFFFFFFFFFFFFFFFFFFFFFFFFFFFFFF AND SWAP1 DUP1 PUSH1 0x5 ADD SLOAD SWAP1 POP DUP7 JUMP JUMPDEST DUP1 PUSH1 0x0 DUP1 SLOAD SWAP1 PUSH2 0x100 EXP SWAP1 DIV PUSH20 0xFFFFFFFFFFFFFFFFFFFFFFFFFFFFFFFFFFFFFFFF AND PUSH20 0xFFFFFFFFFFFFFFFFFFFFFFFFFFFFFFFFFFFFFFFF AND DUP2 PUSH20 0xFFFFFFFFFFFFFFFFFFFFFFFFFFFFFFFFFFFFFFFF AND EQ PUSH2 0x9B3 JUMPI PUSH1 0x40 MLOAD PUSH32 0x8C379A000000000000000000000000000000000000000000000000000000000 DUP2 MSTORE PUSH1 0x4 ADD PUSH2 0x9AA SWAP1 PUSH2 0x11F5 JUMP JUMPDEST PUSH1 0x40 MLOAD DUP1 SWAP2 SUB SWAP1 REVERT JUMPDEST TIMESTAMP PUSH1 0x3 PUSH1 0x5 ADD DUP2 SWAP1 SSTORE POP PUSH1 0x9 PUSH1 0x3 SWAP1 DUP1 PUSH1 0x1 DUP2 SLOAD ADD DUP1 DUP3 SSTORE DUP1 SWAP2 POP POP PUSH1 0x1 SWAP1 SUB SWAP1 PUSH1 0x0 MSTORE PUSH1 0x20 PUSH1 0x0 KECCAK256 SWAP1 PUSH1 0x6 MUL ADD PUSH1 0x0 SWAP1 SWAP2 SWAP1 SWAP2 SWAP1 SWAP2 POP PUSH1 0x0 DUP3 ADD SLOAD DUP2 PUSH1 0x0 ADD SSTORE PUSH1 0x1 DUP3 ADD SLOAD DUP2 PUSH1 0x1 ADD SSTORE PUSH1 0x2 DUP3 ADD SLOAD DUP2 PUSH1 0x2 ADD SSTORE PUSH1 0x3 DUP3 ADD DUP2 PUSH1 0x3 ADD SWAP1 DUP2 PUSH2 0xA1C SWAP2 SWAP1 PUSH2 0x15CB JUMP JUMPDEST POP PUSH1 0x4 DUP3 ADD PUSH1 0x0 SWAP1 SLOAD SWAP1 PUSH2 0x100 EXP SWAP1 DIV PUSH20 0xFFFFFFFFFFFFFFFFFFFFFFFFFFFFFFFFFFFFFFFF AND DUP2 PUSH1 0x4 ADD PUSH1 0x0 PUSH2 0x100 EXP DUP2 SLOAD DUP2 PUSH20 0xFFFFFFFFFFFFFFFFFFFFFFFFFFFFFFFFFFFFFFFF MUL NOT AND SWAP1 DUP4 PUSH20 0xFFFFFFFFFFFFFFFFFFFFFFFFFFFFFFFFFFFFFFFF AND MUL OR SWAP1 SSTORE POP PUSH1 0x5 DUP3 ADD SLOAD DUP2 PUSH1 0x5 ADD SSTORE POP POP PUSH1 0x0 PUSH1 0x3 PUSH1 0x0 ADD DUP2 SWAP1 SSTORE POP PUSH1 0x0 PUSH1 0x3 PUSH1 0x2 ADD DUP2 SWAP1 SSTORE POP PUSH1 0x0 PUSH1 0x3 PUSH1 0x1 ADD DUP2 SWAP1 SSTORE POP DUP3 PUSH1 0x3 PUSH1 0x4 ADD PUSH1 0x0 PUSH2 0x100 EXP DUP2 SLOAD DUP2 PUSH20 0xFFFFFFFFFFFFFFFFFFFFFFFFFFFFFFFFFFFFFFFF MUL NOT AND SWAP1 DUP4 PUSH20 0xFFFFFFFFFFFFFFFFFFFFFFFFFFFFFFFFFFFFFFFF AND MUL OR SWAP1 SSTORE POP DUP4 PUSH1 0x3 DUP1 ADD SWAP1 DUP2 PUSH2 0xB06 SWAP2 SWAP1 PUSH2 0x14E3 JUMP JUMPDEST POP POP POP POP POP JUMP JUMPDEST PUSH1 0x0 DUP1 PUSH1 0x0 PUSH1 0x60 PUSH1 0x3 PUSH1 0x2 ADD SLOAD PUSH1 0x3 PUSH1 0x0 ADD SLOAD PUSH1 0x3 PUSH1 0x1 ADD SLOAD PUSH1 0x3 DUP1 ADD DUP1 DUP1 SLOAD PUSH2 0xB36 SWAP1 PUSH2 0x1178 JUMP JUMPDEST DUP1 PUSH1 0x1F ADD PUSH1 0x20 DUP1 SWAP2 DIV MUL PUSH1 0x20 ADD PUSH1 0x40 MLOAD SWAP1 DUP2 ADD PUSH1 0x40 MSTORE DUP1 SWAP3 SWAP2 SWAP1 DUP2 DUP2 MSTORE PUSH1 0x20 ADD DUP3 DUP1 SLOAD PUSH2 0xB62 SWAP1 PUSH2 0x1178 JUMP JUMPDEST DUP1 ISZERO PUSH2 0xBAF JUMPI DUP1 PUSH1 0x1F LT PUSH2 0xB84 JUMPI PUSH2 0x100 DUP1 DUP4 SLOAD DIV MUL DUP4 MSTORE SWAP2 PUSH1 0x20 ADD SWAP2 PUSH2 0xBAF JUMP JUMPDEST DUP3 ADD SWAP2 SWAP1 PUSH1 0x0 MSTORE PUSH1 0x20 PUSH1 0x0 KECCAK256 SWAP1 JUMPDEST DUP2 SLOAD DUP2 MSTORE SWAP1 PUSH1 0x1 ADD SWAP1 PUSH1 0x20 ADD DUP1 DUP4 GT PUSH2 0xB92 JUMPI DUP3 SWAP1 SUB PUSH1 0x1F AND DUP3 ADD SWAP2 JUMPDEST POP POP POP POP POP SWAP1 POP SWAP4 POP SWAP4 POP SWAP4 POP SWAP4 POP SWAP1 SWAP2 SWAP3 SWAP4 JUMP JUMPDEST PUSH1 0x0 DUP2 PUSH1 0x40 MLOAD PUSH1 0x20 ADD PUSH2 0xBD7 SWAP2 SWAP1 PUSH2 0x12BD JUMP JUMPDEST PUSH1 0x40 MLOAD PUSH1 0x20 DUP2 DUP4 SUB SUB DUP2 MSTORE SWAP1 PUSH1 0x40 MSTORE DUP1 MLOAD SWAP1 PUSH1 0x20 ADD KECCAK256 DUP4 PUSH1 0x40 MLOAD PUSH1 0x20 ADD PUSH2 0xBFE SWAP2 SWAP1 PUSH2 0x12BD JUMP JUMPDEST PUSH1 0x40 MLOAD PUSH1 0x20 DUP2 DUP4 SUB SUB DUP2 MSTORE SWAP1 PUSH1 0x40 MSTORE DUP1 MLOAD SWAP1 PUSH1 0x20 ADD KECCAK256 EQ SWAP1 POP SWAP3 SWAP2 POP POP JUMP JUMPDEST PUSH1 0x0 PUSH1 0x40 MLOAD SWAP1 POP SWAP1 JUMP JUMPDEST PUSH1 0x0 DUP1 REVERT JUMPDEST PUSH1 0x0 DUP1 REVERT JUMPDEST PUSH1 0x0 DUP2 SWAP1 POP SWAP2 SWAP1 POP JUMP JUMPDEST PUSH2 0xC44 DUP2 PUSH2 0xC31 JUMP JUMPDEST DUP2 EQ PUSH2 0xC4F JUMPI PUSH1 0x0 DUP1 REVERT JUMPDEST POP JUMP JUMPDEST PUSH1 0x0 DUP2 CALLDATALOAD SWAP1 POP PUSH2 0xC61 DUP2 PUSH2 0xC3B JUMP JUMPDEST SWAP3 SWAP2 POP POP JUMP JUMPDEST PUSH1 0x0 PUSH1 0x20 DUP3 DUP5 SUB SLT ISZERO PUSH2 0xC7D JUMPI PUSH2 0xC7C PUSH2 0xC27 JUMP JUMPDEST JUMPDEST PUSH1 0x0 PUSH2 0xC8B DUP5 DUP3 DUP6 ADD PUSH2 0xC52 JUMP JUMPDEST SWAP2 POP POP SWAP3 SWAP2 POP POP JUMP JUMPDEST PUSH2 0xC9D DUP2 PUSH2 0xC31 JUMP JUMPDEST DUP3 MSTORE POP POP JUMP JUMPDEST PUSH1 0x0 DUP2 MLOAD SWAP1 POP SWAP2 SWAP1 POP JUMP JUMPDEST PUSH1 0x0 DUP3 DUP3 MSTORE PUSH1 0x20 DUP3 ADD SWAP1 POP SWAP3 SWAP2 POP POP JUMP JUMPDEST PUSH1 0x0 JUMPDEST DUP4 DUP2 LT ISZERO PUSH2 0xCDD JUMPI DUP1 DUP3 ADD MLOAD DUP2 DUP5 ADD MSTORE PUSH1 0x20 DUP2 ADD SWAP1 POP PUSH2 0xCC2 JUMP JUMPDEST PUSH1 0x0 DUP5 DUP5 ADD MSTORE POP POP POP POP JUMP JUMPDEST PUSH1 0x0 PUSH1 0x1F NOT PUSH1 0x1F DUP4 ADD AND SWAP1 POP SWAP2 SWAP1 POP JUMP JUMPDEST PUSH1 0x0 PUSH2 0xD05 DUP3 PUSH2 0xCA3 JUMP JUMPDEST PUSH2 0xD0F DUP2 DUP6 PUSH2 0xCAE JUMP JUMPDEST SWAP4 POP PUSH2 0xD1F DUP2 DUP6 PUSH1 0x20 DUP7 ADD PUSH2 0xCBF JUMP JUMPDEST PUSH2 0xD28 DUP2 PUSH2 0xCE9 JUMP JUMPDEST DUP5 ADD SWAP2 POP POP SWAP3 SWAP2 POP POP JUMP JUMPDEST PUSH1 0x0 PUSH20 0xFFFFFFFFFFFFFFFFFFFFFFFFFFFFFFFFFFFFFFFF DUP3 AND SWAP1 POP SWAP2 SWAP1 POP JUMP JUMPDEST PUSH1 0x0 PUSH2 0xD5E DUP3 PUSH2 0xD33 JUMP JUMPDEST SWAP1 POP SWAP2 SWAP1 POP JUMP JUMPDEST PUSH2 0xD6E DUP2 PUSH2 0xD53 JUMP JUMPDEST DUP3 MSTORE POP POP JUMP JUMPDEST PUSH1 0x0 PUSH1 0xC0 DUP3 ADD SWAP1 POP PUSH2 0xD89 PUSH1 0x0 DUP4 ADD DUP10 PUSH2 0xC94 JUMP JUMPDEST PUSH2 0xD96 PUSH1 0x20 DUP4 ADD DUP9 PUSH2 0xC94 JUMP JUMPDEST PUSH2 0xDA3 PUSH1 0x40 DUP4 ADD DUP8 PUSH2 0xC94 JUMP JUMPDEST DUP2 DUP2 SUB PUSH1 0x60 DUP4 ADD MSTORE PUSH2 0xDB5 DUP2 DUP7 PUSH2 0xCFA JUMP JUMPDEST SWAP1 POP PUSH2 0xDC4 PUSH1 0x80 DUP4 ADD DUP6 PUSH2 0xD65 JUMP JUMPDEST PUSH2 0xDD1 PUSH1 0xA0 DUP4 ADD DUP5 PUSH2 0xC94 JUMP JUMPDEST SWAP8 SWAP7 POP POP POP POP POP POP POP JUMP JUMPDEST PUSH1 0x0 PUSH1 0x20 DUP3 ADD SWAP1 POP PUSH2 0xDF1 PUSH1 0x0 DUP4 ADD DUP5 PUSH2 0xD65 JUMP JUMPDEST SWAP3 SWAP2 POP POP JUMP JUMPDEST PUSH2 0xE00 DUP2 PUSH2 0xD53 JUMP JUMPDEST DUP2 EQ PUSH2 0xE0B JUMPI PUSH1 0x0 DUP1 REVERT JUMPDEST POP JUMP JUMPDEST PUSH1 0x0 DUP2 CALLDATALOAD SWAP1 POP PUSH2 0xE1D DUP2 PUSH2 0xDF7 JUMP JUMPDEST SWAP3 SWAP2 POP POP JUMP JUMPDEST PUSH1 0x0 DUP1 PUSH1 0x40 DUP4 DUP6 SUB SLT ISZERO PUSH2 0xE3A JUMPI PUSH2 0xE39 PUSH2 0xC27 JUMP JUMPDEST JUMPDEST PUSH1 0x0 PUSH2 0xE48 DUP6 DUP3 DUP7 ADD PUSH2 0xE0E JUMP JUMPDEST SWAP3 POP POP PUSH1 0x20 PUSH2 0xE59 DUP6 DUP3 DUP7 ADD PUSH2 0xE0E JUMP JUMPDEST SWAP2 POP POP SWAP3 POP SWAP3 SWAP1 POP JUMP JUMPDEST PUSH1 0x0 DUP1 REVERT JUMPDEST PUSH1 0x0 DUP1 REVERT JUMPDEST PUSH32 0x4E487B7100000000000000000000000000000000000000000000000000000000 PUSH1 0x0 MSTORE PUSH1 0x41 PUSH1 0x4 MSTORE PUSH1 0x24 PUSH1 0x0 REVERT JUMPDEST PUSH2 0xEA5 DUP3 PUSH2 0xCE9 JUMP JUMPDEST DUP2 ADD DUP2 DUP2 LT PUSH8 0xFFFFFFFFFFFFFFFF DUP3 GT OR ISZERO PUSH2 0xEC4 JUMPI PUSH2 0xEC3 PUSH2 0xE6D JUMP JUMPDEST JUMPDEST DUP1 PUSH1 0x40 MSTORE POP POP POP JUMP JUMPDEST PUSH1 0x0 PUSH2 0xED7 PUSH2 0xC1D JUMP JUMPDEST SWAP1 POP PUSH2 0xEE3 DUP3 DUP3 PUSH2 0xE9C JUMP JUMPDEST SWAP2 SWAP1 POP JUMP JUMPDEST PUSH1 0x0 PUSH8 0xFFFFFFFFFFFFFFFF DUP3 GT ISZERO PUSH2 0xF03 JUMPI PUSH2 0xF02 PUSH2 0xE6D JUMP JUMPDEST JUMPDEST PUSH2 0xF0C DUP3 PUSH2 0xCE9 JUMP JUMPDEST SWAP1 POP PUSH1 0x20 DUP2 ADD SWAP1 POP SWAP2 SWAP1 POP JUMP JUMPDEST DUP3 DUP2 DUP4 CALLDATACOPY PUSH1 0x0 DUP4 DUP4 ADD MSTORE POP POP POP JUMP JUMPDEST PUSH1 0x0 PUSH2 0xF3B PUSH2 0xF36 DUP5 PUSH2 0xEE8 JUMP JUMPDEST PUSH2 0xECD JUMP JUMPDEST SWAP1 POP DUP3 DUP2 MSTORE PUSH1 0x20 DUP2 ADD DUP5 DUP5 DUP5 ADD GT ISZERO PUSH2 0xF57 JUMPI PUSH2 0xF56 PUSH2 0xE68 JUMP JUMPDEST JUMPDEST PUSH2 0xF62 DUP5 DUP3 DUP6 PUSH2 0xF19 JUMP JUMPDEST POP SWAP4 SWAP3 POP POP POP JUMP JUMPDEST PUSH1 0x0 DUP3 PUSH1 0x1F DUP4 ADD SLT PUSH2 0xF7F JUMPI PUSH2 0xF7E PUSH2 0xE63 JUMP JUMPDEST JUMPDEST DUP2 CALLDATALOAD PUSH2 0xF8F DUP5 DUP3 PUSH1 0x20 DUP7 ADD PUSH2 0xF28 JUMP JUMPDEST SWAP2 POP POP SWAP3 SWAP2 POP POP JUMP JUMPDEST PUSH1 0x0 DUP1 PUSH1 0x0 PUSH1 0x60 DUP5 DUP7 SUB SLT ISZERO PUSH2 0xFB1 JUMPI PUSH2 0xFB0 PUSH2 0xC27 JUMP JUMPDEST JUMPDEST PUSH1 0x0 DUP5 ADD CALLDATALOAD PUSH8 0xFFFFFFFFFFFFFFFF DUP2 GT ISZERO PUSH2 0xFCF JUMPI PUSH2 0xFCE PUSH2 0xC2C JUMP JUMPDEST JUMPDEST PUSH2 0xFDB DUP7 DUP3 DUP8 ADD PUSH2 0xF6A JUMP JUMPDEST SWAP4 POP POP PUSH1 0x20 DUP5 ADD CALLDATALOAD PUSH8 0xFFFFFFFFFFFFFFFF DUP2 GT ISZERO PUSH2 0xFFC JUMPI PUSH2 0xFFB PUSH2 0xC2C JUMP JUMPDEST JUMPDEST PUSH2 0x1008 DUP7 DUP3 DUP8 ADD PUSH2 0xF6A JUMP JUMPDEST SWAP3 POP POP PUSH1 0x40 PUSH2 0x1019 DUP7 DUP3 DUP8 ADD PUSH2 0xE0E JUMP JUMPDEST SWAP2 POP POP SWAP3 POP SWAP3 POP SWAP3 JUMP JUMPDEST PUSH1 0x0 PUSH1 0x20 DUP3 DUP5 SUB SLT ISZERO PUSH2 0x1039 JUMPI PUSH2 0x1038 PUSH2 0xC27 JUMP JUMPDEST JUMPDEST PUSH1 0x0 DUP3 ADD CALLDATALOAD PUSH8 0xFFFFFFFFFFFFFFFF DUP2 GT ISZERO PUSH2 0x1057 JUMPI PUSH2 0x1056 PUSH2 0xC2C JUMP JUMPDEST JUMPDEST PUSH2 0x1063 DUP5 DUP3 DUP6 ADD PUSH2 0xF6A JUMP JUMPDEST SWAP2 POP POP SWAP3 SWAP2 POP POP JUMP JUMPDEST PUSH1 0x0 PUSH1 0x20 DUP3 ADD SWAP1 POP DUP2 DUP2 SUB PUSH1 0x0 DUP4 ADD MSTORE PUSH2 0x1086 DUP2 DUP5 PUSH2 0xCFA JUMP JUMPDEST SWAP1 POP SWAP3 SWAP2 POP POP JUMP JUMPDEST PUSH1 0x0 DUP1 PUSH1 0x0 PUSH1 0x60 DUP5 DUP7 SUB SLT ISZERO PUSH2 0x10A7 JUMPI PUSH2 0x10A6 PUSH2 0xC27 JUMP JUMPDEST JUMPDEST PUSH1 0x0 DUP5 ADD CALLDATALOAD PUSH8 0xFFFFFFFFFFFFFFFF DUP2 GT ISZERO PUSH2 0x10C5 JUMPI PUSH2 0x10C4 PUSH2 0xC2C JUMP JUMPDEST JUMPDEST PUSH2 0x10D1 DUP7 DUP3 DUP8 ADD PUSH2 0xF6A JUMP JUMPDEST SWAP4 POP POP PUSH1 0x20 PUSH2 0x10E2 DUP7 DUP3 DUP8 ADD PUSH2 0xE0E JUMP JUMPDEST SWAP3 POP POP PUSH1 0x40 PUSH2 0x10F3 DUP7 DUP3 DUP8 ADD PUSH2 0xE0E JUMP JUMPDEST SWAP2 POP POP SWAP3 POP SWAP3 POP SWAP3 JUMP JUMPDEST PUSH1 0x0 PUSH1 0x80 DUP3 ADD SWAP1 POP PUSH2 0x1112 PUSH1 0x0 DUP4 ADD DUP8 PUSH2 0xC94 JUMP JUMPDEST PUSH2 0x111F PUSH1 0x20 DUP4 ADD DUP7 PUSH2 0xC94 JUMP JUMPDEST PUSH2 0x112C PUSH1 0x40 DUP4 ADD DUP6 PUSH2 0xC94 JUMP JUMPDEST DUP2 DUP2 SUB PUSH1 0x60 DUP4 ADD MSTORE PUSH2 0x113E DUP2 DUP5 PUSH2 0xCFA JUMP JUMPDEST SWAP1 POP SWAP6 SWAP5 POP POP POP POP POP JUMP JUMPDEST PUSH32 0x4E487B7100000000000000000000000000000000000000000000000000000000 PUSH1 0x0 MSTORE PUSH1 0x22 PUSH1 0x4 MSTORE PUSH1 0x24 PUSH1 0x0 REVERT JUMPDEST PUSH1 0x0 PUSH1 0x2 DUP3 DIV SWAP1 POP PUSH1 0x1 DUP3 AND DUP1 PUSH2 0x1190 JUMPI PUSH1 0x7F DUP3 AND SWAP2 POP JUMPDEST PUSH1 0x20 DUP3 LT DUP2 SUB PUSH2 0x11A3 JUMPI PUSH2 0x11A2 PUSH2 0x1149 JUMP JUMPDEST JUMPDEST POP SWAP2 SWAP1 POP JUMP JUMPDEST PUSH32 0x43616C6C6572206973206E6F7420636F6E74726F6C6C65720000000000000000 PUSH1 0x0 DUP3 ADD MSTORE POP JUMP JUMPDEST PUSH1 0x0 PUSH2 0x11DF PUSH1 0x18 DUP4 PUSH2 0xCAE JUMP JUMPDEST SWAP2 POP PUSH2 0x11EA DUP3 PUSH2 0x11A9 JUMP JUMPDEST PUSH1 0x20 DUP3 ADD SWAP1 POP SWAP2 SWAP1 POP JUMP JUMPDEST PUSH1 0x0 PUSH1 0x20 DUP3 ADD SWAP1 POP DUP2 DUP2 SUB PUSH1 0x0 DUP4 ADD MSTORE PUSH2 0x120E DUP2 PUSH2 0x11D2 JUMP JUMPDEST SWAP1 POP SWAP2 SWAP1 POP JUMP JUMPDEST PUSH32 0x43616C6C6572206973206E6F7420656772657373206564676500000000000000 PUSH1 0x0 DUP3 ADD MSTORE POP JUMP JUMPDEST PUSH1 0x0 PUSH2 0x124B PUSH1 0x19 DUP4 PUSH2 0xCAE JUMP JUMPDEST SWAP2 POP PUSH2 0x1256 DUP3 PUSH2 0x1215 JUMP JUMPDEST PUSH1 0x20 DUP3 ADD SWAP1 POP SWAP2 SWAP1 POP JUMP JUMPDEST PUSH1 0x0 PUSH1 0x20 DUP3 ADD SWAP1 POP DUP2 DUP2 SUB PUSH1 0x0 DUP4 ADD MSTORE PUSH2 0x127A DUP2 PUSH2 0x123E JUMP JUMPDEST SWAP1 POP SWAP2 SWAP1 POP JUMP JUMPDEST PUSH1 0x0 DUP2 SWAP1 POP SWAP3 SWAP2 POP POP JUMP JUMPDEST PUSH1 0x0 PUSH2 0x1297 DUP3 PUSH2 0xCA3 JUMP JUMPDEST PUSH2 0x12A1 DUP2 DUP6 PUSH2 0x1281 JUMP JUMPDEST SWAP4 POP PUSH2 0x12B1 DUP2 DUP6 PUSH1 0x20 DUP7 ADD PUSH2 0xCBF JUMP JUMPDEST DUP1 DUP5 ADD SWAP2 POP POP SWAP3 SWAP2 POP POP JUMP JUMPDEST PUSH1 0x0 PUSH2 0x12C9 DUP3 DUP5 PUSH2 0x128C JUMP JUMPDEST SWAP2 POP DUP2 SWAP1 POP SWAP3 SWAP2 POP POP JUMP JUMPDEST PUSH32 0x4E487B7100000000000000000000000000000000000000000000000000000000 PUSH1 0x0 MSTORE PUSH1 0x11 PUSH1 0x4 MSTORE PUSH1 0x24 PUSH1 0x0 REVERT JUMPDEST PUSH1 0x0 PUSH2 0x130E DUP3 PUSH2 0xC31 JUMP JUMPDEST SWAP2 POP PUSH2 0x1319 DUP4 PUSH2 0xC31 JUMP JUMPDEST SWAP3 POP DUP3 DUP3 ADD SWAP1 POP DUP1 DUP3 GT ISZERO PUSH2 0x1331 JUMPI PUSH2 0x1330 PUSH2 0x12D4 JUMP JUMPDEST JUMPDEST SWAP3 SWAP2 POP POP JUMP JUMPDEST PUSH1 0x0 DUP2 SWAP1 POP DUP2 PUSH1 0x0 MSTORE PUSH1 0x20 PUSH1 0x0 KECCAK256 SWAP1 POP SWAP2 SWAP1 POP JUMP JUMPDEST PUSH1 0x0 PUSH1 0x20 PUSH1 0x1F DUP4 ADD DIV SWAP1 POP SWAP2 SWAP1 POP JUMP JUMPDEST PUSH1 0x0 DUP3 DUP3 SHL SWAP1 POP SWAP3 SWAP2 POP POP JUMP JUMPDEST PUSH1 0x0 PUSH1 0x8 DUP4 MUL PUSH2 0x1399 PUSH32 0xFFFFFFFFFFFFFFFFFFFFFFFFFFFFFFFFFFFFFFFFFFFFFFFFFFFFFFFFFFFFFFFF DUP3 PUSH2 0x135C JUMP JUMPDEST PUSH2 0x13A3 DUP7 DUP4 PUSH2 0x135C JUMP JUMPDEST SWAP6 POP DUP1 NOT DUP5 AND SWAP4 POP DUP1 DUP7 AND DUP5 OR SWAP3 POP POP POP SWAP4 SWAP3 POP POP POP JUMP JUMPDEST PUSH1 0x0 DUP2 SWAP1 POP SWAP2 SWAP1 POP JUMP JUMPDEST PUSH1 0x0 PUSH2 0x13E0 PUSH2 0x13DB PUSH2 0x13D6 DUP5 PUSH2 0xC31 JUMP JUMPDEST PUSH2 0x13BB JUMP JUMPDEST PUSH2 0xC31 JUMP JUMPDEST SWAP1 POP SWAP2 SWAP1 POP JUMP JUMPDEST PUSH1 0x0 DUP2 SWAP1 POP SWAP2 SWAP1 POP JUMP JUMPDEST PUSH2 0x13FA DUP4 PUSH2 0x13C5 JUMP JUMPDEST PUSH2 0x140E PUSH2 0x1406 DUP3 PUSH2 0x13E7 JUMP JUMPDEST DUP5 DUP5 SLOAD PUSH2 0x1369 JUMP JUMPDEST DUP3 SSTORE POP POP POP POP JUMP JUMPDEST PUSH1 0x0 SWAP1 JUMP JUMPDEST PUSH2 0x1423 PUSH2 0x1416 JUMP JUMPDEST PUSH2 0x142E DUP2 DUP5 DUP5 PUSH2 0x13F1 JUMP JUMPDEST POP POP POP JUMP JUMPDEST JUMPDEST DUP2 DUP2 LT ISZERO PUSH2 0x1452 JUMPI PUSH2 0x1447 PUSH1 0x0 DUP3 PUSH2 0x141B JUMP JUMPDEST PUSH1 0x1 DUP2 ADD SWAP1 POP PUSH2 0x1434 JUMP JUMPDEST POP POP JUMP JUMPDEST PUSH1 0x1F DUP3 GT ISZERO PUSH2 0x1497 JUMPI PUSH2 0x1468 DUP2 PUSH2 0x1337 JUMP JUMPDEST PUSH2 0x1471 DUP5 PUSH2 0x134C JUMP JUMPDEST DUP2 ADD PUSH1 0x20 DUP6 LT ISZERO PUSH2 0x1480 JUMPI DUP2 SWAP1 POP JUMPDEST PUSH2 0x1494 PUSH2 0x148C DUP6 PUSH2 0x134C JUMP JUMPDEST DUP4 ADD DUP3 PUSH2 0x1433 JUMP JUMPDEST POP POP JUMPDEST POP POP POP JUMP JUMPDEST PUSH1 0x0 DUP3 DUP3 SHR SWAP1 POP SWAP3 SWAP2 POP POP JUMP JUMPDEST PUSH1 0x0 PUSH2 0x14BA PUSH1 0x0 NOT DUP5 PUSH1 0x8 MUL PUSH2 0x149C JUMP JUMPDEST NOT DUP1 DUP4 AND SWAP2 POP POP SWAP3 SWAP2 POP POP JUMP JUMPDEST PUSH1 0x0 PUSH2 0x14D3 DUP4 DUP4 PUSH2 0x14A9 JUMP JUMPDEST SWAP2 POP DUP3 PUSH1 0x2 MUL DUP3 OR SWAP1 POP SWAP3 SWAP2 POP POP JUMP JUMPDEST PUSH2 0x14EC DUP3 PUSH2 0xCA3 JUMP JUMPDEST PUSH8 0xFFFFFFFFFFFFFFFF DUP2 GT ISZERO PUSH2 0x1505 JUMPI PUSH2 0x1504 PUSH2 0xE6D JUMP JUMPDEST JUMPDEST PUSH2 0x150F DUP3 SLOAD PUSH2 0x1178 JUMP JUMPDEST PUSH2 0x151A DUP3 DUP3 DUP6 PUSH2 0x1456 JUMP JUMPDEST PUSH1 0x0 PUSH1 0x20 SWAP1 POP PUSH1 0x1F DUP4 GT PUSH1 0x1 DUP2 EQ PUSH2 0x154D JUMPI PUSH1 0x0 DUP5 ISZERO PUSH2 0x153B JUMPI DUP3 DUP8 ADD MLOAD SWAP1 POP JUMPDEST PUSH2 0x1545 DUP6 DUP3 PUSH2 0x14C7 JUMP JUMPDEST DUP7 SSTORE POP PUSH2 0x15AD JUMP JUMPDEST PUSH1 0x1F NOT DUP5 AND PUSH2 0x155B DUP7 PUSH2 0x1337 JUMP JUMPDEST PUSH1 0x0 JUMPDEST DUP3 DUP2 LT ISZERO PUSH2 0x1583 JUMPI DUP5 DUP10 ADD MLOAD DUP3 SSTORE PUSH1 0x1 DUP3 ADD SWAP2 POP PUSH1 0x20 DUP6 ADD SWAP5 POP PUSH1 0x20 DUP2 ADD SWAP1 POP PUSH2 0x155E JUMP JUMPDEST DUP7 DUP4 LT ISZERO PUSH2 0x15A0 JUMPI DUP5 DUP10 ADD MLOAD PUSH2 0x159C PUSH1 0x1F DUP10 AND DUP3 PUSH2 0x14A9 JUMP JUMPDEST DUP4 SSTORE POP JUMPDEST PUSH1 0x1 PUSH1 0x2 DUP9 MUL ADD DUP9 SSTORE POP POP POP JUMPDEST POP POP POP POP POP POP JUMP JUMPDEST PUSH1 0x0 DUP2 SLOAD SWAP1 POP PUSH2 0x15C4 DUP2 PUSH2 0x1178 JUMP JUMPDEST SWAP1 POP SWAP2 SWAP1 POP JUMP JUMPDEST DUP2 DUP2 SUB PUSH2 0x15D9 JUMPI POP POP PUSH2 0x16B1 JUMP JUMPDEST PUSH2 0x15E2 DUP3 PUSH2 0x15B5 JUMP JUMPDEST PUSH8 0xFFFFFFFFFFFFFFFF DUP2 GT ISZERO PUSH2 0x15FB JUMPI PUSH2 0x15FA PUSH2 0xE6D JUMP JUMPDEST JUMPDEST PUSH2 0x1605 DUP3 SLOAD PUSH2 0x1178 JUMP JUMPDEST PUSH2 0x1610 DUP3 DUP3 DUP6 PUSH2 0x1456 JUMP JUMPDEST PUSH1 0x0 PUSH1 0x1F DUP4 GT PUSH1 0x1 DUP2 EQ PUSH2 0x163F JUMPI PUSH1 0x0 DUP5 ISZERO PUSH2 0x162D JUMPI DUP3 DUP8 ADD SLOAD SWAP1 POP JUMPDEST PUSH2 0x1637 DUP6 DUP3 PUSH2 0x14C7 JUMP JUMPDEST DUP7 SSTORE POP PUSH2 0x16AA JUMP JUMPDEST PUSH1 0x1F NOT DUP5 AND PUSH2 0x164D DUP8 PUSH2 0x1337 JUMP JUMPDEST SWAP7 POP PUSH2 0x1658 DUP7 PUSH2 0x1337 JUMP JUMPDEST PUSH1 0x0 JUMPDEST DUP3 DUP2 LT ISZERO PUSH2 0x1680 JUMPI DUP5 DUP10 ADD SLOAD DUP3 SSTORE PUSH1 0x1 DUP3 ADD SWAP2 POP PUSH1 0x1 DUP6 ADD SWAP5 POP PUSH1 0x20 DUP2 ADD SWAP1 POP PUSH2 0x165B JUMP JUMPDEST DUP7 DUP4 LT ISZERO PUSH2 0x169D JUMPI DUP5 DUP10 ADD SLOAD PUSH2 0x1699 PUSH1 0x1F DUP10 AND DUP3 PUSH2 0x14A9 JUMP JUMPDEST DUP4 SSTORE POP JUMPDEST PUSH1 0x1 PUSH1 0x2 DUP9 MUL ADD DUP9 SSTORE POP POP POP JUMPDEST POP POP POP POP POP POP JUMPDEST JUMP INVALID LOG2 PUSH5 0x6970667358 0x22 SLT KECCAK256 0xC9 PUSH13 0xE3D07B5CBE25264FE6D7AF8804 PC ISZERO PUSH28 0x171529E26331D890D6AD628C9F4364736F6C634300081A0033A26469 PUSH17 0x6673582212207B4140111F6B6339D0F545 0xF8 SWAP6 LT PUSH29 0xDBD2E118B4875AF11598D7FEDDF965B4B964736F6C634300081A003300 "
				},
				"gasEstimates": {
					"creation": {
						"codeDepositCost": "2411600",
						"executionCost": "2590",
						"totalCost": "2414190"
					},
					"external": {
						"echo(string)": "infinite",
						"flowAddr(string)": "infinite",
						"getFlowCompliance(string)": "infinite",
						"logFlowProbeHash(string,string,string)": "infinite",
						"newFlow(string,address,string)": "infinite",
						"setFlowProbeHash(string,string,string)": "infinite",
						"setRouteId(string,string,address)": "infinite"
					}
				},
				"methodIdentifiers": {
					"echo(string)": "f15da729",
					"flowAddr(string)": "b288366b",
					"getFlowCompliance(string)": "058187aa",
					"logFlowProbeHash(string,string,string)": "3dc1779e",
					"newFlow(string,address,string)": "f3a01fd2",
					"setFlowProbeHash(string,string,string)": "5ca94b73",
					"setRouteId(string,string,address)": "e6a594bc"
				}
			},
			"storageLayout": {
				"storage": [
					{
						"astId": 330,
						"contract": "PoT.sol:PoTFactory",
						"label": "flowPOT",
						"offset": 0,
						"slot": "0",
						"type": "t_mapping(t_string_memory_ptr,t_contract(ProofOfTransit)325)"
					},
					{
						"astId": 334,
						"contract": "PoT.sol:PoTFactory",
						"label": "flowAddr",
						"offset": 0,
						"slot": "1",
						"type": "t_mapping(t_string_memory_ptr,t_address)"
					}
				],
				"types": {
					"t_address": {
						"encoding": "inplace",
						"label": "address",
						"numberOfBytes": "20"
					},
					"t_contract(ProofOfTransit)325": {
						"encoding": "inplace",
						"label": "contract ProofOfTransit",
						"numberOfBytes": "20"
					},
					"t_mapping(t_string_memory_ptr,t_address)": {
						"encoding": "mapping",
						"key": "t_string_memory_ptr",
						"label": "mapping(string => address)",
						"numberOfBytes": "32",
						"value": "t_address"
					},
					"t_mapping(t_string_memory_ptr,t_contract(ProofOfTransit)325)": {
						"encoding": "mapping",
						"key": "t_string_memory_ptr",
						"label": "mapping(string => contract ProofOfTransit)",
						"numberOfBytes": "32",
						"value": "t_contract(ProofOfTransit)325"
					},
					"t_string_memory_ptr": {
						"encoding": "bytes",
						"label": "string",
						"numberOfBytes": "32"
					}
				}
			},
			"userdoc": {
				"kind": "user",
				"methods": {},
				"version": 1
			}
		}
	}
}