{
	"data": {
		"bytecode": {
			"linkReferences": {},
			"object": "608060405234801561001057600080fd5b50604051611d9f380380611d9f83398181016040528101906100329190610345565b826000806101000a81548173ffffffffffffffffffffffffffffffffffffffff021916908373ffffffffffffffffffffffffffffffffffffffff1602179055504260018190555060006003600001819055506000600360020181905550600060036001018190555081600360040160006101000a81548173ffffffffffffffffffffffffffffffffffffffff021916908373ffffffffffffffffffffffffffffffffffffffff160217905550806003800190816100ef91906105d5565b5060008054906101000a900473ffffffffffffffffffffffffffffffffffffffff1673ffffffffffffffffffffffffffffffffffffffff16600073ffffffffffffffffffffffffffffffffffffffff167e7582b62407f53d49cfc72e7ddab574c06ef3b8aced104b54b7bed4681ee54a60405160405180910390a35050506106a7565b6000604051905090565b600080fd5b600080fd5b600073ffffffffffffffffffffffffffffffffffffffff82169050919050565b60006101b182610186565b9050919050565b6101c1816101a6565b81146101cc57600080fd5b50565b6000815190506101de816101b8565b92915050565b600080fd5b600080fd5b6000601f19601f8301169050919050565b7f4e487b7100000000000000000000000000000000000000000000000000000000600052604160045260246000fd5b610237826101ee565b810181811067ffffffffffffffff82111715610256576102556101ff565b5b80604052505050565b6000610269610172565b9050610275828261022e565b919050565b600067ffffffffffffffff821115610295576102946101ff565b5b61029e826101ee565b9050602081019050919050565b60005b838110156102c95780820151818401526020810190506102ae565b60008484015250505050565b60006102e86102e38461027a565b61025f565b905082815260208101848484011115610304576103036101e9565b5b61030f8482856102ab565b509392505050565b600082601f83011261032c5761032b6101e4565b5b815161033c8482602086016102d5565b91505092915050565b60008060006060848603121561035e5761035d61017c565b5b600061036c868287016101cf565b935050602061037d868287016101cf565b925050604084015167ffffffffffffffff81111561039e5761039d610181565b5b6103aa86828701610317565b9150509250925092565b600081519050919050565b7f4e487b7100000000000000000000000000000000000000000000000000000000600052602260045260246000fd5b6000600282049050600182168061040657607f821691505b602082108103610419576104186103bf565b5b50919050565b60008190508160005260206000209050919050565b60006020601f8301049050919050565b600082821b905092915050565b6000600883026104817fffffffffffffffffffffffffffffffffffffffffffffffffffffffffffffffff82610444565b61048b8683610444565b95508019841693508086168417925050509392505050565b6000819050919050565b6000819050919050565b60006104d26104cd6104c8846104a3565b6104ad565b6104a3565b9050919050565b6000819050919050565b6104ec836104b7565b6105006104f8826104d9565b848454610451565b825550505050565b600090565b610515610508565b6105208184846104e3565b505050565b5b818110156105445761053960008261050d565b600181019050610526565b5050565b601f8211156105895761055a8161041f565b61056384610434565b81016020851015610572578190505b61058661057e85610434565b830182610525565b50505b505050565b600082821c905092915050565b60006105ac6000198460080261058e565b1980831691505092915050565b60006105c5838361059b565b9150826002028217905092915050565b6105de826103b4565b67ffffffffffffffff8111156105f7576105f66101ff565b5b61060182546103ee565b61060c828285610548565b600060209050601f83116001811461063f576000841561062d578287015190505b61063785826105b9565b86555061069f565b601f19841661064d8661041f565b60005b8281101561067557848901518255600182019150602085019450602081019050610650565b86831015610692578489015161068e601f89168261059b565b8355505b6001600288020188555050505b505050505050565b6116e9806106b66000396000f3fe608060405234801561001057600080fd5b50600436106100935760003560e01c8063b68cc79911610066578063b68cc79914610123578063bb56d4121461013f578063bc5b5fe91461016f578063c543691a14610192578063ef040bb1146101ae57610093565b80632c039a4a146100985780633018205f146100cd5780633e11e378146100eb5780639877afc514610107575b600080fd5b6100b260048036038101906100ad9190610c67565b6101cf565b6040516100c496959493929190610d74565b60405180910390f35b6100d56102c3565b6040516100e29190610ddc565b60405180910390f35b61010560048036038101906101009190610e23565b6102ec565b005b610121600480360381019061011c9190610f98565b610439565b005b61013d60048036038101906101389190610f98565b6106db565b005b61015960048036038101906101549190611023565b61079c565b604051610166919061106c565b60405180910390f35b610177610852565b60405161018996959493929190610d74565b60405180910390f35b6101ac60048036038101906101a7919061108e565b610924565b005b6101b6610b0d565b6040516101c694939291906110fd565b60405180910390f35b600981815481106101df57600080fd5b906000526020600020906006020160009150905080600001549080600101549080600201549080600301805461021490611178565b80601f016020809104026020016040519081016040528092919081815260200182805461024090611178565b801561028d5780601f106102625761010080835404028352916020019161028d565b820191906000526020600020905b81548152906001019060200180831161027057829003601f168201915b5050505050908060040160009054906101000a900473ffffffffffffffffffffffffffffffffffffffff16908060050154905086565b60008060009054906101000a900473ffffffffffffffffffffffffffffffffffffffff16905090565b8060008054906101000a900473ffffffffffffffffffffffffffffffffffffffff1673ffffffffffffffffffffffffffffffffffffffff168173ffffffffffffffffffffffffffffffffffffffff161461037b576040517f08c379a0000000000000000000000000000000000000000000000000000000008152600401610372906111f5565b60405180910390fd5b8273ffffffffffffffffffffffffffffffffffffffff1660008054906101000a900473ffffffffffffffffffffffffffffffffffffffff1673ffffffffffffffffffffffffffffffffffffffff167e7582b62407f53d49cfc72e7ddab574c06ef3b8aced104b54b7bed4681ee54a60405160405180910390a3826000806101000a81548173ffffffffffffffffffffffffffffffffffffffff021916908373ffffffffffffffffffffffffffffffffffffffff160217905550505050565b80600360040160009054906101000a900473ffffffffffffffffffffffffffffffffffffffff1673ffffffffffffffffffffffffffffffffffffffff168173ffffffffffffffffffffffffffffffffffffffff16146104cd576040517f08c379a00000000000000000000000000000000000000000000000000000000081526004016104c490611261565b60405180910390fd5b61058c6002856040516104e091906112bd565b908152602001604051809103902080546104f990611178565b80601f016020809104026020016040519081016040528092919081815260200182805461052590611178565b80156105725780601f1061054757610100808354040283529160200191610572565b820191906000526020600020905b81548152906001019060200180831161055557829003601f168201915b505050505060405180602001604052806000815250610bc4565b156105b3576001600360010160008282546105a79190611303565b925050819055506106d5565b6106636002856040516105c691906112bd565b908152602001604051809103902080546105df90611178565b80601f016020809104026020016040519081016040528092919081815260200182805461060b90611178565b80156106585780601f1061062d57610100808354040283529160200191610658565b820191906000526020600020905b81548152906001019060200180831161063b57829003601f168201915b505050505084610bc4565b1561068a5760016003600201600082825461067e9190611303565b925050819055506106d4565b6001600360000160008282546106a09190611303565b925050819055507f9155208b51995e04c988eb045ef59af0f5f785f942cb81688516362b62d8fac060405160405180910390a15b5b50505050565b8060008054906101000a900473ffffffffffffffffffffffffffffffffffffffff1673ffffffffffffffffffffffffffffffffffffffff168173ffffffffffffffffffffffffffffffffffffffff161461076a576040517f08c379a0000000000000000000000000000000000000000000000000000000008152600401610761906111f5565b60405180910390fd5b8260028560405161077b91906112bd565b9081526020016040518091039020908161079591906114e3565b5050505050565b60028180516020810182018051848252602083016020850120818352809550505050505060009150905080546107d190611178565b80601f01602080910402602001604051908101604052809291908181526020018280546107fd90611178565b801561084a5780601f1061081f5761010080835404028352916020019161084a565b820191906000526020600020905b81548152906001019060200180831161082d57829003601f168201915b505050505081565b600380600001549080600101549080600201549080600301805461087590611178565b80601f01602080910402602001604051908101604052809291908181526020018280546108a190611178565b80156108ee5780601f106108c3576101008083540402835291602001916108ee565b820191906000526020600020905b8154815290600101906020018083116108d157829003601f168201915b5050505050908060040160009054906101000a900473ffffffffffffffffffffffffffffffffffffffff16908060050154905086565b8060008054906101000a900473ffffffffffffffffffffffffffffffffffffffff1673ffffffffffffffffffffffffffffffffffffffff168173ffffffffffffffffffffffffffffffffffffffff16146109b3576040517f08c379a00000000000000000000000000000000000000000000000000000000081526004016109aa906111f5565b60405180910390fd5b4260036005018190555060096003908060018154018082558091505060019003906000526020600020906006020160009091909190915060008201548160000155600182015481600101556002820154816002015560038201816003019081610a1c91906115cb565b506004820160009054906101000a900473ffffffffffffffffffffffffffffffffffffffff168160040160006101000a81548173ffffffffffffffffffffffffffffffffffffffff021916908373ffffffffffffffffffffffffffffffffffffffff16021790555060058201548160050155505060006003600001819055506000600360020181905550600060036001018190555082600360040160006101000a81548173ffffffffffffffffffffffffffffffffffffffff021916908373ffffffffffffffffffffffffffffffffffffffff16021790555083600380019081610b0691906114e3565b5050505050565b6000806000606060036002015460036000015460036001015460038001808054610b3690611178565b80601f0160208091040260200160405190810160405280929190818152602001828054610b6290611178565b8015610baf5780601f10610b8457610100808354040283529160200191610baf565b820191906000526020600020905b815481529060010190602001808311610b9257829003601f168201915b50505050509050935093509350935090919293565b600081604051602001610bd791906112bd565b6040516020818303038152906040528051906020012083604051602001610bfe91906112bd565b6040516020818303038152906040528051906020012014905092915050565b6000604051905090565b600080fd5b600080fd5b6000819050919050565b610c4481610c31565b8114610c4f57600080fd5b50565b600081359050610c6181610c3b565b92915050565b600060208284031215610c7d57610c7c610c27565b5b6000610c8b84828501610c52565b91505092915050565b610c9d81610c31565b82525050565b600081519050919050565b600082825260208201905092915050565b60005b83811015610cdd578082015181840152602081019050610cc2565b60008484015250505050565b6000601f19601f8301169050919050565b6000610d0582610ca3565b610d0f8185610cae565b9350610d1f818560208601610cbf565b610d2881610ce9565b840191505092915050565b600073ffffffffffffffffffffffffffffffffffffffff82169050919050565b6000610d5e82610d33565b9050919050565b610d6e81610d53565b82525050565b600060c082019050610d896000830189610c94565b610d966020830188610c94565b610da36040830187610c94565b8181036060830152610db58186610cfa565b9050610dc46080830185610d65565b610dd160a0830184610c94565b979650505050505050565b6000602082019050610df16000830184610d65565b92915050565b610e0081610d53565b8114610e0b57600080fd5b50565b600081359050610e1d81610df7565b92915050565b60008060408385031215610e3a57610e39610c27565b5b6000610e4885828601610e0e565b9250506020610e5985828601610e0e565b9150509250929050565b600080fd5b600080fd5b7f4e487b7100000000000000000000000000000000000000000000000000000000600052604160045260246000fd5b610ea582610ce9565b810181811067ffffffffffffffff82111715610ec457610ec3610e6d565b5b80604052505050565b6000610ed7610c1d565b9050610ee38282610e9c565b919050565b600067ffffffffffffffff821115610f0357610f02610e6d565b5b610f0c82610ce9565b9050602081019050919050565b82818337600083830152505050565b6000610f3b610f3684610ee8565b610ecd565b905082815260208101848484011115610f5757610f56610e68565b5b610f62848285610f19565b509392505050565b600082601f830112610f7f57610f7e610e63565b5b8135610f8f848260208601610f28565b91505092915050565b600080600060608486031215610fb157610fb0610c27565b5b600084013567ffffffffffffffff811115610fcf57610fce610c2c565b5b610fdb86828701610f6a565b935050602084013567ffffffffffffffff811115610ffc57610ffb610c2c565b5b61100886828701610f6a565b925050604061101986828701610e0e565b9150509250925092565b60006020828403121561103957611038610c27565b5b600082013567ffffffffffffffff81111561105757611056610c2c565b5b61106384828501610f6a565b91505092915050565b600060208201905081810360008301526110868184610cfa565b905092915050565b6000806000606084860312156110a7576110a6610c27565b5b600084013567ffffffffffffffff8111156110c5576110c4610c2c565b5b6110d186828701610f6a565b93505060206110e286828701610e0e565b92505060406110f386828701610e0e565b9150509250925092565b60006080820190506111126000830187610c94565b61111f6020830186610c94565b61112c6040830185610c94565b818103606083015261113e8184610cfa565b905095945050505050565b7f4e487b7100000000000000000000000000000000000000000000000000000000600052602260045260246000fd5b6000600282049050600182168061119057607f821691505b6020821081036111a3576111a2611149565b5b50919050565b7f43616c6c6572206973206e6f7420636f6e74726f6c6c65720000000000000000600082015250565b60006111df601883610cae565b91506111ea826111a9565b602082019050919050565b6000602082019050818103600083015261120e816111d2565b9050919050565b7f43616c6c6572206973206e6f7420656772657373206564676500000000000000600082015250565b600061124b601983610cae565b915061125682611215565b602082019050919050565b6000602082019050818103600083015261127a8161123e565b9050919050565b600081905092915050565b600061129782610ca3565b6112a18185611281565b93506112b1818560208601610cbf565b80840191505092915050565b60006112c9828461128c565b915081905092915050565b7f4e487b7100000000000000000000000000000000000000000000000000000000600052601160045260246000fd5b600061130e82610c31565b915061131983610c31565b9250828201905080821115611331576113306112d4565b5b92915050565b60008190508160005260206000209050919050565b60006020601f8301049050919050565b600082821b905092915050565b6000600883026113997fffffffffffffffffffffffffffffffffffffffffffffffffffffffffffffffff8261135c565b6113a3868361135c565b95508019841693508086168417925050509392505050565b6000819050919050565b60006113e06113db6113d684610c31565b6113bb565b610c31565b9050919050565b6000819050919050565b6113fa836113c5565b61140e611406826113e7565b848454611369565b825550505050565b600090565b611423611416565b61142e8184846113f1565b505050565b5b818110156114525761144760008261141b565b600181019050611434565b5050565b601f8211156114975761146881611337565b6114718461134c565b81016020851015611480578190505b61149461148c8561134c565b830182611433565b50505b505050565b600082821c905092915050565b60006114ba6000198460080261149c565b1980831691505092915050565b60006114d383836114a9565b9150826002028217905092915050565b6114ec82610ca3565b67ffffffffffffffff81111561150557611504610e6d565b5b61150f8254611178565b61151a828285611456565b600060209050601f83116001811461154d576000841561153b578287015190505b61154585826114c7565b8655506115ad565b601f19841661155b86611337565b60005b828110156115835784890151825560018201915060208501945060208101905061155e565b868310156115a0578489015161159c601f8916826114a9565b8355505b6001600288020188555050505b505050505050565b6000815490506115c481611178565b9050919050565b8181036115d95750506116b1565b6115e2826115b5565b67ffffffffffffffff8111156115fb576115fa610e6d565b5b6116058254611178565b611610828285611456565b6000601f83116001811461163f576000841561162d578287015490505b61163785826114c7565b8655506116aa565b601f19841661164d87611337565b965061165886611337565b60005b828110156116805784890154825560018201915060018501945060208101905061165b565b8683101561169d5784890154611699601f8916826114a9565b8355505b6001600288020188555050505b5050505050505b56fea2646970667358221220c96ce3d07b5cbe25264fe6d7af880458157b171529e26331d890d6ad628c9f4364736f6c634300081a0033",
			"opcodes": "PUSH1 0x80 PUSH1 0x40 MSTORE CALLVALUE DUP1 ISZERO PUSH2 0x10 JUMPI PUSH1 0x0 DUP1 REVERT JUMPDEST POP PUSH1 0x40 MLOAD PUSH2 0x1D9F CODESIZE SUB DUP1 PUSH2 0x1D9F DUP4 CODECOPY DUP2 DUP2 ADD PUSH1 0x40 MSTORE DUP2 ADD SWAP1 PUSH2 0x32 SWAP2 SWAP1 PUSH2 0x345 JUMP JUMPDEST DUP3 PUSH1 0x0 DUP1 PUSH2 0x100 EXP DUP2 SLOAD DUP2 PUSH20 0xFFFFFFFFFFFFFFFFFFFFFFFFFFFFFFFFFFFFFFFF MUL NOT AND SWAP1 DUP4 PUSH20 0xFFFFFFFFFFFFFFFFFFFFFFFFFFFFFFFFFFFFFFFF AND MUL OR SWAP1 SSTORE POP TIMESTAMP PUSH1 0x1 DUP2 SWAP1 SSTORE POP PUSH1 0x0 PUSH1 0x3 PUSH1 0x0 ADD DUP2 SWAP1 SSTORE POP PUSH1 0x0 PUSH1 0x3 PUSH1 0x2 ADD DUP2 SWAP1 SSTORE POP PUSH1 0x0 PUSH1 0x3 PUSH1 0x1 ADD DUP2 SWAP1 SSTORE POP DUP2 PUSH1 0x3 PUSH1 0x4 ADD PUSH1 0x0 PUSH2 0x100 EXP DUP2 SLOAD DUP2 PUSH20 0xFFFFFFFFFFFFFFFFFFFFFFFFFFFFFFFFFFFFFFFF MUL NOT AND SWAP1 DUP4 PUSH20 0xFFFFFFFFFFFFFFFFFFFFFFFFFFFFFFFFFFFFFFFF AND MUL OR SWAP1 SSTORE POP DUP1 PUSH1 0x3 DUP1 ADD SWAP1 DUP2 PUSH2 0xEF SWAP2 SWAP1 PUSH2 0x5D5 JUMP JUMPDEST POP PUSH1 0x0 DUP1 SLOAD SWAP1 PUSH2 0x100 EXP SWAP1 DIV PUSH20 0xFFFFFFFFFFFFFFFFFFFFFFFFFFFFFFFFFFFFFFFF AND PUSH20 0xFFFFFFFFFFFFFFFFFFFFFFFFFFFFFFFFFFFFFFFF AND PUSH1 0x0 PUSH20 0xFFFFFFFFFFFFFFFFFFFFFFFFFFFFFFFFFFFFFFFF AND PUSH31 0x7582B62407F53D49CFC72E7DDAB574C06EF3B8ACED104B54B7BED4681EE54A PUSH1 0x40 MLOAD PUSH1 0x40 MLOAD DUP1 SWAP2 SUB SWAP1 LOG3 POP POP POP PUSH2 0x6A7 JUMP JUMPDEST PUSH1 0x0 PUSH1 0x40 MLOAD SWAP1 POP SWAP1 JUMP JUMPDEST PUSH1 0x0 DUP1 REVERT JUMPDEST PUSH1 0x0 DUP1 REVERT JUMPDEST PUSH1 0x0 PUSH20 0xFFFFFFFFFFFFFFFFFFFFFFFFFFFFFFFFFFFFFFFF DUP3 AND SWAP1 POP SWAP2 SWAP1 POP JUMP JUMPDEST PUSH1 0x0 PUSH2 0x1B1 DUP3 PUSH2 0x186 JUMP JUMPDEST SWAP1 POP SWAP2 SWAP1 POP JUMP JUMPDEST PUSH2 0x1C1 DUP2 PUSH2 0x1A6 JUMP JUMPDEST DUP2 EQ PUSH2 0x1CC JUMPI PUSH1 0x0 DUP1 REVERT JUMPDEST POP JUMP JUMPDEST PUSH1 0x0 DUP2 MLOAD SWAP1 POP PUSH2 0x1DE DUP2 PUSH2 0x1B8 JUMP JUMPDEST SWAP3 SWAP2 POP POP JUMP JUMPDEST PUSH1 0x0 DUP1 REVERT JUMPDEST PUSH1 0x0 DUP1 REVERT JUMPDEST PUSH1 0x0 PUSH1 0x1F NOT PUSH1 0x1F DUP4 ADD AND SWAP1 POP SWAP2 SWAP1 POP JUMP JUMPDEST PUSH32 0x4E487B7100000000000000000000000000000000000000000000000000000000 PUSH1 0x0 MSTORE PUSH1 0x41 PUSH1 0x4 MSTORE PUSH1 0x24 PUSH1 0x0 REVERT JUMPDEST PUSH2 0x237 DUP3 PUSH2 0x1EE JUMP JUMPDEST DUP2 ADD DUP2 DUP2 LT PUSH8 0xFFFFFFFFFFFFFFFF DUP3 GT OR ISZERO PUSH2 0x256 JUMPI PUSH2 0x255 PUSH2 0x1FF JUMP JUMPDEST JUMPDEST DUP1 PUSH1 0x40 MSTORE POP POP POP JUMP JUMPDEST PUSH1 0x0 PUSH2 0x269 PUSH2 0x172 JUMP JUMPDEST SWAP1 POP PUSH2 0x275 DUP3 DUP3 PUSH2 0x22E JUMP JUMPDEST SWAP2 SWAP1 POP JUMP JUMPDEST PUSH1 0x0 PUSH8 0xFFFFFFFFFFFFFFFF DUP3 GT ISZERO PUSH2 0x295 JUMPI PUSH2 0x294 PUSH2 0x1FF JUMP JUMPDEST JUMPDEST PUSH2 0x29E DUP3 PUSH2 0x1EE JUMP JUMPDEST SWAP1 POP PUSH1 0x20 DUP2 ADD SWAP1 POP SWAP2 SWAP1 POP JUMP JUMPDEST PUSH1 0x0 JUMPDEST DUP4 DUP2 LT ISZERO PUSH2 0x2C9 JUMPI DUP1 DUP3 ADD MLOAD DUP2 DUP5 ADD MSTORE PUSH1 0x20 DUP2 ADD SWAP1 POP PUSH2 0x2AE JUMP JUMPDEST PUSH1 0x0 DUP5 DUP5 ADD MSTORE POP POP POP POP JUMP JUMPDEST PUSH1 0x0 PUSH2 0x2E8 PUSH2 0x2E3 DUP5 PUSH2 0x27A JUMP JUMPDEST PUSH2 0x25F JUMP JUMPDEST SWAP1 POP DUP3 DUP2 MSTORE PUSH1 0x20 DUP2 ADD DUP5 DUP5 DUP5 ADD GT ISZERO PUSH2 0x304 JUMPI PUSH2 0x303 PUSH2 0x1E9 JUMP JUMPDEST JUMPDEST PUSH2 0x30F DUP5 DUP3 DUP6 PUSH2 0x2AB JUMP JUMPDEST POP SWAP4 SWAP3 POP POP POP JUMP JUMPDEST PUSH1 0x0 DUP3 PUSH1 0x1F DUP4 ADD SLT PUSH2 0x32C JUMPI PUSH2 0x32B PUSH2 0x1E4 JUMP JUMPDEST JUMPDEST DUP2 MLOAD PUSH2 0x33C DUP5 DUP3 PUSH1 0x20 DUP7 ADD PUSH2 0x2D5 JUMP JUMPDEST SWAP2 POP POP SWAP3 SWAP2 POP POP JUMP JUMPDEST PUSH1 0x0 DUP1 PUSH1 0x0 PUSH1 0x60 DUP5 DUP7 SUB SLT ISZERO PUSH2 0x35E JUMPI PUSH2 0x35D PUSH2 0x17C JUMP JUMPDEST JUMPDEST PUSH1 0x0 PUSH2 0x36C DUP7 DUP3 DUP8 ADD PUSH2 0x1CF JUMP JUMPDEST SWAP4 POP POP PUSH1 0x20 PUSH2 0x37D DUP7 DUP3 DUP8 ADD PUSH2 0x1CF JUMP JUMPDEST SWAP3 POP POP PUSH1 0x40 DUP5 ADD MLOAD PUSH8 0xFFFFFFFFFFFFFFFF DUP2 GT ISZERO PUSH2 0x39E JUMPI PUSH2 0x39D PUSH2 0x181 JUMP JUMPDEST JUMPDEST PUSH2 0x3AA DUP7 DUP3 DUP8 ADD PUSH2 0x317 JUMP JUMPDEST SWAP2 POP POP SWAP3 POP SWAP3 POP SWAP3 JUMP JUMPDEST PUSH1 0x0 DUP2 MLOAD SWAP1 POP SWAP2 SWAP1 POP JUMP JUMPDEST PUSH32 0x4E487B7100000000000000000000000000000000000000000000000000000000 PUSH1 0x0 MSTORE PUSH1 0x22 PUSH1 0x4 MSTORE PUSH1 0x24 PUSH1 0x0 REVERT JUMPDEST PUSH1 0x0 PUSH1 0x2 DUP3 DIV SWAP1 POP PUSH1 0x1 DUP3 AND DUP1 PUSH2 0x406 JUMPI PUSH1 0x7F DUP3 AND SWAP2 POP JUMPDEST PUSH1 0x20 DUP3 LT DUP2 SUB PUSH2 0x419 JUMPI PUSH2 0x418 PUSH2 0x3BF JUMP JUMPDEST JUMPDEST POP SWAP2 SWAP1 POP JUMP JUMPDEST PUSH1 0x0 DUP2 SWAP1 POP DUP2 PUSH1 0x0 MSTORE PUSH1 0x20 PUSH1 0x0 KECCAK256 SWAP1 POP SWAP2 SWAP1 POP JUMP JUMPDEST PUSH1 0x0 PUSH1 0x20 PUSH1 0x1F DUP4 ADD DIV SWAP1 POP SWAP2 SWAP1 POP JUMP JUMPDEST PUSH1 0x0 DUP3 DUP3 SHL SWAP1 POP SWAP3 SWAP2 POP POP JUMP JUMPDEST PUSH1 0x0 PUSH1 0x8 DUP4 MUL PUSH2 0x481 PUSH32 0xFFFFFFFFFFFFFFFFFFFFFFFFFFFFFFFFFFFFFFFFFFFFFFFFFFFFFFFFFFFFFFFF DUP3 PUSH2 0x444 JUMP JUMPDEST PUSH2 0x48B DUP7 DUP4 PUSH2 0x444 JUMP JUMPDEST SWAP6 POP DUP1 NOT DUP5 AND SWAP4 POP DUP1 DUP7 AND DUP5 OR SWAP3 POP POP POP SWAP4 SWAP3 POP POP POP JUMP JUMPDEST PUSH1 0x0 DUP2 SWAP1 POP SWAP2 SWAP1 POP JUMP JUMPDEST PUSH1 0x0 DUP2 SWAP1 POP SWAP2 SWAP1 POP JUMP JUMPDEST PUSH1 0x0 PUSH2 0x4D2 PUSH2 0x4CD PUSH2 0x4C8 DUP5 PUSH2 0x4A3 JUMP JUMPDEST PUSH2 0x4AD JUMP JUMPDEST PUSH2 0x4A3 JUMP JUMPDEST SWAP1 POP SWAP2 SWAP1 POP JUMP JUMPDEST PUSH1 0x0 DUP2 SWAP1 POP SWAP2 SWAP1 POP JUMP JUMPDEST PUSH2 0x4EC DUP4 PUSH2 0x4B7 JUMP JUMPDEST PUSH2 0x500 PUSH2 0x4F8 DUP3 PUSH2 0x4D9 JUMP JUMPDEST DUP5 DUP5 SLOAD PUSH2 0x451 JUMP JUMPDEST DUP3 SSTORE POP POP POP POP JUMP JUMPDEST PUSH1 0x0 SWAP1 JUMP JUMPDEST PUSH2 0x515 PUSH2 0x508 JUMP JUMPDEST PUSH2 0x520 DUP2 DUP5 DUP5 PUSH2 0x4E3 JUMP JUMPDEST POP POP POP JUMP JUMPDEST JUMPDEST DUP2 DUP2 LT ISZERO PUSH2 0x544 JUMPI PUSH2 0x539 PUSH1 0x0 DUP3 PUSH2 0x50D JUMP JUMPDEST PUSH1 0x1 DUP2 ADD SWAP1 POP PUSH2 0x526 JUMP JUMPDEST POP POP JUMP JUMPDEST PUSH1 0x1F DUP3 GT ISZERO PUSH2 0x589 JUMPI PUSH2 0x55A DUP2 PUSH2 0x41F JUMP JUMPDEST PUSH2 0x563 DUP5 PUSH2 0x434 JUMP JUMPDEST DUP2 ADD PUSH1 0x20 DUP6 LT ISZERO PUSH2 0x572 JUMPI DUP2 SWAP1 POP JUMPDEST PUSH2 0x586 PUSH2 0x57E DUP6 PUSH2 0x434 JUMP JUMPDEST DUP4 ADD DUP3 PUSH2 0x525 JUMP JUMPDEST POP POP JUMPDEST POP POP POP JUMP JUMPDEST PUSH1 0x0 DUP3 DUP3 SHR SWAP1 POP SWAP3 SWAP2 POP POP JUMP JUMPDEST PUSH1 0x0 PUSH2 0x5AC PUSH1 0x0 NOT DUP5 PUSH1 0x8 MUL PUSH2 0x58E JUMP JUMPDEST NOT DUP1 DUP4 AND SWAP2 POP POP SWAP3 SWAP2 POP POP JUMP JUMPDEST PUSH1 0x0 PUSH2 0x5C5 DUP4 DUP4 PUSH2 0x59B JUMP JUMPDEST SWAP2 POP DUP3 PUSH1 0x2 MUL DUP3 OR SWAP1 POP SWAP3 SWAP2 POP POP JUMP JUMPDEST PUSH2 0x5DE DUP3 PUSH2 0x3B4 JUMP JUMPDEST PUSH8 0xFFFFFFFFFFFFFFFF DUP2 GT ISZERO PUSH2 0x5F7 JUMPI PUSH2 0x5F6 PUSH2 0x1FF JUMP JUMPDEST JUMPDEST PUSH2 0x601 DUP3 SLOAD PUSH2 0x3EE JUMP JUMPDEST PUSH2 0x60C DUP3 DUP3 DUP6 PUSH2 0x548 JUMP JUMPDEST PUSH1 0x0 PUSH1 0x20 SWAP1 POP PUSH1 0x1F DUP4 GT PUSH1 0x1 DUP2 EQ PUSH2 0x63F JUMPI PUSH1 0x0 DUP5 ISZERO PUSH2 0x62D JUMPI DUP3 DUP8 ADD MLOAD SWAP1 POP JUMPDEST PUSH2 0x637 DUP6 DUP3 PUSH2 0x5B9 JUMP JUMPDEST DUP7 SSTORE POP PUSH2 0x69F JUMP JUMPDEST PUSH1 0x1F NOT DUP5 AND PUSH2 0x64D DUP7 PUSH2 0x41F JUMP JUMPDEST PUSH1 0x0 JUMPDEST DUP3 DUP2 LT ISZERO PUSH2 0x675 JUMPI DUP5 DUP10 ADD MLOAD DUP3 SSTORE PUSH1 0x1 DUP3 ADD SWAP2 POP PUSH1 0x20 DUP6 ADD SWAP5 POP PUSH1 0x20 DUP2 ADD SWAP1 POP PUSH2 0x650 JUMP JUMPDEST DUP7 DUP4 LT ISZERO PUSH2 0x692 JUMPI DUP5 DUP10 ADD MLOAD PUSH2 0x68E PUSH1 0x1F DUP10 AND DUP3 PUSH2 0x59B JUMP JUMPDEST DUP4 SSTORE POP JUMPDEST PUSH1 0x1 PUSH1 0x2 DUP9 MUL ADD DUP9 SSTORE POP POP POP JUMPDEST POP POP POP POP POP POP JUMP JUMPDEST PUSH2 0x16E9 DUP1 PUSH2 0x6B6 PUSH1 0x0 CODECOPY PUSH1 0x0 RETURN INVALID PUSH1 0x80 PUSH1 0x40 MSTORE CALLVALUE DUP1 ISZERO PUSH2 0x10 JUMPI PUSH1 0x0 DUP1 REVERT JUMPDEST POP PUSH1 0x4 CALLDATASIZE LT PUSH2 0x93 JUMPI PUSH1 0x0 CALLDATALOAD PUSH1 0xE0 SHR DUP1 PUSH4 0xB68CC799 GT PUSH2 0x66 JUMPI DUP1 PUSH4 0xB68CC799 EQ PUSH2 0x123 JUMPI DUP1 PUSH4 0xBB56D412 EQ PUSH2 0x13F JUMPI DUP1 PUSH4 0xBC5B5FE9 EQ PUSH2 0x16F JUMPI DUP1 PUSH4 0xC543691A EQ PUSH2 0x192 JUMPI DUP1 PUSH4 0xEF040BB1 EQ PUSH2 0x1AE JUMPI PUSH2 0x93 JUMP JUMPDEST DUP1 PUSH4 0x2C039A4A EQ PUSH2 0x98 JUMPI DUP1 PUSH4 0x3018205F EQ PUSH2 0xCD JUMPI DUP1 PUSH4 0x3E11E378 EQ PUSH2 0xEB JUMPI DUP1 PUSH4 0x9877AFC5 EQ PUSH2 0x107 JUMPI JUMPDEST PUSH1 0x0 DUP1 REVERT JUMPDEST PUSH2 0xB2 PUSH1 0x4 DUP1 CALLDATASIZE SUB DUP2 ADD SWAP1 PUSH2 0xAD SWAP2 SWAP1 PUSH2 0xC67 JUMP JUMPDEST PUSH2 0x1CF JUMP JUMPDEST PUSH1 0x40 MLOAD PUSH2 0xC4 SWAP7 SWAP6 SWAP5 SWAP4 SWAP3 SWAP2 SWAP1 PUSH2 0xD74 JUMP JUMPDEST PUSH1 0x40 MLOAD DUP1 SWAP2 SUB SWAP1 RETURN JUMPDEST PUSH2 0xD5 PUSH2 0x2C3 JUMP JUMPDEST PUSH1 0x40 MLOAD PUSH2 0xE2 SWAP2 SWAP1 PUSH2 0xDDC JUMP JUMPDEST PUSH1 0x40 MLOAD DUP1 SWAP2 SUB SWAP1 RETURN JUMPDEST PUSH2 0x105 PUSH1 0x4 DUP1 CALLDATASIZE SUB DUP2 ADD SWAP1 PUSH2 0x100 SWAP2 SWAP1 PUSH2 0xE23 JUMP JUMPDEST PUSH2 0x2EC JUMP JUMPDEST STOP JUMPDEST PUSH2 0x121 PUSH1 0x4 DUP1 CALLDATASIZE SUB DUP2 ADD SWAP1 PUSH2 0x11C SWAP2 SWAP1 PUSH2 0xF98 JUMP JUMPDEST PUSH2 0x439 JUMP JUMPDEST STOP JUMPDEST PUSH2 0x13D PUSH1 0x4 DUP1 CALLDATASIZE SUB DUP2 ADD SWAP1 PUSH2 0x138 SWAP2 SWAP1 PUSH2 0xF98 JUMP JUMPDEST PUSH2 0x6DB JUMP JUMPDEST STOP JUMPDEST PUSH2 0x159 PUSH1 0x4 DUP1 CALLDATASIZE SUB DUP2 ADD SWAP1 PUSH2 0x154 SWAP2 SWAP1 PUSH2 0x1023 JUMP JUMPDEST PUSH2 0x79C JUMP JUMPDEST PUSH1 0x40 MLOAD PUSH2 0x166 SWAP2 SWAP1 PUSH2 0x106C JUMP JUMPDEST PUSH1 0x40 MLOAD DUP1 SWAP2 SUB SWAP1 RETURN JUMPDEST PUSH2 0x177 PUSH2 0x852 JUMP JUMPDEST PUSH1 0x40 MLOAD PUSH2 0x189 SWAP7 SWAP6 SWAP5 SWAP4 SWAP3 SWAP2 SWAP1 PUSH2 0xD74 JUMP JUMPDEST PUSH1 0x40 MLOAD DUP1 SWAP2 SUB SWAP1 RETURN JUMPDEST PUSH2 0x1AC PUSH1 0x4 DUP1 CALLDATASIZE SUB DUP2 ADD SWAP1 PUSH2 0x1A7 SWAP2 SWAP1 PUSH2 0x108E JUMP JUMPDEST PUSH2 0x924 JUMP JUMPDEST STOP JUMPDEST PUSH2 0x1B6 PUSH2 0xB0D JUMP JUMPDEST PUSH1 0x40 MLOAD PUSH2 0x1C6 SWAP5 SWAP4 SWAP3 SWAP2 SWAP1 PUSH2 0x10FD JUMP JUMPDEST PUSH1 0x40 MLOAD DUP1 SWAP2 SUB SWAP1 RETURN JUMPDEST PUSH1 0x9 DUP2 DUP2 SLOAD DUP2 LT PUSH2 0x1DF JUMPI PUSH1 0x0 DUP1 REVERT JUMPDEST SWAP1 PUSH1 0x0 MSTORE PUSH1 0x20 PUSH1 0x0 KECCAK256 SWAP1 PUSH1 0x6 MUL ADD PUSH1 0x0 SWAP2 POP SWAP1 POP DUP1 PUSH1 0x0 ADD SLOAD SWAP1 DUP1 PUSH1 0x1 ADD SLOAD SWAP1 DUP1 PUSH1 0x2 ADD SLOAD SWAP1 DUP1 PUSH1 0x3 ADD DUP1 SLOAD PUSH2 0x214 SWAP1 PUSH2 0x1178 JUMP JUMPDEST DUP1 PUSH1 0x1F ADD PUSH1 0x20 DUP1 SWAP2 DIV MUL PUSH1 0x20 ADD PUSH1 0x40 MLOAD SWAP1 DUP2 ADD PUSH1 0x40 MSTORE DUP1 SWAP3 SWAP2 SWAP1 DUP2 DUP2 MSTORE PUSH1 0x20 ADD DUP3 DUP1 SLOAD PUSH2 0x240 SWAP1 PUSH2 0x1178 JUMP JUMPDEST DUP1 ISZERO PUSH2 0x28D JUMPI DUP1 PUSH1 0x1F LT PUSH2 0x262 JUMPI PUSH2 0x100 DUP1 DUP4 SLOAD DIV MUL DUP4 MSTORE SWAP2 PUSH1 0x20 ADD SWAP2 PUSH2 0x28D JUMP JUMPDEST DUP3 ADD SWAP2 SWAP1 PUSH1 0x0 MSTORE PUSH1 0x20 PUSH1 0x0 KECCAK256 SWAP1 JUMPDEST DUP2 SLOAD DUP2 MSTORE SWAP1 PUSH1 0x1 ADD SWAP1 PUSH1 0x20 ADD DUP1 DUP4 GT PUSH2 0x270 JUMPI DUP3 SWAP1 SUB PUSH1 0x1F AND DUP3 ADD SWAP2 JUMPDEST POP POP POP POP POP SWAP1 DUP1 PUSH1 0x4 ADD PUSH1 0x0 SWAP1 SLOAD SWAP1 PUSH2 0x100 EXP SWAP1 DIV PUSH20 0xFFFFFFFFFFFFFFFFFFFFFFFFFFFFFFFFFFFFFFFF AND SWAP1 DUP1 PUSH1 0x5 ADD SLOAD SWAP1 POP DUP7 JUMP JUMPDEST PUSH1 0x0 DUP1 PUSH1 0x0 SWAP1 SLOAD SWAP1 PUSH2 0x100 EXP SWAP1 DIV PUSH20 0xFFFFFFFFFFFFFFFFFFFFFFFFFFFFFFFFFFFFFFFF AND SWAP1 POP SWAP1 JUMP JUMPDEST DUP1 PUSH1 0x0 DUP1 SLOAD SWAP1 PUSH2 0x100 EXP SWAP1 DIV PUSH20 0xFFFFFFFFFFFFFFFFFFFFFFFFFFFFFFFFFFFFFFFF AND PUSH20 0xFFFFFFFFFFFFFFFFFFFFFFFFFFFFFFFFFFFFFFFF AND DUP2 PUSH20 0xFFFFFFFFFFFFFFFFFFFFFFFFFFFFFFFFFFFFFFFF AND EQ PUSH2 0x37B JUMPI PUSH1 0x40 MLOAD PUSH32 0x8C379A000000000000000000000000000000000000000000000000000000000 DUP2 MSTORE PUSH1 0x4 ADD PUSH2 0x372 SWAP1 PUSH2 0x11F5 JUMP JUMPDEST PUSH1 0x40 MLOAD DUP1 SWAP2 SUB SWAP1 REVERT JUMPDEST DUP3 PUSH20 0xFFFFFFFFFFFFFFFFFFFFFFFFFFFFFFFFFFFFFFFF AND PUSH1 0x0 DUP1 SLOAD SWAP1 PUSH2 0x100 EXP SWAP1 DIV PUSH20 0xFFFFFFFFFFFFFFFFFFFFFFFFFFFFFFFFFFFFFFFF AND PUSH20 0xFFFFFFFFFFFFFFFFFFFFFFFFFFFFFFFFFFFFFFFF AND PUSH31 0x7582B62407F53D49CFC72E7DDAB574C06EF3B8ACED104B54B7BED4681EE54A PUSH1 0x40 MLOAD PUSH1 0x40 MLOAD DUP1 SWAP2 SUB SWAP1 LOG3 DUP3 PUSH1 0x0 DUP1 PUSH2 0x100 EXP DUP2 SLOAD DUP2 PUSH20 0xFFFFFFFFFFFFFFFFFFFFFFFFFFFFFFFFFFFFFFFF MUL NOT AND SWAP1 DUP4 PUSH20 0xFFFFFFFFFFFFFFFFFFFFFFFFFFFFFFFFFFFFFFFF AND MUL OR SWAP1 SSTORE POP POP POP POP JUMP JUMPDEST DUP1 PUSH1 0x3 PUSH1 0x4 ADD PUSH1 0x0 SWAP1 SLOAD SWAP1 PUSH2 0x100 EXP SWAP1 DIV PUSH20 0xFFFFFFFFFFFFFFFFFFFFFFFFFFFFFFFFFFFFFFFF AND PUSH20 0xFFFFFFFFFFFFFFFFFFFFFFFFFFFFFFFFFFFFFFFF AND DUP2 PUSH20 0xFFFFFFFFFFFFFFFFFFFFFFFFFFFFFFFFFFFFFFFF AND EQ PUSH2 0x4CD JUMPI PUSH1 0x40 MLOAD PUSH32 0x8C379A000000000000000000000000000000000000000000000000000000000 DUP2 MSTORE PUSH1 0x4 ADD PUSH2 0x4C4 SWAP1 PUSH2 0x1261 JUMP JUMPDEST PUSH1 0x40 MLOAD DUP1 SWAP2 SUB SWAP1 REVERT JUMPDEST PUSH2 0x58C PUSH1 0x2 DUP6 PUSH1 0x40 MLOAD PUSH2 0x4E0 SWAP2 SWAP1 PUSH2 0x12BD JUMP JUMPDEST SWAP1 DUP2 MSTORE PUSH1 0x20 ADD PUSH1 0x40 MLOAD DUP1 SWAP2 SUB SWAP1 KECCAK256 DUP1 SLOAD PUSH2 0x4F9 SWAP1 PUSH2 0x1178 JUMP JUMPDEST DUP1 PUSH1 0x1F ADD PUSH1 0x20 DUP1 SWAP2 DIV MUL PUSH1 0x20 ADD PUSH1 0x40 MLOAD SWAP1 DUP2 ADD PUSH1 0x40 MSTORE DUP1 SWAP3 SWAP2 SWAP1 DUP2 DUP2 MSTORE PUSH1 0x20 ADD DUP3 DUP1 SLOAD PUSH2 0x525 SWAP1 PUSH2 0x1178 JUMP JUMPDEST DUP1 ISZERO PUSH2 0x572 JUMPI DUP1 PUSH1 0x1F LT PUSH2 0x547 JUMPI PUSH2 0x100 DUP1 DUP4 SLOAD DIV MUL DUP4 MSTORE SWAP2 PUSH1 0x20 ADD SWAP2 PUSH2 0x572 JUMP JUMPDEST DUP3 ADD SWAP2 SWAP1 PUSH1 0x0 MSTORE PUSH1 0x20 PUSH1 0x0 KECCAK256 SWAP1 JUMPDEST DUP2 SLOAD DUP2 MSTORE SWAP1 PUSH1 0x1 ADD SWAP1 PUSH1 0x20 ADD DUP1 DUP4 GT PUSH2 0x555 JUMPI DUP3 SWAP1 SUB PUSH1 0x1F AND DUP3 ADD SWAP2 JUMPDEST POP POP POP POP POP PUSH1 0x40 MLOAD DUP1 PUSH1 0x20 ADD PUSH1 0x40 MSTORE DUP1 PUSH1 0x0 DUP2 MSTORE POP PUSH2 0xBC4 JUMP JUMPDEST ISZERO PUSH2 0x5B3 JUMPI PUSH1 0x1 PUSH1 0x3 PUSH1 0x1 ADD PUSH1 0x0 DUP3 DUP3 SLOAD PUSH2 0x5A7 SWAP2 SWAP1 PUSH2 0x1303 JUMP JUMPDEST SWAP3 POP POP DUP2 SWAP1 SSTORE POP PUSH2 0x6D5 JUMP JUMPDEST PUSH2 0x663 PUSH1 0x2 DUP6 PUSH1 0x40 MLOAD PUSH2 0x5C6 SWAP2 SWAP1 PUSH2 0x12BD JUMP JUMPDEST SWAP1 DUP2 MSTORE PUSH1 0x20 ADD PUSH1 0x40 MLOAD DUP1 SWAP2 SUB SWAP1 KECCAK256 DUP1 SLOAD PUSH2 0x5DF SWAP1 PUSH2 0x1178 JUMP JUMPDEST DUP1 PUSH1 0x1F ADD PUSH1 0x20 DUP1 SWAP2 DIV MUL PUSH1 0x20 ADD PUSH1 0x40 MLOAD SWAP1 DUP2 ADD PUSH1 0x40 MSTORE DUP1 SWAP3 SWAP2 SWAP1 DUP2 DUP2 MSTORE PUSH1 0x20 ADD DUP3 DUP1 SLOAD PUSH2 0x60B SWAP1 PUSH2 0x1178 JUMP JUMPDEST DUP1 ISZERO PUSH2 0x658 JUMPI DUP1 PUSH1 0x1F LT PUSH2 0x62D JUMPI PUSH2 0x100 DUP1 DUP4 SLOAD DIV MUL DUP4 MSTORE SWAP2 PUSH1 0x20 ADD SWAP2 PUSH2 0x658 JUMP JUMPDEST DUP3 ADD SWAP2 SWAP1 PUSH1 0x0 MSTORE PUSH1 0x20 PUSH1 0x0 KECCAK256 SWAP1 JUMPDEST DUP2 SLOAD DUP2 MSTORE SWAP1 PUSH1 0x1 ADD SWAP1 PUSH1 0x20 ADD DUP1 DUP4 GT PUSH2 0x63B JUMPI DUP3 SWAP1 SUB PUSH1 0x1F AND DUP3 ADD SWAP2 JUMPDEST POP POP POP POP POP DUP5 PUSH2 0xBC4 JUMP JUMPDEST ISZERO PUSH2 0x68A JUMPI PUSH1 0x1 PUSH1 0x3 PUSH1 0x2 ADD PUSH1 0x0 DUP3 DUP3 SLOAD PUSH2 0x67E SWAP2 SWAP1 PUSH2 0x1303 JUMP JUMPDEST SWAP3 POP POP DUP2 SWAP1 SSTORE POP PUSH2 0x6D4 JUMP JUMPDEST PUSH1 0x1 PUSH1 0x3 PUSH1 0x0 ADD PUSH1 0x0 DUP3 DUP3 SLOAD PUSH2 0x6A0 SWAP2 SWAP1 PUSH2 0x1303 JUMP JUMPDEST SWAP3 POP POP DUP2 SWAP1 SSTORE POP PUSH32 0x9155208B51995E04C988EB045EF59AF0F5F785F942CB81688516362B62D8FAC0 PUSH1 0x40 MLOAD PUSH1 0x40 MLOAD DUP1 SWAP2 SUB SWAP1 LOG1 JUMPDEST JUMPDEST POP POP POP POP JUMP JUMPDEST DUP1 PUSH1 0x0 DUP1 SLOAD SWAP1 PUSH2 0x100 EXP SWAP1 DIV PUSH20 0xFFFFFFFFFFFFFFFFFFFFFFFFFFFFFFFFFFFFFFFF AND PUSH20 0xFFFFFFFFFFFFFFFFFFFFFFFFFFFFFFFFFFFFFFFF AND DUP2 PUSH20 0xFFFFFFFFFFFFFFFFFFFFFFFFFFFFFFFFFFFFFFFF AND EQ PUSH2 0x76A JUMPI PUSH1 0x40 MLOAD PUSH32 0x8C379A000000000000000000000000000000000000000000000000000000000 DUP2 MSTORE PUSH1 0x4 ADD PUSH2 0x761 SWAP1 PUSH2 0x11F5 JUMP JUMPDEST PUSH1 0x40 MLOAD DUP1 SWAP2 SUB SWAP1 REVERT JUMPDEST DUP3 PUSH1 0x2 DUP6 PUSH1 0x40 MLOAD PUSH2 0x77B SWAP2 SWAP1 PUSH2 0x12BD JUMP JUMPDEST SWAP1 DUP2 MSTORE PUSH1 0x20 ADD PUSH1 0x40 MLOAD DUP1 SWAP2 SUB SWAP1 KECCAK256 SWAP1 DUP2 PUSH2 0x795 SWAP2 SWAP1 PUSH2 0x14E3 JUMP JUMPDEST POP POP POP POP POP JUMP JUMPDEST PUSH1 0x2 DUP2 DUP1 MLOAD PUSH1 0x20 DUP2 ADD DUP3 ADD DUP1 MLOAD DUP5 DUP3 MSTORE PUSH1 0x20 DUP4 ADD PUSH1 0x20 DUP6 ADD KECCAK256 DUP2 DUP4 MSTORE DUP1 SWAP6 POP POP POP POP POP POP PUSH1 0x0 SWAP2 POP SWAP1 POP DUP1 SLOAD PUSH2 0x7D1 SWAP1 PUSH2 0x1178 JUMP JUMPDEST DUP1 PUSH1 0x1F ADD PUSH1 0x20 DUP1 SWAP2 DIV MUL PUSH1 0x20 ADD PUSH1 0x40 MLOAD SWAP1 DUP2 ADD PUSH1 0x40 MSTORE DUP1 SWAP3 SWAP2 SWAP1 DUP2 DUP2 MSTORE PUSH1 0x20 ADD DUP3 DUP1 SLOAD PUSH2 0x7FD SWAP1 PUSH2 0x1178 JUMP JUMPDEST DUP1 ISZERO PUSH2 0x84A JUMPI DUP1 PUSH1 0x1F LT PUSH2 0x81F JUMPI PUSH2 0x100 DUP1 DUP4 SLOAD DIV MUL DUP4 MSTORE SWAP2 PUSH1 0x20 ADD SWAP2 PUSH2 0x84A JUMP JUMPDEST DUP3 ADD SWAP2 SWAP1 PUSH1 0x0 MSTORE PUSH1 0x20 PUSH1 0x0 KECCAK256 SWAP1 JUMPDEST DUP2 SLOAD DUP2 MSTORE SWAP1 PUSH1 0x1 ADD SWAP1 PUSH1 0x20 ADD DUP1 DUP4 GT PUSH2 0x82D JUMPI DUP3 SWAP1 SUB PUSH1 0x1F AND DUP3 ADD SWAP2 JUMPDEST POP POP POP POP POP DUP2 JUMP JUMPDEST PUSH1 0x3 DUP1 PUSH1 0x0 ADD SLOAD SWAP1 DUP1 PUSH1 0x1 ADD SLOAD SWAP1 DUP1 PUSH1 0x2 ADD SLOAD SWAP1 DUP1 PUSH1 0x3 ADD DUP1 SLOAD PUSH2 0x875 SWAP1 PUSH2 0x1178 JUMP JUMPDEST DUP1 PUSH1 0x1F ADD PUSH1 0x20 DUP1 SWAP2 DIV MUL PUSH1 0x20 ADD PUSH1 0x40 MLOAD SWAP1 DUP2 ADD PUSH1 0x40 MSTORE DUP1 SWAP3 SWAP2 SWAP1 DUP2 DUP2 MSTORE PUSH1 0x20 ADD DUP3 DUP1 SLOAD PUSH2 0x8A1 SWAP1 PUSH2 0x1178 JUMP JUMPDEST DUP1 ISZERO PUSH2 0x8EE JUMPI DUP1 PUSH1 0x1F LT PUSH2 0x8C3 JUMPI PUSH2 0x100 DUP1 DUP4 SLOAD DIV MUL DUP4 MSTORE SWAP2 PUSH1 0x20 ADD SWAP2 PUSH2 0x8EE JUMP JUMPDEST DUP3 ADD SWAP2 SWAP1 PUSH1 0x0 MSTORE PUSH1 0x20 PUSH1 0x0 KECCAK256 SWAP1 JUMPDEST DUP2 SLOAD DUP2 MSTORE SWAP1 PUSH1 0x1 ADD SWAP1 PUSH1 0x20 ADD DUP1 DUP4 GT PUSH2 0x8D1 JUMPI DUP3 SWAP1 SUB PUSH1 0x1F AND DUP3 ADD SWAP2 JUMPDEST POP POP POP POP POP SWAP1 DUP1 PUSH1 0x4 ADD PUSH1 0x0 SWAP1 SLOAD SWAP1 PUSH2 0x100 EXP SWAP1 DIV PUSH20 0xFFFFFFFFFFFFFFFFFFFFFFFFFFFFFFFFFFFFFFFF AND SWAP1 DUP1 PUSH1 0x5 ADD SLOAD SWAP1 POP DUP7 JUMP JUMPDEST DUP1 PUSH1 0x0 DUP1 SLOAD SWAP1 PUSH2 0x100 EXP SWAP1 DIV PUSH20 0xFFFFFFFFFFFFFFFFFFFFFFFFFFFFFFFFFFFFFFFF AND PUSH20 0xFFFFFFFFFFFFFFFFFFFFFFFFFFFFFFFFFFFFFFFF AND DUP2 PUSH20 0xFFFFFFFFFFFFFFFFFFFFFFFFFFFFFFFFFFFFFFFF AND EQ PUSH2 0x9B3 JUMPI PUSH1 0x40 MLOAD PUSH32 0x8C379A000000000000000000000000000000000000000000000000000000000 DUP2 MSTORE PUSH1 0x4 ADD PUSH2 0x9AA SWAP1 PUSH2 0x11F5 JUMP JUMPDEST PUSH1 0x40 MLOAD DUP1 SWAP2 SUB SWAP1 REVERT JUMPDEST TIMESTAMP PUSH1 0x3 PUSH1 0x5 ADD DUP2 SWAP1 SSTORE POP PUSH1 0x9 PUSH1 0x3 SWAP1 DUP1 PUSH1 0x1 DUP2 SLOAD ADD DUP1 DUP3 SSTORE DUP1 SWAP2 POP POP PUSH1 0x1 SWAP1 SUB SWAP1 PUSH1 0x0 MSTORE PUSH1 0x20 PUSH1 0x0 KECCAK256 SWAP1 PUSH1 0x6 MUL ADD PUSH1 0x0 SWAP1 SWAP2 SWAP1 SWAP2 SWAP1 SWAP2 POP PUSH1 0x0 DUP3 ADD SLOAD DUP2 PUSH1 0x0 ADD SSTORE PUSH1 0x1 DUP3 ADD SLOAD DUP2 PUSH1 0x1 ADD SSTORE PUSH1 0x2 DUP3 ADD SLOAD DUP2 PUSH1 0x2 ADD SSTORE PUSH1 0x3 DUP3 ADD DUP2 PUSH1 0x3 ADD SWAP1 DUP2 PUSH2 0xA1C SWAP2 SWAP1 PUSH2 0x15CB JUMP JUMPDEST POP PUSH1 0x4 DUP3 ADD PUSH1 0x0 SWAP1 SLOAD SWAP1 PUSH2 0x100 EXP SWAP1 DIV PUSH20 0xFFFFFFFFFFFFFFFFFFFFFFFFFFFFFFFFFFFFFFFF AND DUP2 PUSH1 0x4 ADD PUSH1 0x0 PUSH2 0x100 EXP DUP2 SLOAD DUP2 PUSH20 0xFFFFFFFFFFFFFFFFFFFFFFFFFFFFFFFFFFFFFFFF MUL NOT AND SWAP1 DUP4 PUSH20 0xFFFFFFFFFFFFFFFFFFFFFFFFFFFFFFFFFFFFFFFF AND MUL OR SWAP1 SSTORE POP PUSH1 0x5 DUP3 ADD SLOAD DUP2 PUSH1 0x5 ADD SSTORE POP POP PUSH1 0x0 PUSH1 0x3 PUSH1 0x0 ADD DUP2 SWAP1 SSTORE POP PUSH1 0x0 PUSH1 0x3 PUSH1 0x2 ADD DUP2 SWAP1 SSTORE POP PUSH1 0x0 PUSH1 0x3 PUSH1 0x1 ADD DUP2 SWAP1 SSTORE POP DUP3 PUSH1 0x3 PUSH1 0x4 ADD PUSH1 0x0 PUSH2 0x100 EXP DUP2 SLOAD DUP2 PUSH20 0xFFFFFFFFFFFFFFFFFFFFFFFFFFFFFFFFFFFFFFFF MUL NOT AND SWAP1 DUP4 PUSH20 0xFFFFFFFFFFFFFFFFFFFFFFFFFFFFFFFFFFFFFFFF AND MUL OR SWAP1 SSTORE POP DUP4 PUSH1 0x3 DUP1 ADD SWAP1 DUP2 PUSH2 0xB06 SWAP2 SWAP1 PUSH2 0x14E3 JUMP JUMPDEST POP POP POP POP POP JUMP JUMPDEST PUSH1 0x0 DUP1 PUSH1 0x0 PUSH1 0x60 PUSH1 0x3 PUSH1 0x2 ADD SLOAD PUSH1 0x3 PUSH1 0x0 ADD SLOAD PUSH1 0x3 PUSH1 0x1 ADD SLOAD PUSH1 0x3 DUP1 ADD DUP1 DUP1 SLOAD PUSH2 0xB36 SWAP1 PUSH2 0x1178 JUMP JUMPDEST DUP1 PUSH1 0x1F ADD PUSH1 0x20 DUP1 SWAP2 DIV MUL PUSH1 0x20 ADD PUSH1 0x40 MLOAD SWAP1 DUP2 ADD PUSH1 0x40 MSTORE DUP1 SWAP3 SWAP2 SWAP1 DUP2 DUP2 MSTORE PUSH1 0x20 ADD DUP3 DUP1 SLOAD PUSH2 0xB62 SWAP1 PUSH2 0x1178 JUMP JUMPDEST DUP1 ISZERO PUSH2 0xBAF JUMPI DUP1 PUSH1 0x1F LT PUSH2 0xB84 JUMPI PUSH2 0x100 DUP1 DUP4 SLOAD DIV MUL DUP4 MSTORE SWAP2 PUSH1 0x20 ADD SWAP2 PUSH2 0xBAF JUMP JUMPDEST DUP3 ADD SWAP2 SWAP1 PUSH1 0x0 MSTORE PUSH1 0x20 PUSH1 0x0 KECCAK256 SWAP1 JUMPDEST DUP2 SLOAD DUP2 MSTORE SWAP1 PUSH1 0x1 ADD SWAP1 PUSH1 0x20 ADD DUP1 DUP4 GT PUSH2 0xB92 JUMPI DUP3 SWAP1 SUB PUSH1 0x1F AND DUP3 ADD SWAP2 JUMPDEST POP POP POP POP POP SWAP1 POP SWAP4 POP SWAP4 POP SWAP4 POP SWAP4 POP SWAP1 SWAP2 SWAP3 SWAP4 JUMP JUMPDEST PUSH1 0x0 DUP2 PUSH1 0x40 MLOAD PUSH1 0x20 ADD PUSH2 0xBD7 SWAP2 SWAP1 PUSH2 0x12BD JUMP JUMPDEST PUSH1 0x40 MLOAD PUSH1 0x20 DUP2 DUP4 SUB SUB DUP2 MSTORE SWAP1 PUSH1 0x40 MSTORE DUP1 MLOAD SWAP1 PUSH1 0x20 ADD KECCAK256 DUP4 PUSH1 0x40 MLOAD PUSH1 0x20 ADD PUSH2 0xBFE SWAP2 SWAP1 PUSH2 0x12BD JUMP JUMPDEST PUSH1 0x40 MLOAD PUSH1 0x20 DUP2 DUP4 SUB SUB DUP2 MSTORE SWAP1 PUSH1 0x40 MSTORE DUP1 MLOAD SWAP1 PUSH1 0x20 ADD KECCAK256 EQ SWAP1 POP SWAP3 SWAP2 POP POP JUMP JUMPDEST PUSH1 0x0 PUSH1 0x40 MLOAD SWAP1 POP SWAP1 JUMP JUMPDEST PUSH1 0x0 DUP1 REVERT JUMPDEST PUSH1 0x0 DUP1 REVERT JUMPDEST PUSH1 0x0 DUP2 SWAP1 POP SWAP2 SWAP1 POP JUMP JUMPDEST PUSH2 0xC44 DUP2 PUSH2 0xC31 JUMP JUMPDEST DUP2 EQ PUSH2 0xC4F JUMPI PUSH1 0x0 DUP1 REVERT JUMPDEST POP JUMP JUMPDEST PUSH1 0x0 DUP2 CALLDATALOAD SWAP1 POP PUSH2 0xC61 DUP2 PUSH2 0xC3B JUMP JUMPDEST SWAP3 SWAP2 POP POP JUMP JUMPDEST PUSH1 0x0 PUSH1 0x20 DUP3 DUP5 SUB SLT ISZERO PUSH2 0xC7D JUMPI PUSH2 0xC7C PUSH2 0xC27 JUMP JUMPDEST JUMPDEST PUSH1 0x0 PUSH2 0xC8B DUP5 DUP3 DUP6 ADD PUSH2 0xC52 JUMP JUMPDEST SWAP2 POP POP SWAP3 SWAP2 POP POP JUMP JUMPDEST PUSH2 0xC9D DUP2 PUSH2 0xC31 JUMP JUMPDEST DUP3 MSTORE POP POP JUMP JUMPDEST PUSH1 0x0 DUP2 MLOAD SWAP1 POP SWAP2 SWAP1 POP JUMP JUMPDEST PUSH1 0x0 DUP3 DUP3 MSTORE PUSH1 0x20 DUP3 ADD SWAP1 POP SWAP3 SWAP2 POP POP JUMP JUMPDEST PUSH1 0x0 JUMPDEST DUP4 DUP2 LT ISZERO PUSH2 0xCDD JUMPI DUP1 DUP3 ADD MLOAD DUP2 DUP5 ADD MSTORE PUSH1 0x20 DUP2 ADD SWAP1 POP PUSH2 0xCC2 JUMP JUMPDEST PUSH1 0x0 DUP5 DUP5 ADD MSTORE POP POP POP POP JUMP JUMPDEST PUSH1 0x0 PUSH1 0x1F NOT PUSH1 0x1F DUP4 ADD AND SWAP1 POP SWAP2 SWAP1 POP JUMP JUMPDEST PUSH1 0x0 PUSH2 0xD05 DUP3 PUSH2 0xCA3 JUMP JUMPDEST PUSH2 0xD0F DUP2 DUP6 PUSH2 0xCAE JUMP JUMPDEST SWAP4 POP PUSH2 0xD1F DUP2 DUP6 PUSH1 0x20 DUP7 ADD PUSH2 0xCBF JUMP JUMPDEST PUSH2 0xD28 DUP2 PUSH2 0xCE9 JUMP JUMPDEST DUP5 ADD SWAP2 POP POP SWAP3 SWAP2 POP POP JUMP JUMPDEST PUSH1 0x0 PUSH20 0xFFFFFFFFFFFFFFFFFFFFFFFFFFFFFFFFFFFFFFFF DUP3 AND SWAP1 POP SWAP2 SWAP1 POP JUMP JUMPDEST PUSH1 0x0 PUSH2 0xD5E DUP3 PUSH2 0xD33 JUMP JUMPDEST SWAP1 POP SWAP2 SWAP1 POP JUMP JUMPDEST PUSH2 0xD6E DUP2 PUSH2 0xD53 JUMP JUMPDEST DUP3 MSTORE POP POP JUMP JUMPDEST PUSH1 0x0 PUSH1 0xC0 DUP3 ADD SWAP1 POP PUSH2 0xD89 PUSH1 0x0 DUP4 ADD DUP10 PUSH2 0xC94 JUMP JUMPDEST PUSH2 0xD96 PUSH1 0x20 DUP4 ADD DUP9 PUSH2 0xC94 JUMP JUMPDEST PUSH2 0xDA3 PUSH1 0x40 DUP4 ADD DUP8 PUSH2 0xC94 JUMP JUMPDEST DUP2 DUP2 SUB PUSH1 0x60 DUP4 ADD MSTORE PUSH2 0xDB5 DUP2 DUP7 PUSH2 0xCFA JUMP JUMPDEST SWAP1 POP PUSH2 0xDC4 PUSH1 0x80 DUP4 ADD DUP6 PUSH2 0xD65 JUMP JUMPDEST PUSH2 0xDD1 PUSH1 0xA0 DUP4 ADD DUP5 PUSH2 0xC94 JUMP JUMPDEST SWAP8 SWAP7 POP POP POP POP POP POP POP JUMP JUMPDEST PUSH1 0x0 PUSH1 0x20 DUP3 ADD SWAP1 POP PUSH2 0xDF1 PUSH1 0x0 DUP4 ADD DUP5 PUSH2 0xD65 JUMP JUMPDEST SWAP3 SWAP2 POP POP JUMP JUMPDEST PUSH2 0xE00 DUP2 PUSH2 0xD53 JUMP JUMPDEST DUP2 EQ PUSH2 0xE0B JUMPI PUSH1 0x0 DUP1 REVERT JUMPDEST POP JUMP JUMPDEST PUSH1 0x0 DUP2 CALLDATALOAD SWAP1 POP PUSH2 0xE1D DUP2 PUSH2 0xDF7 JUMP JUMPDEST SWAP3 SWAP2 POP POP JUMP JUMPDEST PUSH1 0x0 DUP1 PUSH1 0x40 DUP4 DUP6 SUB SLT ISZERO PUSH2 0xE3A JUMPI PUSH2 0xE39 PUSH2 0xC27 JUMP JUMPDEST JUMPDEST PUSH1 0x0 PUSH2 0xE48 DUP6 DUP3 DUP7 ADD PUSH2 0xE0E JUMP JUMPDEST SWAP3 POP POP PUSH1 0x20 PUSH2 0xE59 DUP6 DUP3 DUP7 ADD PUSH2 0xE0E JUMP JUMPDEST SWAP2 POP POP SWAP3 POP SWAP3 SWAP1 POP JUMP JUMPDEST PUSH1 0x0 DUP1 REVERT JUMPDEST PUSH1 0x0 DUP1 REVERT JUMPDEST PUSH32 0x4E487B7100000000000000000000000000000000000000000000000000000000 PUSH1 0x0 MSTORE PUSH1 0x41 PUSH1 0x4 MSTORE PUSH1 0x24 PUSH1 0x0 REVERT JUMPDEST PUSH2 0xEA5 DUP3 PUSH2 0xCE9 JUMP JUMPDEST DUP2 ADD DUP2 DUP2 LT PUSH8 0xFFFFFFFFFFFFFFFF DUP3 GT OR ISZERO PUSH2 0xEC4 JUMPI PUSH2 0xEC3 PUSH2 0xE6D JUMP JUMPDEST JUMPDEST DUP1 PUSH1 0x40 MSTORE POP POP POP JUMP JUMPDEST PUSH1 0x0 PUSH2 0xED7 PUSH2 0xC1D JUMP JUMPDEST SWAP1 POP PUSH2 0xEE3 DUP3 DUP3 PUSH2 0xE9C JUMP JUMPDEST SWAP2 SWAP1 POP JUMP JUMPDEST PUSH1 0x0 PUSH8 0xFFFFFFFFFFFFFFFF DUP3 GT ISZERO PUSH2 0xF03 JUMPI PUSH2 0xF02 PUSH2 0xE6D JUMP JUMPDEST JUMPDEST PUSH2 0xF0C DUP3 PUSH2 0xCE9 JUMP JUMPDEST SWAP1 POP PUSH1 0x20 DUP2 ADD SWAP1 POP SWAP2 SWAP1 POP JUMP JUMPDEST DUP3 DUP2 DUP4 CALLDATACOPY PUSH1 0x0 DUP4 DUP4 ADD MSTORE POP POP POP JUMP JUMPDEST PUSH1 0x0 PUSH2 0xF3B PUSH2 0xF36 DUP5 PUSH2 0xEE8 JUMP JUMPDEST PUSH2 0xECD JUMP JUMPDEST SWAP1 POP DUP3 DUP2 MSTORE PUSH1 0x20 DUP2 ADD DUP5 DUP5 DUP5 ADD GT ISZERO PUSH2 0xF57 JUMPI PUSH2 0xF56 PUSH2 0xE68 JUMP JUMPDEST JUMPDEST PUSH2 0xF62 DUP5 DUP3 DUP6 PUSH2 0xF19 JUMP JUMPDEST POP SWAP4 SWAP3 POP POP POP JUMP JUMPDEST PUSH1 0x0 DUP3 PUSH1 0x1F DUP4 ADD SLT PUSH2 0xF7F JUMPI PUSH2 0xF7E PUSH2 0xE63 JUMP JUMPDEST JUMPDEST DUP2 CALLDATALOAD PUSH2 0xF8F DUP5 DUP3 PUSH1 0x20 DUP7 ADD PUSH2 0xF28 JUMP JUMPDEST SWAP2 POP POP SWAP3 SWAP2 POP POP JUMP JUMPDEST PUSH1 0x0 DUP1 PUSH1 0x0 PUSH1 0x60 DUP5 DUP7 SUB SLT ISZERO PUSH2 0xFB1 JUMPI PUSH2 0xFB0 PUSH2 0xC27 JUMP JUMPDEST JUMPDEST PUSH1 0x0 DUP5 ADD CALLDATALOAD PUSH8 0xFFFFFFFFFFFFFFFF DUP2 GT ISZERO PUSH2 0xFCF JUMPI PUSH2 0xFCE PUSH2 0xC2C JUMP JUMPDEST JUMPDEST PUSH2 0xFDB DUP7 DUP3 DUP8 ADD PUSH2 0xF6A JUMP JUMPDEST SWAP4 POP POP PUSH1 0x20 DUP5 ADD CALLDATALOAD PUSH8 0xFFFFFFFFFFFFFFFF DUP2 GT ISZERO PUSH2 0xFFC JUMPI PUSH2 0xFFB PUSH2 0xC2C JUMP JUMPDEST JUMPDEST PUSH2 0x1008 DUP7 DUP3 DUP8 ADD PUSH2 0xF6A JUMP JUMPDEST SWAP3 POP POP PUSH1 0x40 PUSH2 0x1019 DUP7 DUP3 DUP8 ADD PUSH2 0xE0E JUMP JUMPDEST SWAP2 POP POP SWAP3 POP SWAP3 POP SWAP3 JUMP JUMPDEST PUSH1 0x0 PUSH1 0x20 DUP3 DUP5 SUB SLT ISZERO PUSH2 0x1039 JUMPI PUSH2 0x1038 PUSH2 0xC27 JUMP JUMPDEST JUMPDEST PUSH1 0x0 DUP3 ADD CALLDATALOAD PUSH8 0xFFFFFFFFFFFFFFFF DUP2 GT ISZERO PUSH2 0x1057 JUMPI PUSH2 0x1056 PUSH2 0xC2C JUMP JUMPDEST JUMPDEST PUSH2 0x1063 DUP5 DUP3 DUP6 ADD PUSH2 0xF6A JUMP JUMPDEST SWAP2 POP POP SWAP3 SWAP2 POP POP JUMP JUMPDEST PUSH1 0x0 PUSH1 0x20 DUP3 ADD SWAP1 POP DUP2 DUP2 SUB PUSH1 0x0 DUP4 ADD MSTORE PUSH2 0x1086 DUP2 DUP5 PUSH2 0xCFA JUMP JUMPDEST SWAP1 POP SWAP3 SWAP2 POP POP JUMP JUMPDEST PUSH1 0x0 DUP1 PUSH1 0x0 PUSH1 0x60 DUP5 DUP7 SUB SLT ISZERO PUSH2 0x10A7 JUMPI PUSH2 0x10A6 PUSH2 0xC27 JUMP JUMPDEST JUMPDEST PUSH1 0x0 DUP5 ADD CALLDATALOAD PUSH8 0xFFFFFFFFFFFFFFFF DUP2 GT ISZERO PUSH2 0x10C5 JUMPI PUSH2 0x10C4 PUSH2 0xC2C JUMP JUMPDEST JUMPDEST PUSH2 0x10D1 DUP7 DUP3 DUP8 ADD PUSH2 0xF6A JUMP JUMPDEST SWAP4 POP POP PUSH1 0x20 PUSH2 0x10E2 DUP7 DUP3 DUP8 ADD PUSH2 0xE0E JUMP JUMPDEST SWAP3 POP POP PUSH1 0x40 PUSH2 0x10F3 DUP7 DUP3 DUP8 ADD PUSH2 0xE0E JUMP JUMPDEST SWAP2 POP POP SWAP3 POP SWAP3 POP SWAP3 JUMP JUMPDEST PUSH1 0x0 PUSH1 0x80 DUP3 ADD SWAP1 POP PUSH2 0x1112 PUSH1 0x0 DUP4 ADD DUP8 PUSH2 0xC94 JUMP JUMPDEST PUSH2 0x111F PUSH1 0x20 DUP4 ADD DUP7 PUSH2 0xC94 JUMP JUMPDEST PUSH2 0x112C PUSH1 0x40 DUP4 ADD DUP6 PUSH2 0xC94 JUMP JUMPDEST DUP2 DUP2 SUB PUSH1 0x60 DUP4 ADD MSTORE PUSH2 0x113E DUP2 DUP5 PUSH2 0xCFA JUMP JUMPDEST SWAP1 POP SWAP6 SWAP5 POP POP POP POP POP JUMP JUMPDEST PUSH32 0x4E487B7100000000000000000000000000000000000000000000000000000000 PUSH1 0x0 MSTORE PUSH1 0x22 PUSH1 0x4 MSTORE PUSH1 0x24 PUSH1 0x0 REVERT JUMPDEST PUSH1 0x0 PUSH1 0x2 DUP3 DIV SWAP1 POP PUSH1 0x1 DUP3 AND DUP1 PUSH2 0x1190 JUMPI PUSH1 0x7F DUP3 AND SWAP2 POP JUMPDEST PUSH1 0x20 DUP3 LT DUP2 SUB PUSH2 0x11A3 JUMPI PUSH2 0x11A2 PUSH2 0x1149 JUMP JUMPDEST JUMPDEST POP SWAP2 SWAP1 POP JUMP JUMPDEST PUSH32 0x43616C6C6572206973206E6F7420636F6E74726F6C6C65720000000000000000 PUSH1 0x0 DUP3 ADD MSTORE POP JUMP JUMPDEST PUSH1 0x0 PUSH2 0x11DF PUSH1 0x18 DUP4 PUSH2 0xCAE JUMP JUMPDEST SWAP2 POP PUSH2 0x11EA DUP3 PUSH2 0x11A9 JUMP JUMPDEST PUSH1 0x20 DUP3 ADD SWAP1 POP SWAP2 SWAP1 POP JUMP JUMPDEST PUSH1 0x0 PUSH1 0x20 DUP3 ADD SWAP1 POP DUP2 DUP2 SUB PUSH1 0x0 DUP4 ADD MSTORE PUSH2 0x120E DUP2 PUSH2 0x11D2 JUMP JUMPDEST SWAP1 POP SWAP2 SWAP1 POP JUMP JUMPDEST PUSH32 0x43616C6C6572206973206E6F7420656772657373206564676500000000000000 PUSH1 0x0 DUP3 ADD MSTORE POP JUMP JUMPDEST PUSH1 0x0 PUSH2 0x124B PUSH1 0x19 DUP4 PUSH2 0xCAE JUMP JUMPDEST SWAP2 POP PUSH2 0x1256 DUP3 PUSH2 0x1215 JUMP JUMPDEST PUSH1 0x20 DUP3 ADD SWAP1 POP SWAP2 SWAP1 POP JUMP JUMPDEST PUSH1 0x0 PUSH1 0x20 DUP3 ADD SWAP1 POP DUP2 DUP2 SUB PUSH1 0x0 DUP4 ADD MSTORE PUSH2 0x127A DUP2 PUSH2 0x123E JUMP JUMPDEST SWAP1 POP SWAP2 SWAP1 POP JUMP JUMPDEST PUSH1 0x0 DUP2 SWAP1 POP SWAP3 SWAP2 POP POP JUMP JUMPDEST PUSH1 0x0 PUSH2 0x1297 DUP3 PUSH2 0xCA3 JUMP JUMPDEST PUSH2 0x12A1 DUP2 DUP6 PUSH2 0x1281 JUMP JUMPDEST SWAP4 POP PUSH2 0x12B1 DUP2 DUP6 PUSH1 0x20 DUP7 ADD PUSH2 0xCBF JUMP JUMPDEST DUP1 DUP5 ADD SWAP2 POP POP SWAP3 SWAP2 POP POP JUMP JUMPDEST PUSH1 0x0 PUSH2 0x12C9 DUP3 DUP5 PUSH2 0x128C JUMP JUMPDEST SWAP2 POP DUP2 SWAP1 POP SWAP3 SWAP2 POP POP JUMP JUMPDEST PUSH32 0x4E487B7100000000000000000000000000000000000000000000000000000000 PUSH1 0x0 MSTORE PUSH1 0x11 PUSH1 0x4 MSTORE PUSH1 0x24 PUSH1 0x0 REVERT JUMPDEST PUSH1 0x0 PUSH2 0x130E DUP3 PUSH2 0xC31 JUMP JUMPDEST SWAP2 POP PUSH2 0x1319 DUP4 PUSH2 0xC31 JUMP JUMPDEST SWAP3 POP DUP3 DUP3 ADD SWAP1 POP DUP1 DUP3 GT ISZERO PUSH2 0x1331 JUMPI PUSH2 0x1330 PUSH2 0x12D4 JUMP JUMPDEST JUMPDEST SWAP3 SWAP2 POP POP JUMP JUMPDEST PUSH1 0x0 DUP2 SWAP1 POP DUP2 PUSH1 0x0 MSTORE PUSH1 0x20 PUSH1 0x0 KECCAK256 SWAP1 POP SWAP2 SWAP1 POP JUMP JUMPDEST PUSH1 0x0 PUSH1 0x20 PUSH1 0x1F DUP4 ADD DIV SWAP1 POP SWAP2 SWAP1 POP JUMP JUMPDEST PUSH1 0x0 DUP3 DUP3 SHL SWAP1 POP SWAP3 SWAP2 POP POP JUMP JUMPDEST PUSH1 0x0 PUSH1 0x8 DUP4 MUL PUSH2 0x1399 PUSH32 0xFFFFFFFFFFFFFFFFFFFFFFFFFFFFFFFFFFFFFFFFFFFFFFFFFFFFFFFFFFFFFFFF DUP3 PUSH2 0x135C JUMP JUMPDEST PUSH2 0x13A3 DUP7 DUP4 PUSH2 0x135C JUMP JUMPDEST SWAP6 POP DUP1 NOT DUP5 AND SWAP4 POP DUP1 DUP7 AND DUP5 OR SWAP3 POP POP POP SWAP4 SWAP3 POP POP POP JUMP JUMPDEST PUSH1 0x0 DUP2 SWAP1 POP SWAP2 SWAP1 POP JUMP JUMPDEST PUSH1 0x0 PUSH2 0x13E0 PUSH2 0x13DB PUSH2 0x13D6 DUP5 PUSH2 0xC31 JUMP JUMPDEST PUSH2 0x13BB JUMP JUMPDEST PUSH2 0xC31 JUMP JUMPDEST SWAP1 POP SWAP2 SWAP1 POP JUMP JUMPDEST PUSH1 0x0 DUP2 SWAP1 POP SWAP2 SWAP1 POP JUMP JUMPDEST PUSH2 0x13FA DUP4 PUSH2 0x13C5 JUMP JUMPDEST PUSH2 0x140E PUSH2 0x1406 DUP3 PUSH2 0x13E7 JUMP JUMPDEST DUP5 DUP5 SLOAD PUSH2 0x1369 JUMP JUMPDEST DUP3 SSTORE POP POP POP POP JUMP JUMPDEST PUSH1 0x0 SWAP1 JUMP JUMPDEST PUSH2 0x1423 PUSH2 0x1416 JUMP JUMPDEST PUSH2 0x142E DUP2 DUP5 DUP5 PUSH2 0x13F1 JUMP JUMPDEST POP POP POP JUMP JUMPDEST JUMPDEST DUP2 DUP2 LT ISZERO PUSH2 0x1452 JUMPI PUSH2 0x1447 PUSH1 0x0 DUP3 PUSH2 0x141B JUMP JUMPDEST PUSH1 0x1 DUP2 ADD SWAP1 POP PUSH2 0x1434 JUMP JUMPDEST POP POP JUMP JUMPDEST PUSH1 0x1F DUP3 GT ISZERO PUSH2 0x1497 JUMPI PUSH2 0x1468 DUP2 PUSH2 0x1337 JUMP JUMPDEST PUSH2 0x1471 DUP5 PUSH2 0x134C JUMP JUMPDEST DUP2 ADD PUSH1 0x20 DUP6 LT ISZERO PUSH2 0x1480 JUMPI DUP2 SWAP1 POP JUMPDEST PUSH2 0x1494 PUSH2 0x148C DUP6 PUSH2 0x134C JUMP JUMPDEST DUP4 ADD DUP3 PUSH2 0x1433 JUMP JUMPDEST POP POP JUMPDEST POP POP POP JUMP JUMPDEST PUSH1 0x0 DUP3 DUP3 SHR SWAP1 POP SWAP3 SWAP2 POP POP JUMP JUMPDEST PUSH1 0x0 PUSH2 0x14BA PUSH1 0x0 NOT DUP5 PUSH1 0x8 MUL PUSH2 0x149C JUMP JUMPDEST NOT DUP1 DUP4 AND SWAP2 POP POP SWAP3 SWAP2 POP POP JUMP JUMPDEST PUSH1 0x0 PUSH2 0x14D3 DUP4 DUP4 PUSH2 0x14A9 JUMP JUMPDEST SWAP2 POP DUP3 PUSH1 0x2 MUL DUP3 OR SWAP1 POP SWAP3 SWAP2 POP POP JUMP JUMPDEST PUSH2 0x14EC DUP3 PUSH2 0xCA3 JUMP JUMPDEST PUSH8 0xFFFFFFFFFFFFFFFF DUP2 GT ISZERO PUSH2 0x1505 JUMPI PUSH2 0x1504 PUSH2 0xE6D JUMP JUMPDEST JUMPDEST PUSH2 0x150F DUP3 SLOAD PUSH2 0x1178 JUMP JUMPDEST PUSH2 0x151A DUP3 DUP3 DUP6 PUSH2 0x1456 JUMP JUMPDEST PUSH1 0x0 PUSH1 0x20 SWAP1 POP PUSH1 0x1F DUP4 GT PUSH1 0x1 DUP2 EQ PUSH2 0x154D JUMPI PUSH1 0x0 DUP5 ISZERO PUSH2 0x153B JUMPI DUP3 DUP8 ADD MLOAD SWAP1 POP JUMPDEST PUSH2 0x1545 DUP6 DUP3 PUSH2 0x14C7 JUMP JUMPDEST DUP7 SSTORE POP PUSH2 0x15AD JUMP JUMPDEST PUSH1 0x1F NOT DUP5 AND PUSH2 0x155B DUP7 PUSH2 0x1337 JUMP JUMPDEST PUSH1 0x0 JUMPDEST DUP3 DUP2 LT ISZERO PUSH2 0x1583 JUMPI DUP5 DUP10 ADD MLOAD DUP3 SSTORE PUSH1 0x1 DUP3 ADD SWAP2 POP PUSH1 0x20 DUP6 ADD SWAP5 POP PUSH1 0x20 DUP2 ADD SWAP1 POP PUSH2 0x155E JUMP JUMPDEST DUP7 DUP4 LT ISZERO PUSH2 0x15A0 JUMPI DUP5 DUP10 ADD MLOAD PUSH2 0x159C PUSH1 0x1F DUP10 AND DUP3 PUSH2 0x14A9 JUMP JUMPDEST DUP4 SSTORE POP JUMPDEST PUSH1 0x1 PUSH1 0x2 DUP9 MUL ADD DUP9 SSTORE POP POP POP JUMPDEST POP POP POP POP POP POP JUMP JUMPDEST PUSH1 0x0 DUP2 SLOAD SWAP1 POP PUSH2 0x15C4 DUP2 PUSH2 0x1178 JUMP JUMPDEST SWAP1 POP SWAP2 SWAP1 POP JUMP JUMPDEST DUP2 DUP2 SUB PUSH2 0x15D9 JUMPI POP POP PUSH2 0x16B1 JUMP JUMPDEST PUSH2 0x15E2 DUP3 PUSH2 0x15B5 JUMP JUMPDEST PUSH8 0xFFFFFFFFFFFFFFFF DUP2 GT ISZERO PUSH2 0x15FB JUMPI PUSH2 0x15FA PUSH2 0xE6D JUMP JUMPDEST JUMPDEST PUSH2 0x1605 DUP3 SLOAD PUSH2 0x1178 JUMP JUMPDEST PUSH2 0x1610 DUP3 DUP3 DUP6 PUSH2 0x1456 JUMP JUMPDEST PUSH1 0x0 PUSH1 0x1F DUP4 GT PUSH1 0x1 DUP2 EQ PUSH2 0x163F JUMPI PUSH1 0x0 DUP5 ISZERO PUSH2 0x162D JUMPI DUP3 DUP8 ADD SLOAD SWAP1 POP JUMPDEST PUSH2 0x1637 DUP6 DUP3 PUSH2 0x14C7 JUMP JUMPDEST DUP7 SSTORE POP PUSH2 0x16AA JUMP JUMPDEST PUSH1 0x1F NOT DUP5 AND PUSH2 0x164D DUP8 PUSH2 0x1337 JUMP JUMPDEST SWAP7 POP PUSH2 0x1658 DUP7 PUSH2 0x1337 JUMP JUMPDEST PUSH1 0x0 JUMPDEST DUP3 DUP2 LT ISZERO PUSH2 0x1680 JUMPI DUP5 DUP10 ADD SLOAD DUP3 SSTORE PUSH1 0x1 DUP3 ADD SWAP2 POP PUSH1 0x1 DUP6 ADD SWAP5 POP PUSH1 0x20 DUP2 ADD SWAP1 POP PUSH2 0x165B JUMP JUMPDEST DUP7 DUP4 LT ISZERO PUSH2 0x169D JUMPI DUP5 DUP10 ADD SLOAD PUSH2 0x1699 PUSH1 0x1F DUP10 AND DUP3 PUSH2 0x14A9 JUMP JUMPDEST DUP4 SSTORE POP JUMPDEST PUSH1 0x1 PUSH1 0x2 DUP9 MUL ADD DUP9 SSTORE POP POP POP JUMPDEST POP POP POP POP POP POP JUMPDEST JUMP INVALID LOG2 PUSH5 0x6970667358 0x22 SLT KECCAK256 0xC9 PUSH13 0xE3D07B5CBE25264FE6D7AF8804 PC ISZERO PUSH28 0x171529E26331D890D6AD628C9F4364736F6C634300081A0033000000 "
		},
		"gasEstimates": {
			"creation": {
				"codeDepositCost": "1173000",
				"executionCost": "infinite",
				"totalCost": "infinite"
			},
			"external": {
				"changeController(address,address)": "infinite",
				"changeRouteIdAndEgressEdge(string,address,address)": "infinite",
				"current_route_id_audit()": "infinite",
				"getCompliance()": "infinite",
				"getController()": "2545",
				"logProbe(string,string,address)": "infinite",
				"probHash(string)": "infinite",
				"routesHistory(uint256)": "infinite",
				"setProbeHash(string,string,address)": "infinite"
			},
			"internal": {
				"compareStrings(string memory,string memory)": "infinite"
			}
		},
		"methodIdentifiers": {
			"changeController(address,address)": "3e11e378",
			"changeRouteIdAndEgressEdge(string,address,address)": "c543691a",
			"current_route_id_audit()": "bc5b5fe9",
			"getCompliance()": "ef040bb1",
			"getController()": "3018205f",
			"logProbe(string,string,address)": "9877afc5",
			"probHash(string)": "bb56d412",
			"routesHistory(uint256)": "2c039a4a",
			"setProbeHash(string,string,address)": "b68cc799"
		}
	},
	"abi": [
		{
			"inputs": [
				{
					"internalType": "address",
					"name": "controllerAddr",
					"type": "address"
				},
				{
					"internalType": "address",
					"name": "egress_edgeAddr",
					"type": "address"
				},
				{
					"internalType": "string",
					"name": "routeId",
					"type": "string"
				}
			],
			"stateMutability": "nonpayable",
			"type": "constructor"
		},
		{
			"anonymous": false,
			"inputs": [
				{
					"indexed": true,
					"internalType": "address",
					"name": "oldController",
					"type": "address"
				},
				{
					"indexed": true,
					"internalType": "address",
					"name": "newController",
					"type": "address"
				}
			],
			"name": "ControllerSet",
			"type": "event"
		},
		{
			"anonymous": false,
			"inputs": [],
			"name": "ProbeFail",
			"type": "event"
		},
		{
			"inputs": [
				{
					"internalType": "address",
					"name": "newController",
					"type": "address"
				},
				{
					"internalType": "address",
					"name": "senderAddr",
					"type": "address"
				}
			],
			"name": "changeController",
			"outputs": [],
			"stateMutability": "nonpayable",
			"type": "function"
		},
		{
			"inputs": [
				{
					"internalType": "string",
					"name": "newRouteId",
					"type": "string"
				},
				{
					"internalType": "address",
					"name": "newEgressEdge",
					"type": "address"
				},
				{
					"internalType": "address",
					"name": "senderAddr",
					"type": "address"
				}
			],
			"name": "changeRouteIdAndEgressEdge",
			"outputs": [],
			"stateMutability": "nonpayable",
			"type": "function"
		},
		{
			"inputs": [],
			"name": "current_route_id_audit",
			"outputs": [
				{
					"internalType": "uint256",
					"name": "probeFailAmount",
					"type": "uint256"
				},
				{
					"internalType": "uint256",
					"name": "probeNullAmount",
					"type": "uint256"
				},
				{
					"internalType": "uint256",
					"name": "probeSuccessAmount",
					"type": "uint256"
				},
				{
					"internalType": "string",
					"name": "routeId",
					"type": "string"
				},
				{
					"internalType": "address",
					"name": "egressEdge",
					"type": "address"
				},
				{
					"internalType": "uint256",
					"name": "lastTimestamp",
					"type": "uint256"
				}
			],
			"stateMutability": "view",
			"type": "function"
		},
		{
			"inputs": [],
			"name": "getCompliance",
			"outputs": [
				{
					"internalType": "uint256",
					"name": "",
					"type": "uint256"
				},
				{
					"internalType": "uint256",
					"name": "",
					"type": "uint256"
				},
				{
					"internalType": "uint256",
					"name": "",
					"type": "uint256"
				},
				{
					"internalType": "string",
					"name": "",
					"type": "string"
				}
			],
			"stateMutability": "view",
			"type": "function"
		},
		{
			"inputs": [],
			"name": "getController",
			"outputs": [
				{
					"internalType": "address",
					"name": "",
					"type": "address"
				}
			],
			"stateMutability": "view",
			"type": "function"
		},
		{
			"inputs": [
				{
					"internalType": "string",
					"name": "id_x",
					"type": "string"
				},
				{
					"internalType": "string",
					"name": "sig",
					"type": "string"
				},
				{
					"internalType": "address",
					"name": "senderAddr",
					"type": "address"
				}
			],
			"name": "logProbe",
			"outputs": [],
			"stateMutability": "nonpayable",
			"type": "function"
		},
		{
			"inputs": [
				{
					"internalType": "string",
					"name": "",
					"type": "string"
				}
			],
			"name": "probHash",
			"outputs": [
				{
					"internalType": "string",
					"name": "",
					"type": "string"
				}
			],
			"stateMutability": "view",
			"type": "function"
		},
		{
			"inputs": [
				{
					"internalType": "uint256",
					"name": "",
					"type": "uint256"
				}
			],
			"name": "routesHistory",
			"outputs": [
				{
					"internalType": "uint256",
					"name": "probeFailAmount",
					"type": "uint256"
				},
				{
					"internalType": "uint256",
					"name": "probeNullAmount",
					"type": "uint256"
				},
				{
					"internalType": "uint256",
					"name": "probeSuccessAmount",
					"type": "uint256"
				},
				{
					"internalType": "string",
					"name": "routeId",
					"type": "string"
				},
				{
					"internalType": "address",
					"name": "egressEdge",
					"type": "address"
				},
				{
					"internalType": "uint256",
					"name": "lastTimestamp",
					"type": "uint256"
				}
			],
			"stateMutability": "view",
			"type": "function"
		},
		{
			"inputs": [
				{
					"internalType": "string",
					"name": "id_x",
					"type": "string"
				},
				{
					"internalType": "string",
					"name": "hash",
					"type": "string"
				},
				{
					"internalType": "address",
					"name": "senderAddr",
					"type": "address"
				}
			],
			"name": "setProbeHash",
			"outputs": [],
			"stateMutability": "nonpayable",
			"type": "function"
		}
	]
}